:10000000008000202D4400009D0400009D0400009D
:100010009D0400009D0400009D04000000000000FD
:100020000000000000000000000000003106000099
:100030009D04000000000000510700001D0C00009E
:100040009D0400009D0400009D0400009D0400002C
:100050009D0400009D0400009D0400009D0400001C
:100060009D0400009D0400009D0400009D0400000C
:100070009D0400009D0400009D0400009D040000FC
:100080009D0400009D0400009D0400009D040000EC
:100090009D0400009D0400009D0400009D040000DC
:1000A0009D0400009D0400009D040000000000006D
:1000B0009D0400009D0400009D040000000000005D
:1000C000000000009D0400009D0400009D0400004D
:1000D0009D0400009D0400009D0400009D0400009C
:1000E0009D0400009D040000000000009D0400002D
:1000F000C92100009D0400009D0400009D04000033
:100100009D0400009D0400009D0400009D0400006B
:1001100000000000000000009D0400009D0400009D
:100120009D0400009D0400009D0400009D0400004B
:100130009D0400009D0400009D0400009D0400003B
:1001400000000000000000000000000000000000AF
:100150009D0400009D0400009D0400009D0400001B
:10016000000000000000000000000000000000008F
:10017000000000000000000000000000000000007F
:10018000000000000000000000000000000000006F
:10019000000000000000000000000000000000005F
:1001A000000000000000000000000000000000004F
:1001B0009D0400009D0400009D0400009D040000BB
:1001C0009D0400009D0400009D0400009D040000AB
:1001D0009D0400009D0400009D0400009D0400009B
:1001E0009D0400009D0400009D040000000000002C
:1001F000000000009D0400009D0400009D0400001C
:100200009D0400009D0400000000000000000000AC
:100210009D0400009D0400009D0400009D0400005A
:100220009D0400009D0400009D0400009D0400004A
:100230009D0400009D0400009D0400009D0400003A
:100240009D0400009D0400009D0400009D0400002A
:100250009D0400009D0400009D0400009D0400001A
:100260009D0400009D0400009D040000034613F857
:10027000012B002AFBD1181A0138704738B500EB62
:10028000C10181421ED90468A24219D34468A24226
:1002900016D2D0E900549542134420D1A342036002
:1002A0001BD14A1E121A431C22F007028B4288BF40
:1002B000002200F1080104F02DF94FF0FF3038BDA5
:1002C0000830DEE7E5D14FF0E023D3F8F03DDB075F
:1002D00000D500BE6FF00100F1E70020EFE7A34278
:1002E0004260FAD0C1E900340120E8E770B522F09D
:1002F0000304930804440546A54210D16FF003049B
:1003000004FB03232240012B00EB020481BF023BCC
:10031000825A0A8002340BB123780B7070BD55F8F5
:10032000046B0E60E8E770B522F003049308044400
:100330000546A54212D16FF0030404FB0323012BF1
:1003400002EA040284BF0D88855200EB020484BFD8
:10035000023B02340BB10B78237070BD0E6845F878
:10036000046BE6E72DE9F04F98460C23174E03FB8C
:1003700008F385B0894606EB030A01A9F358154630
:1003800007469847BDF80440DAF808B00298AC4236
:1003900028BF2C4622464946D8472C1B0AD0BDF818
:1003A00006A00398A24528BFA24652464946D84710
:1003B000A4EB0A040C2303FB0866291B736889B2AB
:1003C0003846984705B0BDE8F08F00BFB84600003A
:1003D0002DE9F84FC0F3C01800F07F07013FC8EBCC
:1003E000C804DFF884903C44023409EBC4044FEAAB
:1003F000C80BB4F8095035B9E57025716571A57160
:100400000120BDE8F88F164A3B0102EB071A9E5AFD
:10041000B6B2AE4228BF2E46AEB1B9F88630114909
:10042000D4F80300FB40DB0701EB870110D5012363
:100430003246FFF797FFABEB0808474409EBC709C3
:10044000AD1BA9F8195001238AF802300020D8E723
:100450003246FFF74BFF3044C4F80300EBE700BF20
:1004600010010540240005405C220020022908D02C
:10047000032908D051B9162808D8054B53F8200095
:1004800070470448704747F2305070470248704741
:10049000B445000000093D000024F400FEE7000020
:1004A00007494FF0E0234FF0805208680128FCD93B
:1004B000C3F8042DBFF34F8FBFF36F8FF5E700BF75
:1004C000942900200848094A0378D2F8FC133BB16C
:1004D00041F0040183F00103C2F8FC13037070477C
:1004E00021F00401F6E700BF7C2900200050024003
:1004F00000F108034FF0FF32C0E9022343600361BB
:1005000000230360704743684B609A688A605160BB
:1005100099600861036801330360704730B50C6867
:10052000631C0AD103695A684A6091608B60596004
:10053000086103680133036030BD00F1080213460F
:1005400052681568A542FAD9EDE70000024A13681F
:1005500001331360704700BFE0300020064A136883
:100560001968064B19B94FF0FF321A6070471268CC
:10057000D2681268F9E700BF882900209C33002068
:10058000054B1B6833B1054B1B68002B0CBF0220C9
:100590000020704701207047CC330020E03000205D
:1005A000914208B5416000610AD8D21A83699A4223
:1005B0000DD2084B011D1868FFF7B0FF002008BDE1
:1005C0009A4201D2994202D2034B011DF3E7012066
:1005D000F5E700BF902900208429002082B0002385
:1005E0000193104B1B6801330ED04FF0E023D3F87A
:1005F000F03DDB0708D54FF0400383F31188BFF3CC
:100600006F8FBFF34F8F00BE4FF0400383F311880D
:10061000BFF36F8FBFF34F8F019B002BFCD002B055
:10062000704700BF602000200000000000000000B4
:10063000074B19680868B0E8F04F80F30988BFF3EA
:100640006F8F4FF0000080F311887047AFF3008088
:100650008029002008480068006880F308884FF06F
:10066000000080F3148862B661B6BFF34F8FBFF30A
:100670006F8F00DF00BF000008ED00E04FF0400387
:1006800083F31188BFF36F8FBFF34F8F0C4A13684A
:100690000133012B136012D14FF0E022D2F8043D58
:1006A000DBB263B1D2F8F03DDB0708D54FF0400371
:1006B00083F31188BFF36F8FBFF34F8F00BE704776
:1006C000602000200C4A136873B94FF0E023D3F880
:1006D000F03DDB0708D54FF0400383F31188BFF3EB
:1006E0006F8FBFF34F8F00BE1368013B13600BB9D0
:1006F00083F31188704700BF60200020F8B5FFF732
:10070000BDFF0B68DFF844C05A1CDCF8004018D06D
:100710000D4E056837684268BD4207D0A24205D831
:1007200000230B600120FFF7CDFFF8BDA71ABB42E5
:10073000F6D91B1B13440B6033680360DCF80030F0
:1007400043600020EFE700BFA033002034340020D6
:10075000EFF30980BFF36F8F154B1A681EF0100F6F
:1007600008BF20ED108A20E9F04F10602DE9090044
:100770004FF0400080F31188BFF34F8FBFF36F8FAE
:1007800003F0A4FB4FF0000080F3118809BC196846
:100790000868B0E8F04F1EF0100F08BFB0EC108AE8
:1007A00080F30988BFF36F8F704700BFAFF30080FD
:1007B00080290020DFF80C00016841F4700101601D
:1007C0007047000088ED00E00A4492B291424FEA7F
:1007D000400001D8824201DB121A92B210467047E3
:1007E0000389428981889BB292B2934236BFC2EBA1
:1007F00041029B1A9B1898B2884228BF084670474E
:100800008288038940899BB280B2834236BFC0EBA5
:100810004200181AC01880B2824286BF101A80B2F5
:100820000020704708B50A460189034689B28088CE
:10083000FFF7CAFF188108BD08B50A46418903467B
:1008400089B28088FFF7C0FF588108BD03894289BB
:1008500070B59BB292B28488934236BFC2EB440516
:100860009D1AED18ADB2AC4206D80023C1E90033A1
:100870008B6070BD1B1B9BB29C42FBD9944209D973
:1008800006689A421E444E6007D9D31A0B80002393
:100890004B80EDE7121B92B2F0E78288A41A641B2A
:1008A000D61A23440E804B800368E1E70B4B63B1FB
:1008B0000B4B1B78834206D90A4B1B6800EB4000A8
:1008C00003EBC0007047C01AC0B2012803D8064B22
:1008D00000EB4000F4E70020704700BF000000007C
:1008E0006C2000206820002014460000CB680249DC
:1008F0000B610121184700BF4822002010B51B4A98
:1009000051684FF4805400F07F03C1F30031C2F806
:100910008440BFF34F8FBFF36F8F8BB950B9144B27
:10092000FF221A70D872187358739873114B2022D3
:1009300083F80221B1B10D4B4FF480525A6011E09F
:100940001A010D4B1344C20902D010229A70F1E72C
:100950009A79D20707D54FF0E023D3F8F03DDB07B3
:1009600000D500BE10BD20229A71E3E700E100E04F
:100970005C220020000005400001054010B50B4B33
:1009800000F07F0203EB420303EBD0142034E37842
:100990009B0709D4FFF7B2FFE37843F00203E3704B
:1009A000E37843F00103E37010BD00BFF42500209D
:1009B00010B4114B99689A6B83F82C00022083F8CD
:1009C000300093F83C008A1A9A6220B942F205047A
:1009D0009C8783F83E0059B152B11A7B5DF8044BF5
:1009E000D20914BF93F82E0093F82F00FFF7C6BF6B
:1009F0005DF8044B704700BF24250020D0E90112A8
:100A000003698A60416851605A68904204BF8268F5
:100A10005A60002202611A68013A1A601B68704726
:100A20002DE9F84F374B1B68002B65D1364B1E68FC
:100A300001361E60EEB9354B1A68126872B14FF07C
:100A4000E022D2F8F02DD20708D54FF0400282F311
:100A50001188BFF36F8FBFF34F8F00BE2C4A196808
:100A60001068186011602B4A136801331360FFF798
:100A700075FD294F3B689E424FF0000407D2274B7B
:100A80001B68002B18BF01242046BDE8F88FDFF853
:100A90007C80DFF89490DFF894A0D8F800301B68D1
:100AA0001BB94FF0FF333B60E9E7D8F80030DB6853
:100AB000DD686B689E42F6D305F1040B5846FFF7DC
:100AC0009DFFAB6A1BB105F11800FFF797FFEB6ABA
:100AD000D9F800201420934200FB03A0594688BF98
:100AE000C9F80030FFF70FFD0D4BEA6A1B68DB6A9F
:100AF0009A4228BF0124D0E70A4A136801331360E1
:100B00000024C1E7E0300020343400208829002090
:100B10008C290020A03300209C3300209834002032
:100B200080290020A4330020E832002094290020EE
:100B3000F8B532490B6873B94FF0E023D3F8F03DB4
:100B4000DB0708D54FF0400383F31188BFF36F8FA5
:100B5000BFF34F8F00BEFFF791FD0B68013B0B60A9
:100B60000C681CB10020FFF7ADFDF8BD244B1B68DD
:100B7000002BF7D0234D244E244F1CE0EB68DC689B
:100B800004F11800FFF73AFF201DFFF737FFE36A73
:100B9000326801461420934200FB037088BF336023
:100BA000FFF7B1FC1A4BE26A1B68DB6A9A4202D378
:100BB000184B01221A602B68002BDFD10CB1FFF714
:100BC000CDFC154D2C6844B1124E0127FFF728FFCC
:100BD00000B13760013CF9D12C600E4B1B68002B33
:100BE000C0D04FF0E0234FF08052C3F8042DBFF384
:100BF0004F8FBFF36F8F0120B5E700BFE0300020BB
:100C0000DC2E0020A8330020E832002094290020A8
:100C10008029002098340020A433002008B54FF02C
:100C2000400383F31188BFF36F8FBFF34F8FFFF73C
:100C3000F7FE28B14FF0E0234FF08052C3F8042DA7
:100C4000002383F3118808BD10B5C368DC6874B94C
:100C50004FF0E023D3F8F03DDB0708D54FF0400319
:100C600083F31188BFF36F8FBFF34F8F00BE04F182
:100C70001800FFF7C3FE104B1B68D3B9201DFFF708
:100C8000BDFE0E4AE36A11688B4288BF13600C4AAE
:100C90000146142000FB0320FFF735FC094BE26AF4
:100CA0001B68DB6A9A4283BF074B01201860002053
:100CB00010BD01460548EFE7E0300020E832002093
:100CC000942900208029002098340020A833002097
:100CD0002DE9F041FFF7D2FC90F845501C4F044637
:100CE0006DB200F124064FF00108002D17DCFF2340
:100CF00084F84530FFF7E6FCFFF7C0FC94F8445059
:100D0000134F6DB204F110064FF00108002D12DCF4
:100D1000FF2384F84430BDE8F041FFF7D3BC636A99
:100D2000002BE4D03046FFF78FFF08B1C7F80080F2
:100D3000013D6DB2D9E72369002BE9D03046FFF7BA
:100D400083FF08B1C7F80080013D6DB2DEE700BF48
:100D500098340020F8B5154B154E1D6804463068D0
:100D600004300F46FFF74AFE631C07D137B13168E4
:100D70001048BDE8F8400431FFF7C5BB33682C19B3
:100D80005C6007D30C4B18683168BDE8F84004314B
:100D9000FFF7C4BB094B186831680431FFF7BEFB8D
:100DA000074B1A68A24288BF1C60F8BD343400208B
:100DB00080290020203400208C2900208829002050
:100DC0009C33002010B5064B0C4619681831FFF70C
:100DD000A5FB20460121BDE81040FFF7BBBF00BFC7
:100DE000802900202DE9FF414FF0FF330193044695
:100DF00070B94FF0E023D3F8F03DDF0708D54FF08E
:100E0000400383F31188BFF36F8FBFF34F8F00BE92
:100E1000236C73B14FF0E023D3F8F03DDE0708D523
:100E20004FF0400383F31188BFF36F8FBFF34F8FF1
:100E300000BEFFF7A5FB80B9019B73B14FF0E02323
:100E4000D3F8F03DDD0708D54FF0400383F3118858
:100E5000BFF36F8FBFF34F8F00BE0025984F994EA1
:100E60002946FFF70BFCA36B13B3013BA363236875
:100E700043B9944B1A681AB119680A6D01320A65B0
:100E80001B68A360236973B104F11000FFF7DCFE57
:100E900048B14FF0E0234FF08052C3F8042DBFF368
:100EA0004F8FBFF36F8FFFF70DFC04B0BDE8F081EB
:100EB000019B8BB9002DF6D04FF0E023D3F8F03D25
:100EC000D807F0D54FF0400383F31188BFF36F8F3D
:100ED000BFF34F8F00BEE6E721B93B6802937A4B20
:100EE0001B680393FFF7EEFBFFF730FBFFF7C6FB32
:100EF00094F84430FF2B04BF002384F8443094F866
:100F00004530FF2B04BF002384F8453001A902A817
:100F1000FFF7D8FBFFF7F2FB002863D1FFF7AEFB2A
:100F2000A36B002B49D1FFF7CDFB2368002B2ED1FB
:100F3000FFF7A4FBA5683DB33268EB6AD26A93421F
:100F400048D2AA69DFF88881002AA1BF3268D26A34
:100F5000C2F10502AA61142202FB03836A699A4264
:100F600034D1281DFFF74AFD3368584ADB6A1168FF
:100F7000EB628B4201464FF0140000FB038088BFF8
:100F80001360FFF7C0FA0120FFF79CFB05460199AB
:100F900004F12400FFF716FF2046FFF799FEFFF744
:100FA000C7FD88B94FF0E0234FF08052C3F8042DFD
:100FB000BFF34F8FBFF36F8F06E02046FFF782FB32
:100FC000FFF786FEFFF7B4FD01214AE73368DB6ACD
:100FD000EB62D8E73368E86CDB6A98422CBF0020EC
:100FE0000120D1E72046FFF773FEFFF7A1FDFFF7D1
:100FF00045FBA36B13B1FFF765FBE5E7FFF762FB6A
:10100000002D3FF452AFFFF739FB636A1BB1236B2E
:101010001B68C3F10503A468002C3FF444AF226DA4
:1010200072B94FF0E022D2F8F02DD10708D54FF079
:10103000400282F31188BFF36F8FBFF34F8F00BE62
:10104000E26C934238BF1346E26A93423FF42BAFFF
:10105000226D012A7FF427AF1A4A126894420ED1FA
:101060004FF0E022D2F8F02DD20708D54FF0400221
:1010700082F31188BFF36F8FBFF34F8F00BEA1695A
:10108000E26A134DE3620029A4BFC3F10503A36123
:10109000142303FB025362699A427FF404AF201DBC
:1010A000FFF7ACFC094AE36A11688B4201464FF036
:1010B000140000FB035088BF1360FFF724FAF2E628
:1010C000A03300208029002034340020E8320020A2
:1010D0009429002013B51C4670B94FF0E023D3F8D3
:1010E000F03DDB0708D54FF0400383F31188BFF3D1
:1010F0006F8FBFF34F8F00BE0AB909B90FE071B906
:101100004FF0E023D3F8F03DDB0708D54FF0400364
:1011100083F31188BFF36F8FBFF34F8F00BE50234F
:101120000193019B502B0ED04FF0E023D3F8F03DFC
:10113000DB0708D54FF0400383F31188BFF36F8FAF
:10114000BFF34F8F00BE002908BF2246C4E90F013C
:101150002260019BFFF792FAD4E90F3122686260A6
:101160004B43D0185B1A1344A060E3600020FF23B8
:10117000A06384F8443004F1100084F84530FFF790
:10118000B7F904F12400FFF7B3F9FFF79BFA9DF8D4
:10119000103084F84C30204602B010BD37B5154CE5
:1011A000FFF76CFA2168F9B9134D2846FFF7A0F94B
:1011B0001248FFF79DF9124B124A1D60124B18603E
:1011C0000091124B0C212020FFF784FF206058B1C2
:1011D0000F4B1A6812B19A6832B901220D4943F8CF
:1011E000321003EBC203586003B0BDE83040FFF794
:1011F00069BA00BF38340020EC32002000330020F0
:1012000084290020F929002090290020D0330020D3
:10121000BC330020504500002DE9F04385B00E4658
:101220000192044670B94FF0E023D3F8F03DDA079D
:1012300008D54FF0400383F31188BFF36F8FBFF3DE
:101240004F8F00BEFFF79CF980B9019B73B14FF03F
:10125000E023D3F8F03DDB0708D54FF0400383F3DC
:101260001188BFF36F8FBFF34F8F00BE0021DFF8EF
:101270001081DFF810910F46FFF700FAA56B35B328
:10128000226C5AB1E368A16813448B42E36024BF27
:101290002368E360E168304603F02EF9013DA56361
:1012A000236973B104F11000FFF7CEFC48B14FF091
:1012B000E0234FF08052C3F8042DBFF34F8FBFF3EC
:1012C0006F8FFFF7FFF9012005B0BDE8F083019BA8
:1012D0001BB9FFF7F7F90020F6E729B9D8F8003075
:1012E0000293D9F800300393FFF7ECF9FFF72EF9DA
:1012F000FFF7C4F994F84430FF2B08BF84F844701A
:1013000094F84530FF2B08BF84F8457001A902A866
:10131000FFF7D8F9FFF7F2F928BBFFF7AFF9A36B96
:1013200073B9FFF7CFF904F124000199FFF74AFDE3
:101330002046FFF7CDFCFFF7FBFB48B101219BE7FF
:101340002046FFF7BFF9FFF7C3FCFFF7F1FBF5E716
:101350004FF0E0234FF08052C3F8042DBFF34F8FBE
:10136000BFF36F8FEAE72046FFF7B2FCFFF7E0FB21
:10137000FFF784F9A36B002BABD0FFF7A3F9DDE7F0
:10138000A03300203434002070B5026C866B044614
:10139000002A4ED103680BB1002004E085682DB906
:1013A00000200023A3600136A66370BD274B1B6895
:1013B0009D420ED04FF0E023D3F8F03DDA0708D578
:1013C0004FF0400383F31188BFF36F8FBFF34F8F4C
:1013D00000BE2B6D73B94FF0E023D3F8F03DDB076F
:1013E00008D54FF0400383F31188BFF36F8FBFF32D
:1013F0004F8F00BE2B6DE96AEA6C013B91422B6571
:10140000CED0002BCCD1281DFFF7F8FAEB6CEB62A5
:10141000C3F10502AA610E4A11688B4288BF1360AE
:101420000C4A0146142000FB0320FFF76CF8012052
:10143000B7E7406803F060F86368226C1344A26861
:101440006360934224BF23686360A5E7802900207E
:10145000E8320020942900202DE9FF410D46019239
:10146000044670B94FF0E023D3F8F03DD90708D512
:101470004FF0400383F31188BFF36F8FBFF34F8F9B
:1014800000BE85B9236C73B14FF0E023D3F8F03D73
:10149000DA0708D54FF0400383F31188BFF36F8F4D
:1014A000BFF34F8F00BEFFF76BF880B9019B73B19C
:1014B0004FF0E023D3F8F03DDB0708D54FF04003B1
:1014C00083F31188BFF36F8FBFF34F8F00BE0021EE
:1014D0003B4FDFF8F0800E46FFF7D0F8A26BE36BCE
:1014E0009A421AD229462046FFF74EFF636A1BB183
:1014F00004F12400FFF7A8FB48B14FF0E0234FF0C0
:101500008052C3F8042DBFF34F8FBFF36F8FFFF7E7
:10151000D9F8012004B0BDE8F081019810B9FFF7B7
:10152000D1F8F7E721B93B680293D8F8003003936C
:10153000FFF7C8F8FFF70AF8FFF7A0F894F844306F
:10154000FF2B08BF84F8446094F84530FF2B08BF98
:1015500084F8456001A902A8FFF7B4F8FFF7CEF8B8
:1015600038BBFFF78BF8A26BE36B9A420ED1FFF703
:10157000A9F804F110000199FFF724FC2046FFF7B9
:10158000A7FBFFF7D5FA48B10121A5E72046FFF7F1
:1015900099F8FFF79DFBFFF7CBFAF5E74FF0E02353
:1015A0004FF08052C3F8042DBFF34F8FBFF36F8FFE
:1015B000EAE72046FFF78CFBFFF7BAFA0020A9E71D
:1015C000A0330020343400202DE9F04F00F07F03D9
:1015D0007D4D89B017465A00019205EB430202EB9C
:1015E000D012203292F80390C9F3000619F00109D5
:1015F00086468C464FEAD0180DD04FF0E023D3F842
:10160000F03DD80705D44FF00009484609B0BDE8C1
:10161000F08F00BEF7E7D4786C4944F00104D47031
:101620006B4A09785468C4F3003B4FF48054C2F805
:101630008440BFF34F8FBFF36F8F5BB3654A08F1F0
:10164000400102EB4101013B012404FA03F68C88BE
:1016500024EA06048C80C8EBC8011944023102EB6D
:10166000C102C2F803C0A2F80770A2F80970B8F16D
:10167000000F06D0FEF7ACFEBBF1000F1DD001231A
:1016800015E0554A02EB03139A79D107F4D583F894
:101690000680F1E7402F13D94FF0E023D3F8F03D57
:1016A000DA0700D500BEBBF1000F75D00023484A11
:1016B0004FF480515160002B6ED04FF00109A4E728
:1016C000444C2378FF2B17D1002FE5D10022FF2BAC
:1016D000A272D1D10723CDE905228DF815303F4BF9
:1016E0008DF8141018688DF818E04FF0FF3205A936
:1016F0000797FFF7B1FEBFE794F90A20002AE5D16A
:10170000B8EBD31F39D123899F42C5D8BB421A46B3
:1017100028BF3A461FFA82FAB8F1000F22D060467D
:101720002F49CDE90223FEF7E1FD029A039BA4F8BD
:101730000FA01044A3EB0A0A402AC4F80B00294A60
:101740006674A674A4F808A001D1BB4208D8214B46
:10175000FF211970012199720A2382F802318BE767
:101760000223FAE71F4BC4F80BC0A4F80FA0A4F89B
:1017700011A0402283F802217EE7B8F1000F3FF468
:101780007BAF184BE67226736673A673E6732674F6
:101790006674A6744822EDE7019B1D44A84498F89E
:1017A00023306FF3000388F8233098F823306FF369
:1017B000820388F823304FF0E023D3F8F03DDB07B5
:1017C0007FF521AF00BE20E7F42500205C0000205B
:1017D00000E100E05C220020100105402C260020E2
:1017E0002000054000000540144B10B5144C6BB1AF
:1017F000607BAFF3008048B942F2077384F83E0083
:10180000A3870120BDE81040FFF7D2B8A268A36B00
:101810000C4994F82F00D21AB2F5007F28BF4FF47C
:10182000007292B2FFF7D0FE30B94FF0E023D3F848
:10183000F03DDB0700D500BE10BD00BF000000007A
:10184000242500202423002010F0800F4FF00002F8
:1018500011460CBF80201046FFF7B6BE10B40346F9
:10186000064C00685968224603C20022C4E90222DD
:101870005DF8044B1878FFF7E7BF00BF482200204F
:10188000F8B5078944898288BFB2A4B2A74236BF9F
:10189000C4EB42033B1BDB199BB29A4205460E4642
:1018A00011D2006908B1FFF79DFAAC882869A742F8
:1018B0002CBF3C1BE419A4B26C8118B10022114664
:1018C000FFF7CAFDAB881BB9C6E90033B360F8BDAA
:1018D000AA88BA420AD9A2420BD92A68BC42224439
:1018E000726009D2338000237380EFE7BF1ABFB262
:1018F000EFE7A41AA4B2EEE7AA889B1A2344111BAF
:10190000318073802B68E1E713B503460022012084
:1019100000901146FFF7DEFB044630B100228260E2
:101920000260C2601146FFF797FD204602B010BD6D
:1019300073B5174B00F07F0403EB440303EBD014A3
:101940002034E57815F001051FD1E3785A07C3F379
:10195000800615D40F4B18680190FFF743FAE5781D
:10196000019815F001050ED1E3785B0704D4E37804
:1019700043F00403E370012500221146FFF76CFDDC
:10198000284602B070BD3546F6E70025F8E700BFEF
:10199000F4250020282600202DE9F047064600699E
:1019A0008846914608B1FFF71DFA33897489B788D4
:1019B0009BB2A4B2A34236BFC4EB47051D1BED1872
:1019C000ADB2F5B1AF4206D2BB422CBFDB1BDB1977
:1019D0009CB274813D464D4528BF4D46A74220D953
:1019E000F2883168A7EB04091FFA89F9C2F30E0ADD
:1019F0004D4552460AFB041116D86A43404602F090
:101A00007BFD7189B0882A4689B2FEF7DDFE7081C0
:101A1000306918B100221146FFF71EFD2846BDE8C7
:101A2000F087E41BA4B2D9E719FB0AF91FFA89F978
:101A30004A46404602F060FDEA1B224412FB0AF2CD
:101A4000316892B208EB0900D9E7000037B5104BB6
:101A500000F07F05C40918680190FFF7C3F90D4B2A
:101A6000019803EB450323442033DA7812F0040F86
:101A700007D0DA7812F0010102BFDA7861F382024E
:101A8000DA700022114603B0BDE83040FFF7E4BC35
:101A900028260020F425002038B5184B5A780AB9BA
:101AA000002038BD1B785A07FAD4154D05F12400E3
:101AB000FEF796FE0028F3D0A878FFF739FF00283C
:101AC000EED0402205F5CC7105F12400FFF764FF4C
:101AD0000446A8786CB1224605F5CC71FFF774FD79
:101AE00048B94FF0E023D3F8F03DDB07D8D500BE6E
:101AF000D7E7FFF7ABFF2046D3E700BFF425002070
:101B00007020002038B500F1100504462846FEF785
:101B100077FE3F2814D9E078FFF70AFF80B1284606
:101B2000FEF76EFE3F28E07806D904F5AC7140223E
:101B3000BDE83840FFF748BDBDE83840FFF786BF35
:101B400038BD000070B50446C0680E46154608B1A1
:101B5000FFF748F9206908B1FFF744F90A4BE0683C
:101B60002660002243EAC57362816360228110B15E
:101B70001146FFF771FC206928B10022BDE87040D2
:101B80001146FFF769BC70BD4000010038B504463E
:101B9000C0680D4608B1FFF725F9206908B1FFF7C5
:101BA00021F9E379E06865F3C713E37118B1002206
:101BB0001146FFF751FC206928B10022BDE83840EA
:101BC0001146FFF749BC38BD10B50446C06808B1DE
:101BD000FFF708F9206908B1FFF704F9E06800226F
:101BE0006281228110B11146FFF736FC206928B1CD
:101BF0000022BDE810401146FFF72EBC10BD0000CA
:101C0000F8B51746044670B94FF0E023D3F8F03D1D
:101C1000DE0708D54FF0400383F31188BFF36F8FC1
:101C2000BFF34F8F00BEEFF305830F2B14D9364A55
:101C30009B5C364A12789A420ED94FF0E023D3F8D3
:101C4000F03DDD0708D54FF0400383F31188BFF363
:101C50006F8FBFF34F8F00BE4FF0E0222C48D2F8B9
:101C60000C3D006803F4E06383420CD9D2F8F03DE8
:101C7000D80708D54FF0400383F31188BFF36F8F67
:101C8000BFF34F8F00BEEFF311864FF0400383F395
:101C90001188BFF36F8FBFF34F8FA26BE36B9A4234
:101CA0002FD294F84550A36B6DB22046FFF76CFB22
:101CB0006A1C10D1636A0BB9012009E004F1240009
:101CC000FEF7C2FF0028F7D0002FF5D001203860C2
:101CD00086F31188F8BD7F2D0ED14FF0E023D3F8A5
:101CE000F03DDB0708D54FF0400383F31188BFF3C5
:101CF0006F8FBFF34F8F00BE01356DB284F8455032
:101D0000DAE70020E4E700BFF0E300E0F829002074
:101D10007C2B00201FB570B94FF0E023D3F8F03DC5
:101D2000DB0708D54FF0400383F31188BFF36F8FB3
:101D3000BFF34F8F00BE084B1C685CB1CDE90112A8
:101D400003900022FEF71CFC01A92046FFF784FB4C
:101D500004B010BD2046FBE738340020024BFA22C5
:101D600018680421FFF7D6BFF0260020034B40F689
:101D7000C41218680421FFF7CDBF00BFF026002071
:101D8000034B4FF47A7218680421FFF7C3BF00BFFA
:101D9000F0260020F7B51E4D4FF0E0272B681A689B
:101DA0002AB91C4A11682960136003B0F0BDDB68D2
:101DB000DC681E68211D08460191FEF71FFE236A9C
:101DC0002046984794F82830019913F0040FE5D085
:101DD000A36933449E4205D2286863602461FEF7FC
:101DE0009DFBDBE7324600212046FFF793FF0028EA
:101DF000D4D1D7F8F03DDB07D0D54FF0400383F3C3
:101E00001188BFF36F8FBFF34F8F00BEC6E700BFCF
:101E100084290020902900202DE99F48DFF84C926A
:101E20008E4FD9F800A0DAF80040002C4DD0DAF837
:101E30000C301C6800258A4EDFF83482FEF786FBE2
:101E4000D7F800B033685B4541D8C6F800B0002D24
:101E500046D0844B1B681D68B5FA85F56D09D8F826
:101E600000A0FEF70BFC9AF84430FF2B04BF0023C0
:101E70008AF844309AF84530FF2B04BF00238AF8D3
:101E80004530FEF71FFCDAF838306BB9764B19682D
:101E90000AF124001831FEF736FB002D58D1A4EBCF
:101EA0000B002946FEF756FF5046FEF711FFFEF7DE
:101EB0003FFE90B94FF0E0234FF08052C3F8042D5D
:101EC000BFF34F8FBFF36F8F07E00125B3E7FFF735
:101ED00061FFC6F800B0FEF72BFE4FF0E02A64E089
:101EE0005C45BCD8FEF724FEDAF80C30D3F80CA021
:101EF0000AF10400FEF782FD9AF828305A0722D52D
:101F0000DAF8181023465A4621445046FEF748FB9B
:101F1000A0B1224629465046FFF7FCFE70B94FF0AB
:101F2000E023D3F8F03DD80708D54FF0400383F302
:101F30001188BFF36F8FBFF34F8F00BEDAF82030E8
:101F400050469847C9E723F001038AF82830F5E79F
:101F50004FF0FF30A5E794F82830A16943F0010362
:101F600084F82830029B2A4619442046FEF718FBC5
:101F7000D8B1236A2046984794F82830590714D5D9
:101F8000A369029A00211A442046FFF7C3FE60B9F4
:101F9000DAF8F03DDA0708D54FF0400383F31188F3
:101FA000BFF36F8FBFF34F8F00BED8F80000002241
:101FB00001A9FFF731F900283FF433AF019B002B53
:101FC000F3DB039C636913B1201DFEF717FD3D6829
:101FD0003368AB4201D9FFF7DDFE019B3560092B69
:101FE000E3D801A252F823F0571F0000571F00004A
:101FF000571F00004D200000112000004D20000060
:10200000571F0000571F00004D2000001120000046
:1020100094F8283043F0010384F82830029BA36130
:1020200063B9DAF8F03DDB0708D54FF0400383F3DE
:102030001188BFF36F8FBFF34F8F00BEA1692B468E
:102040002A4629442046FEF7ABFAAEE794F828303A
:1020500023F0010384F82830A7E700BF34340020C0
:102060009833002090290020802900208429002016
:10207000383400202DE9F04F89B0C3B24E4C0293A2
:1020800000F07F0707F1FF380306C0F3C01504EB2B
:10209000081439D5A3789E0606D5A37803F0DB0390
:1020A000A37009B0BDE8F08FFEF792F90028F8D0D0
:1020B000C5EBC505A844414D08F1020805EBC80869
:1020C0000721B8F80930B8F80720D21A0023CDE963
:1020D000053304933A4B8DF81510029918688DF862
:1020E0001810079205A904AAFFF78AFD049B002B8C
:1020F000D7D04FF0E0234FF08052C3F8042DBFF348
:102100004F8FBFF36F8FCCE7A37913F0400FA37904
:1021100003D003F0BB03A371C3E7D90707D44FF083
:10212000E023D3F8F03DDA07BBD500BEB9E7234E74
:10213000B4F804A02389013706EBC7079BB21FFA46
:102140008AFAB7F809B0534528BF53465B45019357
:1021500028BF5B46D7F803009946A3B1B6F8843090
:10216000184923FA08F3DB0701EB88011AD52B463F
:102170004A460390FEF7F6F8039806EBC802ABEB6D
:102180000903A2F81930CA4502D8019B9B4511D812
:1021900008F1020306EBC3060023F3703371737179
:1021A000B37183E74A46FEF7BEF800EB0903C7F8B0
:1021B0000330E2E70023AEE7100105405C22002077
:1021C0002C260020240005402DE9F043A74B9C7AE3
:1021D0005D889F88DB7A1C40200785B0ADB2BFB216
:1021E00035D5A34E4FF0000809E0FEF75FFB20B1A4
:1021F000436913B100210846984708F10108337874
:102200005FFA88F001338342EFDA9A4A137859076C
:102210001DD513786FF3820313700023CDE90133CA
:1022200003930093944B052218688DF8052001A9AB
:102230006A46FFF7E5FC009B4BB14FF0E0234FF0FF
:102240008052C3F8042DBFF34F8FBFF36F8F620727
:1022500033D58A4A8549FF23137000239372D372C2
:102260001373537393730122CA8018460B81D6B23D
:102270000132082A8E7381F86200A1F8643081F877
:102280006300A1F86630F2D1CDE9013303930093E6
:10229000794B012218688DF8052001A96A46FFF7DD
:1022A000AFFC009B4BB14FF0E0234FF08052C3F8DE
:1022B000042DBFF34F8FBFF36F8FA30721D56D4957
:1022C00000230522CDE901338DF805200A78039318
:1022D000D60716D50A78009363F38202664B0A701C
:1022E00018686A4601A9FFF78BFC009B4BB14FF0C1
:1022F000E0234FF08052C3F8042DBFF34F8FBFF39C
:102300006F8FE00721D500230422CDE901338DF83A
:102310000520584A03931178C90716D51178009300
:10232000554B41F00401117018686A4601A9FFF786
:1023300067FC009B4BB14FF0E0234FF08052C3F895
:10234000042DBFF34F8FBFF36F8F4849CB881D40DB
:10235000EB070AD591F80231DEB213F0040312D074
:10236000002381F8023125F001050126002D40F0FF
:1023700007813E4B1B8901251F40002F40F00D8136
:1023800005B0BDE8F0833D4C06F0010816F01006DC
:10239000227875D08020FF2A81F802012AD0D4F853
:1023A0000B1039B3FF21B4F811002170B4F80F10ED
:1023B000E372CDE9013323736373A37300932E4B50
:1023C000091A22F07F0207208DF805008DF80820F9
:1023D000186803916A4601A9FFF712FC009B4BB1F4
:1023E0004FF0E0234FF08052C3F8042DBFF34F8F1E
:1023F000BFF36F8FB8F1000FB5D01C4B93F80821D5
:10240000082A40F084801A6A22601B6A63600023F5
:1024100020686168E37223736373A373E3732374A7
:102420006374A3744FF4C0620093134B019202AA29
:1024300003C218686A4601A9FFF7E2FB009B4BB193
:102440004FF0E0234FF08052C3F8042DBFF34F8FBD
:10245000BFF36F8FE3882381002B84D02378DB09BF
:1024600081D0024B402283F802217CE70000054026
:102470006C200020F42500202C2600205C22002067
:10248000B8F1000F4CD0FF2AB7D0D4F80B000028C9
:102490003FF469AF91F80881B4F811904549C845F7
:1024A00028BFC846B8F1400F28BF4FF04008424649
:1024B000FDF739FF2289B4F80F30E672A9EB08095D
:1024C000A2EB08021FFA89F122815B1A0722CDE9EB
:1024D0000166A4F8119026736673A6738DF8052023
:1024E00003930096344B6A46186801A9FFF788FBEE
:1024F000009B002B3FF437AF4FF0E0234FF08052AA
:10250000C3F8042DBFF34F8FBFF36F8F2BE74FF04E
:10251000E023D3F8F03DDE077FF525AF00BE22E7CC
:10252000FF2A17D0D30915D12388B3F5A06F04BFB4
:10253000A3780B70FF23B4F811202370B4F80F3088
:102540004FF4E0649B1A8022CDE9014203930023FB
:102550000093C7E7D4F80B30002B3FF404AFB4F876
:102560001110B4F80F200023521A4FF4E0608021BC
:10257000CDE90101E37223736373A3730392E7E769
:1025800095FAA5F4B4FA84F444F0800006FA04F451
:10259000FFF770FD25EA0405E8E697FAA7F4B4FA18
:1025A00084F4204605FA04F4FFF764FD27EA0407E3
:1025B000E3E600BF200005402C2600202DE9F84F5F
:1025C0000646C0688846154608B1FEF70BFCF3794D
:1025D00037897189B6F80490DB09BFB289B21CD182
:1025E0008F4239BFC1EB4904E419791A8CB238BF64
:1025F000A4B24C4536BFA9EB04040024A4B2A54202
:1026000028BF2546002D44D1F068002855D000226F
:10261000BDE8F84F1146FEF71FBF4D4509D3F388BB
:10262000A5EB0905C3F30E0303FB05880F464D46D2
:10263000E8E78F424FEA490236BF531A7B1ADB198B
:102640009BB22B449342DDDBA9EB050292B24846D4
:10265000FEF7BAF80746D5E7A4EB0904A4B24C4547
:10266000FAD2F2883068A9EB040A1FFA8AFAC2F398
:102670000E0B55455A460BFB04000CD86A434146E5
:1026800001F03AFFB0882A463946FEF79DF83081BE
:10269000BAE73C46E3E71AFB0BFA1FFA8AFA5246FE
:1026A000414601F029FFA5EB0903E21812FB0BF2EA
:1026B000306892B208EB0A01E2E7BDE8F88F00004B
:1026C0002DE9F341314C1D46E3788B420E4607D08D
:1026D000A3788B424CD1A378B34229D0012550E096
:1026E000AAB22AB104F5AC7104F11000FFF766FF3D
:1026F000274B2BB92548238B638BFFF703FAEAE7B7
:102700006379FF2BF6D0DFF894800027AF42F1D039
:10271000617918F8013B994208D1228B638B92B200
:102720009BB29A4202D00020AFF300800137EDE760
:10273000184B13B10020AFF30080FFF7ADF900286C
:10274000CCD11548FEF74CF80028C7D1002DC5D0D4
:1027500015F03F02C2D1A0780192FFF7E9F8019A83
:1027600005460028BAD0A0781146FEF72DFF08E0F4
:102770004FF0E023D3F8F05D15F0010501D000BE65
:102780000025284602B0BDE8F08100BF702000207F
:10279000000000000000000094200020C82100205C
:1027A00080B5254C90B0A4F1100704F11406204622
:1027B000FEF716F840BBFFF76FF9204B1B6873B1AB
:1027C0004FF0E023D3F8F03DDB0708D54FF040038E
:1027D00083F31188BFF36F8FBFF34F8F00BE0021CB
:1027E0000120FDF7B3FEFEF7B5FAFEF7A1F90028C8
:1027F000DDD14FF0E0234FF08052C3F8042DBFF33A
:102800004F8FBFF36F8FD2E7402269462046FFF714
:10281000C3F805463846FFF775F925B12A466946DB
:102820003046FFF7CBFE3046FDF7DAFF3F28BED932
:10283000FFF732F9BBE700BF80200020E030002026
:1028400013B5124B9889D98993F90040421A92B274
:10285000402A28BF4022002C0EDA884212D0996804
:102860000B48019201F048FE0949019A802002B00C
:10287000BDE81040FEF7A8BE88424FF0000003D12B
:102880000021F4E78020FBE70149F0E7482200201F
:10289000B425002070B50446164D00680B466168EB
:1028A000AB602E4603C60021E981E1888A4228BF39
:1028B0000A46AA81E18881B152B14BB94FF0E022BA
:1028C000D2F8F02DD20701D4002070BD00BEFBE786
:1028D000FFF7B6FF28B10120F7E72078FEF7B4FF35
:1028E000F8E74FF0E023D3F8F03DDB07ECD500BE6E
:1028F000EBE700BF4822002010B5137803F0600317
:10290000202B10463ED1204A838814789C4239D12E
:102910004378203B032B35D8DFE803F00214172857
:10292000012905D119490722FFF7B4FF01202AE048
:102930000329FBD1164B002BF8D014490020AFF32C
:102940000080F3E70129F1D1ECE7012902D1FEF77C
:1029500085FFEBE70329E9D14188117101F00101FD
:102960000C4881F00101FFF711F9DFE70129EED0F2
:102970000329DBD1084B002BD8D041880020AFF3CE
:102980000080D3E7002010BD7020002076200020BA
:10299000000000009420002000000000012937B54D
:1029A000154613D1137803F07F02022A44D16C78C4
:1029B000012C41D16A88002A3ED13A49A88891F871
:1029C0003030042BC0B203D1FDF7D8FF012019E04D
:1029D00091F82E20904217D1022BF7D18A6B8B6889
:1029E0009B1A8B62032381F830300D222031FEF7D1
:1029F000EBFD0028EAD14FF0E023D3F8F03DDB07F0
:102A00004ED500BE03B030BD91F82F40A042DDD1BD
:102A1000002BDBD1244A04F07F0302EB430303EBDA
:102A2000D4132033DA78D107D0D4DB789A07CDD409
:102A30001C491F222046DAE703F06003202B2FD128
:102A40006B78FE2B12D0FF2B2AD16B8843BBE98811
:102A50008AB22ABB134B28469987C3E90D2283F813
:102A6000302083F83E20FEF7F9FEAFE76B88BBB954
:102A7000EB88012B14D18DF807300C4B1BB1AFF351
:102A800000808DF807009DF807304BB1013B012213
:102A90000DF1070128468DF80730FFF7FBFE95E79B
:102AA0000020AFE724250020F425002000000000CE
:102AB00070B5144E054600242046FDF7F7FE38B9E0
:102AC0004FF0E023D3F8F03DDB0700D500BE70BD2A
:102AD00043682846984733780134E4B20133A3426F
:102AE000EADA33220021084801F0FEFC1022FF211F
:102AF000064801F0F9FCBDE8704005481022FF21AE
:102B000001F0F2BC6C200020F4250020F725002005
:102B1000072600202DE98048A44B1B78FF2B89B0A5
:102B200011D133220021A24801F0DEFCA148FEF7BA
:102B3000EBFEA14B186028BB4FF0E023D3F8F03D2B
:102B4000DE0700D500BE994B1B78FF2B00F0D98320
:102B50009A4B4FF0FF32186805A9FEF75DFB00287D
:102B600000F0CF839DF81530013B072B00F27B83EB
:102B7000DFE813F03F0066007903D203DD03720043
:102B80005803E5038E490B46002233F8080B0092E8
:102B90004A684988FEF79EFA884B18600028CBD017
:102BA000884B23B18848AFF30080884B1860864D6E
:102BB00000242046FDF77AFE0028BDD00368984720
:102BC0002B780134E4B20133A342F2DA774A804928
:102BD000002313707F4BDA7A4FF4805042F00102E9
:102BE000DA72C1F884015A7842F040025A704860A3
:102BF000A9E79DF81400FFF75BFF14227648002137
:102C000001F072FC6A4B9DF818209A706B4B1968A2
:102C100071B94FF0E023D3F8F03DDB0708D54FF052
:102C2000400383F31188BFF36F8FBFF34F8F00BE54
:102C3000FDF724FD896BFDF745FD002988D160E390
:102C40009DF81400FFF734FF14220021624801F0C0
:102C50004BFCFFF783F8D9E7554C9DF818702378A3
:102C6000DFF874819DF8149043F00103237094F809
:102C700023306FF3000384F8233094F823306FF38C
:102C8000820384F8233094F824306FF3000384F82F
:102C9000243094F8243007F0600B6FF3820384F83B
:102CA0002430BBF1600F4FF00003C8F810300DD195
:102CB0004FF0E023D3F8F03DDD0700D500BE002043
:102CC000FDF71CFE8020FDF719FE9FE7BBF1400FCA
:102CD0000CD1424B002BF2D006AA01214846C8F87D
:102CE0001030AFF30080002890D1E8E707F01F070D
:102CF000012F00F0F981022F00F02082002FD7D1A0
:102D0000BBF1200F0FD19DF81C300F2BD7D82344D7
:102D1000D878FDF7CBFD01460028D0D006AA48465A
:102D2000FDF7E4FDDFE7BBF1000FC1D19DF81920ED
:102D3000092ABDD801A151F822F000BF9D30000042
:102D40008B300000B12C000077300000B12C000067
:102D5000652D00007D2F0000B12C0000992D000092
:102D6000E52D000008AA12E903001D4A0023D372D2
:102D7000137353739373D373137453749374C8E9B5
:102D80000233144B4822C8E9000183F8022123785A
:102D900043F00203237039E763788DF81230012283
:102DA0000DF1120106A8FFF775FD2FE75C0000206A
:102DB000F425002064250020282600202C26002051
:102DC00004000020000000006C200020682000208B
:102DD00000E100E000000540482200200000000063
:102DE0005C2200209DF81A806378984500F0A1804D
:102DF0006378002B46D0AF4B5A6802F4805A4FF4E8
:102E00008052C3F88420BFF34F8FBFF36F8FAA485F
:102E10000022012103F1C043C18003F58423028114
:102E20004FF0400E482617464FF0800C1A82DA7495
:102E30009D7CED074CBF9E7483F812E09F82DA758B
:102E40009D7DED0744BF90259D75CDB201F1010137
:102E500058BF83F816C00829857380F86220A0F84F
:102E6000642080F86320A0F86620DFD1BAF1000F5B
:102E700003D0904B4FF480525A60A5784846FFF734
:102E800017FEA570B8F1000F53D02378DFF854A2D5
:102E900023F0300323709AF801300B2B03BF9AF80C
:102EA00000309AF803609A4401269AF80130042B06
:102EB0000AD04FF0E023D3F8F03DDB077FF5F8AE02
:102EC00000BEF5E68246E6E77C4BA3EB0A0292B22F
:102ED0004FF0000B7A4B1B785FFA8BF50133AB4256
:102EE000E7DB2846FDF7E2FC07460028E1D08368CF
:102EF00003925146484698470828039A3BD9824294
:102F000039D3012E04D1BA686E4B9A4208BF02260B
:102F10000022D3B29E4212D8504450451AD8684B72
:102F20001B7801339D42C4DC644B9842CAD3FEF740
:102F300027FF84F8018006A8FEF790FC66E69AF861
:102F400002703B4454FA83F30132DF78FF2FB0D193
:102F5000DD70DEE79AF80130052B08D19AF80220DF
:102F600002F07F0304EB430303EBD213DD749AF802
:102F700000309A44D1E70BF1010BABE7BDF81A0022
:102F8000030A5A1EC0B20E2A3FF699AE01A151F8AB
:102F900022F000BFD12F0000F52F000013300000F9
:102FA000BF2C0000BF2C00005F300000F52F000098
:102FB000BF2C0000BF2C0000BF2C0000BF2C000065
:102FC000BF2C0000BF2C0000BF2C0000DD2F000034
:102FD0003D49122206A8FFF75DFC84E63B4B002B1F
:102FE0003FF46DAEAFF30080014600283FF460AEC1
:102FF0004A88EFE7022B01D13549F9E7354B002B21
:103000003FF45DAEAFF3008000283FF451AE0146BF
:10301000EEE760B9304B40F209425A80012201329A
:10302000D2B22D49520042F440730B80D2E70528FA
:103030003FF645AE294B53F820402046FDF716F9E0
:10304000C2B21F2A28BF1F22234B2046A11881424B
:1030500003F10203E3D010F8014B1C80F7E7204B8B
:10306000002B3FF42CAEAFF30080014600283FF464
:1030700026AE0278AEE7BDF81A30012B7FF41FAE02
:10308000237843F00803237055E7BDF81A30012B6D
:103090007FF415AE23786FF3C303F4E72378C3F30B
:1030A00040129B0803F002031343ADF812300222D2
:1030B00076E600BF00E100E000000540B8460000F1
:1030C0006C200020B53D00004446000000000000D8
:1030D0005646000000000000E4220020D046000018
:1030E000000000005F4600009DF81C300F2B3FF6EB
:1030F000E6AD2344D878FDF7D9FB014600283FF41C
:10310000DEAD06AA4846FDF7F1FB00287FF47EAD50
:103110009DF8183013F060037FF4D1AD9DF81920AD
:10312000A2F10A0101293FF6CAAD0A2AC8F81030F7
:103130007FF401AF8DF812303A4631E69DF81C203D
:1031400012F0780F7FF4B4AD02F07F0104EB41067A
:1031500006EBD216D309F07C0393FDF7A7FB4D00D5
:10316000039B8246BBF1000F05D000283FF4A7ADBA
:1031700006AA0146D3E59DF8190000F0FD0CBCF14C
:10318000010F09D000287FF493AD96F82330C3F3E4
:103190004003ADF81230CFE7BDF81A704FBB0128DD
:1031A0003CD196F82320970723D5684A09010A44A1
:1031B000674948684FF4805600F48050C1F8846035
:1031C000BFF34F8FBFF36F8F2BB34026967010B1B4
:1031D0004FF480524A6025442B4493F823206FF328
:1031E000410283F8232093F823206FF3000283F831
:1031F0002320BAF1000F3FF409AD06AA5146484614
:10320000FDF774FB0023C8F8103094F82430DE0773
:103210003FF5FCAC8FE680269671D8E71046FDF7A7
:10322000ADFBE6E79DF818104A4B01F07F0403EB75
:10323000440303EBD113CF0993F823006FF300008D
:1032400083F8230093F823006FF3820083F82300B0
:10325000002C4BD1404C9DF814602378079DB7EBB0
:10326000D31F18D045B14FF0E023D3F8F03DDA0773
:103270007FF5CCAC00BEC9E4384B1BB121463046CB
:10328000AFF300802369002B3FF4C0AC324A032126
:1032900030469847BAE494F90030002B07DBA06869
:1032A00000283FF4B3AC2E492A4601F025F9A26864
:1032B000E3892A442B44A260E2889BB29A42E381CC
:1032C00001D03F2D0FD8236933B92078FEF7BCFA1F
:1032D00000287FF49BACC6E71F4A0221304698477E
:1032E0000028F2D1ECE4FFF7ABFAF1E7D87CFDF768
:1032F000DDFA48B94FF0E023D3F8F03DDC0700D504
:1033000000BEFEF7C9FB1EE40469079B9DF8192067
:103310009DF81400A04779E40E4B1A78D0077FF58A
:1033200075AC1878C0F3C000FEF720FD6EE4094BC1
:103330001B78D9077FF56AACFEF722FD66E4069B91
:10334000002B3FF463AC079898475FE40001054009
:1033500000E100E0F42500204822002000000000E9
:10336000B425002070B5164C4FF4EC7200212046B5
:1033700001F0BAF8FF23002563714FF44243E38064
:10338000012608232A4604F1380104F110002373B2
:103390002681FEF7D7FB324604F1780104F12400C0
:1033A000FEF7D0FB04F1B800FEF7AEFAC4E907500F
:1033B00004F58470FEF7A8FAC4E90C0570BD00BFDF
:1033C0007020002010B5094C002304F11000236088
:1033D0002371FEF7F9FB04F12400FEF7F5FB04F17D
:1033E00024000121BDE81040FEF7D0BB7020002072
:1033F00002484022002101F077B800BF24250020B8
:1034000002484022002101F06FB800BF24250020AF
:103410002DE9F3410746DDE9080488461E4670B9E8
:103420004FF0E023D3F8F03DDD0708D54FF040031F
:1034300083F31188BFF36F8FBFF34F8F00BE74B952
:103440004FF0E023D3F8F03DD90708D54FF0400303
:1034500083F31188BFF36F8FBFF34F8F00BE5C23E0
:103460000193019B5C2B0ED04FF0E023D3F8F03D8D
:10347000DB0708D54FF0400383F31188BFF36F8F4C
:10348000BFF34F8F00BE019B002C00F08D80002801
:1034900000F0998095002A46A521206301F024F8C8
:1034A000226B043D2A4408F1FF3322F0070204F1A5
:1034B000340108F10F0813F8010F01F8010B08B1EE
:1034C0009845F8D10021C4E91361E6624FF080739A
:1034D000C6F1050684F843106161A162A6616165C9
:1034E00084F858102461646242F8043C374B42F877
:1034F0000C3C27F001076FF0020342F8201C42F851
:10350000243C42F8087C443A2260FDF7B7F8304B7F
:10351000304E1A68304D01321A603168002947D1A7
:1035200034601B68012B19D128460131FCF7E0FFFC
:10353000052900F11400F8D1284F29493846FCF735
:10354000D7FF0846FCF7D4FF2648FCF7D1FF2648F2
:10355000FCF7CEFF254B1F60254B1960254A1368E9
:1035600001331360244A63641168E36A14208B42B8
:1035700000FB035004F1040188BF1360FCF7C3FF94
:10358000FDF7A0F81D4B1B6873B13368DA6AE36A74
:103590009A4209D24FF0E0234FF08052C3F8042D35
:1035A000BFF34F8FBFF36F8F204602B0BDE8F081AD
:1035B000124B1B68002BD1D13368DA6AE36A9A4256
:1035C00098BF3460CAE70446EEE700BFDD0500009F
:1035D000DC2E0020802900209429002014330020B4
:1035E00028330020A8330020203400208829002020
:1035F0008C290020E4300020E8320020CC33002069
:103600002DE9FF412B4CE18AA66849BA89B20546EB
:1036100011B1B6FBF1F189B2A76BD4F81100B7FB79
:10362000F1F3A6EB070800BAB8F5007F184428BFED
:103630004FF400780F2801FB13710BD943F60223D6
:10364000A3870120002384F83E3004B0BDE8F04198
:10365000FDF7AEB9184B01EB40214246174819441B
:1036600000F04AFFB74294F82E0014D10023CDE9B0
:1036700001330393124B8DF8080007228DF80520C3
:1036800018688DF804504FF0FF3201A9FDF7E4FEF1
:1036900004B0BDE8F08109491FFA88F2FDF794FFF4
:1036A0000028F5D14FF0E023D3F8F03DDB07EFD54C
:1036B00000BEEDE7242500205D000020242300202B
:1036C0002C2600202DE9F041B14C94F83060012EF9
:1036D00090B00F461D4600F0A881032E00F0F8813F
:1036E000002E36D194F82F308B4201D0012011E00A
:1036F0001F2D03D12268A74B9A420ED094F82E00BA
:10370000042384F83030FDF739F994F82F00FDF7E1
:1037100035F9002010B0BDE8F0819F4B236263684B
:10372000A26884F82C60C4E90936012384F830309B
:10373000E37B03F0FD012829C4E90D263AD1E18A93
:1037400049BA89B212BB002900F069810220FDF755
:103750002FF994F83030022BC8D194F82E008F4BFB
:1037600000F07F0203EB420303EBD0132033DB783E
:103770009B07BBD4A368A26B934240F2D281217B0A
:10378000C90900F0CE81FDF7F9F8AFE7282B0BD17E
:10379000257BED09DAD0A1B18A42D7D3282B40F09E
:1037A0007A81FFF72DFFD4E72A2BF4D1257BED0991
:1037B000F1D0CBE7B2B1217BC90913D1B2F5007FBB
:1037C00001D90120C3E7764992B23846FDF7FCFEE5
:1037D0000028BED14FF0E023D3F8F03DDC0798D5A8
:1037E00000BE97E7252B677B09D8192B11D8032B2F
:1037F00000F0E080122B56D0002B00F00C8194F8E2
:103800003C30002BDDD142F20502A28784F83E3025
:10381000D7E71A3B0B2BF2D801A252F823F000BFD6
:103820004B390000173A0000FF370000FF37000057
:10383000FF370000FF370000FF370000FF370000B0
:10384000FF37000079380000FF37000051380000D2
:10385000534B4FF070614FF40032C3E9001208205F
:10386000A268002AADD0824228BF024662634C495A
:1038700094F82E0092B2A9E700220792ADF8242016
:1038800008228DF81F204FF080520892022207ABC9
:103890008DF82420ADF8262093E80700404D85E8F8
:1038A00007000C20DCE70023CDE9073380238DF8E7
:1038B0001D3002238DF81E308DF81F304FF020355B
:1038C0001F23102220210BA88DF82030CDE90955A7
:1038D00000F00AFE334A0F951068516801AB03C32C
:1038E000314B03AA03F108071646186859681546B4
:1038F00003C50833BB422A46F7D118681B792860F4
:103900002B7101A8294B0093FCF7B0FC01A90246DA
:1039100009A800F0F1FD3046FCF7A8FC314602464C
:103920000BA800F0E9FD6846FCF7A0FC07AD0246D5
:1039300069460FA800F0E0FD0FCD194E0FC60FCD60
:103940000FC62B68336024208AE79DF81E200323CE
:103950008DF81C30002363F306028DF81D308DF8BE
:103960001F30134B8DF81E207BB13846AFF300801B
:103970009DF81E3080F0010060F3C7138DF81E30F3
:10398000074B079A1A6004206AE70120F0E700BF9E
:10399000242500205553424355534253F42500201B
:1039A00024230020554500005D450000312E3000E5
:1039B0000000000094F83C5094F83E6094F83D807C
:1039C0001222002107A800F08FFDF0238DF81C3093
:1039D00005F00F050A238DF81E508DF829608DF82B
:1039E00023308DF8288007AD0FCD544E0FC62B68BD
:1039F0003380534BBBB14FF40072A6F1100138462F
:103A0000AFF3008000239842A38784F83E30FFF68E
:103A1000F6AE7FF425AFA368002B7FF4D2AE02236D
:103A200084F8303095E61220ECE7E27BA36B282A7D
:103A300005D1626B2B449342A363F0D2B1E62A2AEC
:103A40002CD1E08A40BA80B218B1A268B2FBF0F083
:103A500080B2D4F81110B3FBF0F209BA11440F2967
:103A600000FB123007D9A36B2B44A36343F6022358
:103A7000A3870023CAE6334B00EB41202A462F4997
:103A8000184400F039FD002DEDDBA26B636B15448B
:103A90009D42A563C3D2FDF7A7FE5AE62B44A3635C
:103AA000237BDB0907D142F20502A287304684F866
:103AB0003E30FCF77DFFD4E90D329A42AFD24FF091
:103AC000E023D3F8F03DDA077FF543AE00BE40E6D1
:103AD00094F82E308B427FF43CAE0D2D7FF439AE3E
:103AE000E37B282B09D02A2B14D0174B53B1607BD2
:103AF00004F10F01AFF3008004E0144B13B1607BBD
:103B0000AFF300800023124994F82F0084F830307E
:103B10001F225BE60F4B002BF4D0607BAFF30080DD
:103B2000F0E79B1AA3620C4903230D2284F830307E
:103B3000FDF74AFD00287FF4D9AD4BE62423002091
:103B4000000000005D0000200000000000000000F8
:103B50002425002000000000442500202DE9F04726
:103B6000867816F078049CB00AD04FF0E023D3F8A2
:103B7000F03DDB0700D500BE00201CB0BDE8F0879B
:103B8000C578714B82889B7805F00305022DC2F33E
:103B90000A020CD0032D00F0AB80012DE5D1022BE1
:103BA00040F2FF3308BF4FF480639A420DE0022BCE
:103BB0000AD1B2F5007F09D04FF0E023D3F8F03DF1
:103BC000DD07D2D500BED0E7402AF5D806F07F0742
:103BD000F6097B1EC6EBC6011944881C5B4901EB44
:103BE000C0010020C870087148718871C8710872DE
:103BF000487288725649180101EB0313002E7DD0DC
:103C0000012D425208BF4024DC709978CC074CBF8C
:103C10004821402199704F490123C888BB40034384
:103C20009BB2CB80002A7DD0B2FA82F41C2C79DCC6
:103C3000C4F11C04082303FA04F101258A4200930D
:103C4000DFF810814FF4007388BF01340193A94657
:103C5000AA465FFA89F388F80E30B8F8642092B269
:103C60007AB198F86230C3F3001103F00F030B44EC
:103C70000AFA03F329466846FCF700FB411C9BDB6C
:103C80000544B8F8662092B27AB198F86330C3F36D
:103C9000001103F00F030B440AFA03F329466846A8
:103CA000FCF7ECFA421C87DB054409F10109B9F184
:103CB000080FCED14FF0010C0CFA04FC0DEBC5053A
:103CC0006B4600214FF6FE7E9D422DD800293FF421
:103CD00073AF0A68002A3FF448AF1E4B92B29F733D
:103CE000E4B266B3A3F8642083F86240012044E79D
:103CF000022B0CBF4FF48063402356E7012D0CBF0D
:103D0000402100219A80D9719979C8074CBF902130
:103D1000802199710F4901230889BB4003439BB25D
:103D20000B817FE7002485E7D3E90020801A8445D2
:103D300003D8CFD0704598BF19460833C4E7A3F81D
:103D4000662083F86340D1E7F42500205C22002040
:103D50001001054000000540F8B504460D46164622
:103D600002276378052B04D1E37803F00303022BC9
:103D700008D04FF0E023D3F8F03DDA0700D500BEBD
:103D800000200AE02046FFF7E9FE38B94FF0E023B3
:103D9000D3F8F03DDB07F3D500BEF8BDA378DA0910
:103DA00014BF33702B702378012F1C44F5D00127EA
:103DB000D7E7000070B54B79022B02D000252846CA
:103DC00070BD8B79022BF9D11D4EB3784BBB8B782C
:103DD00033700C7809250C4403E023781D44ADB200
:103DE0001C446378242B16D1AA42F6D26378042BA4
:103DF0000DD163790A2B0AD12678124AA019511CD9
:103E0000FFF7AAFF68B10E3516FA85F5ADB20C487A
:103E1000FDF778FED3E7052BE8D12046FFF79EFE9D
:103E200038B94FF0E023D3F8F03DDB07C6D500BE2C
:103E3000C4E7A378737023781D44ADB21C44D5E762
:103E4000702000207220002010B54B79082B084606
:103E500001D0002010BD8B79062BFAD1CB79502BE5
:103E6000F7D1162A07D84FF0E023D3F8F03DD90751
:103E7000EFD500BEEDE7144C8B7884F82D300B782D
:103E800004F12E0204F12F011844FFF765FF38B941
:103E90004FF0E023D3F8F03DDA07DAD500BED9E7DA
:103EA000002394F82F0084F830301F222146FDF7BC
:103EB0008BFB30B94FF0E023D3F8F03DDB0700D5A2
:103EC00000BE1720C6E700BF24250020F0B52C4B0C
:103ED0001A682C4B12B101221A60F0BD2A481A60F0
:103EE00003681B6B1A68B2F1A53F0BD15A68B2F197
:103EF000A53F07D19A68B2F1A53F03D1DB68B3F1C2
:103F0000A53F10D0036803684FF0400383F3118886
:103F1000BFF36F8FBFF34F8F4FF0E023D3F8F03D27
:103F2000DA0700D500BE194E1949326814274FF040
:103F3000E02C07FB02F3CC18CD5885B16568083337
:103F40006D6865600B449D4204BF6B686360142319
:103F500003FB02114B68DB6803603260BDE762B9A6
:103F6000DCF8F03DDB0708D54FF0400383F3118800
:103F7000BFF36F8FBFF34F8F00BE013AD9E700BF89
:103F8000E03000209834002080290020E832002012
:103F900094290020F0B59B4B9B4D1A6E1C6F002C92
:103FA00087B002F4800680F2128114F4006700F0FA
:103FB0000281C4F30211C2F38310FCF757FA002EFA
:103FC00040F0FB80914B2860402283F82C238D4ADF
:103FD000936C43F48033936400238DF80E309DF886
:103FE0000E30132B40F20981864B9A6C22F48032FA
:103FF0009A64D3F8282642F00102C3F828261A6FE3
:1040000022F480421A67D3F8082642F00802C3F867
:104010000826D3F8082A1007FBD57D4AD2F82014C9
:1040200021F03001C2F82014D2F81C1521F0300123
:10403000C2F81C15D2F8281541F03001C2F8281535
:10404000D3F8082642F02002C3F808266D4AD2F8B9
:10405000083A9906FBD56F4BD3F81C1541F00E01B9
:10406000C3F81C150E21C3F80014D3F8001421F076
:104070001001C3F80014D3F8101541F01001C3F873
:104080001015D3F81C1541F01001C3F81C15D2F817
:10409000183643F00103C2F81836D2F8083643F058
:1040A0000103C2F808364FF04023D3F8202442F031
:1040B0000302C3F82024D3F82C2542F01102C3F8E0
:1040C0002C25D3F81C2542F00302C3F81C2503F568
:1040D00000431A6B22F001021A631B225A62082263
:1040E0009A626022DA620022C3F8C82F40F20132DD
:1040F0001A632C230493049B2C2B0ED04FF0E02347
:10410000D3F8F03DDB0708D54FF0400383F3118867
:10411000BFF36F8FBFF34F8F00BE3F4C049B3F4FE9
:10412000022384F82830FDF739F80026FA23C4E981
:1041300006363B4B236294F82830266043F0040394
:1041400084F82830374B66611C60374B0193374B3E
:1041500037490093C02204233648FFF759F9364BFC
:104160000193364B36490093802203233548FFF7ED
:104170004FF93A6801212046FDF7CCFD324B0193FF
:10418000324B00933249334833468022FFF740F9DF
:1041900060B1FDF703F8304B1B68002B62D14FF084
:1041A000E023D3F8F03DDF0700F1FE802B4B1B68C6
:1041B000002007B0F0BD2A4801E7C4F3C55401341C
:1041C000B0FBF4F0002F7FF4FDAE4008FAE612F4E5
:1041D000006410D0C2F30111C2F38410FCF746F959
:1041E000002E3FF4EFAEC2F3C3520132B0FBF2F047
:1041F000002CEAD0E6E61A48F2E79DF80E300133CB
:10420000DBB2EAE600E00F400000002000E100E041
:104210000070004000500240F4260020343400209A
:10422000C5040000F0260020802E0020802B0020F6
:104230006A450000152B00002029002020270020BF
:104240006F450000A12700003C330020E02E002035
:1042500073450000A10400003834002064200020D1
:104260000084D717654B0193654B009365496648F9
:1042700003238022FFF7CCF8002890D04FF04003B2
:1042800083F31188BFF36F8FBFF34F8F5F4B4FF0F6
:10429000FF321A605E4B01221A604FF0E0233E604D
:1042A000D3F8001D5B4A91420CD1D3F8F03DDE07F4
:1042B00008D54FF0400383F31188BFF36F8FBFF32E
:1042C0004F8F00BE4FF0E023534AD3F8001D9142B8
:1042D0000CD1D3F8F03DDC0708D54FF0400383F351
:1042E0001188BFF36F8FBFF34F8F00BE4B4B1A780F
:1042F000D2B20592FF221A701B78494ADBB28DF8C0
:104300000F309DF80F3003F040031370454A072328
:10431000136000219DF80F00000603F1FF344DD417
:1043200011B1042B13600BD04FF0E023D3F8F03D14
:10433000D9074CD44FF0E023D3F8F03DDB0753D43A
:1043400013681B0203F4E0631360059B334A4FF0CC
:10435000E024DBB21370D4F8203D43F46003C4F8CA
:10436000203DD4F8203D002243F06043C4F8203DB6
:104370002261A2612B684FF47A71B3FBF1F3013B28
:10438000636107232361284B1A60FCF713FAD4F802
:10439000343F43F04043C4F8343FFCF75BF9FFF788
:1043A00095FDFCF71BF901E74FF0400383F31188FB
:1043B000BFF36F8FBFF34F8F00BEF7E69DF80F304E
:1043C0005B00DBB28DF80F3001212346A2E74FF0EE
:1043D000400383F31188BFF36F8FBFF34F8F00BE8D
:1043E0001368042BA6D1ABE74FF0400383F3118889
:1043F000BFF36F8FBFF34F8F00BEA1E73C340020A7
:10440000E830002078450000191E00009C33002091
:10441000CC33002071C20F4170C20F4100E400E0B4
:10442000F82900207C2B0020602000202148224A0F
:10443000224908B5121A00F05FF8294829494FF0BF
:1044400000028842B8BF40F8042BFADB1C4BD3F8BB
:10445000882022F47002C3F88820D3F8882042F420
:104460007002C3F88820D3F8882042F47002C3F8A1
:104470008820144B144A1A6702F5612202F2C12205
:104480001A66A2F1BE62A2F68F521A660F4A1A6726
:104490000F4A1A660F4A1A670F4A1A661A6D5206B1
:1044A000FCD50E4A1A664FF0C0721A67BDE8084084
:1044B000FFF770BD0000002068200020E8460000E3
:1044C00000ED00E000E00F40102880070028800188
:1044D000420D9E0100088001420DDE014205DE0111
:1044E000682000209C34002002440346934200D1FF
:1044F000704703F8011BF9E70A44914200F1FF33CA
:1045000000D1704710B511F8014B03F8014F9142EB
:10451000F9D110BD884210B501EB020402D98442E2
:10452000234607D8431EA14208D011F8012B03F8F7
:10453000012FF8E7024401468A4200D110BD13F86A
:10454000014D02F8014DF7E7F8B500BFF8B500BF1F
:10455000546D72510054696E79555342004D617328
:10456000732053746F7261676500757362640063D2
:1045700064630049444C4500546D722053766300D7
:1045800054696E79555342204465766963650031FC
:1045900032333435363738393031320054696E7938
:1045A000555342204344430054696E795553422089
:1045B0004D53430040420F0000201C0080841E0029
:1045C00000802500999E36000040380000093D001B
:1045D00000803E0000004B00404B4C0000204E008D
:1045E000808D5B0000C05D000080700000127A00CA
:1045F00000007D0080969800001BB7000080BB0083
:10460000C0E8CE00647ADA000024F4000000FA006A
:104610000904000065330000C5330000B53D00000B
:10462000F9280000C126000000000000F13300005E
:1046300001340000493E00009D290000C5360000FD
:104640000000000012010002EF020140FECA034018
:104650000001010203010902620003010080320827
:104660000B00020202000009040000010202000423
:104670000524002001052401000104240202052470
:104680000600010705810308001009040100020A61
:1046900000000007050202400000070582024000FA
:1046A0000009040200020806500507050302400045
:1046B00000070583024000004D08000025080000A7
:1046C000270300008118000039080000ED020000F7
:1046D0001046000055450000804500008F45000051
:0846E0009C450000A845000004
:1046E80080F0FA0210000C003026002000000000C4
:1046F80000000000000000000000000000000000B2
:1047080000000000000000000000000000000000A1
:104718000000000000000000000000000000000091
:104728000000000000000000000000000000000081
:10473800000000000000000000000000FFEB3C90BB
:104748004D53444F53352E30000201010001100033
:104758001000F80100010001000000000000000046
:10476800008000293412000054696E7955534220A4
:104778004D534346415431322020200000000000B0
:104788000000000000000000000000000000000021
:104798000000000000000000000000000000000011
:1047A8000000000000000000000000000000000001
:1047B80000000000000000000000000000000000F1
:1047C80000000000000000000000000000000000E1
:1047D80000000000000000000000000000000000D1
:1047E80000000000000000000000000000000000C1
:1047F80000000000000000000000000000000000B1
:1048080000000000000000000000000000000000A0
:104818000000000000000000000000000000000090
:104828000000000000000000000000000000000080
:104838000000000000000000000000000000000070
:104848000000000000000000000000000000000060
:104858000000000000000000000000000000000050
:104868000000000000000000000000000000000040
:104878000000000000000000000000000000000030
:104888000000000000000000000000000000000020
:104898000000000000000000000000000000000010
:1048A8000000000000000000000000000000000000
:1048B80000000000000000000000000000000000F0
:1048C80000000000000000000000000000000000E0
:1048D80000000000000000000000000000000000D0
:1048E80000000000000000000000000000000000C0
:1048F80000000000000000000000000000000000B0
:10490800000000000000000000000000000000009F
:10491800000000000000000000000000000000008F
:10492800000000000000000000000000000000007F
:10493800000000000000000000000055AAF8FFFF7A
:10494800FF0F000000000000000000000000000051
:10495800000000000000000000000000000000004F
:10496800000000000000000000000000000000003F
:10497800000000000000000000000000000000002F
:10498800000000000000000000000000000000001F
:10499800000000000000000000000000000000000F
:1049A80000000000000000000000000000000000FF
:1049B80000000000000000000000000000000000EF
:1049C80000000000000000000000000000000000DF
:1049D80000000000000000000000000000000000CF
:1049E80000000000000000000000000000000000BF
:1049F80000000000000000000000000000000000AF
:104A0800000000000000000000000000000000009E
:104A1800000000000000000000000000000000008E
:104A2800000000000000000000000000000000007E
:104A3800000000000000000000000000000000006E
:104A4800000000000000000000000000000000005E
:104A5800000000000000000000000000000000004E
:104A6800000000000000000000000000000000003E
:104A7800000000000000000000000000000000002E
:104A8800000000000000000000000000000000001E
:104A9800000000000000000000000000000000000E
:104AA80000000000000000000000000000000000FE
:104AB80000000000000000000000000000000000EE
:104AC80000000000000000000000000000000000DE
:104AD80000000000000000000000000000000000CE
:104AE80000000000000000000000000000000000BE
:104AF80000000000000000000000000000000000AE
:104B0800000000000000000000000000000000009D
:104B1800000000000000000000000000000000008D
:104B2800000000000000000000000000000000007D
:104B38000000000000000000000000000054696E42
:104B480079555342204D53430800000000000000EF
:104B58000000004F6D654300000000000052454111
:104B6800444D4520205458542000C6526D65436575
:104B7800430000886D6543020091000000000000BA
:104B8800000000000000000000000000000000001D
:104B9800000000000000000000000000000000000D
:104BA80000000000000000000000000000000000FD
:104BB80000000000000000000000000000000000ED
:104BC80000000000000000000000000000000000DD
:104BD80000000000000000000000000000000000CD
:104BE80000000000000000000000000000000000BD
:104BF80000000000000000000000000000000000AD
:104C0800000000000000000000000000000000009C
:104C1800000000000000000000000000000000008C
:104C2800000000000000000000000000000000007C
:104C3800000000000000000000000000000000006C
:104C4800000000000000000000000000000000005C
:104C5800000000000000000000000000000000004C
:104C6800000000000000000000000000000000003C
:104C7800000000000000000000000000000000002C
:104C8800000000000000000000000000000000001C
:104C9800000000000000000000000000000000000C
:104CA80000000000000000000000000000000000FC
:104CB80000000000000000000000000000000000EC
:104CC80000000000000000000000000000000000DC
:104CD80000000000000000000000000000000000CC
:104CE80000000000000000000000000000000000BC
:104CF80000000000000000000000000000000000AC
:104D0800000000000000000000000000000000009B
:104D1800000000000000000000000000000000008B
:104D2800000000000000000000000000000000007B
:104D38000000000000000000000000000054686946
:104D4800732069732074696E797573622773204DB7
:104D580061737353746F7261676520436C61737319
:104D68002064656D6F2E0D0A0D0A496620796F75EE
:104D78002066696E6420616E792062756773206FA2
:104D8800722067657420616E792071756573746926
:104D98006F6E732C206665656C206672656520747D
:104DA8006F2066696C6520616E0D0A69737375659D
:104DB800206174206769746875622E636F6D2F684F
:104DC8006174686163682F74696E79757362000035
:104DD80000000000000000000000000000000000CB
:104DE80000000000000000000000000000000000BB
:104DF80000000000000000000000000000000000AB
:104E0800000000000000000000000000000000009A
:08674800AAAAAAAA040000009D
:040000030000442D88
:00000001FF
