:10000000008000206D290000BD020000BD0200003C
:10001000BD020000BD020000BD02000000000000A3
:10002000000000000000000000000000BD02000011
:10003000BD02000000000000BD0200007D020000C3
:10004000BD020000BD020000BD020000BD020000B4
:10005000BD020000BD020000BD020000BD020000A4
:10006000BD020000BD020000BD020000BD02000094
:10007000BD020000BD020000BD020000BD02000084
:10008000BD020000BD020000BD020000BD02000074
:10009000BD020000BD020000BD020000BD02000064
:1000A000BD020000BD020000BD0200000000000013
:1000B000BD020000BD020000BD0200000000000003
:1000C00000000000BD020000BD020000BD020000F3
:1000D000BD020000BD020000BD020000BD02000024
:1000E000BD020000BD02000000000000BD020000D3
:1000F00091100000BD020000BD020000BD02000022
:10010000BD020000BD020000BD020000BD020000F3
:100110000000000000000000BD020000BD02000061
:10012000BD020000BD020000BD020000BD020000D3
:10013000BD020000BD020000BD020000BD020000C3
:1001400000000000000000000000000000000000AF
:10015000BD020000BD020000BD020000BD020000A3
:10016000000000000000000000000000000000008F
:10017000000000000000000000000000000000007F
:10018000000000000000000000000000000000006F
:10019000000000000000000000000000000000005F
:1001A000000000000000000000000000000000004F
:1001B000BD020000BD020000BD020000BD02000043
:1001C000BD020000BD020000BD020000BD02000033
:1001D000BD020000BD020000BD020000BD02000023
:1001E000BD020000BD020000BD02000000000000D2
:1001F00000000000BD020000BD020000BD020000C2
:10020000BD020000BD020000000000000000000070
:10021000BD020000BD020000BD020000BD020000E2
:10022000BD020000BD020000BD020000BD020000D2
:10023000BD020000BD020000BD020000BD020000C2
:10024000BD020000BD020000BD020000BD020000B2
:10025000BD020000BD020000BD020000BD020000A2
:10026000BD020000BD020000BD020000034613F8FD
:10027000012B002AFBD1181A01387047024A136873
:1002800001331360704700BFA8250020022908D061
:10029000032908D051B9162808D8054B53F8200077
:1002A00070470448704747F2305070470248704723
:1002B000D82A000000093D000024F400FEE70A44AB
:1002C00092B291424FEA400001D8824201DB121AF9
:1002D00092B2104670470389428981889BB292B2DC
:1002E000934236BFC2EB41029B1A9B1898B28842D8
:1002F00028BF084670478288038940899BB280B234
:10030000834236BFC0EB4200181AC01880B2824246
:1003100086BF101A80B20020704708B50A460189CE
:10032000034689B28088FFF7CAFF188108BD08B567
:100330000A464189034689B28088FFF7C0FF588189
:1003400008BD30B5048943898588A4B29BB29C421C
:1003500036BFC3EB4502E21A121992B2954206D299
:10036000A54294BF631B2B199BB243812A462AB92D
:10037000C1E900228A6030BD641BA4B2A542FBD94A
:100380009D4209D90568A3421D444D6007D2002350
:100390000A804B808B60EEE75B1B9BB2F0E78488A2
:1003A000121BE51A1A440D804A800368F2E703899C
:1003B000428970B59BB292B28488934236BFC2EB39
:1003C00044059D1AED18ADB2AC4206D80023C1E930
:1003D00000338B6070BD1B1B9BB29C42FBD99442C7
:1003E00009D906689A421E444E6007D9D31A0B8079
:1003F00000234B80EDE7121B92B2F0E78288A41A2B
:10040000641BD61A23440E804B800368E1E700008A
:100410000B4B63B10B4B1B78834206D90A4B1B680D
:1004200000EB400003EBC0007047C01AC0B20128C7
:1004300003D8064B00EB4000F4E70020704700BFF4
:1004400000000000202000201C200020382B00008D
:10045000CB6802490B610121184700BF4C210020E5
:10046000064B4FF4805208B15A607047C3F884209D
:10047000BFF34F8FBFF36F8F704700BF00E100E005
:1004800038B500EBC10181421ED90468A24219D3DC
:100490004468A24216D2D0E900549542134420D1B8
:1004A000A34203601BD14A1E121A431C22F007020A
:1004B0008B4288BF002200F1080102F0C9FA4FF018
:1004C000FF3038BD0830DEE7E5D14FF0E023D3F848
:1004D000F03DDB0700D500BE6FF00100F1E7002022
:1004E000EFE7A3424260FAD0C1E900340120E8E717
:1004F00070B522F00304930804440546A54210D1C8
:100500006FF0030404FB03232240012B00EB0204E1
:1005100081BF023B825A0A8002340BB123780B70F0
:1005200070BD55F8046B0E60E8E770B522F0030467
:10053000930804440546A54212D16FF0030404FB5E
:100540000323012B02EA040284BF0D88855200EBCD
:10055000020484BF023B02340BB10B78237070BDE0
:100560000E6845F8046BE6E72DE9F04F98460C233A
:10057000174E03FB08F385B0894606EB030A01A971
:10058000F358154607469847BDF80440DAF808B016
:100590000298AC4228BF2C4622464946D8472C1B1D
:1005A0000AD0BDF806A00398A24528BFA24652462D
:1005B0004946D847A4EB0A040C2303FB0866291B11
:1005C000736889B23846984705B0BDE8F08F00BF20
:1005D000DC2B00002DE9F84FC0F3C01800F07F07B6
:1005E000013FC8EBC804DFF884903C44023409EBB7
:1005F000C4044FEAC80BB4F8095035B9E570257149
:100600006571A5710120BDE8F88F164A3B0102EB28
:10061000071A9E5AB6B2AE4228BF2E46AEB1B9F8FE
:1006200086301149D4F80300FB40DB0701EB87015A
:1006300010D501233246FFF797FFABEB080847447C
:1006400009EBC709AD1BA9F8195001238AF802303C
:100650000020D8E73246FFF74BFF3044C4F80300D0
:10066000EBE700BF10010540240005406021002099
:1006700010B51B4A51684FF4805400F07F03C1F35A
:100680000031C2F88440BFF34F8FBFF36F8F8BB937
:1006900050B9144BFF221A70D8721873587398739C
:1006A000114B202283F80221B1B10D4B4FF480523F
:1006B0005A6011E01A010D4B1344C20902D01022F6
:1006C0009A70F1E79A79D20707D54FF0E023D3F873
:1006D000F03DDB0700D500BE10BD20229A71E3E794
:1006E00000E100E06021002000000540000105401D
:1006F00010B50B4B00F07F0203EB420303EBD01469
:100700002034E3789B0709D4FFF7B2FFE37843F086
:100710000203E370E37843F00103E37010BD00BF10
:10072000A8240020104A00F07F0302EB430202EBF2
:10073000D0132033D87810F0010011D1DA78C2F349
:10074000800152070FD4D87810F001000AD1DA786E
:10075000520708D4DA7842F00402DA7001207047B8
:100760000020704708467047A8240020094B00F07D
:100770007F0203EB420303EBD0102030C3785B070A
:1007800007D5C37813F0010202BFC37862F3820376
:10079000C3707047A824002010B4114B99689A6B5D
:1007A00083F82C00022083F8300093F83C008A1A6A
:1007B0009A6220B942F205049C8783F83E0059B141
:1007C00052B11A7B5DF8044BD20914BF93F82E0086
:1007D00093F82F00FFF78CBF5DF8044B704700BF04
:1007E0002824002070B505890389428986889BB238
:1007F00092B2934236BFC2EB46029B1A9B189BB241
:100800009E420446ADB217D8C079C00914D170BD5C
:100810009B1B9BB2B342FBD2E2882068C2F30E025C
:1008200002FB030002F006F9A08801222946FFF727
:1008300046FD20810120EAE72B46EBE7F0B543783F
:10084000023B85B005460C46032B12D8DFE803F0C7
:1008500002631921314B1A786FF300021A701A786B
:1008600000216FF341021A7059701A7861F3820205
:100870001A702B4B1E6814B93368204698472946D6
:1008800037E0264B1A78D60743D51A7842F004028F
:10089000EEE7224A1378D8073BD513786FF382032B
:1008A0001370E6E7FFF7B4FD20B1436913B169683F
:1008B0002878984701363B78F0B201338342F1DA69
:1008C000164A1378590724D513786FF382031370EF
:1008D0000023CDE9013303932B788DF804300523F1
:1008E0008DF805300E4B1E6814B9336820469847C2
:1008F00001A9301DFFF776FF054614B933680120C2
:10090000984735B94FF0E023D3F8F03DDB0700D529
:1009100000BE05B0F0BD034F0026CCE7A8240020A0
:10092000DC240020202000202DE9F04F89B0C3B244
:10093000464C029300F07F0707F1FF380306C0F32F
:10094000C01504EB081429D5A3789E0606D5A37814
:1009500003F0DB03A37009B0BDE8F08FFFF73AFEA8
:100960000028F8D0C5EBC505A844394D08F10208A8
:1009700005EBC8080121B8F80920B8F807309B1A20
:100980000022CDE9052207228DF8152005A8029A3C
:100990008DF818200793FFF751FFDCE7A37913F0D8
:1009A000400FA37903D003F0BB03A371D3E7D907AA
:1009B00007D44FF0E023D3F8F03DDA07CBD500BEE3
:1009C000C9E7234EB4F804A02389013706EBC70713
:1009D0009BB21FFA8AFAB7F809B0534528BF5346AD
:1009E0005B45019328BF5B46D7F803009946A3B146
:1009F000B6F88430174923FA08F3DB0701EB8801C6
:100A00001AD52B464A460390FFF7AEFD039806EB36
:100A1000C802ABEB0903A2F81930CA4502D8019B02
:100A20005B4511D308F1020306EBC3060023F37004
:100A300033717371B37193E74A46FFF776FD00EBAC
:100A40000903C7F80330E2E70023AEE710010540D1
:100A500060210020240005402DE9F04F00F07F03C5
:100A60007C4D89B017465A00019205EB430202EB18
:100A7000D012203292F80390C9F3000619F0010950
:100A800086468C464FEAD0180DD04FF0E023D3F8BD
:100A9000F03DD80705D44FF00009484609B0BDE83D
:100AA000F08F00BEF7E76C4991F800A0D17841F0D3
:100AB0000101D170694A5168C1F3003B4FF4805184
:100AC000C2F88410BFF34F8FBFF36F8F5BB3644ADC
:100AD00008F1400102EB4101013B012404FA03F655
:100AE0008C8824EA06048C80C8EBC80119440231C2
:100AF00002EBC102C2F803C0A2F80770A2F80970A5
:100B0000B8F1000F06D0FFF765FDBBF1000F1DD057
:100B1000012315E0534A02EB03139A79D107F4D568
:100B200083F80680F1E7402F13D94FF0E023D3F884
:100B3000F03DDA0700D500BEBBF1000F71D00023F5
:100B4000464A4FF480515160002B6AD04FF00109A2
:100B5000A3E7434C2378FF2B13D1002FE5D10021CD
:100B6000FF2BA172D1D1072305A8CDE90511079765
:100B70008DF814A08DF815308DF818E0FFF75EFEA3
:100B8000C3E794F90A20002AE9D1B8EBD31F39D181
:100B900023899F42C9D8BB421A4628BF3A461FFA4A
:100BA00082FAB8F1000F22D060462F49CDE9022326
:100BB000FFF79EFC029A039BA4F80FA01044A3EB3E
:100BC0000A0A402AC4F80B00284A6674A674A4F8DE
:100BD00008A001D1BB4208D8214BFF211970012187
:100BE00099720A2382F802318FE70223FAE71F4B3A
:100BF000C4F80BC0A4F80FA0A4F811A0402283F8F9
:100C0000022182E7B8F1000F3FF47FAF174BE67285
:100C100026736673A673E67326746674A6744822F8
:100C2000EDE7019B1D44A84498F823306FF30003BF
:100C300088F8233098F823306FF3820388F8233044
:100C40004FF0E023D3F8F03DDB077FF524AF00BE83
:100C500023E700BFA82400201400002000E100E0EA
:100C600060210020100105402000054000000540E3
:100C700008B50C4B996B9A6893F82F00521AB2F58D
:100C8000007F28BF4FF40072074992B2FFF7E4FEDD
:100C900030B94FF0E023D3F8F03DDB0700D500BEBC
:100CA00008BD00BF282400202822002038B500F10C
:100CB000100504462846FFF71EFB3F2814D9E078AC
:100CC000FFF730FD80B12846FFF715FB3F28E0789D
:100CD00006D904F1A8014022BDE83840FFF7BCBEA8
:100CE000BDE83840FFF742BD38BD10F0800F4FF02F
:100CF000000211460CBF80201046FFF7ADBE000079
:100D000010B40346064C00685968224603C200220C
:100D1000C4E902225DF8044B1878FFF7E6BF00BF74
:100D20004C21002013B5124B9889D98993F90040C2
:100D3000421A92B2402A28BF4022002C0EDA884282
:100D400012D099680B48019201F074FE0949019A8A
:100D5000802002B0BDE81040FFF77EBE88424FF011
:100D6000000003D10021F4E78020FBE70149F0E710
:100D70004C2100206824002070B50446164D006800
:100D80000B466168AB602E4603C60021E981E1880D
:100D90008A4228BF0A46AA81E18881B152B14BB983
:100DA0004FF0E022D2F8F02DD20701D4002070BD20
:100DB00000BEFBE7FFF7B6FF28B10120F7E7207878
:100DC000FFF793FFF8E74FF0E023D3F8F03DDB07A0
:100DD000ECD500BEEBE700BF4C21002010B5137826
:100DE00003F06003202B104641D1224A83881478F7
:100DF0009C423CD14378203B032B38D8DFE803F0FA
:100E00000214172B012905D11B490722FFF7B4FF54
:100E100001202DE00329FBD1184B002BF8D01649F7
:100E20000020AFF30080F3E70129F1D1ECE70129BD
:100E300002D1FFF765FFEBE70329E9D1438892F878
:100E40002310137103F0010383F0010363F3C7114F
:100E500082F82310DCE70129EBD00329D8D1084B15
:100E6000002BD5D041880020AFF30080D0E70020D0
:100E700010BD00BF242000202A2000200000000018
:100E800000000000012937B5154613D1137803F08F
:100E90007F02022A44D16C78012C41D16A88002A51
:100EA0003ED13A49A88891F83030042BC0B203D122
:100EB000FFF71EFC012019E091F82E20904217D177
:100EC000022BF7D18A6B8B689B1A8B62032381F804
:100ED00030300D222031FFF7BFFD0028EAD14FF05E
:100EE000E023D3F8F03DDB074ED500BE03B030BDA4
:100EF00091F82F40A042DDD1002BDBD1244A04F031
:100F00007F0302EB430303EBD4132033DA78D107DA
:100F1000D0D4DB789A07CDD41C491F222046DAE7CB
:100F200003F06003202B2FD16B78FE2B12D0FF2B08
:100F30002AD16B8843BBE9888AB22ABB134B284667
:100F40009987C3E90D2283F8302083F83E20FFF70C
:100F5000D7FEAFE76B88BBB9EB88012B14D18DF8B6
:100F600007300C4B1BB1AFF300808DF807009DF8E4
:100F700007304BB1013B01220DF1070128468DF8E6
:100F80000730FFF7F9FE95E70020AFE7282400209F
:100F9000A82400200000000070B5144E054600246F
:100FA0002046FFF735FA38B94FF0E023D3F8F03D8B
:100FB000DB0700D500BE70BD4368284698473378EC
:100FC0000134E4B20133A342EADA332200210848B3
:100FD00001F028FD1022FF21064801F023FDBDE8A5
:100FE000704005481022FF2101F01CBD2020002088
:100FF000A8240020AB240020BB24002008B5104BFF
:101000004FF494720021184601F00CFD4FF4424158
:10101000C180012101810821017300F128010161D2
:1010200008494161FF2200F168014271C16100225B
:101030000549428301620283C284828408BD00BFE5
:10104000242000204000010040000180074B0022C6
:101050005A831A601A831A71DA849A8493F82320C7
:1010600042F0800283F82320704700BF2420002034
:1010700002484022002101F0D5BC00BF28240020F6
:1010800002484022002101F0CDBC00BF28240020EE
:101090002DE9F043A04B9C7A5D889F88DB7A1C4049
:1010A000210785B0ADB2BFB20AD50023CDE9013327
:1010B00003930121032301A88DF80530FFF7BEFB40
:1010C000620723D5954A9449FF2313700023937236
:1010D000D3721373537393730122CA8018460B8122
:1010E000D6B20132082A8E7381F86200A1F864300A
:1010F00081F86300A1F86630F2D1012101A8CDE9A1
:10110000013303938DF80510FFF798FBA3070AD569
:101110000023CDE9013303930121052301A88DF8B4
:101120000530FFF78BFBE6070BD50023CDE9013334
:101130000393042301210DEB03008DF80530FFF725
:101140007DFB754AD3881D40EC070AD592F8023121
:10115000DEB213F0040312D0002382F8023125F02E
:1011600001050126002D40F0BD806B4B1B89012538
:101170001F40002F40F0C38005B0BDE8F083674CEE
:1011800006F0010816F0100621784BD08020FF29C8
:1011900082F802011BD0D4F80B20C2B1FF22B4F8B0
:1011A00011002270B4F80F20E37221F07F01CDE925
:1011B0000133121A23736373A3738DF80810072386
:1011C000012101A88DF805300392FFF737FBB8F134
:1011D000000FC4D0504E96F80831082B57D1336A0F
:1011E0002360336A6360002320686168E3722373BD
:1011F0006373A373E37323746374A3744FF4C063C2
:10120000019302AB03C3012101A8FFF717FBE38899
:101210002381002BA3D02378DB09A0D0402386F8BC
:1012200002319CE7B8F1000F3AD0FF29D2D0D4F8B0
:101230000B00002893D092F80881B4F81190384937
:10124000C84528BFC846B8F1400F28BF4FF0400836
:101250004246FFF76AF92289B4F80F30E672A9EB2B
:101260000809A2EB08021FFA89F122810722CDE9C1
:101270000166A4F8119026736673A6735B1A8DF845
:101280000520012101A80393FFF7D8FA67E74FF083
:10129000E023D3F8F03DD8077FF561AF00BE5EE7ED
:1012A000FF2914D0CB0912D12388B3F5A06F04BF56
:1012B000A3781370FF232370B4F81120B4F80F3013
:1012C0004FF4E0619B1A8022CDE90112D9E7D4F8EE
:1012D0000B30002B3FF443AF0023E372237363739F
:1012E000A373E9E795FAA5F4B4FA84F444F0800016
:1012F00006FA04F4FFF718FB25EA040532E797FA2B
:10130000A7F4B4FA84F4204605FA04F4FFF70CFBC2
:1013100027EA04072DE700BF0000054060210020F8
:10132000200005402DE9FF41294CE18AA66849BA11
:1013300089B2054611B1B6FBF1F189B2A76BD4F8B9
:101340001100B7FBF1F3A6EB070800BAB8F5007F70
:10135000184428BF4FF400780F2801FB13710BD9F4
:1013600043F60223A3870120002384F83E3004B013
:10137000BDE8F041FFF710BA164B01EB40214246A1
:101380001548194401F056FBB74294F82E0010D1CD
:101390000021CDE9011107238DF8080001A88DF87F
:1013A00004508DF805300391FFF748FA04B0BDE80A
:1013B000F08109491FFA88F2FFF74EFB0028F5D1AA
:1013C0004FF0E023D3F8F03DDB07EFD500BEEDE7AB
:1013D000282400201C000020282200202DE9F041B4
:1013E000AA4C94F83060012E90B00F461D4600F0D4
:1013F0009981032E00F0EC81002E36D194F82F3025
:101400008B4201D0012011E01F2D03D12268A04B97
:101410009A420ED094F82E00042384F83030FFF75F
:1014200067F994F82F00FFF763F9002010B0BDE8CA
:10143000F081984B23626368A26884F82C60C4E949
:101440000936012384F83030E37B03F0FD012829BD
:10145000C4E90D263AD1E18A49BA89B212BB002902
:1014600000F092800220FFF797F994F83030022BB9
:10147000C8D194F82E00884B00F07F0203EB4203A2
:1014800003EBD0132033DB789B07BBD4A368A26B9C
:10149000934240F2C681217BC90900F0C281FFF767
:1014A00027F9AFE7282B0BD1257BED09DAD0A1B1C5
:1014B0008A42D7D3282B40F06D81FFF733FFD4E762
:1014C0002A2BF4D1257BED09F1D0CBE7B2B1217BFA
:1014D000C90913D1B2F5007F01D90120C3E76F49D3
:1014E00092B23846FFF7B8FA0028BED14FF0E02399
:1014F000D3F8F03DDE0798D500BE97E7252B07D837
:10150000192B0FD8032B00F0D880122B6BD03BB3D4
:1015100094F83C30002BE0D142F20502A28784F817
:101520003E30DAE71A3B0B2BF2D801A252F823F037
:10153000B116000073150000111500001115000010
:101540001115000011150000111500001115000003
:1015500011150000B91500001115000091150000CB
:101560004F4A12786AB143F60222A28784F83E30CD
:10157000CEE7E37C9D0704D5D80702D4484B01226F
:101580001A70A368002BA8D1022384F830306CE7CE
:10159000424B4FF070614FF40032C3E90012082053
:1015A000A268002A99D0824228BF024662633B4962
:1015B00094F82E0092B295E700220792ADF824200D
:1015C00008228DF81F204FF080520892022207ABAC
:1015D0008DF82420ADF8262093E807002F4D85E8EC
:1015E00007000C20DCE70023CDE9073380238DF8CA
:1015F0001D3002238DF81E308DF81F304FF020353E
:101600001F23102220210BA88DF82030CDE9095589
:1016100001F008FA234A0F951068516801AB03C323
:10162000214B03AA03F108071646186859681546A6
:1016300003C50833BB422A46F7D118681B792860D6
:101640002B7101A8194B0093FEF710FE01A9024669
:1016500009A801F0EFF93046FEF708FE31460246D0
:101660000BA801F0E7F96846FEF700FE07AD024659
:1016700069460FA801F0DEF90FCD084E0FC60FCD59
:101680000FC62B68336024208AE700BF282400207F
:101690005553424355534253A8240020282200208A
:1016A000A02500208C2A0000942A0000312E300052
:1016B000624B03221A60042072E794F83C5094F8BD
:1016C0003E6094F83D80677B1222002107A801F05C
:1016D000A9F9F0238DF81C3005F00F050A238DF8C9
:1016E0001E508DF829608DF823308DF8288007ADC5
:1016F0000FCD524E0FC62B683380514B83B14FF440
:101700000072A6F110013846AFF300800023984222
:10171000A38784F83E30FFF6FBAE3FF432AF3FE7DD
:101720001220F3E7E77BA26B282F06D1636B1544E9
:101730009D42A563BFF428AFBFE62A2F2DD1E08AD2
:1017400040BA80B218B1A368B3FBF0F080B2D4F80D
:101750001160B2FBF0F136BA0E440F2E00FB1120DF
:1017600007D9A36B2B44A36343F60223A38700236B
:10177000D5E6344B314900EB46202A46184401F0A7
:1017800059F9002DEDDBA26B636B15449D42A563F7
:10179000BFF4FAAEFFF76CFA67E6237B1544DB096A
:1017A000A56307D142F205023046A28784F83E3095
:1017B000FEF7F2FFD4E90D329A42BFF4E5AE4FF0E6
:1017C000E023D3F8F03DDA077FF54FAE00BE4CE6DC
:1017D00094F82E308B427FF448AE0D2D7FF445AE49
:1017E000E37B282B09D02A2B14D0174B53B1607BF5
:1017F00004F10F01AFF3008004E0144B13B1607BE0
:10180000AFF300800023124994F82F0084F83030A1
:101810001F2267E60F4B002BF4D0607BAFF30080F4
:10182000F0E79B1AA3620C4903230D2284F83030A1
:10183000FFF712F900287FF4E5AD57E628220020D3
:10184000000000001C00002000000000000000005C
:101850002824002000000000482400202DE9F04743
:10186000867816F078049CB00AD04FF0E023D3F8C5
:10187000F03DDB0700D500BE00201CB0BDE8F087BE
:10188000C578714B82889B7805F00305022DC2F361
:101890000A020CD0032D00F0AB80012DE5D1022B04
:1018A00040F2FF3308BF4FF480639A420DE0022BF1
:1018B0000AD1B2F5007F09D04FF0E023D3F8F03D14
:1018C000DD07D2D500BED0E7402AF5D806F07F0765
:1018D000F6097B1EC6EBC6011944881C5B4901EB67
:1018E000C0010020C870087148718871C871087201
:1018F000487288725649180101EB0313002E7DD0FF
:10190000012D425208BF4024DC709978CC074CBFAF
:101910004821402199704F490123C888BB400343A7
:101920009BB2CB80002A7DD0B2FA82F41C2C79DCE9
:10193000C4F11C04082303FA04F101258A42009330
:10194000DFF810814FF4007388BF01340193A9467A
:10195000AA465FFA89F388F80E30B8F8642092B28C
:101960007AB198F86230C3F3001103F00F030B440F
:101970000AFA03F329466846FEF782FD411C9BDB09
:101980000544B8F8662092B27AB198F86330C3F390
:10199000001103F00F030B440AFA03F329466846CB
:1019A000FEF76EFD421C87DB054409F10109B9F120
:1019B000080FCED14FF0010C0CFA04FC0DEBC5055D
:1019C0006B4600214FF6FE7E9D422DD800293FF444
:1019D00073AF0A68002A3FF448AF1E4B92B29F7360
:1019E000E4B266B3A3F8642083F86240012044E7C0
:1019F000022B0CBF4FF48063402356E7012D0CBF30
:101A0000402100219A80D9719979C8074CBF902153
:101A1000802199710F4901230889BB4003439BB280
:101A20000B817FE7002485E7D3E90020801A8445F5
:101A300003D8CFD0704598BF19460833C4E7A3F840
:101A4000662083F86340D1E7A824002060210020AD
:101A50001001054000000540F8B504460D46164645
:101A600002276378052B04D1E37803F00303022BEC
:101A700008D04FF0E023D3F8F03DDA0700D500BEE0
:101A800000200AE02046FFF7E9FE38B94FF0E023D6
:101A9000D3F8F03DDB07F3D500BEF8BDA378DA0933
:101AA00014BF33702B702378012F1C44F5D001270D
:101AB000D7E7000070B54B79022B02D000252846ED
:101AC00070BD8B79022BF9D11D4EB3784BBB8B784F
:101AD00033700C7809250C4403E023781D44ADB223
:101AE0001C446378242B16D1AA42F6D26378042BC7
:101AF0000DD163790A2B0AD12678124AA019511CFC
:101B0000FFF7AAFF68B10E3516FA85F5ADB20C489D
:101B1000FFF7CCF8D3E7052BE8D12046FFF79EFE70
:101B200038B94FF0E023D3F8F03DDB07C6D500BE4F
:101B3000C4E7A378737023781D44ADB21C44D5E785
:101B4000242000202620002010B54B79082B0846C1
:101B500001D0002010BD8B79062BFAD1CB79502B08
:101B6000F7D1162A07D84FF0E023D3F8F03DD90774
:101B7000EFD500BEEDE7144C8B7884F82D300B7850
:101B800004F12E0204F12F011844FFF765FF38B964
:101B90004FF0E023D3F8F03DDA07DAD500BED9E7FD
:101BA000002394F82F0084F830301F222146FEF7DE
:101BB00053FF30B94FF0E023D3F8F03DDB0700D5F9
:101BC00000BE1720C6E700BF282400202DE9F047FB
:101BD0000389448987889BB2A4B2A34236BFC4EB71
:101BE00047051D1BED18ADB206468846F5B1AF425C
:101BF00006D2BB422CBFDB1BDB199CB244813D46A5
:101C0000954228BF1546A7421AD9F2883168A7EB3A
:101C100004091FFA89F9C2F30E0A4D4552460AFB20
:101C2000041110D86A43404600F004FF7189B0885F
:101C30002A4689B2FEF743FB70812846BDE8F0874B
:101C4000E41BA4B2DFE719FB0AF91FFA89F94A4637
:101C5000404600F0EFFEEA1B224412FB0AF2316814
:101C600092B208EB0900DFE738B5184B5A780AB989
:101C7000002038BD1B785A07FAD4154D05F11C0019
:101C8000FEF729FB0028F3D0A878FEF74BFD0028CB
:101C9000EED0402205F1E80105F11C00FFF796FFA8
:101CA0000446A8786CB1224605F1E801FEF7D4FE9F
:101CB00048B94FF0E023D3F8F03DDB07D8D500BE9C
:101CC000D7E7FEF753FD2046D3E700BFA824002046
:101CD000242000202DE9F84FC3790689B0F804903C
:101CE00088464189DB0907461546B6B289B215D147
:101CF0008E4239BFC1EB4904A419711A8CB238BFA6
:101D0000A4B24C4536BFA9EB04040024A4B2A242FD
:101D100028BF2546002D3DD1BDE8F88F4A4509D39F
:101D2000C388A2EB0905C3F30E0303FB05880E4627
:101D30004D46EFE78E424FEA490236BF531A731AF7
:101D40009B199BB22B449342E4DBA9EB050292B2B0
:101D50004846FEF7B4FA0646DCE7A4EB0904A4B251
:101D60004C45FAD2FA883868A9EB040A1FFA8AFAB5
:101D7000C2F30E0B55455A460BFB04000CD86A43C0
:101D8000414600F057FEB8882A463146FEF797FADA
:101D90003881C1E73446E3E71AFB0BFA1FFA8AFAE7
:101DA0005246414600F046FEA5EB0903E21812FB3D
:101DB0000BF2386892B208EB0A01E2E72DE9F34131
:101DC000314C1D46E3788B420E4607D0A3788B42F8
:101DD0004CD1A378B34229D0012550E0AAB22AB150
:101DE00004F1A80104F11000FFF774FF274B2BB991
:101DF0002548238B638BFEF759FFEAE76379FF2BB6
:101E0000F6D0DFF894800027AF42F1D0617918F85E
:101E1000013B994208D1228B638B92B29BB29A42CA
:101E200002D00020AFF300800137EDE7184B13B16B
:101E30000020AFF30080FFF717FF0028CCD1154832
:101E4000FEF749FA0028C7D1002DC5D015F03F0292
:101E5000C2D1A0780192FEF765FC019A05460028E0
:101E6000BAD0A0781146FEF7F7FD08E04FF0E02366
:101E7000D3F8F05D15F0010501D000BE002528461D
:101E800002B0BDE8F08100BF242000200000000067
:101E90000000000040200020CC2000202DE98048D8
:101EA000B64BB74C1A6E1D6F002D95B002F480062C
:101EB00080F22C8115F4006700F01C81C5F302113B
:101EC000C2F38310FEF7E2F9002E40F01581206086
:101ED00023684FF47A72B3FBF2F3013BB3F1807FD6
:101EE0000AD24FF0E022E0215361A64B83F8231081
:101EF0000023936107231361A04A936C43F480335A
:101F0000936400238DF80D309DF80D30132B40F2B3
:101F100013819A4B9A6C22F480329A64D3F8282663
:101F200042F00102C3F828261A6F22F480421A6791
:101F3000D3F8082642F00802C3F80826D3F8082A86
:101F40001207FBD5904AD2F8201421F03001C2F8D4
:101F50002014D2F81C1521F03001C2F81C15D2F85B
:101F6000281541F03001C2F82815D3F8082642F0B0
:101F70002002C3F80826814AD2F8083A9B06FBD50E
:101F8000824BD3F81C1541F00E01C3F81C150E212D
:101F9000C3F80014D3F8001421F01001C3F80014A2
:101FA000D3F8101541F01001C3F81015D3F81C1523
:101FB00041F01001C3F81C15D2F8183643F00103A4
:101FC000C2F81836D2F8083643F00103C2F80836D2
:101FD0004FF040230024D3F8202442F00302C3F83A
:101FE0002024D3F82C2542F01102C3F82C25D3F875
:101FF0001C2542F00302C3F81C2503F500431A6BAD
:1020000022F001021A631B225A6208229A6260229D
:10201000DA6240F20132C3F8C84F1A635C4B1B7896
:10202000FF2B1ED133225B48214600F0FBFC5A4BAC
:102030005A4ADC8113609C81594B23B15948AFF354
:102040000080594B1860574D00242046FEF7E0F9F8
:10205000002876D14FF0E023D3F8F03DDF0700D51C
:1020600000BE4B4B1B78FF2B00F00F844B4B1D68C1
:1020700000202B689847A989EB89288989B29BB2EF
:10208000994236BFC3EB4002CA1A521894B2A4B1A7
:10209000A04205D281422CBF091A09188BB2EB81EC
:1020A000984240F289806A896968C2F30E0202FB95
:1020B000031104A800F0BEFC0124E9892889224606
:1020C00089B2FEF7FCF82B68E88101209847002CC4
:1020D00000F0DB839DF81130013B072B00F26B838E
:1020E000DFE813F06D007B00690315041E0488000F
:1020F000480327042D48E7E6C5F3C5550135B0FB75
:10210000F5F0002F7FF4E3AE4008E0E612F400653E
:1021100010D0C2F30111C2F38410FEF7B7F8002EFD
:102120003FF4D5AEC2F3C3520132B0FBF2F0002D42
:10213000EAD0CCE61D48F2E79DF80D300133DBB262
:10214000E0E6036898472B780134E4B20133A342F8
:10215000BFF67BAF0E4A164900231370154BDA7A8F
:102160004FF4805042F00102DA72C1F884015A78CB
:1021700042F040025A70486073E700BF00E00F4031
:102180000000002000ED00E0007000400050024020
:1021900014000020A824002004000020DC240020DB
:1021A00000000000202000201C2000200084D71701
:1021B00000E100E0000005401B1A9BB270E79DF8AB
:1021C0001000FEF7E9FE1422B648002100F02AFCB8
:1021D000B54B9DF814209A7048E79DF81000FEF763
:1021E000DBFE1422AF48002100F01CFCAF4BFA22AA
:1021F0001A603BE7AC4C9DF814702378DFF8A4829A
:102200009DF8109043F00103237094F823306FF38E
:10221000000384F8233094F823306FF3820384F8AA
:10222000233094F824306FF3000384F8243094F8BA
:10223000243007F0600B6FF3820384F82430BBF185
:10224000600F4FF00003C8F810300DD14FF0E023BD
:10225000D3F8F03DDC0700D500BE0020FEF708FAF9
:102260008020FEF705FA01E7BBF1400F0DD1904B3E
:10227000002BF2D005AA01214846C8F81030AFF370
:10228000008000287FF4F2AEE7E707F01F07012F78
:1022900000F0D781022F00F0FB81002FD6D1BBF1D7
:1022A000200F0FD19DF818300F2BD6D82344D878A3
:1022B000FEF7AEF801460028CFD005AA4846FEF743
:1022C000C7F8DEE7BBF1000FC0D19DF81520092A41
:1022D000BCD801A151F822F02D2600001B260000D9
:1022E0004D220000072600004D22000001230000BF
:1022F0000F2500004D22000033230000472300007B
:102300006C4A0023DDE90501D37213735373937391
:10231000D373137453749374C8E90233664B482221
:10232000C8E9000183F80221237843F002032370F7
:102330009CE663788DF80E3001220DF10E0105A8A0
:10234000FEF71AFD92E69DF816806378984500F036
:10235000A2806378002B45D0584B5D684FF48052C3
:1023600005F48055C3F88420BFF34F8FBFF36F8F00
:1023700051480022012103F1C043C18003F58423A9
:10238000028140274FF0480C96464FF0800A1A828F
:10239000DA749E7CF6074CBF83F812C09F74A3F8D2
:1023A00014E0DA759E7DF60744BF90269E75CEB286
:1023B00001F1010158BF83F816A00829867380F83F
:1023C0006220A0F8642080F86320A0F86620DED1A7
:1023D0001DB13A4B4FF480525A60A5784846FEF73B
:1023E000DBFDA570B8F1000F55D02378DFF8DCA035
:1023F00023F0300323709AF801300B2B03BF9AF8B7
:1024000000309AF803609A4401269AF80130042BB0
:102410000AD04FF0E023D3F8F03DDF077FF516AF89
:1024200000BE13E78246E6E7254BA3EB0A0292B211
:102430004FF0000B234B1B785FFA8BF50133AB4257
:10244000E7DB2846FDF7E4FF07460028E1D0836874
:1024500001925146484698470828019A54D9824229
:1024600052D3012E04D1BA68174B9A4208BF0226F4
:102470000022D3B29E422BD85044504533D8114B42
:102480001B7801339D42C4DC0D4B9842CAD3074BE5
:102490004FF47A721A6084F8018005A8FEF730FCC8
:1024A000E4E500BF4C210020A824002018000020F3
:1024B00000000000602100200000054000E100E075
:1024C000DC2B000020200020B51A0000832B000028
:1024D0009AF802703B4454FA83F30132DF78FF2FFD
:1024E00097D1DD70C5E79AF80130052B08D19AF82D
:1024F000022002F07F0304EB430303EBD213DD74ED
:102500009AF800309A44B8E70BF1010B92E7BDF856
:102510001600030A5A1EC0B20E2A3FF69EAE01A153
:1025200051F822F06125000085250000A325000058
:102530005B2200005B220000EF25000085250000E3
:102540005B2200005B2200005B2200005B22000097
:102550005B2200005B2200005B2200006D25000072
:10256000B549122205A8FEF707FC8AE6B34B002BFB
:102570003FF473AEAFF30080014600283FF466AE2F
:102580004A88EFE7022B01D1AD49F9E7AD4B002BAB
:102590003FF463AEAFF3008000283FF457AE01462E
:1025A000EEE760B9A84B40F209425A80012201329D
:1025B000D2B2A549520042F440730B80D2E70528FD
:1025C0003FF64BAEA14B53F820402046FDF74EFEA0
:1025D000C2B21F2A28BF1F229B4B2046A11881424E
:1025E00003F10203E3D010F8014B1C80F7E7984B8E
:1025F000002B3FF432AEAFF30080014600283FF4D9
:102600002CAE0278AEE7BDF81630012B7FF425AE74
:10261000237843F0080323703FE7BDF81630012B01
:102620007FF41BAE23786FF3C303F4E72378C3F37F
:1026300040129B0803F002031343ADF80E30022250
:102640007BE69DF818300F2B3FF607AE2344D87871
:10265000FDF7DEFE014600283FF4FFAD05AA48461F
:10266000FDF7F6FE00287FF401AD9DF8143013F05D
:1026700060037FF4F2AD9DF81520A2F10A01012953
:102680003FF6EBAD0A2AC8F810307FF406AF51E6EA
:102690009DF8182012F0780F7FF4D8AD02F07F017A
:1026A00004EB410606EBD216D309F07C0193FDF74B
:1026B000AFFE4D00019B8246BBF1000F05D0002804
:1026C0003FF4CBAD05AA0146F8E59DF8150000F0F2
:1026D000FD0CBCF1010F07D000287FF4B7AD96F8D0
:1026E0002330C3F34003A8E7BDF816704FBB0128A1
:1026F0003CD196F82320960723D5564A09010A446F
:10270000554948684FF4805600F48050C1F8846001
:10271000BFF34F8FBFF36F8F2BB34026967010B16E
:102720004FF480524A6025442B4493F823206FF3E2
:10273000410283F8232093F823206FF3000283F8EB
:102740002320BAF1000F3FF491AC05AA5146484648
:10275000FDF77EFE0023C8F8103094F82430DD0722
:102760003FF584AC99E680269671D8E71046FDF7D0
:10277000BFFFE6E79DF81410384B01F07F0403EB30
:10278000440303EBD113CE0993F823006FF3000049
:1027900083F8230093F823006FF3820083F823006B
:1027A000002C66D12E4C9DF810702378069DB6EB58
:1027B000D31F18D045B14FF0E023D3F8F03DDB072D
:1027C0007FF554AC00BE51E4264B1BB12146384680
:1027D000AFF300802369002B3FF448AC204A03216B
:1027E0003846984742E494F90030002B07DBA06894
:1027F00000283FF43BAC1C492A4600F01BF9A268B4
:10280000E3892A442B44A260E2889BB29A42E38186
:1028100001D03F2D2AD8236933B92078FEF765FA15
:1028200000287FF423ACC6E70D4A022138469847BA
:102830000028F2D112E500BF682B00000000000064
:102840007A2B000000000000E8210020F42B00009B
:10285000000000000001054000E100E0A824002085
:102860004C2100200000000068240020FEF75AFAE6
:10287000D6E7D87CFDF7CCFD00283FD14FF0E02310
:10288000D3F8F03DD80700D500BE2F4B2F49304874
:102890001A680B680068D21A82420FD303442D488D
:1028A0000B602D4A0378D2F8FC13002B49D041F07D
:1028B000040183F00103C2F8FC1303702748FDF7FD
:1028C0000AFD00283FF4CDAB2448402204A9FFF7BD
:1028D0007DF904462248FEF7E9F924B12148224651
:1028E00004A9FFF7F7F91F48FDF7F5FC3F2801D9C8
:1028F000FFF7BAF9FFF7B8F9FFF7B3BB0469069B16
:102900009DF815209DF81000A047FFF7AFBB164BB0
:102910001B78D9077FF5AAAB0D4B40F6C41267E4CC
:10292000114B1B78DA077FF5A1AB094B4FF47A7294
:102930005EE4059B002B3FF499AB06989847FFF7A0
:1029400095BB21F00401B4E7A8250020A4250020B0
:1029500018000020A1250020005002403420002053
:102960002420002040200020A82400202048214AC4
:10297000214908B5121A00F05DF8284828494FF09F
:1029800000028842B8BF40F8042BFADB1B4BD3F897
:10299000882022F47002C3F88820D3F8882042F4FB
:1029A0007002C3F88820D3F8882042F47002C3F87C
:1029B0008820134B134A1A6702F5612202F2C122E2
:1029C0001A66A2F1BE62A2F68F521A660E4A1A6702
:1029D0000E4A1A660E4A1A670E4A1A661A6D52068F
:1029E000FCD50D4A1A664FF0C0721A67FFF756FA07
:1029F000000000201C2000200C2C000000ED00E056
:102A000000E00F401028800700288001420D9E0141
:102A100000088001420DDE014205DE011C2000207D
:102A2000AC25002002440346934200D1704703F8CE
:102A3000011BF9E70A44914200F1FF3300D17047CE
:102A400010B511F8014B03F8014F9142F9D110BDB7
:102A5000884210B501EB020402D98442234607D80C
:102A6000431EA14208D011F8012B03F8012FF8E70B
:102A7000024401468A4200D110BD13F8014D02F80C
:102A8000014DF7E7F8B500BFF8B500BF54696E799E
:102A9000555342004D6173732053746F72616765C3
:102AA0000054696E79555342204465766963650028
:102AB0003132333435363738393031320054696E7B
:102AC00079555342204344430054696E795553422B
:102AD000204D53430000000040420F0000201C0026
:102AE00080841E0000802500999E3600004038003A
:102AF00000093D0000803E0000004B00404B4C00B0
:102B000000204E00808D5B0000C05D0000807000E2
:102B100000127A0000007D0080969800001BB7002C
:102B20000080BB00C0E8CE00647ADA000024F40024
:102B30000000FA0009040000FD0F00004D10000025
:102B4000B51A0000DD0D0000BD1D000000000000F2
:102B50007110000081100000491B0000850E00006C
:102B6000DD1300000000000012010002EF0201402E
:102B7000FECA0340000101020301090262000301D1
:102B8000008032080B00020202000009040000016C
:102B90000202000405240020010524010001042490
:102BA000020205240600010705810308001009043C
:102BB0000100020A000000070502024000000705AC
:102BC00082024000000904020002080650050705C1
:102BD000030240000007058302400000AF0300002D
:102BE0001B0300002B050000430300002F0300001F
:102BF000F1040000342B00008C2A0000A12A000000
:0C2C0000B02A0000BD2A0000C92A000014
:102C0C0080F0FA0261040000E024002010000C00A7
:102C1C0000000000FF000000FA000000EB3C904DAB
:102C2C0053444F53352E30000201010001100010A7
:102C3C0000F801000100010000000000000000008D
:102C4C008000293412000054696E79555342204D8E
:102C5C005343464154313220202000000000000034
:102C6C000000000000000000000000000000000058
:102C7C000000000000000000000000000000000048
:102C8C000000000000000000000000000000000038
:102C9C000000000000000000000000000000000028
:102CAC000000000000000000000000000000000018
:102CBC000000000000000000000000000000000008
:102CCC0000000000000000000000000000000000F8
:102CDC0000000000000000000000000000000000E8
:102CEC0000000000000000000000000000000000D8
:102CFC0000000000000000000000000000000000C8
:102D0C0000000000000000000000000000000000B7
:102D1C0000000000000000000000000000000000A7
:102D2C000000000000000000000000000000000097
:102D3C000000000000000000000000000000000087
:102D4C000000000000000000000000000000000077
:102D5C000000000000000000000000000000000067
:102D6C000000000000000000000000000000000057
:102D7C000000000000000000000000000000000047
:102D8C000000000000000000000000000000000037
:102D9C000000000000000000000000000000000027
:102DAC000000000000000000000000000000000017
:102DBC000000000000000000000000000000000007
:102DCC0000000000000000000000000000000000F7
:102DDC0000000000000000000000000000000000E7
:102DEC0000000000000000000000000000000000D7
:102DFC0000000000000000000000000000000000C7
:102E0C0000000000000000000000000000000000B6
:102E1C000000000000000000000055AAF8FFFFFFB2
:102E2C000F00000000000000000000000000000087
:102E3C000000000000000000000000000000000086
:102E4C000000000000000000000000000000000076
:102E5C000000000000000000000000000000000066
:102E6C000000000000000000000000000000000056
:102E7C000000000000000000000000000000000046
:102E8C000000000000000000000000000000000036
:102E9C000000000000000000000000000000000026
:102EAC000000000000000000000000000000000016
:102EBC000000000000000000000000000000000006
:102ECC0000000000000000000000000000000000F6
:102EDC0000000000000000000000000000000000E6
:102EEC0000000000000000000000000000000000D6
:102EFC0000000000000000000000000000000000C6
:102F0C0000000000000000000000000000000000B5
:102F1C0000000000000000000000000000000000A5
:102F2C000000000000000000000000000000000095
:102F3C000000000000000000000000000000000085
:102F4C000000000000000000000000000000000075
:102F5C000000000000000000000000000000000065
:102F6C000000000000000000000000000000000055
:102F7C000000000000000000000000000000000045
:102F8C000000000000000000000000000000000035
:102F9C000000000000000000000000000000000025
:102FAC000000000000000000000000000000000015
:102FBC000000000000000000000000000000000005
:102FCC0000000000000000000000000000000000F5
:102FDC0000000000000000000000000000000000E5
:102FEC0000000000000000000000000000000000D5
:102FFC0000000000000000000000000000000000C5
:10300C0000000000000000000000000000000000B4
:10301C0000000000000000000000000054696E7900
:10302C00555342204D53430800000000000000009F
:10303C0000004F6D65430000000000005245414404
:10304C004D4520205458542000C6526D65436543AD
:10305C000000886D65430200910000000000000034
:10306C000000000000000000000000000000000054
:10307C000000000000000000000000000000000044
:10308C000000000000000000000000000000000034
:10309C000000000000000000000000000000000024
:1030AC000000000000000000000000000000000014
:1030BC000000000000000000000000000000000004
:1030CC0000000000000000000000000000000000F4
:1030DC0000000000000000000000000000000000E4
:1030EC0000000000000000000000000000000000D4
:1030FC0000000000000000000000000000000000C4
:10310C0000000000000000000000000000000000B3
:10311C0000000000000000000000000000000000A3
:10312C000000000000000000000000000000000093
:10313C000000000000000000000000000000000083
:10314C000000000000000000000000000000000073
:10315C000000000000000000000000000000000063
:10316C000000000000000000000000000000000053
:10317C000000000000000000000000000000000043
:10318C000000000000000000000000000000000033
:10319C000000000000000000000000000000000023
:1031AC000000000000000000000000000000000013
:1031BC000000000000000000000000000000000003
:1031CC0000000000000000000000000000000000F3
:1031DC0000000000000000000000000000000000E3
:1031EC0000000000000000000000000000000000D3
:1031FC0000000000000000000000000000000000C3
:10320C0000000000000000000000000000000000B2
:10321C00000000000000000000000000546869730A
:10322C002069732074696E797573622773204D6100
:10323C00737353746F7261676520436C6173732091
:10324C0064656D6F2E0D0A0D0A496620796F752025
:10325C0066696E6420616E792062756773206F7287
:10326C002067657420616E79207175657374696F60
:10327C006E732C206665656C206672656520746FB4
:10328C002066696C6520616E0D0A69737375652023
:10329C006174206769746875622E636F6D2F686145
:1032AC0074686163682F74696E79757362000000CD
:1032BC000000000000000000000000000000000002
:1032CC0000000000000000000000000000000000F2
:1032DC0000000000000000000000000000000000E2
:1032EC0000000000000000000000000000000000D2
:040000030000296D63
:00000001FF
