:1000000000800020192300009D0400009D040000D2
:100010009D0400009D0400009D04000000000000FD
:100020000000000000000000000000009D0400002F
:100030009D040000000000009D040000A1040000D9
:100040009D0400009D0400009D0400009D0400002C
:100050009D0400009D0400009D0400009D0400001C
:100060009D0400009D0400009D0400009D0400000C
:100070009D0400009D0400009D0400009D040000FC
:100080009D0400009D0400009D0400009D040000EC
:100090009D0400009D0400009D0400009D040000DC
:1000A0009D0400009D0400009D040000000000006D
:1000B0009D0400009D0400009D040000000000005D
:1000C000000000009D0400009D0400009D0400004D
:1000D0009D0400009D0400009D0400009D0400009C
:1000E0009D0400009D040000000000009D0400002D
:1000F000AD0B00009D0400009D0400009D04000065
:100100009D0400009D0400009D0400009D0400006B
:1001100000000000000000009D0400009D0400009D
:100120009D0400009D0400009D0400009D0400004B
:100130009D0400009D0400009D0400009D0400003B
:1001400000000000000000000000000000000000AF
:100150009D0400009D0400009D0400009D0400001B
:10016000000000000000000000000000000000008F
:10017000000000000000000000000000000000007F
:10018000000000000000000000000000000000006F
:10019000000000000000000000000000000000005F
:1001A000000000000000000000000000000000004F
:1001B0009D0400009D0400009D0400009D040000BB
:1001C0009D0400009D0400009D0400009D040000AB
:1001D0009D0400009D0400009D0400009D0400009B
:1001E0009D0400009D0400009D040000000000002C
:1001F000000000009D0400009D0400009D0400001C
:100200009D0400009D0400000000000000000000AC
:100210009D0400009D0400009D0400009D0400005A
:100220009D0400009D0400009D0400009D0400004A
:100230009D0400009D0400009D0400009D0400003A
:100240009D0400009D0400009D0400009D0400002A
:100250009D0400009D0400009D0400009D0400001A
:100260009D0400009D0400009D040000034613F857
:10027000012B002AFBD1181A0138704738B500EB62
:10028000C10181421ED90468A24219D34468A24226
:1002900016D2D0E900549542134420D1A342036002
:1002A0001BD14A1E121A431C22F007028B4288BF40
:1002B000002200F1080102F0A1F84FF0FF3038BD34
:1002C0000830DEE7E5D14FF0E023D3F8F03DDB075F
:1002D00000D500BE6FF00100F1E70020EFE7A34278
:1002E0004260FAD0C1E900340120E8E770B522F09D
:1002F0000304930804440546A54210D16FF003049B
:1003000004FB03232240012B00EB020481BF023BCC
:10031000825A0A8002340BB123780B7070BD55F8F5
:10032000046B0E60E8E770B522F003049308044400
:100330000546A54212D16FF0030404FB0323012BF1
:1003400002EA040284BF0D88855200EB020484BFD8
:10035000023B02340BB10B78237070BD0E6845F878
:10036000046BE6E72DE9F04F98460C23174E03FB8C
:1003700008F385B0894606EB030A01A9F358154630
:1003800007469847BDF80440DAF808B00298AC4236
:1003900028BF2C4622464946D8472C1B0AD0BDF818
:1003A00006A00398A24528BFA24652464946D84710
:1003B000A4EB0A040C2303FB0866291B736889B2AB
:1003C0003846984705B0BDE8F08F00BF7C25000097
:1003D0002DE9F84FC0F3C01800F07F07013FC8EBCC
:1003E000C804DFF884903C44023409EBC4044FEAAB
:1003F000C80BB4F8095035B9E57025716571A57160
:100400000120BDE8F88F164A3B0102EB071A9E5AFD
:10041000B6B2AE4228BF2E46AEB1B9F88630114909
:10042000D4F80300FB40DB0701EB870110D5012363
:100430003246FFF797FFABEB0808474409EBC709C3
:10044000AD1BA9F8195001238AF802300020D8E723
:100450003246FFF74BFF3044C4F80300EBE700BF20
:10046000100105402400054084020020022908D024
:10047000032908D051B9162808D8054B53F8200095
:1004800070470448704747F2305070470248704741
:100490006424000000093D000024F400FEE7000091
:1004A000024A136801331360704700BF84040020C0
:1004B0000A4492B291424FEA400001D8824201DBE5
:1004C000121A92B2104670470389428981889BB202
:1004D00092B2934236BFC2EB41029B1A9B1898B26C
:1004E000884228BF084670478288038940899BB2AA
:1004F00080B2834236BFC0EB4200181AC01880B2E7
:10050000824286BF101A80B20020704708B50A46A2
:100510000189034689B28088FFF7CAFF188108BDA8
:1005200008B50A464189034689B28088FFF7C0FFB3
:10053000588108BD30B5048943898588A4B29BB22F
:100540009C4236BFC3EB4502E21A121992B29542A1
:1005500006D2A54294BF631B2B199BB243812A4646
:100560002AB9C1E900228A6030BD641BA4B2A54249
:10057000FBD99D4209D90568A3421D444D6007D2AD
:1005800000230A804B808B60EEE75B1B9BB2F0E799
:100590008488121BE51A1A440D804A800368F2E72A
:1005A0000389428970B59BB292B28488934236BF68
:1005B000C2EB44059D1AED18ADB2AC4206D800233B
:1005C000C1E900338B6070BD1B1B9BB29C42FBD901
:1005D000944209D906689A421E444E6007D9D31A3C
:1005E0000B8000234B80EDE7121B92B2F0E782886C
:1005F000A41A641BD61A23440E804B800368E1E7DB
:10060000094B63B1094B1B78834206D9084B1B6821
:1006100000EB400003EBC0007047C01AC0B20028D6
:10062000044818BF00207047000000001C00002094
:1006300018000020C4240000CB6802490B6101218E
:10064000184700BF70020020064B4FF4805208B1DB
:100650005A607047C3F88420BFF34F8FBFF36F8F8A
:10066000704700BF00E100E0104A00F07F0302EB9A
:10067000430202EBD0132033D87810F0010011D1DF
:10068000DA78C2F3800152070FD4D87810F0010055
:100690000AD1DA78520708D4DA7842F00402DA7024
:1006A0000120704700207047084670478C030020E7
:1006B00010B51B4A51684FF4805400F07F03C1F31A
:1006C0000031C2F88440BFF34F8FBFF36F8F8BB9F7
:1006D00050B9144BFF221A70D8721873587398735C
:1006E000114B202283F80221B1B10D4B4FF48052FF
:1006F0005A6011E01A010D4B1344C20902D01022B6
:100700009A70F1E79A79D20707D54FF0E023D3F832
:10071000F03DDB0700D500BE10BD20229A71E3E753
:1007200000E100E0840200200000054000010540D7
:10073000094B00F07F0203EB420303EBD0102030A3
:10074000C3785B0707D5C37813F0010202BFC378F3
:1007500062F38203C37070478C03002070B5058973
:100760000389428986889BB292B2934236BFC2EB1C
:1007700046029B1A9B189BB29E420446ADB217D804
:10078000C079C00914D170BD9B1B9BB2B342FBD290
:10079000E2882068C2F30E0202FB030001F020FE93
:1007A000A08801222946FFF783FE20810120EAE785
:1007B0002B46EBE72DE9F04F00F07F03864D89B023
:1007C00017465A00019205EB430202EBD012203289
:1007D00092F80390C9F3000619F0010986468C4689
:1007E0004FEAD0180DD04FF0E023D3F8F03DDC07EE
:1007F00005D44FF00009484609B0BDE8F08F00BEAF
:10080000F7E7D478754944F00104D470744A097844
:100810005468C4F3003B4FF48054C2F88440BFF3E3
:100820004F8FBFF36F8FA3B36E4A08F1400102EB05
:100830004101013B012404FA03F68C8824EA0604F2
:100840008C80C8EBC8011944023102EBC102C2F826
:1008500003C0A2F80770A2F80970B8F1000F0FD01A
:10086000FFF7B6FDBBF1000F07D001235C4A4FF440
:1008700080515160002B00F096804FF00109BAE7DB
:10088000594A02EB03139A79D007EBD583F8068017
:10089000E8E7402F0BD94FF0E023D3F8F03DDA071B
:1008A00000D500BEBBF1000F7DD00023DEE74D4C2C
:1008B0002378FF2B27D1002FEDD10020FF2BA07232
:1008C000D0D10723CDE905008DF81530474B8DF8C1
:1008D00014101E688DF818E03446079754F8043B4E
:1008E0009847204605A9FFF739FF336804460120E1
:1008F0009847002CB6D14FF0E023D3F8F03DD9074C
:10090000B0D500BEAEE794F90A20002AD5D1B8EBE5
:10091000D31F39D123899F42BDD8BB421A4628BF75
:100920003A461FFA82FAB8F1000F22D060463049E9
:10093000CDE90223FFF7DAFC029A039BA4F80FA08B
:100940001044A3EB0A0A402AC4F80B00294A667433
:10095000A674A4F808A001D1BB4208D8214BFF21FE
:100960001970012199720A2382F802317AE7022371
:10097000FAE7204BC4F80BC0A4F80FA0A4F811A00C
:10098000402283F802216DE7B8F1000F3FF46AAF0F
:10099000184BE67226736673A673E6732674667444
:1009A000A6744822EDE7019B1D44A84498F8233023
:1009B0006FF3000388F8233098F823306FF3820335
:1009C00088F823304FF0E023D3F8F03DDB077FF5C4
:1009D00010AF00BE0FE700BF8C0300201400002002
:1009E00000E100E08402002010010540C003002067
:1009F000200005400000054038B500F11005044610
:100A00002846FFF771FD3F2814D9E078FFF72CFE48
:100A100080B12846FFF768FD3F28E07806D904F149
:100A2000A8014022BDE83840FFF7C4BEBDE8384009
:100A3000FFF77EBE38BD10F0800F4FF00002114668
:100A40000CBF80201046FFF7B5BE000010B403466F
:100A5000064C00685968224603C20022C4E90222FB
:100A60005DF8044B1878FFF7E6BF00BF7002002066
:100A70002DE9F04F89B0C3B2484C029300F07F07D4
:100A800007F1FF380306C0F3C01504EB08142DD599
:100A9000A3789E0606D5A37803F0DB03A37009B004
:100AA000BDE8F08FFFF794FC0028F8D0C5EBC50532
:100AB000A8443B4D08F1020805EBC80805A9B8F8A1
:100AC0000920B8F807309B1A0793364B00221868A4
:100AD000CDE9052207228DF815200430029A8DF801
:100AE0001820FFF73BFE0028D9D10AE0A37913F0C4
:100AF000400FA37903D003F0BB03A371CFE7D9075D
:100B000007D44FF0E023D3F8F03DDB07C7D500BE94
:100B1000C5E7234EB4F804A02389013706EBC707C5
:100B20009BB21FFA8AFAB7F809B0534528BF53465B
:100B30005B45019328BF5B46D7F803009946A3B1F4
:100B4000B6F88430184923FA08F3DA0701EB880174
:100B50001AD52B464A460390FFF704FC039806EB90
:100B6000C802ABEB0903A2F81930CA4502D8019BB1
:100B70009B4511D808F1020306EBC3060023F3706E
:100B800033717371B3718FE74A46FFF7CCFB00EB0B
:100B90000903C7F80330E2E70023AEE71001054080
:100BA00084020020C0030020240005402DE9F0430A
:100BB000974B9C7A5D889F88DB7A1C40220785B022
:100BC000ADB2BFB22ED5DFF85882002608E0FFF79D
:100BD00017FD20B1436913B100210846984701363B
:100BE00098F80030F0B28342F1D28A4A13785B075A
:100BF00018D513786FF3820313700023CDE9013306
:100C0000039305238DF80530834B186801A9043040
:100C1000FFF7A4FD30B94FF0E023D3F8F03DDE0735
:100C200000D500BE60072ED57C4A7949FF2313709A
:100C300000239372D3721373537393730122CA8088
:100C400018460B81D6B20132082A8E7381F86200F1
:100C5000A1F8643081F86300A1F86630F2D1CDE9E3
:100C60000133039301238DF805306B4B186801A9FC
:100C70000430FFF773FD30B94FF0E023D3F8F03DB7
:100C8000D90700D500BEA2071CD562490022052362
:100C9000CDE901228DF805300B780392DB0711D5E1
:100CA0000B7862F382030B705B4B186801A9043068
:100CB000FFF754FD30B94FF0E023D3F8F03DDE07E5
:100CC00000D500BEE0071CD50023CDE90133039316
:100CD00004238DF805304F4B1A78D10711D51A78B7
:100CE00042F004021A704C4B186801A90430FFF757
:100CF00035FD30B94FF0E023D3F8F03DDA0700D5E9
:100D000000BE434AD3881D40EB070AD592F8023152
:100D1000DEB213F0040312D0002382F8023125F072
:100D200001050126002D40F0E280394B1B89012589
:100D30001F40002F40F0E88005B0BDE8F083374C3D
:100D400006F0010816F0100621786BD08020FF29EC
:100D500082F8020125D0D4F80B2012B3FF22B4F898
:100D60001100E37223736373A3732270B4F80F202E
:100D7000CDE9013307238DF80530274B121A186887
:100D8000039221F07F018DF80810043001A9FFF7CC
:100D9000E5FC30B94FF0E023D3F8F03DDE0700D595
:100DA00000BEB8F1000FBAD0194B93F80821082AF9
:100DB00072D11A6A22601B6A63600023206861682E
:100DC000E37223736373A373E37323746374A37471
:100DD0004FF4C063019302AB03C30F4B186801A922
:100DE0000430FFF7BBFC30B94FF0E023D3F8F03DFF
:100DF000D80700D500BEE3882381002B8FD023784D
:100E0000DB098CD0024B402283F8022187E700BF28
:100E1000000005408C030020C00300208402002055
:100E20001C000020B8F1000F3FD0FF29BCD0D4F83F
:100E30000B0000283FF473AF92F80881B4F81190CA
:100E40003749C84528BFC846B8F1400F28BF4FF002
:100E500040084246FFF767FA2289B4F80F30E6727D
:100E6000A9EB0809A2EB08021FFA89F122810722E7
:100E7000CDE90166A4F8119026736673A6735B1A18
:100E80008DF805200393274B186801A90430FFF75C
:100E900065FC00287FF443AF4FF0E023D3F8F03D2A
:100EA000DB077FF53CAF00BE39E7FF2914D0CB0943
:100EB00012D12388B3F5A06F04BFA3781370FF236A
:100EC0002370B4F81120B4F80F304FF4E0619B1A8E
:100ED0008022CDE90112D5E7D4F80B30002B3FF486
:100EE0001EAF0023E37223736373A373E9E795FADC
:100EF000A5F4B4FA84F444F0800006FA04F4FFF791
:100F0000B7FD25EA04050DE797FAA7F4B4FA84F4CF
:100F1000204605FA04F4FFF7ABFD27EA040708E7CB
:100F200020000540C00300202DE9F04703894489D3
:100F300087889BB2A4B2A34236BFC4EB47051D1BF2
:100F4000ED18ADB206468846F5B1AF4206D2BB42B7
:100F50002CBFDB1BDB199CB244813D46954228BF68
:100F60001546A7421AD9F2883168A7EB04091FFA7F
:100F700089F9C2F30E0A4D4552460AFB041110D8F6
:100F80006A43404601F02CFA7189B0882A4689B23A
:100F9000FFF78EFA70812846BDE8F087E41BA4B203
:100FA000DFE719FB0AF91FFA89F94A46404601F0C2
:100FB00017FAEA1B224412FB0AF2316892B208EBDC
:100FC0000900DFE7F7B51B4B5A7812B9002003B0D0
:100FD000F0BD1B785A07F9D44FF494744443164D6E
:100FE00004F11C062E443046FFF76EFA0028EDD0BF
:100FF0002F19B878FFF738FB0028E7D0E834291913
:10100000402230460191FFF78FFF0446B87864B163
:1010100001992246FFF7CEFB48B94FF0E023D3F801
:10102000F03DDB07D2D500BED1E7FFF781FB2046BC
:10103000CDE700BF8C030020200000202DE9F84FF1
:10104000C3790689B0F8049088464189DB090746D0
:101050001546B6B289B215D18E4239BFC1EB4904EB
:10106000A419711A8CB238BFA4B24C4536BFA9EB93
:1010700004040024A4B2A24228BF2546002D3DD17D
:10108000BDE8F88F4A4509D3C388A2EB0905C3F32D
:101090000E0303FB05880E464D46EFE78E424FEAEE
:1010A000490236BF531A731A9B199BB22B449342C1
:1010B000E4DBA9EB050292B24846FFF7F9F90646D0
:1010C000DCE7A4EB0904A4B24C45FAD2FA883868EC
:1010D000A9EB040A1FFA8AFAC2F30E0B55455A46C9
:1010E0000BFB04000CD86A43414601F079F9B8883B
:1010F0002A463146FFF7DCF93881C1E73446E3E799
:101100001AFB0BFA1FFA8AFA5246414601F068F9B7
:10111000A5EB0903E21812FB0BF2386892B208EB58
:101120000A01E2E72DE9F7433F4C1D46E3788B4285
:101130000E4617D0A3788B4214D094F82B318B42F3
:1011400028D094F82A318B4224D04FF0E023D3F8F2
:10115000F05D15F0010501D000BE0025284603B062
:10116000BDE8F0830027E378B3420ED1AAB22AB1DA
:1011700004F1A80104F11000FFF760FF2B4B6BB9DD
:101180002B4B23BB2046FFF737FCA378B34228D074
:101190000125E3E704F594740127E4E76379FF2B65
:1011A000EED005F1A80904F1A808A144C145E7D093
:1011B000617918F8013B9942F8D1228B638B92B286
:1011C0009BB29A42F2D03846AFF30080EEE7228B12
:1011D000638B92B29BB29A42D4D03846AFF3008070
:1011E000D0E7144B13B13846AFF300803846FFF711
:1011F000E9FE0028CCD104F11C00FFF765F90028B6
:10120000C6D1002DC4D015F03F02C1D1A078019203
:10121000FFF72AFA019A05460028B9D0A0781146AE
:10122000FFF7C8FA9AE700BF200000200000000086
:1012300000000000000000002DE9F3411A4EDFF825
:101240006C804FF4947303FB006605461C360C4615
:101250008F18BC4205D1284602B0BDE8F041FFF727
:10126000B1BE237813F80820214602F00302BDB96D
:10127000012A01D1203323700B788DF80730012229
:101280000DF107013046FFF7D9FE3046FFF71CF994
:101290003F2804F10104DCD92846FFF793FED8E784
:1012A000022AE9D1203BE6E720000020A925000022
:1012B00013B5124B9889D98993F90040421A92B21A
:1012C000402A28BF4022002C0EDA884212D09968AA
:1012D0000B48019201F084F80949019A802002B07C
:1012E000BDE81040FFF766BA88424FF0000003D116
:1012F0000021F4E78020FBE70149F0E770020020BD
:101300004C03002070B50446164D00680B4661681A
:10131000AB602E4603C60021E981E1888A4228BFDE
:101320000A46AA81E18881B152B14BB94FF0E0225F
:10133000D2F8F02DD20701D4002070BD00BEFBE72B
:10134000FFF7B6FF28B10120F7E72078FFF773FB1E
:10135000F8E74FF0E023D3F8F03DDB07ECD500BE13
:10136000EBE700BF7002002038B5137803F060038C
:10137000202B0C46154652D12A4B9288197891425F
:101380000ED093F82811914249D103F594730120AE
:101390006A78203A032A42D8DFE802F004171A36A6
:1013A0000020F5E7012C05D10722991D2846FFF7FB
:1013B000A9FF01E0032C01D0012038BD1A4A002A00
:1013C000FAD0991DAFF30080F6E7012CF4D1EBE7DA
:1013D000012C03D12846FFF739FBEDE7032CEBD1B5
:1013E0006A8893F823401A7102F0010181F0010527
:1013F00065F3C71483F823400C4B002BDCD0C2F3F9
:101400004002AFF30080D7E7012CE3D0032CD3D107
:10141000074B002BD0D06988AFF30080CCE70020C9
:10142000CBE700BF2000002000000000000000000B
:101430000000000070B5144E05460024E0B2FFF72E
:10144000DFF838B94FF0E023D3F8F03DDB0700D5E3
:1014500000BE70BD43682846984701343278E3B235
:101460009A42EBD233220021084800F0B1FF10224B
:10147000FF21074800F0ACFFBDE87040054810228E
:10148000FF2100F0A5BF00BF1C0000208C0300203E
:101490008F0300209F030020F8B51C4B4FF41472FB
:1014A0000021184600F094FF0824034600F12801AB
:1014B000FF274FF44246012504730161477103F190
:1014C0006801C68005811248D96183F83441114909
:1014D000586103F5A874C3E94E4003F5C870C3E929
:1014E000510100225A8319621A8383F82D71DA841C
:1014F000A3F82E619A84A3F83051A3F84221A3F8EF
:101500004021A3F84E21A3F84C21F8BD2000002073
:101510004000010040000180104B00225A8393F8E4
:1015200023101A831A60DA841A719A84C3F8282166
:10153000A3F8422183F82C21A3F84021A3F84E21DF
:10154000A3F84C2193F84B2141F0800142F0800236
:1015500083F8231083F84B21704700BF2000002040
:101560002DE9F047867816F078049CB00AD04FF049
:10157000E023D3F8F03DDB0700D500BE00201CB00F
:10158000BDE8F087C578714B82889B7805F003052C
:10159000022DC2F30A020CD0032D00F0AB80012D06
:1015A000E5D1022B40F2FF3308BF4FF480639A422B
:1015B0000DE0022B0AD1B2F5007F09D04FF0E023F5
:1015C000D3F8F03DDD07D2D500BED0E7402AF5D8EC
:1015D00006F07F07F6097B1EC6EBC6011944881C7E
:1015E0005B4901EBC0010020C87008714871887127
:1015F000C8710872487288725649180101EB0313CA
:10160000002E7DD0012D425208BF4024DC70997815
:10161000CC074CBF4821402199704F490123C8880D
:10162000BB4003439BB2CB80002A7DD0B2FA82F448
:101630001C2C79DCC4F11C04082303FA04F10125F5
:101640008A420093DFF810814FF4007388BF0134A1
:101650000193A946AA465FFA89F388F80E30B8F8D4
:10166000642092B27AB198F86230C3F3001103F0AB
:101670000F030B440AFA03F329466846FEF7FEFD02
:10168000411C9BDB0544B8F8662092B27AB198F809
:101690006330C3F3001103F00F030B440AFA03F3A2
:1016A00029466846FEF7EAFD421C87DB054409F13E
:1016B0000109B9F1080FCED14FF0010C0CFA04FC6E
:1016C0000DEBC5056B4600214FF6FE7E9D422DD8E1
:1016D00000293FF473AF0A68002A3FF448AF1E4B5D
:1016E00092B29F73E4B266B3A3F8642083F86240B9
:1016F000012044E7022B0CBF4FF48063402356E7E0
:10170000012D0CBF402100219A80D9719979C80719
:101710004CBF9021802199710F4901230889BB405A
:1017200003439BB20B817FE7002485E7D3E90020C8
:10173000801A844503D8CFD0704598BF1946083326
:10174000C4E7A3F8662083F86340D1E78C03002048
:101750008402002010010540000005404B79022B57
:101760002DE9F04103D000252846BDE8F0818B79B2
:10177000022BF8D1334EB77827B196F82A31002BD7
:1017800033D101274FF494737B438878F0540C785D
:1017900006EB03080C4409256378242B1FD1AA42C9
:1017A00018D26378042B49D163790A2B46D1267865
:1017B000022734446378052B04D1E37803F0030354
:1017C000022B27D04FF0E023D3F8F03DDA070CD5F9
:1017D00000BE0AE023781D44ADB21C44DCE7052BB3
:1017E000DFD12046FFF7BCFE38B94FF0E023D3F835
:1017F000F03DDB07B7D500BEB5E74FF4947303FBAC
:101800000763A2785A7023781D44ADB21C44C8E720
:101810000127CFE72046FFF7A3FE0028D2D0A37808
:10182000DA0914BF88F8023088F803302378012FD2
:101830001C44EDD10E3516FA85F5ADB24046FFF7E2
:10184000DBF891E7200000202DE98048B54BB64C2D
:101850001A6E1D6F002D95B002F4800680F22C8167
:1018600015F4006700F01C81C5F30211C2F3831068
:10187000FEF7FCFD002E40F01581206023684FF438
:101880007A72B3FBF2F3013BB3F1807F0AD24FF0DF
:10189000E022E0215361A54B83F8231000239361DC
:1018A000072313619F4A936C43F4803393640023AE
:1018B0008DF80D309DF80D30132B40F21381994BAC
:1018C0009A6C22F480329A64D3F8282642F00102FE
:1018D000C3F828261A6F22F480421A67D3F8082624
:1018E00042F00802C3F80826D3F8082A1207FBD5ED
:1018F0008F4AD2F8201421F03001C2F82014D2F817
:101900001C1521F03001C2F81C15D2F8281541F041
:101910003001C2F82815D3F8082642F02002C3F897
:101920000826804AD2F8083A9B06FBD5814BD3F8AB
:101930001C1541F00E01C3F81C150E21C3F800144C
:10194000D3F8001421F01001C3F80014D3F81015D7
:1019500041F01001C3F81015D3F81C1541F0100127
:10196000C3F81C15D2F8183643F00103C2F8183634
:10197000D2F8083643F00103C2F808364FF040238E
:101980000024D3F8202442F00302C3F82024D3F823
:101990002C2542F01102C3F82C25D3F81C2542F067
:1019A0000302C3F81C2503F500431A6B22F0010261
:1019B0001A631B225A6208229A626022DA6240F29B
:1019C0000132C3F8C84F1A635B4B1B78FF2B1ED143
:1019D00033225A48214600F0FBFC594B594ADC811E
:1019E00013609C81584B23B15848AFF30080584B8B
:1019F0001860564D0024E0B2FEF702FE002876D1B2
:101A00004FF0E023D3F8F03DDF0700D500BE4A4B8E
:101A10001B78FF2B00F021844A4B1D6800202B68A7
:101A20009847A989EB89288989B29BB2994236BF28
:101A3000C3EB4002CA1A521894B2A4B1A04205D214
:101A400081422CBF091A09188BB2EB81984240F2EF
:101A500087806A896968C2F30E0202FB031104A839
:101A600000F0BEFC0124E9892889224689B2FEF7EC
:101A70001FFD2B68E88101209847002C00F0ED83C2
:101A80009DF81130013B072B00F28183DFE813F052
:101A90006B0079007F031004200489005E032D048D
:101AA0002C48E7E6C5F3C5550135B0FBF5F0002F2E
:101AB0007FF4E3AE4008E0E612F4006510D0C2F314
:101AC0000111C2F38410FEF7D1FC002E3FF4D5AE15
:101AD000C2F3C3520132B0FBF2F0002DEAD0CCE6E3
:101AE0001C48F2E79DF80D300133DBB2E0E60368F5
:101AF000984701342A78E3B29A42BFF47CAF0E4A89
:101B0000154900231370154BDA7A4FF4805042F0D8
:101B10000102DA72C1F884015A7842F040025A7028
:101B2000486074E700E00F400000002000ED00E096
:101B30000070004000500240140000208C03002080
:101B400004000020C0030020000000001C00002052
:101B5000180000200084D71700E100E000000540D5
:101B60001B1A9BB272E79DF81000FFF763FC14226A
:101B7000BA48002100F02CFCB94B9DF814209A7053
:101B80004AE79DF81000FFF755FCB44814220021E5
:101B900000F01EFCB34B002B3FF43EAFAFF30080D0
:101BA0003AE7AF4C9DF814702378DFF8B0829DF8C7
:101BB000109043F00103237094F823306FF3000377
:101BC00084F8233094F823306FF3820384F82330B1
:101BD00094F824306FF3000384F8243094F8243010
:101BE00007F0600B6FF3820384F82430BBF1600FC1
:101BF0004FF00003C8F810300DD14FF0E023D3F8B8
:101C0000F03DDC0700D500BE0020FEF751FD80202E
:101C1000FEF74EFD00E7BBF1400F0DD1924B002BBC
:101C2000F2D005AA01214846C8F81030AFF3008071
:101C300000287FF4F1AEE7E707F01F07012F00F05F
:101C4000DA81022F00F0FE81002FD6D1BBF1200FE8
:101C50000FD19DF818300F2BD6D82344D878FEF733
:101C6000CFFC01460028CFD005AA4846FEF7E4FC89
:101C7000DEE7BBF1000FC0D19DF81520092ABCD8C2
:101C800001A151F822F000BFE11F0000CF1F0000AA
:101C9000FB1B0000BB1F0000FB1B0000B11C000071
:101CA000C11E0000FB1B0000E31C0000F71C00002D
:101CB0006E4A0023DDE90501D372137353739373E6
:101CC000D373137453749374C8E90233684B482276
:101CD000C8E9000183F80221237843F0020323704E
:101CE0009AE663788DF80E3001220DF10E0105A8F9
:101CF000FFF708FB90E69DF816806378984500F0A2
:101D00009C806378002B45D05A4B5D684FF480521D
:101D100005F48055C3F88420BFF34F8FBFF36F8F56
:101D200053480022012103F1C043C18003F58423FD
:101D3000028140274FF0480C96464FF0800A1A82E5
:101D4000DA749E7CF6074CBF83F812C09F74A3F828
:101D500014E0DA759E7DF60744BF90269E75CEB2DC
:101D600001F1010158BF83F816A00829867380F895
:101D70006220A0F8642080F86320A0F86620DED1FD
:101D80001DB13C4B4FF480525A60A5784846FFF78E
:101D900051FBA570B8F1000F4FD02378DFF8E8A011
:101DA00023F0300323709AF801300B2B03BF9AF80D
:101DB00000309AF803509A4401259AF80130042B18
:101DC0000AD04FF0E023D3F8F03DDB077FF515AFE5
:101DD00000BE12E78246E6E7274BA3EB0A0292B267
:101DE0004FF0000B5FFA8BF73846FEF709FC06460A
:101DF0000028E6D083680192514648469847082853
:101E0000019A54D9824252D3012D04D1B2681B4B9E
:101E10009A4208BF02250022D3B29D4213D85044F3
:101E2000504533D8164B1B78BB42CAD3124B98424D
:101E3000D0D3144B0BB1AFF3008084F8018005A818
:101E4000FEF704FEE8E59AF80260334454FA83F39F
:101E50000132DE78FF2EB4D1DF70DDE770020020A2
:101E60008C0300200000000000000000840200201D
:101E70000000054000E100E07B2500005D17000048
:101E80001C00002000000000F72400009AF8013038
:101E9000052B08D19AF8022002F07F0304EB4303DC
:101EA00003EBD213DF749AF800309A44B8E7BC4BC6
:101EB0000BF1010B18785FFA8BF3984292D280E70E
:101EC000BDF81600030A5A1EC0B20E2A3FF69CAE99
:101ED00001A151F822F000BF151F0000391F0000BA
:101EE000571F0000091C0000091C0000A31F000070
:101EF000391F0000091C0000091C0000091C00001B
:101F0000091C0000091C0000091C0000091C00003D
:101F1000211F0000A349122205A8FFF7F3F987E665
:101F2000A14B002B3FF470AEAFF3008001460028B8
:101F30003FF463AE4A88EFE7022B01D19B49F9E7F2
:101F40009B4B002B3FF460AEAFF3008000283FF4C2
:101F500054AE0146EEE760B9964B40F209425A8012
:101F600001220132D2B29349520042F440730B80F5
:101F7000D2E704283FF648AE8F4B53F82040204666
:101F8000FEF774F9C2B21F2A28BF1F22894B2046D0
:101F9000A118814203F10203E3D010F8014B1C8029
:101FA000F7E7864B002B3FF42FAEAFF300800146DE
:101FB00000283FF429AE0278AEE7BDF81630012BB9
:101FC0007FF422AE237843F00803237037E7BDF88F
:101FD0001630012B7FF418AE23786FF3C303F4E7B8
:101FE0002378C3F340129B0803F002031343ADF8B8
:101FF0000E30022279E69DF818300F2B3FF604AE22
:102000002344D878FEF7FCFA014600283FF4FCADE3
:1020100005AA4846FEF710FB00287FF4FDAC9DF8AA
:10202000143013F060037FF4EFAD9DF81520A2F19A
:102030000A0101293FF6E8AD0A2AC8F810307FF4FA
:10204000FEAE4FE69DF8182012F0780F7FF4D5AD64
:1020500002F07F0104EB410606EBD216D309F07CB7
:102060000193FEF7CDFA4D00019B8246BBF1000FB4
:1020700005D000283FF4C8AD05AA0146F5E59DF856
:10208000150000F0FD0CBCF1010F07D000287FF413
:10209000B4AD96F82330C3F34003A8E7BDF816703B
:1020A00057BB012806F120063BD1F278970723D5CC
:1020B000434A09010A44434948684FF4805600F4F2
:1020C0008050C1F88460BFF34F8FBFF36F8F2BB385
:1020D0004026967010B14FF480524A6025442B443C
:1020E00093F823206FF3410283F8232093F82320F1
:1020F0006FF3000283F82320BAF1000F3FF48CAC99
:1021000005AA51464846FEF797FA0023C8F8103052
:1021100094F82430DD073FF57FAC90E68026967179
:10212000D8E7F1788E07E7D410460193FEF7C0FA9E
:10213000019B25442B4493F8232042F0020283F8AC
:10214000232093F8232042F00102D3E79DF81410D6
:102150001D4B01F07F0403EB440303EBD113CE09C5
:1021600093F823006FF3000083F8230093F8230013
:102170006FF3820083F82300002C63D1134C9DF889
:1021800010702378069DB6EBD31F30D005B34FF007
:10219000E023D3F8F03DDB077FF53EAC00BE3BE427
:1021A0001C000020DC24000000000000EE240000E1
:1021B000000000000C030020942500000000000037
:1021C0000001054000E100E08C03002070020020C7
:1021D0004A4B1BB121463846AFF300802369002BE0
:1021E0003FF41AAC464A03213846984714E494F960
:1021F0000030002B07DBA06800283FF40DAC4149FC
:102200002A4600F0EDF8A268E3892A442B44A26034
:10221000E2889BB29A42E38101D03F2D0FD8236917
:1022200033B92078FEF707FC00287FF4F5ABAEE762
:10223000334A0221384698470028F2D1E5E4FFF7F7
:1022400037F8F1E7D87CFEF7DBF940BB4FF0E0232D
:10225000D3F8F03DD80700D500BE2B4C002504F183
:1022600010063046FEF730F990B1402204A93046FE
:10227000FEF75AFE01902046FEF7BEFB019A04A924
:102280000020FEF7D9FF019A04A90120FEF7D4FF30
:1022900004F59474002D7FF4BAAB0125DFE70469DF
:1022A000069B9DF815209DF81000A047FFF7B4BBD2
:1022B000164B1A78D1077FF5AFAB154A002A3FF4C9
:1022C000ABAB1878C0F3C000AFF30080FFF7A4BB3E
:1022D0000E4B1B78DA077FF59FAB0E4B002B3FF4BC
:1022E0009BABAFF30080FFF797BB059B002B3FF440
:1022F00093AB06989847FFF78FBB00BF0000000024
:10230000700200204C030020200000208C030020DD
:1023100000000000000000002048214A214908B5C3
:10232000121A00F05DF8284828494FF00002884250
:10233000B8BF40F8042BFADB1B4BD3F8882022F4FB
:102340007002C3F88820D3F8882042F47002C3F8E2
:102350008820D3F8882042F47002C3F88820134BF9
:10236000134A1A6702F5612202F2C1221A66A2F12B
:10237000BE62A2F68F521A660E4A1A670E4A1A6693
:102380000E4A1A670E4A1A661A6D5206FCD50D4A95
:102390001A664FF0C0721A67FFF756FA0000002065
:1023A00018000020AC26000000ED00E000E00F4027
:1023B0001028800700288001420D9E01000880013E
:1023C000420DDE014205DE011800002088040020D5
:1023D00002440346934200D1704703F8011BF9E71A
:1023E0000A44914200F1FF3300D1704710B511F853
:1023F000014B03F8014F9142F9D110BD884210B54D
:1024000001EB020402D98442234607D8431EA142AD
:1024100008D011F8012B03F8012FF8E70244014618
:102420008A4200D110BD13F8014D02F8014DF7E7C3
:10243000F8B500BFF8B500BF54696E795553420036
:1024400054696E795553422044657669636500315D
:1024500032333435360054696E7955534220434443
:102460004300000040420F0000201C0080841E003A
:1024700000802500999E36000040380000093D008C
:1024800000803E0000004B00404B4C0000204E00FE
:10249000808D5B0000C05D000080700000127A003B
:1024A00000007D0080969800001BB7000080BB00F4
:1024B000C0E8CE00647ADA000024F4000000FA00DC
:1024C0000904000099140000191500005D170000B0
:1024D0006913000025110000000000001201000235
:1024E000EF020140FECA024000010102030109029D
:1024F0008D000401008032080B0002020200000976
:10250000040000010202000405240020010524014A
:1025100000010424020205240600010705810308C6
:10252000001009040100020A000000070502024031
:10253000000007058202400000080B0202020200B0
:102540000009040200010202000405240020010524
:102550002401000304240202052406020307058364
:102560000308001009040300020A00000007050424
:10257000024000000705840240000000A1050000A1
:102580000D050000270300003505000021050000AF
:10259000ED020000C02400003824000040240000A8
:1025A0004F2400005624000000202020202020205E
:1025B00020202828282828202020202020202020F3
:1025C0002020202020202020208810101010101003
:1025D000101010101010101010040404040404044F
:1025E00004040410101010101010414141414141E9
:1025F00001010101010101010101010101010101CB
:1026000001010101101010101010424242424242DA
:10261000020202020202020202020202020202029A
:102620000202020210101010200000000000000042
:10263000000000000000000000000000000000009A
:10264000000000000000000000000000000000008A
:10265000000000000000000000000000000000007A
:10266000000000000000000000000000000000006A
:10267000000000000000000000000000000000005A
:10268000000000000000000000000000000000004A
:10269000000000000000000000000000000000003A
:0C26A0000000000000000000000000002E
:1026AC0080F0FA0249060000C403002010000C0060
:0826BC0000000000FF00000017
:0400000300002319BD
:00000001FF
