:100000000080002085020000F1020000F7020000DD
:10001000FD020000FD020000FD02000000000000E3
:10002000000000000000000000000000A1340000FB
:10003000FD0200000000000091370000F9370000C9
:10004000FD020000FD020000FD020000FD020000B4
:10005000FD02000045030000FD020000FD0200005B
:10006000FD020000FD020000FD020000FD02000094
:10007000FD020000FD020000FD020000FD02000084
:10008000FD020000FD020000FD020000FD02000074
:10009000FD020000FD020000FD020000FD02000064
:1000A000FD020000FD020000FD020000FD02000054
:1000B000FD020000FD020000FD020000FD02000044
:1000C000FD020000FD020000FD020000FD02000034
:1000D000FD020000FD020000FD020000FD02000024
:1000E000FD020000FD020000FD020000FD02000014
:1000F000FD020000FD020000FD020000FD02000004
:10010000FD020000FD020000FD020000FD020000F3
:10011000FD020000FD020000FD020000FD020000E3
:10012000FD020000FD020000FD020000FD020000D3
:10013000FD020000FD020000FD020000FD020000C3
:1001400000000000000000000000000000000000AF
:10015000FD020000FD020000FD020000FD020000A3
:10016000000000000000000000000000000000008F
:10017000000000000000000000000000000000007F
:10018000000000000000000000000000000000006F
:10019000000000000000000000000000000000005F
:1001A000000000000000000000000000000000004F
:1001B000FD020000FD020000FD020000FD02000043
:1001C000FD020000FD020000FD020000FD02000033
:1001D000FD020000FD020000FD020000FD02000023
:1001E000FD020000FD020000FD020000FD02000013
:1001F000FD020000FD020000FD020000FD02000003
:10020000FD020000FD020000FD02000000000000F1
:10021000FD020000FD020000FD020000FD020000E2
:10022000FD020000FD020000FD020000FD020000D2
:10023000FD020000FD020000FD020000FD020000C2
:10024000FD020000FD020000FD020000FD020000B2
:10025000FD020000FD020000FD020000FD020000A2
:10026000FD020000FD020000FD020000F8B500BF25
:10027000F8BC08BC9E467047F8B500BFF8BC08BC87
:100280009E46704780B582B000AF134B7B60134B26
:100290003B6007E07A68131D7B603B68191D39607D
:1002A00012681A603B680E4A9342F3D30E480F4916
:1002B0004FF000028842B8BF40F8042BFADB094B2C
:1002C0001B68084A43F47003136000F0E1F800BFB4
:1002D0000837BD4680BD00BFF93B0000000000208C
:1002E0000800002088ED00E00800002070110020C8
:1002F00080B400AFFEE780B400AFFEE780B400AF8B
:10030000FEE780B485B000AF786039604FF04003FD
:1003100083F31188BFF36F8FBFF34F8FFB6000BF74
:1003200000BF1437BD465DF8047B704780B483B0CE
:1003300000AF7860396000BF0C37BD465DF8047BC4
:100340007047000090B583B000AF214B1B684C3361
:100350001B6801211F48984778601D4B1B6850336C
:100360001B6879681B48984723E0194B1B683C338E
:100370001B681C46164B1B6834331B68154898478E
:100380000346DBB219461348A04704220421124851
:1003900000F01EFA00F09CFA0346104AA2FB032369
:1003A0009B09184600F08EFA002204210A4800F04A
:1003B0000FFA074B1B682C331B6806489847034607
:1003C000002BD2D100BF00BF0C37BD4690BD00BF8F
:1003D0001400000100C0004000500240F1197605F1
:1003E00090B583B000AF786039600AE00A4B1B68B3
:1003F0001B681C467B685A1C7A601B7819460748A4
:10040000A0473B685A1E3A60002BEFD100BF00BFE7
:100410000C37BD4690BD00BF1400000100C0004075
:1004200080B582B000AF78600E4B1B68002B07D000
:100430000D4B1B681B680E220E210C48984706E0E6
:10044000094B1B681B6800220E2108489847054B82
:100450001B68C3F10103034A136000BF0837BD46A0
:1004600080BD00BF100000202000000100500240AD
:1004700080B582B000AF78600E210448FFF7B0FF6E
:100480004FF47A7000F02AFDF6E700BF743A0000DE
:1004900090B583B002AF464B1B681B689847444B2E
:1004A0001B6810331B689847424B1B685C331B6802
:1004B000414898473F4B1B6818331B683F48984793
:1004C0003F4B1B683C331B6804213E489847394B1F
:1004D0001B6818331B683C489847364B1B68183319
:1004E0001B683A4898473A4B1B6804331B68984787
:1004F000012000F08FF940F2014000F08BF9304B01
:100500001B6854331B6803214FF040209847314B40
:100510001B6814331B681C46264B1B6860331B6822
:100520009847014660234FF4E1322B48A047284BFF
:100530001B681B6815209847264B1B6844331B68B3
:1005400050212548984712212448FFF749FF194BAD
:100550001B6860331B6898470346214A13600023D9
:10056000019301230093002380221E491E4800F0BE
:1005700037FB1E4B0093002301224FF47A710020B9
:1005800001F0F6FB03461A4A1360194B1C6800F091
:1005900053FE02460023009300230121204601F070
:1005A0004BFC00F0D9FC002318460437BD4690BD33
:1005B0007800000144000001403D80072000002039
:1005C0002000000100500240010000100100002046
:1005D000480000011400000100C00040843A0000FF
:1005E0000C000020983A0000710400002104000073
:1005F00008000020830730B548D0541E002A3FD0A1
:10060000CAB2034601E0013C3AD303F8012B9D072F
:10061000F9D1032C2DD9CDB245EA05250F2C45EA99
:10062000054536D9A4F1100222F00F0C03F1200E7B
:10063000E6444FEA121C03F1100242E9045542E974
:10064000025510327245F8D10CF1010214F00C0F72
:1006500003EB021204F00F0C13D0ACF1040323F0EF
:1006600003030433134442F8045B9342FBD10CF0C0
:1006700003042CB1CAB21C4403F8012B9C42FBD1E9
:1006800030BD64461346002CF4D1F9E70346144606
:10069000BFE71A46A446E0E780B483B000AF7860B5
:1006A0007B68B3F1402F5BD07B68324A934257D0CE
:1006B0007B68314A934253D07B68304A93424FD093
:1006C0007B682F4A93424BD07B682E4A934247D097
:1006D0007B682D4A934243D07B682C4A93423FD09B
:1006E0007B682B4A93423BD07B682A4A934237D09F
:1006F0007B68294A934233D07B68284A93422FD0A3
:100700007B68274A93422BD07B68264A934227D0A6
:100710007B68254A934223D07B68244A93421FD0AA
:100720007B68234A93421BD07B68224A934217D0AE
:100730007B68214A934213D07B68204A93420FD0B2
:100740007B681F4A93420BD07B681E4A934207D0B6
:100750007B681D4A934203D07B681C4A934201D1B7
:10076000012300E00023DBB218460C37BD465DF8DC
:10077000047B704700800540005000400090054019
:100780000060004000A005400070004000B005403F
:100790000040024000C005400050024000D005402B
:1007A0000060024000E005400070024000F005409B
:1007B00000D0034000000640001006400020064024
:1007C00000300640004006400050064000600640F1
:1007D00080B582B000AF78600B46FB701346BB70EB
:1007E0007868FFF759FF0346002B04D140F28931A6
:1007F0000748FFF79BFDFB789B001A467B68134474
:100800001A46BB78136000BF0837BD4680BD00BFE5
:10081000183B000080B584B000AF78607B681B0C8B
:10082000DBB20E2B04D940F275712348FFF77EFD31
:100830007B681B0A03F0E303002B04D040F27671BF
:100840001D48FFF773FD7B681B0CDBB2FB601B4B85
:100850001B680121FA6801FA02F21340002B07D04D
:10086000FB685B000133164A52F82330FB6005E059
:10087000FB685B00124A52F82330FB607B681B0A5E
:10088000DBB2BB60FB6803F22C531B680F21BA6814
:1008900001FA02F2D2431A407B6803F00F01BB68F1
:1008A00001FA03F3F96801F22C5113430B6000BF06
:1008B0001037BD4680BD00BF183B00006CE00F4004
:1008C000A03A000001387FF4FDAF704700BF000080
:1008D00080B487B000AF7E4B1B687B617D4B1B688B
:1008E000FB60FB68002B03DAFB6803F0700302E097
:1008F0007B6903F03003702B00F08380702B00F2D3
:100900008480602B79D0602B7FD8302B71D0302B36
:100910007BD8202B3ED0202B77D8002B02D0102B59
:1009200009D072E07B699B0903F01F036A4A52F801
:1009300023303B616BE0694B1B6803F0E043002B05
:1009400006D0664B1A68664B1340B3F1805F02D144
:10095000644B3B611DE0614B1A68614B1340624A76
:10096000934204D15D4B1B689BB2022B0BD05B4BB7
:100970001A685B4B13405D4A934207D1574B1B6883
:100980009BB2002B02D15A4B3B6102E0594B3B61B9
:100990003DE03CE0514B1B6803F0E043002B06D0E8
:1009A0004E4B1A684E4B1340B3F1805F02D1524B4D
:1009B0003B611DE0494B1A68494B13404A4A934238
:1009C00004D1464B1B689BB2022B0BD0434B1A68D9
:1009D000434B1340454A934207D1404B1B689BB29F
:1009E000002B02D1454B3B6102E0454B3B610EE0E1
:1009F0000DE047F230533B6109E04FF480033B6167
:100A000005E04FF400433B6101E00023E1E0FB68B7
:100A1000002B04DAFB6803F40063002B09D0FB68A9
:100A2000002BC0F29A807B6903F40063002B40F036
:100A300094802A4B1A682A4B1340324A934226D19B
:100A4000314B1B68BB60314B1B687B607B681B0AAA
:100A500003F01F0301337A6802F01F02013202FB28
:100A600003F35B003A69B2FBF3F33B61BB68C3F38A
:100A700009033A6903FB02F2BB689B0AC3F309034B
:100A8000396901FB03F39B0A13443B6161E0204B8E
:100A90001B68BB60114B1B6803F0E043002B06D0C2
:100AA0000E4B1A680E4B1340B3F1805F32D1BB6816
:100AB0005B09C3F3080302333A6903FB02F2BB6824
:100AC00003F01F030233B2FBF3F33B6131E000BFDD
:100AD00060E00F4070E00F40783B000000E00F4006
:100AE0000000FF70C0E1E4000000011000000310EE
:100AF000001BB7000024F40070383900C0C62D0078
:100B000000093D000000051060E10F4064E10F4066
:100B100064E00F40BB685B09C3F308033A6903FB59
:100B200002F2BB6803F01F0301335B00B2FBF3F377
:100B30003B61BB6803F48043002B02D03B695B0838
:100B40003B61BB6803F40043002B02D03B699B0868
:100B50003B617B6943F480037B617B6903F4800321
:100B6000002B35D0FB68002B29DAFB6803F08043AB
:100B7000002B1AD0FB68002B04DAFB6803F4006337
:100B8000002B07D0FB68002B0FDB7B6903F40063AD
:100B9000002B0AD13B695A00FB689B0D03F07F03D1
:100BA0000133B2FBF3F33B6112E0FB68DB0D03F0B2
:100BB0003F0301333A69B2FBF3F33B6108E07B6921
:100BC000DB0D03F00F0301333A69B2FBF3F33B6132
:100BD0003B6918461C37BD465DF8047B704700BF73
:100BE00080B58CB004AFF860B9603B601346FB8001
:100BF000FB889B00184601F0D3FB78617B69002BD2
:100C000013D05C2001F0CCFBF861FB69002B08D00D
:100C10005C220021F869FFF7EDFCFB697A691A6331
:100C200005E0786901F098FC01E00023FB61FB69B5
:100C3000002B13D0FA8800230393FB690293FB6A0D
:100C40000193BB6A00933B68B968F86800F00EF83E
:100C5000F86900F0ABF80123BB6102E04FF0FF330D
:100C6000BB61BB6918462037BD4680BD80B58AB0E0
:100C700000AFF860B9607A603B60BB6B186B7B6853
:100C80009B001A46A521FFF7B5FCBB6B1A6B7B686E
:100C900003F18043013B9B0013443B623B6A23F01A
:100CA00007033B623B6A03F00703002B12D03E4B65
:100CB000FB61FB691B6803F00103002B0AD04FF0B6
:100CC000400383F31188BFF36F8FBFF34F8F7B61B6
:100CD00000BF00BEBB68002B1ED000237B6212E069
:100CE000BA687B6A13441978BA6B7B6A134434334D
:100CF0000A461A70BA687B6A13441B78002B06D028
:100D00007B6A01337B627B6A0F2BE9D900E000BF6D
:100D1000BB6B002283F843203B6B042B12D9224B80
:100D2000BB61BB691B6803F00103002B0AD04FF0C5
:100D3000400383F31188BFF36F8FBFF34F8F3B6185
:100D400000BF00BE3B6B042B01D904233B63BB6B8C
:100D50003A6BDA62BB6B3A6BDA64BB6B04331846EE
:100D600001F03EFDBB6B1833184601F039FDBB6B3B
:100D7000BA6B1A613B6BC3F10502BB6B9A61BB6B2B
:100D8000BA6B5A623A68F968386A02F01FFB024689
:100D9000BB6B1A607B6B002B02D07B6BBA6B1A604B
:100DA00000BF2837BD4680BDF0ED00E080B584B0BF
:100DB00000AF786002F07AFC414B1B680133404A77
:100DC0001360404B1B68002B09D13E4A7B681360BF
:100DD0003B4B1B68012B10D100F0FCFD0DE03A4BA2
:100DE0001B68002B09D1374B1B68DA6A7B68DB6A0A
:100DF0009A4202D8334A7B681360344B1B68013334
:100E0000324A1360314B1A687B685A647B68DA6A2D
:100E10002F4B1B689A4203D97B68DB6A2C4A13600C
:100E20007B68DA6A2B4913469B0013449B000B44F2
:100E300004331B68FB607B68FA689A60FB689A68F9
:100E40007B68DA60FB689B687A6804325A607B686A
:100E50001A1DFB689A607B68DA6A13469B0013448C
:100E60009B001C4A1A447B685A617B68DA6A1949FC
:100E700013469B0013449B000B441B68591C1548E8
:100E800013469B0013449B000344196002F048FC86
:100E90000D4B1B68002B0ED00A4B1B68DA6A7B686F
:100EA000DB6A9A4207D20C4B4FF080521A60BFF3B4
:100EB0004F8FBFF36F8F00BF1037BD4680BD00BF9F
:100EC000D400002014000020E0000020F0000020EA
:100ED000DC0000201800002004ED00E080B586B0A2
:100EE00000AF786000237B617B68002B1FD0174B1D
:100EF0001B68002B12D0164B3B613B691B6803F04B
:100F00000103002B0AD04FF0400383F31188BFF395
:100F10006F8FBFF34F8FFB6000BF00BE00F078F80B
:100F20000021786800F07AFE00F080F878617B6933
:100F3000002B07D1074B4FF080521A60BFF34F8F41
:100F4000BFF36F8F00BF1837BD4680BDFC00002087
:100F5000F0ED00E004ED00E080B586B002AF244B78
:100F60000193002300930023802222492248FFF7A7
:100F700037FEF860FB68012B02D100F0BDFEF8607F
:100F8000FB68012B16D14FF0400383F31188BFF3A8
:100F90006F8FBFF34F8F7B6000BF184B4FF0FF3256
:100FA0001A60174B01221A60164B00221A6002F0D9
:100FB000A1FA16E0FB68B3F1FF3F12D1124BBB6000
:100FC000BB681B6803F00103002B0AD04FF04003FD
:100FD00083F31188BFF36F8FBFF34F8F3B6000BF68
:100FE00000BE0A4B1B6800BF1037BD4680BD00BF66
:100FF000F8000020E43B0000A5190000F4000020E8
:10100000E0000020D8000020F0ED00E0000000200B
:1010100080B400AF044B1B680133034A136000BF68
:10102000BD465DF8047B7047FC00002080B588B0A9
:1010300000AF0023FB610023BB61754B1B68002BD5
:1010400012D1744B3B613B691B6803F00103002B19
:101050000AD04FF0400383F31188BFF36F8FBFF3C3
:101060004F8F3B6000BF00BE02F020FB684B1B6847
:10107000013B674A1360664B1B68002B40F0C18040
:10108000654B1B68002B00F0BC808BE0634BDB687A
:10109000DB68FB61FB699B6AFB60FB69DB69FA69E2
:1010A000126A9A60FB691B6AFA69D2695A60FB6826
:1010B0005A68FB6918339A4203D1FB691A6AFB68C4
:1010C0005A60FB6900229A62FB681B685A1EFB6823
:1010D0001A60FB695B69BB60FB699B68FA69D2684F
:1010E0009A60FB69DB68FA6992685A60BB685A6863
:1010F000FB6904339A4203D1FB69DA68BB685A6022
:10110000FB6900225A61BB681B685A1EBB681A60E3
:10111000FB69DA6A424B1B689A4203D9FB69DB6AB6
:101120003F4A1360FB69DA6A3E4913469B00134449
:101130009B000B4404331B687B60FB697A689A60F0
:101140007B689A68FB69DA607B689B68FA6904329D
:101150005A60FB691A1D7B689A60FB69DA6A13465C
:101160009B0013449B002F4A1A44FB695A61FB6998
:10117000DA6A2C4913469B0013449B000B441B68FE
:10118000591C284813469B0013449B0003441960D4
:10119000FB69DA6A244B1B68DB6A9A4202D9234B4B
:1011A00001221A601D4B1B68002B7FF46FAFFB6997
:1011B000002B01D000F050FC1D4B1B687B617B694C
:1011C000002B10D000F054F80346002B02D0174B30
:1011D00001221A607B69013B7B617B69002BF1D1A5
:1011E000134B00221A60114B1B68002B09D00123FE
:1011F000BB61104B4FF080521A60BFF34F8FBFF3AB
:101200006F8F02F08DFABB6918462037BD4680BD4E
:10121000FC000020F0ED00E0D4000020AC00002035
:10122000DC0000201800002014000020E80000204E
:10123000E400002004ED00E080B483B000AF054B73
:101240001B687B607B6818460C37BD465DF8047BE5
:10125000704700BFD800002080B400AF034B1B686C
:101260001846BD465DF8047B704700BFD4000020DF
:1012700080B58AB000AF00237B627B4B1B68002BDC
:1012800040F0E780794B1B6801333B62774A3B6A49
:1012900013603B6A002B28D1754B1B681B68002B21
:1012A00012D0744BFB61FB691B6803F00103002B38
:1012B0000AD04FF0400383F31188BFF36F8FBFF361
:1012C0004F8F3B6000BF00BE694B1B68BB616A4B20
:1012D0001B68674A1360684ABB691360674B1B68E9
:1012E0000133664A136000F0B7FB654B1B683A6A2E
:1012F0009A42C0F0A7805E4B1B681B68002B04D18C
:101300005F4B4FF0FF321A609CE0594B1B68DB6863
:10131000DB687B617B695B683B613A6A3B699A4247
:1013200003D2574A3B6913608CE07B695B69FB60C1
:101330007B699B687A69D2689A607B69DB687A69A5
:1013400092685A60FB685A687B6904339A4203D1F9
:101350007B69DA68FB685A607B6900225A61FB6826
:101360001B685A1EFB681A607B699B6A002B1ED0A3
:101370007B699B6ABB607B69DB697A69126A9A60E8
:101380007B691B6A7A69D2695A60BB685A687B6953
:1013900018339A4203D17B691A6ABB685A607B6929
:1013A00000229A62BB681B685A1EBB681A607B6980
:1013B000DA6A344B1B689A4203D97B69DB6A314A8B
:1013C00013607B69DA6A304913469B0013449B0023
:1013D0000B4404331B687B607B697A689A607B6886
:1013E0009A687B69DA607B689B687A6904325A6024
:1013F0007B691A1D7B689A607B69DA6A13469B00D9
:1014000013449B00204A1A447B695A617B69DA6A5B
:101410001D4913469B0013449B000B441B68591C39
:10142000194813469B0013449B00034419607B69D1
:10143000DA6A164B1B68DB6A9A427FF65CAF0123BF
:101440007B6258E7124B1B68002B07D001237B629D
:1014500004E0104B1B6801330E4A13607B6A184688
:101460002837BD4680BD00BFFC000020D80000200A
:10147000A4000020F0ED00E0A8000020EC00002017
:10148000F4000020DC0000201800002014000020E0
:10149000E8000020E400002080B586B000AF3E4B9D
:1014A0001B68002B03D03D4B01221A606FE03B4BC1
:1014B00000221A603A4B1B681B6B3B614FF0A5334F
:1014C000FB603B691B68FA689A4211D13B6904339F
:1014D0001B68FA689A420BD13B6908331B68FA68AB
:1014E0009A4205D13B690C331B68FA689A4208D0CE
:1014F0002B4B1A682A4B1B68343319461046FEF7EB
:1015000000FF284B1B687B6118E07B69002B12D120
:10151000254B7B607B681B6803F00103002B0AD01E
:101520004FF0400383F31188BFF36F8FBFF34F8FEA
:101530003B6000BF00BE7B69013B7B611B497A6950
:1015400013469B0013449B000B441B68002BDCD00C
:101550007A6913469B0013449B00144A1344BB60F2
:10156000BB685B685A68BB685A60BB685A68BB68EE
:1015700008339A4203D1BB68DA68BB685A60BB681B
:101580005B68DB68064A1360064A7B69136000BF2C
:101590001837BD4680BD00BFFC000020E8000020D9
:1015A00014000020DC000020F0ED00E01800002016
:1015B00080B584B000AF786039607B68002B12D1B1
:1015C000104BFB60FB681B6803F00103002B0AD083
:1015D0004FF0400383F31188BFF36F8FBFF34F8F3A
:1015E000BB6000BF00BE084B1B6818331946786803
:1015F00001F003F90121386800F010FB00BF10373B
:10160000BD4680BDF0ED00E01400002080B588B03C
:1016100000AFF860B9607A60FB68002B12D1214BF3
:10162000FB61FB691B6803F00103002B0AD04FF03C
:10163000400383F31188BFF36F8FBFF34F8F7B613C
:1016400000BF00BEFB685B68BB61174B1B68BA69D3
:10165000DA61154B1B68BA6992681A62124B1A68F4
:10166000BB699B6818325A600F4B1B6803F1180264
:10167000BB699A600C4B1B68FA689A62FB681B682E
:101680005A1CFB681A607B68002B02D04FF0FF33B6
:10169000BB607968B86800F0C1FA00BF2037BD466A
:1016A00080BD00BFF0ED00E01400002080B48BB0DE
:1016B00000AF78607B68DB68DB683B623B6A002BCD
:1016C00012D1644BFB61FB691B6803F00103002B23
:1016D0000AD04FF0400383F31188BFF36F8FBFF33D
:1016E0004F8FBB6000BF00BE3B6A9B6ABB613B6A19
:1016F000DB693A6A126A9A603B6A1B6A3A6AD26983
:101700005A60BB695A683B6A18339A4203D13B6AF4
:101710001A6ABB695A603B6A00229A62BB691B68FD
:101720005A1EBB691A604C4B1B68002B5FD13B6A89
:101730005B693B613B6A9B683A6AD2689A603B6A24
:10174000DB683A6A92685A603B695A683B6A0433BC
:101750009A4203D13B6ADA683B695A603B6A0022CD
:101760005A613B691B685A1E3B691A603B6ADA6A18
:101770003A4B1B689A4203D93B6ADB6A374A1360CB
:101780003B6ADA6A364913469B0013449B000B44BC
:1017900004331B68FB603B6AFA689A60FB689A68CE
:1017A0003B6ADA60FB689B683A6A04325A603B6ABB
:1017B0001A1DFB689A603B6ADA6A13469B00134461
:1017C0009B00274A1A443B6A5A613B6ADA6A2449F9
:1017D00013469B0013449B000B441B68591C204874
:1017E00013469B0013449B00034419601BE01D4BF0
:1017F0005B687B613B6A7A69DA617B699A683B6AFC
:101800001A627B699B683A6A18325A603B6A03F134
:1018100018027B699A603B6A124A9A62114B1B68F4
:101820000133104A13603B6ADA6A0F4B1B68DB6AAC
:101830009A4205D901237B620C4B01221A6001E018
:1018400000237B627B6A18462C37BD465DF8047B1B
:10185000704700BFF0ED00E0FC000020DC0000203D
:1018600018000020AC00002014000020E800002038
:1018700080B483B000AF7860064B1A687B681A604A
:10188000054B1A687B685A6000BF0C37BD465DF88F
:10189000047B7047EC000020D800002080B58AB09F
:1018A00000AF786039607B68002B12D1344B3B620B
:1018B0003B6A1B6803F00103002B0AD04FF0400382
:1018C00083F31188BFF36F8FBFF34F8F3B6100BF6E
:1018D00000BE3B68002B12D1294BFB61FB691B68E2
:1018E00003F00103002B0AD04FF0400383F311886B
:1018F000BFF36F8FBFF34F8FFB6000BF00BE01F0DF
:10190000D5FE204B1B68BB617B685B68BA69D31A44
:101910007B613B681B68B3F1FF3F02D100237B6210
:1019200026E07B681A68184B1B689A420AD07B68CD
:101930005B68BA699A4205D301237B623B68002247
:101940001A6015E03B681B687A699A420BD23B68C3
:101950001A687B69D21A3B681A607868FFF788FFBB
:1019600000237B6204E03B6800221A6001237B6253
:1019700001F0D6FE7B6A18462837BD4680BD00BF01
:10198000F0ED00E0D8000020EC00002080B400AFB3
:10199000034B01221A6000BFBD465DF8047B70470F
:1019A000E800002080B582B000AF786000F04CF80D
:1019B000064B1B68012BF9D9054B4FF080521A607A
:1019C000BFF34F8FBFF36F8FF0E700BF1800002009
:1019D00004ED00E080B582B000AF00237B600CE036
:1019E0007A6813469B0013449B00104A1344184620
:1019F00000F0D6FE7B6801337B607B68042BEFD957
:101A00000B4800F0CDFE0B4800F0CAFE0A4800F07B
:101A1000C7FE0A4800F0C4FE094B054A1A60094B8C
:101A2000044A1A6000BF0837BD4680BD1800002078
:101A30007C00002090000020AC000020C0000020AE
:101A4000A4000020A800002080B400AF00BFBD4665
:101A50005DF8047B7047000080B400AF0A4B1B6840
:101A60001B68002B04D1094B4FF0FF321A6005E0D0
:101A7000054B1B68DB681B68044A136000BFBD464A
:101A80005DF8047B704700BFA4000020F400002034
:101A900080B483B000AF0B4B1B68002B02D1012335
:101AA0007B6008E0084B1B68002B02D102237B609F
:101AB00001E000237B607B6818460C37BD465DF86B
:101AC000047B7047E0000020FC00002080B58AB055
:101AD00000AF78607B683B6200237B627B68002BF1
:101AE00000F08F80494B1B683A6A9A4212D0484BEB
:101AF000FB61FB691B6803F00103002B0AD04FF068
:101B0000400383F31188BFF36F8FBFF34F8F3B61A7
:101B100000BF00BE3B6A1B6D002B12D13C4BBB616A
:101B2000BB691B6803F00103002B0AD04FF0400390
:101B300083F31188BFF36F8FBFF34F8FFB6000BF3C
:101B400000BE3B6A1B6D5A1E3B6A1A653B6ADA6A25
:101B50003B6ADB6C9A4254D03B6A1B6D002B50D120
:101B60003B6A0433184600F081FE3B6ADA6C3B6A3C
:101B7000DA623B6ADB6AC3F105023B6A9A613B6A3F
:101B8000DA6A244B1B689A4203D93B6ADB6A214A12
:101B900013603B6ADA6A204913469B0013449B009A
:101BA0000B4404331B687B613B6A7A699A607B69EA
:101BB0009A683B6ADA607B699B683A6A04325A60C9
:101BC0003B6A1A1D7B699A603B6ADA6A13469B007E
:101BD00013449B00104A1A443B6A5A613B6ADA6A12
:101BE0000D4913469B0013449B000B441B68591C72
:101BF000094813469B0013449B00034419600123CA
:101C00007B627B6A18462837BD4680BD14000020E1
:101C1000F0ED00E0DC0000201800002080B586B068
:101C200000AF786039602E4B1B687B612D4B1B68C1
:101C30000433184600F01AFE7B68B3F1FF3F24D14D
:101C40003B68002B21D0284B5B683B61254B1B6810
:101C50003A699A60234B1B683A699268DA60214BB3
:101C60001A683B699B6804325A601E4B1B681A1D38
:101C70003B699A601B4B1B681B4A5A611A4B1B68D5
:101C80000133194A136000BF26E07A697B68134468
:101C9000FB60144B1B68FA685A60FA687B699A42C9
:101CA00009D2124B1A680F4B1B68043319461046B1
:101CB00000F0A3FD10E00E4B1A680A4B1B680433BA
:101CC0001946104600F099FD0A4B1B68FA689A42C3
:101CD00002D2084AFB68136000BF1837BD4680BDBA
:101CE000D800002014000020C0000020A800002020
:101CF000A4000020F400002080B586B002AF0023CD
:101D0000FB6000F017FB154B1B68002B0AD0144B2F
:101D10000193032300930023802212491248FEF707
:101D20005FFFF860FB68002B12D1104BBB60BB68F3
:101D30001B6803F00103002B0AD04FF0400383F32C
:101D40001188BFF36F8FBFF34F8F7B6000BF00BE62
:101D5000FB6818461037BD4680BD00BF300100202B
:101D600034010020EC3B00008D1F0000F0ED00E08E
:101D700080B588B002AFF860B9607A603B602C2013
:101D800000F00EFB78617B69002B0DD07B6900228F
:101D900083F828207B6901933B6A00933B687A684B
:101DA000B968F86800F006F87B6918461837BD4630
:101DB00080BD000080B586B000AFF860B9607A6081
:101DC0003B60BB68002B12D11A4B7B617B691B689F
:101DD00003F00103002B0AD04FF0400383F3118876
:101DE000BFF36F8FBFF34F8F3B6100BF00BE00F0AA
:101DF000A1FA7B6AFA681A607B6ABA689A617B6AA0
:101E00003A68DA617B6A3A6A1A627B6A0433184676
:101E100000F0E6FC7B68002B08D07B6A93F8283042
:101E200043F00403DAB27B6A83F8282000BF183736
:101E3000BD4680BDF0ED00E080B58AB000AFF8602F
:101E4000B9607A603B6000237B62FB68002B12D193
:101E5000234B3B623B6A1B6803F00103002B0AD053
:101E60004FF0400383F31188BFF36F8FBFF34F8FA1
:101E7000FB6100BF00BE1B4B1B68002B2AD0BB6858
:101E80003B617B687B61FB68BB61BB68052B18DC31
:101E9000FFF7FEFD0346022B09D1124B186807F12C
:101EA000100100233A6B00F029FE786212E00D4B1E
:101EB000186807F110010023002200F01FFE78626D
:101EC00008E0084B186807F1100100233A6800F099
:101ED00027FF78627B6A18462837BD4680BD00BF61
:101EE000F0ED00E03001002080B584B000AFF86074
:101EF000B9607A6008E0FB689B69BA681344BB600C
:101F0000FB681B6AF8689847FB689A69BB68D11838
:101F1000BB687A68F86800F0DDF80346002BEAD168
:101F200000BF00BF1037BD4680BD000080B584B043
:101F300000AF78603960144B1B68DB68DB68FB60BE
:101F4000FB680433184600F091FCFB6893F82830D6
:101F500003F00403002B05D03A687968F868FFF7AE
:101F6000C3FF08E0FB6893F8283023F00103DAB2DE
:101F7000FB6883F82820FB681B6AF868984700BF55
:101F80001037BD4680BD00BF2801002080B584B059
:101F900000AF786007F10803184600F057F8F860C2
:101FA000BB681946F86800F003F800F0D5F8F1E7CF
:101FB00080B584B000AF78603960FFF729F807F189
:101FC0000803184600F066F8F860BB68002B30D1B3
:101FD0003B68002B0AD17A68FB689A4206D8FFF763
:101FE00025F8F9687868FFF7A1FF24E03B68002B2B
:101FF00008D0134B1B681B68002B01D1012300E0A4
:1020000000233B600F4B18687A68FB68D31A3A6864
:10201000194601F0A7F9FFF709F80346002B0AD18A
:10202000094B4FF080521A60BFF34F8FBFF36F8F91
:1020300001E0FEF7FBFF00BF1037BD4680BD00BFCB
:102040002C0100203001002004ED00E080B485B0B8
:1020500000AF78600E4B1B681B68002B01D101227A
:1020600000E000227B681A607B681B68002B05D1AA
:10207000074B1B68DB681B68FB6001E00023FB600B
:10208000FB6818461437BD465DF8047B704700BFF7
:102090002801002080B584B000AF7860FFF7CCF84D
:1020A000F8600B4B1B68FA689A4205D200F01CF9E5
:1020B0007B6801221A6002E07B6800221A60044AF1
:1020C000FB681360FB6818461037BD4680BD00BF33
:1020D0003801002080B586B000AFF860B9607A6042
:1020E0003B6000237B61FB68BA685A60FB68FA6852
:1020F0001A61BA687B689A4212D87A683B68D21A29
:10210000FB689B699A4202D301237B611BE0104B61
:102110001A68FB6804331946104600F06EFB12E0A3
:102120007A683B689A4206D2BA683B689A4202D300
:1021300001237B6107E0074B1A68FB6804331946EB
:10214000104600F05AFB7B6918461837BD4680BD23
:102150002C0100202801002080B588B000AFAEE03F
:102160007B68002BC0F2AA80FB68FB61FB695B699E
:10217000002B04D0FB690433184600F077FB3B4684
:102180001846FFF787FFB8617B68013B082B00F218
:10219000968001A252F823F0BD210000BD2100006D
:1021A000252200003922000093220000BD210000FA
:1021B000BD2100002522000039220000FB6993F8B0
:1021C000283043F00103DAB2FB6983F82820BA68AB
:1021D000FB699B69D118BB68BA69F869FFF77AFF98
:1021E0000346002B6BD0FB6993F8283003F00403FF
:1021F000002B09D0BA68FB699B691344BA69194678
:10220000F869FFF771FE08E0FB6993F8283023F0C6
:102210000103DAB2FB6983F82820FB691B6AF869BD
:1022200098474CE0FB6993F8283023F00103DAB2B9
:10223000FB6983F8282042E0FB6993F8283043F0DB
:102240000103DAB2FB6983F82820BA68FB699A6156
:10225000FB699B69002B12D1214B7B617B691B6859
:1022600003F00103002B0AD04FF0400383F31188E1
:10227000BFF36F8FBFF34F8F3B6100BF00BEFB69A1
:102280009A69BB69D118BB69BA69F869FFF722FF7F
:1022900015E0FB6993F8283003F00203002B03D10B
:1022A000F86900F059F90AE0FB6993F8283023F047
:1022B0000103DAB2FB6983F8282000E000BF094B74
:1022C0001B68391D0022184600F0F4FD0346002B60
:1022D0007FF446AF00BF00BF2037BD4680BD00BFC2
:1022E000F0ED00E03001002080B582B000AF09E0E1
:1022F0000E4B1B68DB681B683B604FF0FF31386892
:10230000FFF714FE094B1B681B68002BF0D1074B2D
:102310001B687B60064B1B68044A1360044A7B6899
:10232000136000BF0837BD4680BD00BF28010020F4
:102330002C01002080B500AF01F0B8F9124B1B68EA
:10234000002B1DD1114800F02BFA114800F028FA9B
:10235000104B0E4A1A60104B0D4A1A6000220C21D5
:10236000202000F04FFB0346074A1360064B1B6812
:10237000002B05D0044B1B680849184600F09AFF53
:1023800001F0CEF900BF80BD300100200001002027
:1023900014010020280100202C010020F43B000043
:1023A00080B58CB000AF786000237B62FEF730FE12
:1023B000634B1B68002B01D100F03CF97B68002BBC
:1023C00022D00823DB437A689A421BD808227B6814
:1023D00013447B607B6803F00703002B14D07B68F9
:1023E00003F00703C3F108033B623B6ADB437A68EF
:1023F0009A4204D87A683B6A13447B6004E0002365
:102400007B6001E000237B607B68002B78DB7B68CE
:10241000002B75D04B4B1B687A689A4270D84A4B98
:10242000BB62494B1B68FB6204E0FB6ABB62FB6A50
:102430001B68FB62FB6A5B687A689A4203D9FB6A95
:102440001B68002BF1D13E4B1B68FA6A9A4257D0A9
:10245000BB6A1B68082213447B62FB6A1A68BB6A6A
:102460001A60FB6A5A687B68D21A08235B009A429A
:1024700027D9FA6A7B681344FB61FB6903F0070301
:10248000002B12D0314BBB61BB691B6803F0010309
:10249000002B0AD04FF0400383F31188BFF36F8FF6
:1024A000BFF34F8F3B6100BF00BEFB6A5A687B6879
:1024B000D21AFB695A60FB6A7A685A60F86900F0C0
:1024C00015F9204B1A68FB6A5B68D31A1D4A136022
:1024D0001C4B1A681E4B1B689A4203D2194B1B688F
:1024E0001B4A1360FB6A5B6843F00042FB6A5A6058
:1024F000FB6A00221A60174B1B680133154A1360F0
:10250000FEF794FD7B6A03F00703002B12D00F4BFC
:102510007B617B691B6803F00103002B0AD04FF03D
:10252000400383F31188BFF36F8FBFF34F8FFB60BE
:1025300000BF00BE7B6A18463037BD4680BD00BF75
:1025400044110020481100203C110020F0ED00E073
:102550004C1100205011002080B588B000AF786089
:102560007B68FB617B68002B59D008235B42FA69CA
:102570001344FB61FB69BB61BB695B68002B12DB29
:10258000294B7B617B691B6803F00103002B0AD098
:102590004FF0400383F31188BFF36F8FBFF34F8F6A
:1025A000FB6000BF00BEBB691B68002B12D01E4B36
:1025B0003B613B691B6803F00103002B0AD04FF01D
:1025C000400383F31188BFF36F8FBFF34F8FBB605E
:1025D00000BF00BEBB695B68DB0F03F00103DBB229
:1025E000002B1CD0BB691B68002B18D1BB695B6832
:1025F00023F00042BB695A60FEF70AFDBB695A68C6
:102600000A4B1B681344094A1360B86900F06EF85E
:10261000074B1B680133064A1360FEF707FD00BF36
:102620002037BD4680BD00BFF0ED00E0481100201E
:102630005411002080B485B000AF4FF48053BB60CC
:10264000254BFB60FB6803F00703002B0CD0FB68F5
:102650000733FB60FB6823F00703FB60BA68FB6885
:10266000D31A1D4A1344BB60FB687B601B4A7B681E
:1026700013601A4B00225A607A68BB681344FB60EF
:102680000822FB689B1AFB60FB6823F00703FB60D2
:10269000FB68134A1360124B1B6800225A60104BF0
:1026A0001B6800221A607B683B603B68FA68D21A9C
:1026B0003B685A600A4B1A683B681A603B685B6863
:1026C000084A13603B685B68074A136000BF143711
:1026D000BD465DF8047B70473C0100203C110020A2
:1026E000441100204C1100204811002080B485B016
:1026F00000AF7860284BFB6002E0FB681B68FB6062
:10270000FB681B687A689A42F7D8FB68BB60FB6875
:102710005B68BA6813447A689A4208D1FB685A68C1
:102720007B685B681A44FB685A60FB687B607B6867
:10273000BB607B685B68BA681A44FB681B689A4296
:1027400018D1FB681A68154B1B689A420DD07B683C
:102750005A68FB681B685B681A447B685A60FB68B0
:102760001B681A687B681A6008E00C4B1A687B6863
:102770001A6003E0FB681A687B681A60FA687B6875
:102780009A4202D0FB687A681A6000BF1437BD46CF
:102790005DF8047B704700BF3C110020441100200D
:1027A00080B483B000AF78607B6803F108027B6877
:1027B0005A607B684FF0FF329A607B6803F1080231
:1027C0007B68DA607B6803F108027B681A617B68CA
:1027D00000221A6000BF0C37BD465DF8047B7047CD
:1027E00080B483B000AF78607B6800221A6100BFBC
:1027F0000C37BD465DF8047B704780B485B000AFF0
:10280000786039603B681B68BB60BB68B3F1FF3F11
:1028100003D17B681B69FB600CE07B680833FB60BD
:1028200002E0FB685B68FB60FB685B681B68BA687A
:102830009A42F6D2FB685A683B685A603B685B680C
:102840003A689A603B68FA689A60FB683A685A602E
:102850003B687A681A617B681B685A1C7B681A603F
:1028600000BF1437BD465DF8047B704780B485B067
:1028700000AF78607B681B69FB607B685B687A6887
:1028800092689A607B689B687A6852685A60FB68B5
:102890005B687A689A4203D17B689A68FB685A60E1
:1028A0007B6800221A61FB681B685A1EFB681A606D
:1028B000FB681B6818461437BD465DF8047B7047FB
:1028C00080B588B000AF786039600123FB617B6818
:1028D000BB61BB69002B12D1484B7B617B691B68D4
:1028E00003F00103002B0AD04FF0400383F311885B
:1028F000BFF36F8FBFF34F8FFB6000BF00BEBB699C
:10290000002B5DD0BB69DB6B002B59D0BB691A6C07
:10291000BB69DB6B0021A3FB0223002B00D001214C
:102920000B46002B4CD100F0C1FEBB691A68BB6995
:10293000DB6BB969096C01FB03F31A44BB699A604C
:10294000BB6900229A63BB691A68BB695A60BB699C
:102950001A68BB69DB6B013BB969096C01FB03F3C6
:102960001A44BB69DA60BB69FF2283F84420BB6963
:10297000FF2283F845203B68002B14D1BB691B69FB
:10298000002B1AD0BB6910331846FEF78FFE0346A2
:10299000002B12D01A4B4FF080521A60BFF34F8FAA
:1029A000BFF36F8F09E0BB6910331846FFF7F8FEDD
:1029B000BB6924331846FFF7F3FE00F0B1FE01E0D7
:1029C0000023FB61FB69002B12D10C4B3B613B697F
:1029D0001B6803F00103002B0AD04FF0400383F380
:1029E0001188BFF36F8FBFF34F8FBB6000BF00BE76
:1029F000FB6918462037BD4680BD00BFF0ED00E002
:102A000004ED00E080B58CB002AFF860B960134609
:102A1000FB7100237B62FB68002B2ED00021BA687B
:102A2000FB68A3FB0223002B00D001210B46002BE7
:102A300023D1FB68BA6802FB03F313F1510F1CD8D2
:102A4000FB68BA6802FB03F33B623B6A50331846EB
:102A5000FFF7A6FC78627B6A002B24D07B6AFB61BF
:102A6000FB695033FB61FA797B6A00931346FA697C
:102A7000B968F86800F01EF815E07B6A002B12D1E7
:102A80000B4BBB61BB691B6803F00103002B0AD031
:102A90004FF0400383F31188BFF36F8FBFF34F8F65
:102AA0007B6100BF00BE7B6A18462837BD4680BDEB
:102AB000F0ED00E080B584B000AFF860B9607A60F6
:102AC000FB70BB68002B03D1BB69BA691A6002E0D6
:102AD000BB697A681A60BB69FA68DA63BB69BA686D
:102AE0001A640121B869FFF7EBFEBB69FA7883F835
:102AF0004C2000BF1037BD4680BD000080B592B0AD
:102B000000AFF860B9607A603B6000237B64FB68CB
:102B10003B643B6C002B12D17F4BFB63FB6B1B6850
:102B200003F00103002B0AD04FF0400383F3118818
:102B3000BFF36F8FBFF34F8FBB6200BF00BEBB6898
:102B4000002B16D13B6C1B6C002B12D0724BBB635D
:102B5000BB6B1B6803F00103002B0AD04FF040034E
:102B600083F31188BFF36F8FBFF34F8F7B6200BF7A
:102B700000BE3B68022B16D13B6CDB6B012B12D0E5
:102B8000654B7B637B6B1B6803F00103002B0AD052
:102B90004FF0400383F31188BFF36F8FBFF34F8F64
:102BA0003B6200BF00BEFEF773FF0346002B15D14A
:102BB0007B68002B12D0584B3B633B6B1B6803F0C8
:102BC0000103002B0AD04FF0400383F31188BFF3B9
:102BD0006F8FBFF34F8FFB6100BF00BE00F066FD3B
:102BE0003B6C9A6B3B6CDB6B9A4202D33B68022BCB
:102BF00029D13A68B968386C00F04CFAF8623B6C3D
:102C00005B6A002B10D03B6C24331846FEF74EFD58
:102C10000346002B13D0414B4FF080521A60BFF394
:102C20004F8FBFF36F8F0AE0FB6A002B07D03B4B3F
:102C30004FF080521A60BFF34F8FBFF36F8F00F0D9
:102C40006FFD012363E07B68002B03D100F068FD7A
:102C500000235CE07B6C002B06D107F114031846BF
:102C6000FEF706FE01237B6400F05AFDFEF7D0F963
:102C700000F01CFD3B6C93F844305BB2B3F1FF3FB6
:102C800003D13B6C002283F844203B6C93F8453021
:102C90005BB2B3F1FF3F03D13B6C002283F84520C8
:102CA00000F03EFD3A1D07F1140311461846FEF7E9
:102CB000F5FD0346002B24D1386C00F0E3FA0346FF
:102CC000002B18D03B6C10337A6811461846FEF77B
:102CD0006FFC386C00F06EFAFEF7A8F90346002B83
:102CE0007FF47CAF0D4B4FF080521A60BFF34F8FD3
:102CF000BFF36F8F72E7386C00F05CFAFEF796F95D
:102D00006CE7386C00F056FAFEF790F9002318468D
:102D10004837BD4680BD00BFF0ED00E004ED00E0A7
:102D200080B596B000AFF860B9607A603B60FB6830
:102D30003B653B6D002B12D15D4BFB64FB6C1B684C
:102D400003F00103002B0AD04FF0400383F31188F6
:102D5000BFF36F8FBFF34F8FFB6200BF00BEBB6836
:102D6000002B16D13B6D1B6C002B12D0504BBB645B
:102D7000BB6C1B6803F00103002B0AD04FF040032B
:102D800083F31188BFF36F8FBFF34F8FBB6200BF18
:102D900000BE3B68022B16D13B6DDB6B012B12D0C2
:102DA000434B7B647B6C1B6803F00103002B0AD050
:102DB0004FF0400383F31188BFF36F8FBFF34F8F42
:102DC0007B6200BF00BE00F069FDEFF311824FF09F
:102DD000400383F31188BFF36F8FBFF34F8F3A62C5
:102DE000FB613B6A3B643B6D9A6B3B6DDB6B9A42CC
:102DF00002D33B68022B4ED13B6D93F8453087F8E8
:102E00003F303B6D9B6BBB633A68B968386D00F02F
:102E100041F997F93F30B3F1FF3F12D13B6D5B6A47
:102E2000002B35D03B6D24331846FEF73FFC03469C
:102E3000002B2DD07B68002B2AD07B6801221A60E2
:102E400026E0FEF709FA786397F93F307A6B9A42E9
:102E50001ED997F93F307F2B12D1154B3B633B6B4B
:102E60001B6803F00103002B0AD04FF0400383F3EB
:102E70001188BFF36F8FBFF34F8FBB6100BF00BEE0
:102E800097F83F300133DBB25AB23B6D83F84520EF
:102E900001237B6501E000237B653B6C7B617B69E3
:102EA00083F3118800BF7B6D18465837BD4680BD3F
:102EB000F0ED00E080B590B000AFF860B9607A60E6
:102EC0000023FB63FB68BB63BB6B002B12D16F4B12
:102ED0007B637B6B1B6803F00103002B0AD04FF070
:102EE000400383F31188BFF36F8FBFF34F8F7B6273
:102EF00000BF00BEBB68002B16D1BB6B1B6C002B48
:102F000012D0624B3B633B6B1B6803F00103002B49
:102F10000AD04FF0400383F31188BFF36F8FBFF3E4
:102F20004F8F3B6200BF00BEFEF7B2FD0346002B91
:102F300015D17B68002B12D0544BFB62FB6A1B68D7
:102F400003F00103002B0AD04FF0400383F31188F4
:102F5000BFF36F8FBFF34F8FFB6100BF00BE00F068
:102F6000A5FBBB6B9B6BBB62BB6A002B1FD0B96818
:102F7000B86B00F0F9F8BB6A5A1EBB6B9A63BB6B67
:102F80001B69002B0FD0BB6B10331846FEF78EFB6E
:102F90000346002B07D03E4B4FF080521A60BFF320
:102FA0004F8FBFF36F8F00F0BBFB012369E07B689D
:102FB000002B03D100F0B4FB002362E0FB6B002B7D
:102FC00006D107F114031846FEF752FC0123FB63F8
:102FD00000F0A6FBFEF71CF800F068FBBB6B93F853
:102FE00044305BB2B3F1FF3F03D1BB6B002283F8E7
:102FF0004420BB6B93F845305BB2B3F1FF3F03D184
:10300000BB6B002283F8452000F08AFB3A1D07F1D4
:10301000140311461846FEF741FC0346002B23D14A
:10302000B86B00F019F90346002B17D0BB6B2433A3
:103030007A6811461846FEF7BBFAB86B00F0BAF88A
:10304000FDF7F4FF0346002B89D1114B4FF080525E
:103050001A60BFF34F8FBFF36F8F80E7B86B00F03C
:10306000A9F8FDF7E3FF7AE7B86B00F0A3F8FDF7E6
:10307000DDFFB86B00F0F0F80346002B3FF46FAFB4
:10308000002318464037BD4680BD00BFF0ED00E08C
:1030900004ED00E080B586B000AFF860B9607A60FA
:1030A00000237B61FB689B6B3B61FB681B6C002B07
:1030B0000DD1FB681B68002B4DD1FB689B6818463F
:1030C000FEF704FD7861FB6800229A6043E07B68AC
:1030D000002B19D1FB685868FB681B6C1A46B9684D
:1030E00000F02EFCFB685A68FB681B6C1A44FB68F6
:1030F0005A60FB685A68FB689B689A422BD3FB684E
:103100001A68FB685A6026E0FB68D868FB681B6C8D
:103110001A46B96800F014FCFB68DA68FB681B6C9F
:103120005B421A44FB68DA60FB68DA68FB681B687C
:103130009A4207D2FB689A68FB681B6C5B421A4490
:10314000FB68DA607B68022B05D13B69002B02D05B
:103150003B69013B3B613B695A1CFB689A637B6995
:1031600018461837BD4680BD80B582B000AF786084
:1031700039607B681B6C002B18D07B68DA687B6831
:103180001B6C1A447B68DA607B68DA687B689B6832
:103190009A4203D37B681A687B68DA607B68D968D7
:1031A0007B681B6C1A46386800F0CAFB00BF083702
:1031B000BD4680BD80B584B000AF786000F076FA7F
:1031C0007B6893F84530FB7311E07B685B6A002BEA
:1031D00012D07B6824331846FEF768FA0346002BAA
:1031E00001D0FEF7D3FBFB7B013BDBB2FB7397F90E
:1031F0000F30002BE9DC00E000BF7B68FF2283F882
:10320000452000F08DFA00F051FA7B6893F84430C5
:10321000BB7311E07B681B69002B12D07B681033F5
:103220001846FEF743FA0346002B01D0FEF7AEFB2B
:10323000BB7B013BDBB2BB7397F90E30002BE9DCA3
:1032400000E000BF7B68FF2283F8442000F068FAAA
:1032500000BF1037BD4680BD80B584B000AF786038
:1032600000F024FA7B689B6B002B02D10123FB60EA
:1032700001E00023FB6000F053FAFB6818461037AA
:10328000BD4680BD80B584B000AF786000F00EFA16
:103290007B689A6B7B68DB6B9A4202D10123FB60EF
:1032A00001E00023FB6000F03BFAFB681846103792
:1032B000BD4680BD80B487B000AF78603960002320
:1032C0003B617B68002B12D1244BFB60FB681B68C1
:1032D00003F00103002B0AD04FF0400383F3118861
:1032E000BFF36F8FBFF34F8FBB6000BF00BE3B6863
:1032F000002B24D000237B611EE0194A7B69DB0090
:1033000013445B687A689A4205D17B69DB00144AF2
:1033100013443B6113E03B69002B0AD1104A7B69DF
:1033200052F83330002B04D17B69DB000C4A134484
:103330003B617B6901337B617B69012BDDD93B6993
:10334000002B05D03B693A681A603B697A685A607D
:1033500000BF1C37BD465DF8047B7047F0ED00E010
:103360005811002080B586B000AFF860B9607A606F
:10337000FB687B6100F09AF97B6993F844305BB29B
:10338000B3F1FF3F03D17B69002283F844207B69BE
:1033900093F845305BB2B3F1FF3F03D17B69002264
:1033A00083F8452000F0BCF97B699B6B002B06D1AC
:1033B0007B6924337A68B9681846FEF727F978697B
:1033C000FFF7F8FE00BF1837BD4680BD80B485B05A
:1033D00000AFF860B9607A60FB68043BFB60FB6893
:1033E0004FF080721A60FB68043BFB60BB6823F0FF
:1033F0000102FB681A60FB68043BFB600C4AFB6837
:103400001A60FB68143BFB607A68FB681A60FB6813
:10341000043BFB60FB686FF002021A60FB68203B14
:10342000FB60FB6818461437BD465DF8047B7047A7
:103430003534000080B485B000AF00233B60164BEC
:103440001B68B3F1FF3F12D0144BFB60FB681B6895
:1034500003F00103002B0AD04FF0400383F31188DF
:10346000BFF36F8FBFF34F8FBB6000BF00BE4FF045
:10347000400383F31188BFF36F8FBFF34F8F7B60DF
:1034800000BF00BF3B68002BFCD000BF00BF14375B
:10349000BD465DF8047B704704000020F0ED00E0BD
:1034A000074B19680868B0E8F04F80F30988BFF34C
:1034B0006F8F4FF0000080F311887047AFF30080EA
:1034C0001400002000BF00BF08480068006880F3B7
:1034D00008884FF0000080F3148862B661B6BFF32D
:1034E0004F8FBFF36F8F00DF00BF000008ED00E0DB
:1034F00000BF00BF80B58CB000AF624B1B68624A52
:10350000934212D1614BFB62FB6A1B6803F001031B
:10351000002B0AD04FF0400383F31188BFF36F8F65
:10352000BFF34F8FBB6100BF00BE564B1B68584AAC
:10353000934212D1554BBB62BB6A1B6803F0010377
:10354000002B0AD04FF0400383F31188BFF36F8F35
:10355000BFF34F8F7B6100BF00BE00237B604D4BEC
:103560007B627B6A1B78DBB2FB727B6AFF221A707C
:103570007B6A1B78DBB2FB70FB78DBB203F04003A5
:10358000DAB2454B1A70444B1B78002B12D13F4BDB
:103590003B623B6A1B6803F00103002B0AD04FF02B
:1035A000400383F31188BFF36F8FBFF34F8F3B61ED
:1035B00000BF00BEFB78DBB2DB4303F04003002B0F
:1035C0001BD0324BFB61FB691B6803F00103002B2E
:1035D00013D04FF0400383F31188BFF36F8FBFF315
:1035E0004F8FFB6000BF00BE07E07B6801337B604C
:1035F000FB78DBB25B00DBB2FB70FB78DBB203F085
:103600008003802BF1D07B68082B03D1234B002251
:103610001A6004E07B68C3F10703204A13601F4B64
:103620001B681B021D4A13601C4B1B6803F4E063FC
:103630001A4A1360FB7ADAB27B6A1A70184B1B685D
:10364000174A43F47F031360154B1B68144A43F079
:103650007F43136000F0F2F8124B00221A6000F072
:1036600011F9114B1B68104A43F040431360FFF7F8
:103670002BFFFDF711FFFFF7DDFE00231846303763
:10368000BD4680BD00ED00E071C20F41F0ED00E0ED
:1036900070C20F4100E400E0681100206C110020AE
:1036A00020ED00E00400002034EF00E080B485B09D
:1036B00000AF4FF0400383F31188BFF36F8FBFF368
:1036C0004F8FBB6000BF134B1B680133114A13605F
:1036D000104B1B68012B17D10F4B1B68DBB2002B63
:1036E00012D00E4BFB60FB681B6803F00103002B3C
:1036F0000AD04FF0400383F31188BFF36F8FBFF3FD
:103700004F8F7B6000BF00BE00BF1437BD465DF821
:10371000047B70470400002004ED00E0F0ED00E0C1
:1037200080B485B000AF164B1B68002B12D1154B2F
:10373000FB60FB681B6803F00103002B0AD04FF00D
:10374000400383F31188BFF36F8FBFF34F8FBB60CC
:1037500000BF00BE0A4B1B68013B094A1360084BBF
:103760001B68002B05D100237B607B6883F31188E5
:1037700000BF00BF1437BD465DF8047B704700BF33
:1037800004000020F0ED00E0000000000000000058
:10379000EFF30980BFF36F8F154B1A681EF0100FFF
:1037A00008BF20ED108A20E9F04F10602DE90900D4
:1037B0004FF0400080F31188BFF34F8FBFF36F8F3E
:1037C000FDF76AFE4FF0000080F3118809BC19680C
:1037D0000868B0E8F04F1EF0100F08BFB0EC108A78
:1037E00080F30988BFF36F8F704700BFAFF300808D
:1037F0001400002000BF00BF80B582B000AF4FF0C2
:10380000400383F31188BFF36F8FBFF34F8F7B604B
:1038100000BFFDF72DFD0346002B03D0064B4FF0F4
:1038200080521A6000233B603B6883F3118800BF1D
:1038300000BF0837BD4680BD04ED00E080B400AF96
:103840000B4B00221A600B4B00221A600A4B1B68BC
:103850000A4AA2FB03239B09094A013B1360044B5C
:1038600007221A6000BFBD465DF8047B704700BFA9
:1038700010E000E018E000E00C000020D34D6210E2
:1038800014E000E0DFF80C00016841F47001016011
:103890007047000088ED00E000BF00BF80B487B033
:1038A00000AFEFF305837B617B690F2B1CD91F4AA7
:1038B0007B6913441B78FB741D4B1B78FA7C9A427E
:1038C00012D21C4BFB60FB681B6803F00103002B4A
:1038D0000AD04FF0400383F31188BFF36F8FBFF31B
:1038E0004F8F7B6000BF00BE134B1B6803F4E06288
:1038F000124B1B689A4212D90E4BBB60BB681B6807
:1039000003F00103002B0AD04FF0400383F311882A
:10391000BFF36F8FBFF34F8F3B6000BF00BE00BF90
:103920001C37BD465DF8047B704700BFF0E300E044
:1039300068110020F0ED00E00CED00E06C110020BB
:10394000844641EA000313F003036DD1403A41D3AA
:1039500051F8043B40F8043B51F8043B40F8043B69
:1039600051F8043B40F8043B51F8043B40F8043B59
:1039700051F8043B40F8043B51F8043B40F8043B49
:1039800051F8043B40F8043B51F8043B40F8043B39
:1039900051F8043B40F8043B51F8043B40F8043B29
:1039A00051F8043B40F8043B51F8043B40F8043B19
:1039B00051F8043B40F8043B51F8043B40F8043B09
:1039C00051F8043B40F8043B51F8043B40F8043BF9
:1039D000403ABDD2303211D351F8043B40F8043B99
:1039E00051F8043B40F8043B51F8043B40F8043BD9
:1039F00051F8043B40F8043B103AEDD20C3205D3A9
:103A000051F8043B40F8043B043AF9D2043208D0A0
:103A1000D2071CBF11F8013B00F8013B01D30B8812
:103A200003806046704700BF082A13D38B078DD0F0
:103A300010F003038AD0C3F10403D21ADB071CBFC2
:103A400011F8013B00F8013B80D331F8023B20F82C
:103A5000023B7BE7043AD9D3013A11F8013B00F865
:103A6000013BF9D20B7803704B7843708B788370ED
:103A7000604670477469636B20746F636B2E200D12
:103A80000A0000001B5B324A456E74657220746543
:103A900078743A200D0A0000765461736B000000C0
:103AA000004000400080054000500040009005406C
:103AB0000060004000A005400070004000B00540DC
:103AC0000040024000C005400050024000D00540C8
:103AD0000060024000E005400070024000F0054038
:103AE00000D00340000006400010064000100640D1
:103AF000002006400020064000300640003006400E
:103B0000004006400040064000500640005006407D
:103B100000600640006006402F55736572732F6D7C
:103B200079626179732F646576656C6F702F6D6350
:103B3000752D617263682F6C6D34663132302F459C
:103B40004B2D4C4D3446313230584C2F53572D4568
:103B50004B2D4C4D3446313230584C2D39343533A1
:103B60002E6465762F6472697665726C69622F6760
:103B700070696F2E6300000040420F0000201C009F
:103B800080841E0000802500999E36000040380089
:103B900000093D0000803E0000004B00404B4C00FF
:103BA00000204E00808D5B0000C05D000080700032
:103BB00000127A0000007D0080969800001BB7007C
:103BC0000080BB00C0E8CE00647ADA000024F40074
:103BD0000000FA0080A81201002D310100366E01AC
:103BE00040787D0149444C4500000000546D72202E
:093BF00053766300546D7251001C
:083BF90004000000AAAAAAAA18
:040000030000028572
:00000001FF
