:1000000000800020B1750000B1040000B1040000C0
:10001000B1040000B1040000B104000000000000C1
:10002000000000000000000000000000B10400001B
:10003000B104000000000000B1040000B50400009D
:10004000B1040000B1040000B1040000B1040000DC
:10005000B1040000B1040000B1040000B1040000CC
:10006000B1040000B1040000B1040000B1040000BC
:10007000B1040000B1040000B1040000B1040000AC
:10008000B1040000B1040000B1040000B10400009C
:10009000B1040000B1040000B1040000B10400008C
:1000A000B1040000B1040000B10400000000000031
:1000B000B1040000B1040000B10400000000000021
:1000C00000000000B1040000B1040000B104000011
:1000D000B1040000B1040000B1040000B10400004C
:1000E000B1040000B104000000000000B1040000F1
:1000F000E9140000B1040000B1040000B1040000E4
:10010000B1040000B1040000B1040000B10400001B
:100110000000000000000000B1040000B104000075
:10012000B1040000B1040000B1040000B1040000FB
:10013000B1040000B1040000B1040000B1040000EB
:1001400000000000000000000000000000000000AF
:10015000B1040000B1040000B1040000B1040000CB
:10016000000000000000000000000000000000008F
:10017000000000000000000000000000000000007F
:10018000000000000000000000000000000000006F
:10019000000000000000000000000000000000005F
:1001A000000000000000000000000000000000004F
:1001B000B1040000B1040000B1040000B10400006B
:1001C000B1040000B1040000B1040000B10400005B
:1001D000B1040000B1040000B1040000B10400004B
:1001E000B1040000B1040000B104000000000000F0
:1001F00000000000B1040000B1040000B1040000E0
:10020000B1040000B1040000000000000000000084
:10021000B1040000B1040000B1040000B10400000A
:10022000B1040000B1040000B1040000B1040000FA
:10023000B1040000B1040000B1040000B1040000EA
:10024000B1040000B1040000B1040000B1040000DA
:10025000B1040000B1040000B1040000B1040000CA
:10026000B1040000B1040000B104000010F8012B3B
:1002700011F8013B012A28BF9A42F7D0D01A7047E3
:10028000034613F8012B002AFBD1181A01387047D6
:1002900038B500EBC10181421ED90468A24219D3CE
:1002A0004468A24216D2D0E900549542134420D1AA
:1002B000A34203601BD14A1E121A431C22F00702FC
:1002C0008B4288BF002200F1080107F0F3FA4FF0DB
:1002D000FF3038BD0830DEE7E5D14FF0E023D3F83A
:1002E000F03DDB0700D500BE6FF00100F1E7002014
:1002F000EFE7A3424260FAD0C1E900340120E8E709
:1003000070B522F00304930804440546A54210D1B9
:100310006FF0030404FB03232240012B00EB0204D3
:1003200081BF023B825A0A8002340BB123780B70E2
:1003300070BD55F8046B0E60E8E770B522F0030459
:10034000930804440546A54212D16FF0030404FB50
:100350000323012B02EA040284BF0D88855200EBBF
:10036000020484BF023B02340BB10B78237070BDD2
:100370000E6845F8046BE6E72DE9F04F98460C232C
:10038000174E03FB08F385B0894606EB030A01A963
:10039000F358154607469847BDF80440DAF808B008
:1003A0000298AC4228BF2C4622464946D8472C1B0F
:1003B0000AD0BDF806A00398A24528BFA24652461F
:1003C0004946D847A4EB0A040C2303FB0866291B03
:1003D000736889B23846984705B0BDE8F08F00BF12
:1003E000348A00002DE9F84FC0F3C01800F07F07F1
:1003F000013FC8EBC804DFF884903C44023409EBA9
:10040000C4044FEAC80BB4F8095035B9E57025713A
:100410006571A5710120BDE8F88F164A3B0102EB1A
:10042000071A9E5AB6B2AE4228BF2E46AEB1B9F8F0
:1004300086301149D4F80300FB40DB0701EB87014C
:1004400010D501233246FFF797FFABEB080847446E
:1004500009EBC709AD1BA9F8195001238AF802302E
:100460000020D8E73246FFF74BFF3044C4F80300C2
:10047000EBE700BF10010540240005407400002098
:10048000022908D0032908D051B9162808D8054BED
:1004900053F8200070470448704747F230507047C7
:1004A00002487047F879000000093D000024F4007C
:1004B000FEE70000024A136801331360704700BF73
:1004C000082E00200F2280F8252045F64502C28420
:1004D00040F2EA53044A838342610023034A836162
:1004E00002611846704700BFA1210000C536000018
:1004F0006FF00B00704700BA704700002DE9F04123
:10050000002864D0C31C23F003039BB20B2B04D937
:10051000B3F5C86F02D9002059E00C239842FAD8ED
:10052000364A374E146831680A1B92B2C3F5C86C5C
:100530006FF00708624506D3324AB2F8A83001339B
:10054000A2F8A830E7E7A018A75A90F804E0BEF197
:10055000000F51D1A8EB02053D449D424CD303F15D
:10056000140C1FFA8CFC6545264D32D303F10807A5
:1005700017441FFA87FC14FA87F787F804E0B0F8ED
:1005800000E024F80CE07A800122A0F800C002719B
:1005900034F80C20B2F5C86F1CBF1219A2F802C0C3
:1005A000B5F8AC2008321344B5F8AE209BB29A429D
:1005B000A5F8AC3001D2A5F8AE30814206D1124B7D
:1005C0001B680A790AB18B4213D131600830BDE84B
:1005D000F08101230371B5F8AC303B449A1AB5F8A9
:1005E000AE3092B29342A5F8AC2038BFA5F8AE2049
:1005F000E3E709882144E4E73A469BE750210020DD
:10060000F8090020FC090020542100200B4B53F86E
:100610002030DA68106860B10168116019688A8852
:1006200001328A801B689A88D988914205D2DA8083
:1006300070471A681388013313807047108A0000CE
:100640000346002290B2013203B970471B68F9E7F4
:10065000F0B50246058DC16A578E446A6B1A40F2A6
:10066000DA26B74203EB040094BFC31B831B002BA5
:1006700001DB5585F0BD631A002B4FF00000D6BF9B
:10068000091B50855185F5E7094A1388591C1180CB
:10069000084A12681AB1084909888B4204D2074AED
:1006A00012681344187D70475B1ADBB2D05C704748
:1006B000202E0020382E0020342E0020302E002046
:1006C0002DE9F0411A4F1B4D064640F2B3583C88C5
:1006D0002B88A34206D2FFF7D7FF0128F7D00228C4
:1006E00002D0D8B9BDE8F081FFF7CEFF0428F9D1D8
:1006F0002B880133A342F5DAFFF7C6FF0402FFF7A8
:10070000C3FFA4B244EA00039BB25A1E92B240F265
:10071000B451424588BF0B467386D8E7FFF7B4FF54
:100720000128DFD92B88023B18442880CFE700BF7F
:100730003C2E0020202E002038B5036F014623B93F
:100740006FF0050022E0012AFAD11C461B6862689E
:10075000927B002BF7D1012AF2D1CA6E22600A6F78
:10076000C1E91B234A8B42F400624A83E56868684A
:10077000FFF7C1FEAA8924894B6352BA12F0030223
:1007800018BF012222440244CA64184638BD38B555
:10079000026F034652B35168897B012926D1116843
:1007A000C56E016700F16C045DB1E9684868FFF748
:1007B000A2FE0146D0684068FFF79DFE081A002897
:1007C00011DB1560226012680AB9A3F8682093F85B
:1007D0004220FF2A18BF01324FF0000018BF83F8F3
:1007E0004220586338BD24682568DDE76FF00500B6
:1007F000F8E7000070B5044606200E461546FFF7E0
:1008000005FF40B10C4A4460002303601368C0E94F
:1008100002650BB9106070BD5968611A002901DAD0
:100820000360F7E719461B681BB15A68A21A002A31
:10083000F8DA03600860EEE73C20002070B54368FA
:1008400004469847074B26681D68074B07491868F8
:100850003044431B002B2246B8BF7019BDE87040DE
:10086000FFF7C8BF082E00207C0300203D080000D1
:10087000094B1A6872B9094A126812B9084A126813
:1008800042B101221A60074B074918680022FA306A
:10089000FFF7B0BF704700BF402E00200C2E002095
:1008A0002C2E0020082E0020D14E0000431E0333C2
:1008B000024612D891F8253013F0020010D00B68D0
:1008C0009A420CD048685340034208D1C34322EAFD
:1008D0000000C31A58425841704701207047002059
:1008E00070470A4492B291424FEA400001D88242D6
:1008F00001DB121A92B21046704708B50A46018908
:10090000034689B28088FFF7ECFF188108BD08B55F
:100910000A464189034689B28088FFF7E2FF588181
:1009200008BD30B5048943898588A4B29BB29C4236
:1009300036BFC3EB4502E21A121992B2954206D2B3
:10094000A54294BF631B2B199BB243812A462AB947
:10095000C1E900228A6030BD641BA4B2A542FBD964
:100960009D4209D90568A3421D444D6007D200236A
:100970000A804B808B60EEE75B1B9BB2F0E78488BC
:10098000121BE51A1A440D804A800368F2E70389B6
:10099000428970B59BB292B28488934236BFC2EB53
:1009A00044059D1AED18ADB2AC4206D80023C1E94A
:1009B00000338B6070BD1B1B9BB29C42FBD99442E1
:1009C00009D906689A421E444E6007D9D31A0B8093
:1009D00000234B80EDE7121B92B2F0E78288A41A45
:1009E000641BD61A23440E804B800368E1E70000A5
:1009F000094B63B1094B1B78834206D9084B1B682E
:100A000000EB400003EBC0007047C01AC0B20028E2
:100A1000044818BF00207047000000005C00002060
:100A200058000020B07A0000CB6802490B61012118
:100A3000184700BF60000020064B4FF4805208B1F9
:100A40005A607047C3F88420BFF34F8FBFF36F8F96
:100A5000704700BF00E100E030B50B4C01460023B9
:100A600004F1F0051A46E31893F8F1301344023309
:100A7000B3F58A7F06DAA818AA5C8A4203D0B3F5D8
:100A8000897FEFDB002030BD8003002038B50446AD
:100A900007200D46FFF7BAFD40B10023C0E900333F
:100AA00043730123048144810573C38138BD000071
:100AB00010B51B4A51684FF4805400F07F03C1F316
:100AC0000031C2F88440BFF34F8FBFF36F8F8BB9F3
:100AD00050B9144BFF221A70D87218735873987358
:100AE000114B202283F80221B1B10D4B4FF48052FB
:100AF0005A6011E01A010D4B1344C20902D01022B2
:100B00009A70F1E79A79D20707D54FF0E023D3F82E
:100B1000F03DDB0700D500BE10BD20229A71E3E74F
:100B200000E100E0740000200000054000010540E5
:100B300010B50020FFF76AFD044628B120220021ED
:100B400006F092FEFF23E372204610BD70B50C46FE
:100B50001546EAB9E1B101234B752C20FFF7CEFC15
:100B60000646C0B12C22294606F07EFE0B4BF461EE
:100B7000C4F884300A4BC4F890300A4BC4F88C3067
:100B800004236377084B2661C4F88030284670BD83
:100B90006FF00505FAE74FF0FF35F7E70553000062
:100BA000592A00004D590000ED52000070B5144E56
:100BB00005460024E0B2FFF71BFF38B94FF0E023F1
:100BC000D3F8F03DDB0700D500BE70BD4368284672
:100BD000984701343278E3B29A42EBD233220021B3
:100BE000084806F041FE1022FF21074806F03CFEAF
:100BF000BDE8704005481022FF2106F035BE00BF59
:100C00005C000020880100208B0100209B01002057
:100C1000024B0022C3E900229A6070473C01002089
:100C2000FFF7F6BF10B5044C206818B106F01CFDA4
:100C30000023236010BD00BFF42D00202DE9F843F0
:100C400003898B4204463CD90846CA1A6389834209
:100C500017D3227B12072CD183422AD0637B9B07B8
:100C600027D46268121B024492B2D31C23F0030300
:100C70009BB20B2B0CD9B3F5C86F0AD900235B814B
:100C8000FFDEC01A23891344238180B22468DDE784
:100C90000C239A42F2D8374A11688C4203D3364A61
:100CA000126894420FD3354AB2F8B0300133A2F83B
:100CB000B03060812081206808B106F0D5FC0023A7
:100CC0002360BDE8F88334F8087CA4F10802521AC6
:100CD000A7F1080592B21FFA85F8A8EB0206B6B292
:100CE000B342CBD8E5D001EB070E9EF804C0BCF1AF
:100CF000000F27D131F80790214F02F108063D6817
:100D00001E441FFA86FCAE4511FA86F608BF3E6007
:100D10000027377121F80C90728024F808CC31F844
:100D20000C60B6F5C86F18BF8919A2EB080218BF8E
:100D3000A1F802C01149B1F8AC502A441344A1F8FB
:100D4000AC30B6E703F11407BFB2BE42B1D30C4FCB
:100D500002F108063D681E441FFA86FC11FA86F669
:100D6000AE4238BF3E600027377134F8087C21F866
:100D70000C70D1E75021002054210020FC090020F4
:100D8000F809002070B51826074C46430546A059BF
:100D900018B106F069FC0023A351182000FB05449C
:100DA0000023237570BD00BF840200202DE9F74F9A
:100DB0002F4A01910A26002180463446B4468A46CD
:100DC00089468E4635469346107D00900A2D0BB21B
:100DD0004AD1002841D05768D8F80000B8422AD03C
:100DE0000098012830D11068578A40B3774501D365
:100DF000BE461E4601310A2902F11802E4D1019BC8
:100E0000012B2ED10A2D0BD10A2C05D1BCF10A0FD2
:100E100025D10A2E25D034462046FFF7B3FF2546BC
:100E2000182303FB05BBD8F80020CBF804200023CF
:100E3000ABF812302B46184603B0BDE8F08F4F4593
:100E4000D8D3B9469C46D5E700980428D2D8508A12
:100E50005045CFD382461C46CCE71D46CAE76446C0
:100E6000DAE74FF0FF33E6E700980028C2D0B2E798
:100E70008402002010B50C460449FFF7F7F918B9B1
:100E8000034B2360012010BD0020FCE73A790000ED
:100E9000C0A8070170B50E460446A8B1A1B10C4D1B
:100EA00069683046FFF7E2F940B9AB682360EB6848
:100EB000E060C4E901332B7C237470BD2D68002DE4
:100EC000EED16FF00500F8E76FF00F00F5E700BF17
:100ED0002089000038B50D460A4929600446FFF70D
:100EE000D9FF68B1084929602046FFF7D3FF38B120
:100EF000064929602046FFF7CDFF08B100242C6089
:100F0000204638BD437900004D7900005679000035
:100F10002DE9F0410B4BDFF830801E683769002562
:100F2000BD4203DB00242046BDE8F081746904EB78
:100F3000051406224146204606F09EFC0028F2D009
:100F40000135EDE7780300209C0300202DE9F041F6
:100F50000F469046054618B321B30026B8F1000F9E
:100F600000D015B93046BDE8F0816C892BB1A342A1
:100F700003D31B1B9BB22D68F0E7E41AA4B24445CF
:100F8000696828BF444622461944B8192644A8EB8C
:100F9000040406F081FCB6B21FFA84F80023EAE7E5
:100FA0000646DFE70E46DDE72DE9F041002605465F
:100FB0000C46B04662896F8961686868A7EB0807CC
:100FC000921B974228BF17463A463144404406F0E8
:100FD00063FC62896B893E449642B84424BF24680E
:100FE000002698450AD12D6835B9002C14BF6FF042
:100FF0000F000020BDE8F0814FF000082CB162899D
:1010000023899A4201D123684BB96A892B899A4274
:1010100001D12B681BB9002CCCD12046EAE76FF038
:101020000500E7E770B505890389428986889BB288
:1010300092B2934236BFC2EB46029B1A9B189BB2F8
:101040009E420446ADB217D8C079C00914D170BD14
:101050009B1B9BB2B342FBD2E2882068C2F30E0214
:1010600002FB030006F018FCA08801222946FFF7C6
:1010700038FC20810120EAE72B46EBE72DE9F04F11
:1010800000F07F03864D89B017465A00019205EBA8
:10109000430202EBD012203292F80390C9F300060B
:1010A00019F0010986468C464FEAD0180DD04FF052
:1010B000E023D3F8F03DDC0705D44FF000094846A3
:1010C00009B0BDE8F08F00BEF7E7D478754944F069
:1010D0000104D470744A09785468C4F3003B4FF497
:1010E0008054C2F88440BFF34F8FBFF36F8FA3B318
:1010F0006E4A08F1400102EB4101013B012404FA70
:1011000003F68C8824EA06048C80C8EBC8011944D5
:10111000023102EBC102C2F803C0A2F80770A2F8C4
:101120000970B8F1000F0FD0FFF75CF9BBF1000FA9
:1011300007D001235C4A4FF480515160002B00F02E
:1011400096804FF00109BAE7594A02EB03139A79E6
:10115000D007EBD583F80680E8E7402F0BD94FF096
:10116000E023D3F8F03DDA0700D500BEBBF1000F55
:101170007DD00023DEE74D4C2378FF2B27D1002FB5
:10118000EDD10020FF2BA072D0D10723CDE90500BF
:101190008DF81530474B8DF814101E688DF818E047
:1011A0003446079754F8043B9847204605A9FFF7B3
:1011B00039FF3368044601209847002CB6D14FF020
:1011C000E023D3F8F03DD907B0D500BEAEE794F9DF
:1011D0000A20002AD5D1B8EBD31F39D123899F42E9
:1011E000BDD8BB421A4628BF3A461FFA82FAB8F168
:1011F000000F22D060463049CDE90223FFF780F886
:10120000029A039BA4F80FA01044A3EB0A0A402AF9
:10121000C4F80B00294A6674A674A4F808A001D18A
:10122000BB4208D8214BFF211970012199720A2372
:1012300082F802317AE70223FAE7204BC4F80BC0A8
:10124000A4F80FA0A4F811A0402283F802216DE7B2
:10125000B8F1000F3FF46AAF184BE672267366735D
:10126000A673E67326746674A6744822EDE7019BA4
:101270001D44A84498F823306FF3000388F8233006
:1012800098F823306FF3820388F823304FF0E0237F
:10129000D3F8F03DDB077FF510AF00BE0FE700BFCE
:1012A000880100201400002000E100E0740000200C
:1012B00010010540BC010020200005400000054051
:1012C000034B0449187940F24262FFF7D7BE00BFD2
:1012D0003C010020B027002010B40B4B0446987846
:1012E0000A4B0A4600F07F0103EB410303EBD013E6
:1012F0002033DB78DB0704D421465DF8044BFFF78D
:10130000BDBE5DF8044B70473C0100208801002001
:1013100001480821FFF7E0BF4C000020074BDFF831
:1013200020C01B681C22C3E900C24FF0040C10222D
:10133000C3E904C2D8609961FFF7EABF84050020C1
:101340000400008038B5094B094D1B6810241D604E
:1013500002F11805D8605D601A615C6103F1180044
:1013600006F09AFABDE83840FFF7D2BF84050020A6
:101370000400008010F0800F4FF0000211460CBFF7
:1013800080201046FFF77ABE10B40346064C006872
:101390005968224603C20022C4E902225DF8044BC8
:1013A0001878FFF7E7BF00BF600000202DE9F04F7D
:1013B00089B0C3B2484C029300F07F0707F1FF38B1
:1013C0000306C0F3C01504EB08142DD5A3789E06C0
:1013D00006D5A37803F0DB03A37009B0BDE8F08F56
:1013E000FFF700F80028F8D0C5EBC505A8443B4D31
:1013F00008F1020805EBC80805A9B8F80920B8F8F3
:1014000007309B1A0793364B00221868CDE9052256
:1014100007228DF815200430029A8DF81820FFF766
:1014200001FE0028D9D10AE0A37913F0400FA37977
:1014300003D003F0BB03A371CFE7D90707D44FF064
:10144000E023D3F8F03DDB07C7D500BEC5E7234E48
:10145000B4F804A02389013706EBC7079BB21FFA33
:101460008AFAB7F809B0534528BF53465B45019344
:1014700028BF5B46D7F803009946A3B1B6F884307D
:10148000184923FA08F3DA0701EB88011AD52B462D
:101490004A460390FEF770FF039806EBC802ABEBD9
:1014A0000903A2F81930CA4502D8019B9B4511D8FF
:1014B00008F1020306EBC3060023F3703371737166
:1014C000B3718FE74A46FEF738FF00EB0903C7F810
:1014D0000330E2E70023AEE710010540740000206E
:1014E000BC010020240005402DE9F043974B9C7A75
:1014F0005D889F88DB7A1C40220785B0ADB2BFB201
:101500002ED5DFF85882002608E0FFF771FA20B1E7
:10151000436913B1002108469847013698F8003016
:10152000F0B28342F1D28A4A13785B0718D5137858
:101530006FF3820313700023CDE901330393052376
:101540008DF80530834B186801A90430FFF76AFD58
:1015500030B94FF0E023D3F8F03DDE0700D500BEF0
:1015600060072ED57C4A7949FF23137000239372BC
:10157000D3721373537393730122CA8018460B817D
:10158000D6B20132082A8E7381F86200A1F8643065
:1015900081F86300A1F86630F2D1CDE901330393FD
:1015A00001238DF805306B4B186801A90430FFF753
:1015B00039FD30B94FF0E023D3F8F03DD90700D51D
:1015C00000BEA2071CD5624900220523CDE90122F5
:1015D0008DF805300B780392DB0711D50B7862F399
:1015E00082030B705B4B186801A90430FFF71AFDEA
:1015F00030B94FF0E023D3F8F03DDE0700D500BE50
:10160000E0071CD50023CDE90133039304238DF8B3
:1016100005304F4B1A78D10711D51A7842F00402E1
:101620001A704C4B186801A90430FFF7FBFC30B965
:101630004FF0E023D3F8F03DDA0700D500BE434A6F
:10164000D3881D40EB070AD592F80231DEB213F0C1
:10165000040312D0002382F8023125F0010501268F
:10166000002D40F0E280394B1B8901251F40002FDF
:1016700040F0E88005B0BDE8F083374C06F0010883
:1016800016F0100621786BD08020FF2982F8020125
:1016900025D0D4F80B2012B3FF22B4F81100E37266
:1016A00023736373A3732270B4F80F20CDE9013361
:1016B00007238DF80530274B121A1868039221F082
:1016C0007F018DF80810043001A9FFF7ABFC30B999
:1016D0004FF0E023D3F8F03DDE0700D500BEB8F1AF
:1016E000000FBAD0194B93F80821082A72D11A6A50
:1016F00022601B6A6360002320686168E3722373C1
:101700006373A373E37323746374A3744FF4C063AC
:10171000019302AB03C30F4B186801A90430FFF714
:1017200081FC30B94FF0E023D3F8F03DD80700D565
:1017300000BEE3882381002B8FD02378DB098CD077
:10174000024B402283F8022187E700BF00000540DA
:1017500088010020BC010020740000205C000020F3
:10176000B8F1000F3FD0FF29BCD0D4F80B000028FF
:101770003FF473AF92F80881B4F811903749C84527
:1017800028BFC846B8F1400F28BF4FF04008424676
:10179000FEF7D3FD2289B4F80F30E672A9EB0809F1
:1017A000A2EB08021FFA89F122810722CDE9016626
:1017B000A4F8119026736673A6735B1A8DF8052042
:1017C0000393274B186801A90430FFF72BFC00286E
:1017D0007FF443AF4FF0E023D3F8F03DDB077FF514
:1017E0003CAF00BE39E7FF2914D0CB0912D12388C2
:1017F000B3F5A06F04BFA3781370FF232370B4F870
:101800001120B4F80F304FF4E0619B1A8022CDE92B
:101810000112D5E7D4F80B30002B3FF41EAF0023A4
:10182000E37223736373A373E9E795FAA5F4B4FA3B
:1018300084F444F0800006FA04F4FFF7B7FD25EACB
:1018400004050DE797FAA7F4B4FA84F4204605FAE4
:1018500004F4FFF7ABFD27EA040708E72000054082
:10186000BC01002013B5124B9889D98993F9004027
:10187000421A92B2402A28BF4022002C0EDA884237
:1018800012D099680B48019206F006F80949019AAE
:10189000802002B0BDE81040FFF7F0BB88424FF057
:1018A000000003D10021F4E78020FBE70149F0E7C5
:1018B000600000204801002070B50446164D006805
:1018C0000B466168AB602E4603C60021E981E188C2
:1018D0008A4228BF0A46AA81E18881B152B14BB938
:1018E0004FF0E022D2F8F02DD20701D4002070BDD5
:1018F00000BEFBE7FFF7B6FF28B10120F7E720782D
:10190000FFF738FDF8E74FF0E023D3F8F03DDB07B1
:10191000ECD500BEEBE700BF60000020F8B5044640
:1019200008460F461546FEF7ABFC064630B1254487
:1019300023788BB1A219954202D200242046F8BD2B
:101940003A789A4206D132463946204605F0D9FF08
:101950000028F3D00134EBE71C46EFE72DE9F04F08
:1019600087B0864B1D6800202B689847A989EB89B2
:10197000288989B29BB2994236BFC3EB4002CA1A8A
:10198000521894B29CB1A04205D281422CBF091AD0
:1019900009188BB2EB81984226D96A896968C2F32B
:1019A0000E0202FB031103A805F076FF0124E9896A
:1019B0002889224689B2FEF794FF2B68E88101202E
:1019C0009847002C00F0A8839DF80D30013B072BB1
:1019D00000F25483DFE813F00B0019005203AB034D
:1019E000CA0328003103D7031B1A9BB2D3E79DF823
:1019F0000C00FFF7DBF814226148002105F034FFEA
:101A0000604B9DF810209A70ABE79DF80C00FFF733
:101A1000CDF85B481422002105F026FF5A4B002B1D
:101A20009FD0AFF300809CE7564C9DF81070237850
:101A3000DFF84C819DF80C9043F00103237094F87B
:101A400023306FF3000384F8233094F823306FF3CE
:101A5000820384F8233094F824306FF3000384F871
:101A6000243094F8243007F0600B6FF3820384F87D
:101A70002430BBF1600F4FF00003C8F810300DD1D7
:101A80004FF0E023D3F8F03DDC0700D500BE002086
:101A9000FFF70EF88020FFF70BF862E7BBF1400F6D
:101AA0000DD13A4B002BF2D004AA01214846C8F8C8
:101AB0001030AFF3008000287FF453AFE7E707F062
:101AC0001F07012F00F00E82022F00F03282002F3C
:101AD000D6D1BBF1200F0FD19DF814300F2BD6D8E3
:101AE0002344D878FEF784FF01460028CFD004AA0B
:101AF0004846FEF799FFDEE7BBF1000FC0D19DF825
:101B00001120092ABCD801A151F822F0CF1E0000F3
:101B1000BD1E0000811A0000A91E0000811A0000ED
:101B2000351B00004F1D0000811A0000691B0000DA
:101B3000991B000006AA12E90300154A0023D3727C
:101B4000137353739373D373137453749374C8E9F7
:101B50000233104B4822C8E9000183F802212378A0
:101B600043F002032370FCE663788DF80A3001220B
:101B70000DF10A0104A8FFF79FFEF2E6BC01002068
:101B8000600000208801002000000000000000002C
:101B900074000020000005409DF8126063789E42AA
:101BA00076D06378002B47D0AD4B5D684FF4805200
:101BB00005F48055C3F88420BFF34F8FBFF36F8FB8
:101BC000A8480022012103F1C043C18003F584230A
:101BD00002814FF0400C4FF0480E90464FF0800AC3
:101BE0001A82DA749F7CFF074CBF83F812E083F8F7
:101BF00012C0A3F81480DA759F7DFF0744BF9027B9
:101C00009F75CFB201F1010158BF83F816A00829D2
:101C1000877380F86220A0F8642080F86320A0F821
:101C20006620DDD11DB18E4B4FF480525A60A578ED
:101C30004846FEF7BBFFA57056B3731EDBB2012BFF
:101C400006D8894A52F8235015B16B78022B08D078
:101C50004FF0E023D3F8F03DDB077FF511AF00BE76
:101C60000EE7EB79C3F38012C3F340131B0143EA81
:101C70004213227822F03002134323706B8805F15F
:101C8000090B1D445D4508D8784B0BB1AFF30080BC
:101C9000667004A8FFF778FB63E69BF801300B2B16
:101CA00001BF9BF8033001939BF800309B441CBF9D
:101CB000012301939BF80130042BC9D1A5EB0B0242
:101CC0001FFA82FA4FF000085FFA88F73846FEF7ED
:101CD0008FFE0028BCD08368524659464846984734
:101CE00008282BD9824529D3002209E09BF802104D
:101CF0000B4454FA83F30132D978FF29A8D1DF705D
:101D00000199D3B29942F1D85844584505D8584B57
:101D10001B78BB429CD38346B4E79BF80130052B6C
:101D200008D19BF8022002F07F0304EB430303EB8E
:101D3000D213DF749BF800309B44E6E74C4B08F16C
:101D4000010819785FFA88F39942BDD280E7BDF89F
:101D50001200030A5A1EC0B20E2A3FF698AE01A125
:101D600051F822F0A11D0000C51D0000EF1D00006C
:101D70008F1A00008F1A0000911E0000C51D000080
:101D80008F1A00008F1A00008F1A00008F1A0000AF
:101D90008F1A00008F1A00008F1A0000AD1D00007E
:101DA0003449122204A8FFF787FD84E6324B002B4A
:101DB0003FF46DAEAFF30080014600283FF460AE03
:101DC0004288EFE7022B0BD101289ABF264B53F82C
:101DD0002000002000283FF453AE42880146E1E78E
:101DE000264B002B3FF453AEAFF30080F2E760B90F
:101DF000234B40F209425A800120421C52002049E4
:101E000092B242F440730B80CCE7052811D11D4CEF
:101E10001B4A1D49002014F8013B1D0903F00F0364
:101E200002304D5DCB5C55800C2822F8043FF2D186
:101E3000E3E704283FF62BAE144B53F8204020462E
:101E4000FEF71EFA0E4A10F0E00F0CBFC0B21F20C2
:101E500000238342D1D0E15C013322F81310F8E76C
:101E600000E100E000000540C87A0000000000002A
:101E70005C000020688800000000000000000000F6
:101E8000FC000020D38A000061790000988A0000DD
:101E9000AE4B002B3FF4FBADAFF3008001460028B2
:101EA0003FF4F5AD02787DE7BDF81230012B7FF4E9
:101EB000EEAD237843F008032370EAE6BDF8123054
:101EC000012B7FF4E4AD23786FF3C303F4E72378A9
:101ED000C3F340129B0803F002031343ADF80A302A
:101EE000022245E69DF814300F2B3FF6D0AD234477
:101EF000D878FEF77DFD014600283FF4C8AD04AA5E
:101F00004846FEF791FD00287FF42BAD9DF8103078
:101F100013F060037FF4BBAD9DF81120A2F10A011C
:101F200001293FF6B4AD0A2AC8F810307FF4B1AEEB
:101F30001BE69DF8142012F0780F7FF4A1AD02F09B
:101F40007F0104EB410606EBD216D309F07C019326
:101F5000FEF74EFD4D00019B8246BBF1000F05D000
:101F600000283FF494AD04AA0146C1E59DF8110094
:101F700000F0FD0CBCF1010F07D000287FF480AD0C
:101F800096F82330C3F34003A8E7BDF8127057BB9F
:101F9000012806F120063BD1F278970723D56C483B
:101FA000090108446B494A684FF4805602F4805294
:101FB000C1F88460BFF34F8FBFF36F8F2BB3402600
:101FC000867012B14FF480524A6025442B4493F836
:101FD00023206FF3410283F8232093F823206FF32B
:101FE000000283F82320BAF1000F3FF4BAAC04AA30
:101FF00051464846FEF718FD0023C8F8103094F803
:102000002430DD073FF5ADAC43E680268671D8E786
:10201000F1788E07E7D410460193FEF749FD019B46
:1020200025442B4493F8232042F0020283F8232016
:1020300093F8232042F00102D3E79DF81010464B9D
:1020400001F07F0403EB440303EBD113CF0993F8B2
:1020500023006FF3000083F8230093F823006FF34D
:10206000820083F82300002C4BD13C4C9DF80C607F
:102070002378059DB7EBD31F18D045B14FF0E0236F
:10208000D3F8F03DDB077FF56CAC00BE69E4344B60
:102090001BB121463046AFF300802369002B3FF48B
:1020A00060AC2E4A0321304698475AE494F9003038
:1020B000002B07DBA06800283FF453AC29492A46CF
:1020C00005F0EAFBA268E3892A442B44A260E28877
:1020D0009BB29A42E38101D03F2D0FD8236933B9D7
:1020E0002078FFF747F900287FF43BACC6E71B4A8E
:1020F0000221304698470028F2D1C9E4FFF7B2FB2D
:10210000F1E7D87CFEF774FC48B94FF0E023D3F830
:10211000F03DD80700D500BE07B0BDE8F08F0469D8
:10212000059B9DF811209DF80C00A04719E40A4B6F
:102130001A78D1077FF515AC0B4A002A3FF411AC91
:102140001878C0F3C000AFF300800AE4000000007C
:102150000001054000E100E088010020600000204F
:102160000000000048010020000000000A4B1B781E
:10217000DA077FF5F6AB094B002B3FF4F2ABAFF378
:102180000080FFF7EEBB049B002B3FF4EAAB059801
:102190009847FFF7E6BB00BF880100200000000061
:1021A0002DE9F041DFF890801F4D0C4698F8006053
:1021B00028781E4A5378002B32D01178C1F380035F
:1021C00049072DD43EB31A4F1A4E7A79002A14BF0C
:1021D00000252C25228971192046FEF7B7FE797952
:1021E000284484B261B91C2206F1100005F03CFBC2
:1021F0000123C6E900342423B360A4F12C03F36067
:1022000000250C49F87888F800502246FEF736FF82
:102210002846BDE8F081FF28CCD0FFF79FFBC5E73B
:102220006FF00700F5E700BF1400002088010020D0
:102230003C010020482E0020740300202DE9F047C7
:10224000867816F078049CB00AD04FF0E023D3F8DB
:10225000F03DDB0700D500BE00201CB0BDE8F087D4
:10226000C578714B82889B7805F00305022DC2F377
:102270000A020CD0032D00F0AB80012DE5D1022B1A
:1022800040F2FF3308BF4FF480639A420DE0022B07
:102290000AD1B2F5007F09D04FF0E023D3F8F03D2A
:1022A000DD07D2D500BED0E7402AF5D806F07F077B
:1022B000F6097B1EC6EBC6011944881C5B4901EB7D
:1022C000C0010020C870087148718871C871087217
:1022D000487288725649180101EB0313002E7DD015
:1022E000012D425208BF4024DC709978CC074CBFC6
:1022F0004821402199704F490123C888BB400343BE
:102300009BB2CB80002A7DD0B2FA82F41C2C79DCFF
:10231000C4F11C04082303FA04F101258A42009346
:10232000DFF810814FF4007388BF01340193A94690
:10233000AA465FFA89F388F80E30B8F8642092B2A2
:102340007AB198F86230C3F3001103F00F030B4425
:102350000AFA03F329466846FDF79AFF411C9BDB06
:102360000544B8F8662092B27AB198F86330C3F3A6
:10237000001103F00F030B440AFA03F329466846E1
:10238000FDF786FF421C87DB054409F10109B9F11D
:10239000080FCED14FF0010C0CFA04FC0DEBC50573
:1023A0006B4600214FF6FE7E9D422DD800293FF45A
:1023B00073AF0A68002A3FF448AF1E4B92B29F7376
:1023C000E4B266B3A3F8642083F86240012044E7D6
:1023D000022B0CBF4FF48063402356E7012D0CBF46
:1023E000402100219A80D9719979C8074CBF90216A
:1023F000802199710F4901230889BB4003439BB297
:102400000B817FE7002485E7D3E90020801A84450B
:1024100003D8CFD0704598BF19460833C4E7A3F856
:10242000662083F86340D1E7880100207400002013
:10243000100105400000054070B5154E0446022508
:102440006378052B04D1E37803F00303022B08D053
:102450004FF0E023D3F8F03DDA0700D500BE0020AE
:102460000AE02046FFF7EAFE38B94FF0E023D3F840
:10247000F03DDB07F3D500BE70BDA378DA0914BFC9
:10248000F37033712378012D1C44F5D00125D7E773
:102490003C0100204B79E02B2DE9F041174608D193
:1024A0008B79012B02D1CA79032A11D00023184657
:1024B00009E0022B0BD18B79062BF7D1C879B0FA42
:1024C00080F040090023034304D1002041E00023B1
:1024D0000020F8E7DFF8C08098F802303BB14FF0F9
:1024E000E023D3F8F03DDB07EFD500BEEDE788F839
:1024F00005008B7888F800300C7809260C44637846
:10250000242B19D1BE4212D96378042BE7D198F855
:10251000055063790A2BE2D123781C44F01886B267
:10252000637845B3042B1ED1B742F2D2D7E72378A4
:10253000F01886B21C44E2E7052BE5D12046FFF7F0
:102540007DFE40B94FF0E023D3F8F03DDA07BCD56B
:1025500000BEBDE8F081A37888F802302378F01837
:1025600086B21C44D0E7052BB9D1C8F8084006F163
:102570000E0080B2EDE7052BB1D12046FFF75CFFDE
:102580000028ACD0FEF74EFB024B01221A70FEF77A
:1025900097FEECE7740300203C0100200129F8B508
:1025A0000C4615467FD1137813F0600FC3F3411624
:1025B00003D0012E41D000242EE053780A2B1FD0E7
:1025C0000B2BF8D1A24B92881978D2B201319142EB
:1025D000F1D16988C9B20129EDD85C79002CEAD023
:1025E000597031B3D9781A790A4322D19868A8B9B9
:1025F0004FF0E023D3F8F03DDA07DCD500BEDAE790
:102600009349AB880A78DBB201329A42D3D1224691
:1026100001312846FFF750F92046F8BDFFF70CFFBF
:102620000028E5D0FEF7FEFA8A4B01221A70FEF769
:1026300047FE2846FEF7A8FEEEE7854FAB883A78BE
:102640009A42B8D17C79ACB16B78432BE4D10022AB
:1026500011462846FFF730F97F4B1022002118461B
:1026600005F002F97D4A026008213A788280FEF77F
:1026700033FED1E795F90030002B11DA76494A682C
:10268000782A07D94FF0E023D3F8F03DDB0792D545
:1026900000BEC1E792B22846FFF70EF90124BBE75E
:1026A0006D497822F7E70229F8D1137803F0E003A7
:1026B000202BF3D1664B928819789142EED15C7948
:1026C000002CA9D1644B664A13601A68023A062AA4
:1026D000E4D801A151F822F0F52600009D26000063
:1026E0001F2700002D280000BD2800009D260000A7
:1026F000CF2800005B4F34220124C3E9007240F26E
:1027000016610022C3E90442C3E90642C3E9091283
:10271000C3E90B22DA601C62FEF7FAFD7CE7DB6896
:10272000514A934254D043D8A3F10113A3F58073C7
:10273000152B0CD900224D48114655E0A3F1013369
:10274000023B022B59D8DFE803F06E6C6E00152BAC
:10275000F0D801A252F823F0E3270000D1270000AF
:10276000D1270000D12700003527000017280000DE
:102770000128000035270000352700001D28000033
:102780001D280000052800000B280000112800006B
:1027900035270000352700001D28000035270000E0
:1027A000D1270000D127000035270000EF270000C7
:1027B0002F4A93420ED8B3F1013FBFD22D4A934224
:1027C00006D0A3F500336FF480763344042BB1D8E0
:1027D00000210EE0A3F181736FF480752B44022B6E
:1027E000F5E7254958220020FEF7ACFD56E74FF4E7
:1027F00080510020FEF792FD50E720490622F2E7C3
:102800001F49F6E76FF07F41F3E71E490822EAE728
:102810001D4B1968EDE740F2DC51EAE740F2EA515E
:10282000E7E70121E5E719480021E3E7184CDA68FA
:102830001021C3E900410021D96016498A4234D0F1
:102840002AD801398A4233D0084ADA602DE000BF25
:102850003C0100207403002040200020A100010062
:10286000840500200200008002020100010000C077
:10287000050101011B020100547A0000D38A000007
:10288000C0D4010072790000B8200020BB0000C055
:10289000050000800F01010010498A4205D010494F
:1028A0008A4202D00F498A42CED1FEF731FDF5E6C9
:1028B0005A6913449A680C4B1A60F6E70B481022C9
:1028C000C3E9000201240022C3E9022424E70849E5
:1028D0001022C3E900120022B7E700BF1B0201006B
:1028E0000301010112010100B82000200600008050
:1028F0000800008073B5002310F00104ADF8063025
:1029000005D051B310F8013B8DF80730013921F0A3
:1029100001034D080344002298421AD16FF00103CD
:1029200003FB0511012902D103788DF80630BDF8AB
:102930000630134498B200EB134398B200EB1340F7
:1029400024B103029BB2C0F30720184380B202B047
:1029500070BD30F8026B3244DEE70A46E7E700005C
:10296000F0B540B110F0030F374E05D0B6F8B030D7
:102970000133A6F8B030F0BD344B1B68A0F108025B
:102980009A42F3D332490F6800F10C018F42EDD324
:1029900010F8041C0029E9D030F808CCBCF5C86F49
:1029A000E4D830F8064CB4F5C86FDFD8D11A89B234
:1029B000A14202D01C5B8C42D8D103EB0C04A7428D
:1029C00002D064888C42D1D1002400F8044C214C00
:1029D0002568AA42B6F8AC5038BF2260A5EB0C05BA
:1029E0000D44A6F8AC5030F8086C9D19AA4213D0DB
:1029F00095F804C0BCF1000F0ED1AF420CD027688F
:102A0000BD429D5B20F8085C9D5B08BF2260B5F568
:102A1000C86F1CBFED18698030F8061C5D18AA420B
:102A2000A9D02E79002EA6D12668B24230F8082C03
:102A30005A5230F8082C08BF2560B2F5C86F1CBF89
:102A40009B18598097E700BFFC0900205021002007
:102A500054210020F809002010B5044670B14369E4
:102A60000BB100234361206A18B104F0FDFD00237F
:102A700023622046BDE81040FFF772BF10BD000082
:102A800059B1064B53F8203018688288013A828089
:102A9000DA6812680A60DB6819607047108A000003
:102AA00010B5044648B1406808B104F0DDFD214688
:102AB0000320BDE81040FFF7E3BF10BD10B500B91B
:102AC00010BD0468FFF7ECFF2046F8E710B5044698
:102AD000F0B1037D012B1BD90A2B19D0806F18B1DF
:102AE00004F0C2FD0023A367606F18B1FFF7E6FF93
:102AF000002363674FF6FF732386E06EFFF7DEFF68
:102B0000206FFFF7DBFF0023C4E91B33A4F8683014
:102B100010BD0000F8B5C3689B895BBADA070546AB
:102B20000C4614D4154FE66838682B8971682289E1
:102B300003440A449A1A002A0FDA5B1A002B0ADDB2
:102B4000091A89B268682981FEF778F803E0084617
:102B5000FFF7B4FF00242C60F8BDB3895BBADB0734
:102B600041BFEA68938943F48073938126682046C5
:102B7000FFF796FF3446002ED5D1ECE7042E002057
:102B8000F8B5144E144D044681B1CA685068FDF77B
:102B9000B2FC938937680A895BBA13F0030318BF44
:102BA0000123D21B13440344002B01DD0846F8BD6A
:102BB000D1E90070FDF744FDB4F866302A88181A90
:102BC000A4F866000B89084613442B80FFF768FFC2
:102BD0003946D9E780020020F82D00200146012067
:102BE000FFF74EBF014698B10A4A1368834205D1E8
:102BF000C36813600020FFF743BF1346002BF9D0D2
:102C0000DA68002AF6D08A42F7D1CA68DA60F1E7BA
:102C1000704700BF8C34002010B5044C206818B1F8
:102C2000FFF7E0FF0023236010BD00BFC02000209D
:102C300010B5044C206818B1FFF7D4FF00232360BF
:102C400010BD00BFC420002010B4064A03681468F9
:102C5000844214BF0B60136001465DF8044B0420EE
:102C6000FFF70EBFAC27002010B50446406908B13D
:102C700004F0FAFC21460520BDE81040FFF700BF34
:102C8000034650B1054A106838B190F82820013247
:102C9000D2B29A4218BF00207047704738200020F7
:102CA000B2F5C17F2DE9F0470F460646114685B2C1
:102CB0002ED005D8012A26D000242046BDE8F08772
:102CC000B2F5207FF8D10335FB1C23F0030325F078
:102CD00003051D44ADB205F110009D4280B2EBD357
:102CE0008342E9D8FDF70AFC04460028E5D00644F3
:102CF00000231336036026F00306204B466007814D
:102D00004781C360D9E73846BDE8F047FDF7BEBE4E
:102D10000026DFF87090344640F2EC580820FDF7AA
:102D200075FCB246064640B9154B01221A70002CBC
:102D3000C2D0204604F098FCBEE7EB1C23F003034E
:102D4000A8EB03039BB20544BB4205F1130528BF62
:102D50003B46002225F00305026045600781438160
:102D6000C0F80C903CB1CAF80000F91A8FB20025E7
:102D7000002FD3D1A1E70446F7E700BF8000010090
:102D8000BC200020820001002DE9F04F55890C2D58
:102D900085B0894690469A462DD9566896F90230F4
:102DA000002B28DBB388B3F5807F24D10C360027B5
:102DB0003C4B0C3D3246BB461146013D11F8014BE0
:102DC0000CB3BBF1000F1CD04FF02E02DA55781C6B
:102DD000A54210DB27187F2F0DDC224618440191F5
:102DE0002D1B04F059FD01992E4B002D01EB04021F
:102DF0000BF1010BE0DC404604F036FC05B0BDE809
:102E0000F08F3846E4E7032DF5DD2648C455B2F8C7
:102E10000130A0F88030B2F80330A0F882300532DB
:102E2000961BE8D4204B03A91B6898470028E2D0E2
:102E300006F10C071C364FF4C172B1B23620FFF711
:102E40002FFF05460028D6D0D8F8041040683A462F
:102E500004F022FD6B689A789C7142F080029A70AF
:102E60000122DA716968CB196FF03F00C855DA703A
:102E70005A710C21202259709C705A720422DA7205
:102E8000039A1C719C71DC711C729C72DA6048465A
:102E9000BDF838305246294604F056FC284604F066
:102EA000E3FBA8E7C82000204C2100202DE9F74FC4
:102EB0001646D07BBDF83080FFF7E2FE7289B2F58E
:102EC000017F28BF4FF401720F4682467168AC48FB
:102ED00004F0E2FC3520FDF7BFFD28B9304603B011
:102EE000BDE8F04F04F0C0BB8378012B22D0032B48
:102EF000F4D13220FDF7B0FD04460028EED043782F
:102F0000042BEBD1FEF704F810B10023036083809B
:102F10009C4BD4F802B01C68226900239342DDDA8E
:102F2000616901EB0319D9F808108B4500F0A48002
:102F30000133F3E7FDF7ECFF924B0546D3F800B001
:102F400098B9DBF8109004464C458F4BC6DADBF895
:102F5000145005EB041506222946184604F08CFC93
:102F600008B10134F0E7002DB8D0854C0021A160F4
:102F700002232370AB682361844BC4F8EC3040F229
:102F8000131204F1F00004F06FFCEA68DAF800C0F4
:102F9000DBF80C10DBF80890DBF80000DAF80450DE
:102FA000C4F8F5C04FF0330C84F8F9C04FEA126C46
:102FB000774B84F8FBC04FEA224CC4F8F03084F819
:102FC000FCC004234FEA222C84F8FE20012284F85E
:102FD000F43084F8FA3084F8FDC084F8FF2084F8D7
:102FE0000031C4F80151002840D0032284F80521A3
:102FF00084F80631C4F8070104F20B1479B10846CD
:103000000191FDF73DF923460F2203F8022B0546F7
:10301000607002460199184604F03EFC4419B9F16B
:10302000000F06D00623237004236370C4F80290B7
:103030000634FF2323704FF4C1724FF40171362020
:10304000FFF72EFE044600283FF448AF4C494FF4EA
:103050000172606804F020FC38464E4A434621461F
:1030600004F072FB204604F0FFFA37E704F205147F
:10307000C4E705F205144FE049464348062204F030
:10308000FBFB014600287FF429AF3D4D02232B7046
:103090003E4BC5F810B0A960C5F8EC3040F21312F1
:1030A00005F1F00004F0E0FBD9F80C20DAF800C0DC
:1030B000E168D4F808B02068DAF80440C5F8F5C033
:1030C0004FF0330C85F8F9C04FEA126C324B85F89B
:1030D000FBC04FEA224CC5F8F03085F8FCC0042351
:1030E0004FEA222C85F8FE20012285F8F43085F87D
:1030F000FA3085F8FDC085F8FF2085F80031C5F865
:1031000001410028B5D0032285F8052185F8063154
:10311000C5F8070105F20B1481B108460191FDF7CE
:10312000AFF823460F2203F8022B82466070024656
:103130000199184604F0B0FB00EB0A04BBF1000F44
:1031400006D00623237004236370C4F802B006344B
:10315000FF2323704FF4C1724FF401713620FFF743
:103160009FFD044600283FF4B9AE0C49E869C9F850
:1031700000008B88A9F804304FF401721C3968E70D
:1031800080030020780300203479000063825363B9
:103190003501023660890000350105369C030020A8
:1031A0002DE9F0472F4F1D463B798B4288461AD1B7
:1031B0007B792D4A002B3BD12B2D3CD9116801295D
:1031C00039D151688D4236D3D2E90246A11908316E
:1031D0008D4230D308341444DFF89CA0DAF80000A4
:1031E00058B3FEF76DF8FB7843450AD11F4B002D0D
:1031F00035D015F03F0232D1114640461A70FDF726
:103200003DFF7B798BB1BB7843450ED1082D0CD1A6
:10321000174842F6A1230360164BC580C0E902336C
:1032200010213B788380FEF757F80120BDE8F08736
:103230002E461446D0E71E46FBE7B1B20029D2D095
:103240004FF4C172FFF72CFD81460028CBD04068B7
:10325000B2B2214604F020FBCAF80090C3E7012275
:103260001A70CEE73C010020B02700207403002034
:103270004020002000709400F42D00201431F8B597
:1032800089B20646174622204FF420721D46FFF7EA
:1032900007FD0446D0B1BDF8183041685BBA6DBA7D
:1032A0004B800D804F603046FDF725F99DF81C30AE
:1032B00088601B0243F050138B81BDF820305BBA4D
:1032C000CB8100230B744B748B74CB742046F8BDF8
:1032D0001FB5438D029310230193038B0093C38A80
:1032E0000446406AFFF7CAFF18B1628D636A13444F
:1032F000E36204B010BD30B588B1D9B1038913FAC7
:1033000081F38CB29BB29C4209D890F90C50002DED
:1033100007DA4268511A00F11002914205D20120E9
:1033200009E0002AFBD04268511A428941601444E6
:1033300044810381002030BD2DE9F0478046032001
:103340009DF820A00E4617469946FDF75FF94FEA13
:103350008A0505F00405044628B9304604F084F9CE
:103360002046BDE8F08780F80AA04FF0000AC0E9C7
:1033700000A633895B1B0381142152463046FFF7B8
:10338000BAFF014650B1144AB2F8A43020460133C6
:10339000A2F8A4305446FFF783FBE1E763685A685C
:1033A000E260B8F816305BBA1380B8F81830E268FB
:1033B0005BBA53804846FDF79EF8E368AD0258605B
:1033C00005F5A045E36845EA070252BA9A81E36829
:1033D0009974D974C4E700BFFC090020F7B5C1F3A4
:1033E000400704460D4601F003064FF42072B90071
:1033F0003620FFF755FC014668B9638B1A4A43F043
:1034000080036383B2F89C300133A2F89C304FF004
:10341000FF3003B0F0BDE36D00972A462046FFF76A
:103420008BFF0028E9D0E36EBBB9E0660023A4F867
:10343000683016B1E36D0133E365EB0742BF638B80
:1034400043F0200363834068FDF7FAF8B4F8663070
:103450001844A4F866000020DBE71A461B68002B1E
:10346000FBD11060E2E700BFFC09002010B4C36E7E
:1034700043B11A461B68002BFBD1D1688A8954BA24
:10348000640704D05DF8044B0121FFF7A7BF42F4A5
:1034900080728A81428B42F0200242835DF8044BA5
:1034A000184670472DE9F041BDF818400D4624023A
:1034B0000646174644F0080400220E212846984686
:1034C000A4B2FFF718FF90B969688C81D8F8003072
:1034D0000B60B8F804308B803B68C1F80630BB88BD
:1034E0004B81736929463046BDE8F0411847044ACC
:1034F0005389013353816FF00100BDE8F08100BFB3
:10350000FC0900202DE9F74F8046894692461C2190
:103510004FF420720E20DDF834B0204F1D46FFF727
:10352000BFFB064638B9BB8C0133BB844FF0FF307C
:1035300003B0BDE8F08FBDF83C3044681B02E38067
:103540002B68A360AB88A381DBF80030C4F812308D
:10355000BBF80430E3820C9B1B68C4F80E300E9B52
:103560001B68A361012363700823A37006232371E2
:1035700004230025637140F6060301462570E570BB
:103580004A46009340465346FFF78CFF3B8B30463C
:1035900001333B8304F068F82846C9E7FC090020A2
:1035A00030B5012585B0CDE90215054900F11E03AE
:1035B000CDE900011946FFF7A5FF05B030BD00BFFA
:1035C000F28800002DE9F041164CDFF85C80002500
:1035D00002260427217D79B105290DD0638A0133A4
:1035E0009BB2B3F5967F638203D201290BD1042BE2
:1035F00011D92846FDF7C6FB01350A2D04F1180440
:10360000E8D1BDE8F081032901D12775F4E7042949
:10361000F2D12675F0E7A0684246211DFFF7C0FFF2
:10362000EAE700BF84020020EC8800002DE9F341A6
:103630000F461649182404FB021402EB4205237DB1
:10364000ED0005F10C08022B064688440BD1638A75
:10365000B3F58E7F14D90E4A04352944FFF7A0FF35
:1036600008B9032323754FF40063009306F11E028B
:10367000434639463046FFF715FF02B0BDE8F081FA
:10368000B3F5877FEFD304354246E6E78402002096
:10369000EC88000010B570B159B143898AB29A42E2
:1036A00009D89B1A44684381038921449B1A4160CD
:1036B0000381002010BD0120FCE710B1837B0133A2
:1036C000837370472DE9F043166885B004460D46B4
:1036D000014630469046FDF7E9F8002840F0BE80EC
:1036E00006F0F003E02B1AD101238DF808305E2399
:1036F0008DF80A3098F801308DF8090003F07F0347
:103700008DF80B3098F802308DF80C3098F80330B3
:103710008DF80D3002AB4FF4006200926CE023682C
:103720006268734013420AD0B6B24FF6A9639E4254
:1037300005D0A368002B00F0938004F10808534FD4
:10374000534E3A78D8F80090182303FB0263197D92
:1037500001290DD95B684B450AD14E49CB8D013308
:10376000CB852946204605B0BDE8F043FFF75EBF94
:1037700047480023017D0129DAB204D9416849454F
:1037800001D13A70EDE701330A2B00F11800F1D1B5
:1037900021464846FDF78AF8002864D109F0F00375
:1037A000E02B60D0B9F1000F5DD001214046FDF75C
:1037B000FDFA031E08DA1DB136498A8C01328A846B
:1037C00058B205B0BDE8F0835FFA83F9182303FB14
:1037D00009631A7DBAB1CDB14FF0FF30182303FB56
:1037E0000962127D012A19D903FB09634FF40062B3
:1037F00087F8009000920C3304F11E0229462046FF
:10380000FFF750FEDDE701221A759C60224A41460F
:103810002046FFF7C5FE002DE0D1D2E7D1D12B46DF
:103820001A7B520622D41B68002BF9D12846FFF7D9
:1038300044FF2C4606E022892B899A4202D329466E
:10384000FDF7B2FB182505FB09F3F05808B103F0AA
:103850000BFF05FB09F30020F450B2E70E4B5AE7CB
:103860006FF00300ADE76FF00F00AAE729894FF46E
:1038700020720E20FFF714FA04460028DBD1054A17
:10388000938C013393844FF0FF309AE78805002032
:1038900084020020FC090020EC88000070B50320A1
:1038A000FCF7B4FE024678B1084D044605F1100657
:1038B0002B4603CBB342206061601D4604F108042F
:1038C000F6D15068FFF7F9FE104670BDCC09002014
:1038D00010B500B109B910BD10460B890489026802
:1038E00023449BB20381002AF6D10160F3E7000074
:1038F0002DE9F041002846D0DFF898C0DCF80050F0
:103900002C46CCB9002A3CD1214F3A884FF4804351
:103910004FF6FF7E72451ABF013292B24FF4404219
:103920002E467EB93A800B680360428214B9C560A6
:10393000CCF80000002028E0844201D0E468E0E7F1
:103940000124DFE7B6F81280904507D1013B9BB216
:10395000002BDFD13A806FF0070016E0F668E0E751
:1039600083420AD05E8A964207D10F681E68BE4223
:10397000F1D0002FEFD0002EEDD0DB68002BEFD17F
:10398000D1E72B46FAE76FF00F00BDE8F08100BFEA
:10399000540000208C3400200B4A0346106850B1BC
:1039A00090F8252002F00502052A04D1026812B120
:1039B0001B787F2B06D1054AB2F856300133A2F8A6
:1039C00056300020704700BF38200020FC0900203E
:1039D0002DE9F04F8BB0974C9DF850709DF854B086
:1039E000DDF858A005460E4698469146002A00F09C
:1039F000838000221421FFF77EFC48B1B4F85C30CC
:103A00000133A4F85C306FF001000BB0BDE8F08F1B
:103A10006A68DFF82CE282F8088082F809B0D9F8E9
:103A20000030BEF800C0136145214BEA08285770EA
:103A300011704FEA134B298990711BFA83F3D071EF
:103A40003F029CFA9CF0908013FA80F047F0450307
:103A500049BA18444FEA2823518043EA082310FA50
:103A600081F10CF1010C11FA83F3AEF800C006B13C
:103A70003668D66013FA86F303EB16418BB203EB7C
:103A8000114101EB1141C9435181B4F84830013370
:103A9000A4F84830BAF81C30002B00F0C1802C8903
:103AA000A34280F0BD80B3F1140248BFA3F10D0220
:103AB000C2F3CF0304936B6801931B7803F00F03E9
:103AC000052B4FEA830740F0B2806B89132B40F23D
:103AD000AE80019BDB885BBAC3F30C0203F4005396
:103AE0000593049B0392DB00143C9BB2A4B20693A3
:103AF00000265CB9204688E74389132B7FF67EAF0A
:103B000043681B6909930DF12409BEE7069BA34294
:103B100028BF23464FF4207214210E200293FFF792
:103B2000BFF88046002859D0019B426819461431DD
:103B300053F8040B42F8040B8B42F9D1D8F8043047
:103B4000DDF808B0BBF1000F34D1BAF81C10039AAD
:103B500013393744A142BFB2C2F30C0201DD05990B
:103B600009B142F4005252BADA80029A0793143231
:103B700052BA5A8000229A72DA7214211846FEF75D
:103B8000B9FE079BC0435881DAF810304A464146D7
:103B900050469847274A138E40460133138603F058
:103BA00063FD029BE41ADDE9033213449BB2A4B225
:103BB00003939EE76E89F61BB6B25E4528BF5E464C
:103BC00016B92D683746BDE705200793FCF71EFDA3
:103BD000079B014628B9404603F046FD4FF0FF30F1
:103BE00013E76A680793D019134BCB600022C1E931
:103BF00000200E8128464E81FFF75FFDABEB060BE0
:103C00000E4B0B614D6140461FFA8BFBFFF760FEC8
:103C1000079BBBF1000F98D000222D68174691E753
:103C2000DAF810304A46294650469847EDE66FF0DC
:103C30000500EAE6FC09002041020100692C0000B1
:103C4000F40900202DE9F0430E4685B0174698464A
:103C5000044680B3007A70B3FFF712F8054680B3CC
:103C6000D8F80030009332893B68D6F804900621DA
:103C7000304603F028FDA9F8100004B3E37AA47AD3
:103C80001149B1F890200132A1F8902039680295CD
:103C90000622CDE90042002914BF39462946424692
:103CA0003046FFF795FE0446304603F0DDFC204623
:103CB00005B0BDE8F0834046FFF76EFECEE7FF2378
:103CC000DEE76FF00304EFE7FC0900202DE9FF4178
:103CD00004460846FCF70FFCBDF83080CDF80080A4
:103CE0001646142102464BF20540CDE901101D464F
:103CF0000021BDF82C300A9F3046FFF7BFFA01467D
:103D000038B13B462A46204604B0BDE8F041FFF7F3
:103D100099BF04B0BDE8F08110B50446006DFCF712
:103D2000EAFB002102462046FFF7D2FA014630B9ED
:103D3000638B43F0030363836FF0010010BD231D09
:103D400022462046FFF77EFF638B18B143F0030342
:103D50006383F3E723F00303FAE700002DE9F84358
:103D6000B14BDFF8D8821B78B04F13F0100F044628
:103D700000F0B080D4E915C6D8F80030AC4D007D15
:103D8000B4F860102A68ACEB030EBEF1000F10DB34
:103D90009C4504D1A6EB020CBCF1000F09DB964256
:103DA00019D1DFF89CC2DCF800C0BCF80EC08C450D
:103DB00011D9DFF88CC2B4F86290DCF800C0BCF80E
:103DC0000EC0A4F860C01FFA8CFEC4E91532F1459C
:103DD00038BFA4F862C0D4F844C0A2EB0C03002B97
:103DE00000F330813B88002B40F01A81B4F860303A
:103DF000A06D314403448B4240F01281B4F930305D
:103E0000002BC0F20D81944540F00A8194F84330B4
:103E1000FF2B1CBF013384F8433094F84330032B4D
:103E20002FD9B4F84820638E13449BB24FF6FF712C
:103E30009A4288BF0B46A4F84830236F13B3638BB4
:103E40005B071FD42046FCF7A2FCD8B9B4F8601079
:103E5000B4F848302086994228BF1946638E5E0028
:103E6000B6EB510F4FEA6102334488BF3246134428
:103E7000A4F84830638BA4F84A2043F0040363831A
:103E800000E0DAD0616B29B3A36B2A689B1A002B80
:103E900020DA684B1E88B4F93C3089B2C3F3CF00F6
:103EA000721A121A15B2002D13FA82F2B8BF891BCA
:103EB000B4F93E30BCBF09180DB2A3EBA3032B44E9
:103EC00012B29BB2E38703EBE203A4F84030002375
:103ED000A28763633D88D8F80030626A002D00F045
:103EE0008A82217D062900F28682D11A012900F1F9
:103EF0003381C3F10100401B1044002800F32C81E2
:103F00004D4D2B89686889B25B1A2B8103895B1A36
:103F10009BB2002642898A42C0F01881FFF7BAFBA3
:103F2000EA68636AC8F800305360D8F80060636AD2
:103F3000F21A002AC0F2B581B4F828C0711CCA1A5E
:103F4000A2EB0C02002A00F3AC819E4240F0A48157
:103F5000394DE868B5F808E0828953BA99B2DEB203
:103F600013F0030318BF012373449BB29C453B80AD
:103F700020D2F60741BF22F47C5301F03E0143EA10
:103F800001238381EA68238D92892B8152BA92079B
:103F900044BF03F1FF332B8129896868FCF74EFE8B
:103FA000EB682A899B895BBA13F0030318BF0123CE
:103FB00013443B80666F002E00F0DD80EB689B8928
:103FC0005BBADB0700F1D480D6F80CC0D8F800004B
:103FD0003A88DCF80430318902441944511A002926
:103FE00080F2EA80D21A002A40F30781EA689289B7
:103FF0001B1A52BA9BB292072B8144BF03F1FF33C5
:104000002B8129896868FCF719FEEB682A899B894E
:104010005BBA13F0030318BF012313443B80ECE0A9
:10402000002384F843302DE789050020442E00202A
:1040300080020020242E0020CC090020042E002025
:10404000302E0020216D511A00297BDC618B4E0738
:1040500009D521F004016183B4F84A10A4F848108E
:104060000021A4F86A10B4F93C60E18F626401EBAE
:10407000E601A4F8401003284FF00001A4F8421014
:1040800026D9B4F84820B4F84A1091429BB215D909
:10409000618B11F4006F618E14BF0120022011FBAF
:1040A00000F189B2994294BF5018D01883B29A4255
:1040B00001D94FF6FF73A4F8483009E0B4F86A104C
:1040C0000B449BB2994232D89A4232D9A4F86A3052
:1040D000216F2046FEF754FDE16E20672046FEF773
:1040E0004FFD226FE066B2FA82F35B095B422386E2
:1040F0000023237708B9A4F868009449B4F8643021
:1041000009880B44A4F86430638B19057FF5BAAEB7
:10411000B2B940B1C2685068FCF7EDF9E26C101A10
:1041200000283FF7AFAE23F400636383AAE64FF69F
:10413000FF739B1AA4F86A30638E13449BB2B6E7F0
:10414000D268E8E72046FFF7E7FD9BE6891A03817E
:10415000468189B20068DDE69B1A002BBEBF638BE7
:1041600043F002036383E0E603686367FEF798FCAD
:10417000606F0028F8D13988238DD8F800205B1AA9
:104180000A44626223852046FCF762FA6B681A894A
:104190001AB16F4A136000236B60EB689B895BBAAE
:1041A000D80704D56B4A137843F020031370684E88
:1041B000684F4FF0000959E0BCF80C305BBAD807E3
:1041C00011D5EA68938959BA89070CD443F48073EE
:1041D0009381EB682A899B895BBA13F0030318BFAC
:1041E000012313443B80D6F800903046FEF758FC7C
:1041F0004E46B9F1000F7FF4E7AE6667BBE78B89E7
:104200002989C8F800205BBA13F003030A4418BFD9
:10421000012313446362EB682A899B895BBA13F01C
:10422000030318BF01231344228DD31A238520468C
:10423000FCF70EFA69680B892BB1306828B3FFF7D9
:1042400047FBC5F80490EB689B895BBAD90708D592
:104250003B7843F020033B70237D042B04BF0723EE
:1042600023752B6863672846FEF71AFC656F25B136
:10427000E968636A4A689A42C1D0638BDA0706D557
:1042800023F0010343F0020303E03160D9E743F078
:1042900001036383BDE8F883656F3DB9FFF7FEFA5C
:1042A00060672046BDE8F843FFF736BD4FF00009D0
:1042B00006F1FF3CE86843689E4215D1264B1A89F7
:1042C0002B899A42EDD9FFF7E9FA0028E9D0B9F134
:1042D000000F07D0C9F800002946FEF71BFCE0E7F5
:1042E0001546E7E76067F7E7B9F1000F08D1F21A62
:1042F000002A33DAFFF7D2FA0028D2D06067EBE762
:10430000D9F80C205268ACEB0202002A26DBCA1A4C
:10431000002A23DCFFF7C2FA07460028C1D0D9F8EB
:104320000C305968B9F808300B449B1B002B07DD93
:10433000711A89B2D9F80400A9F80810FCF77EFCBC
:10434000C9F8007029463846C7E700BFF82D00209D
:10435000FC2D0020002E0020CC0900202A68A94650
:10436000002ABDD1F31A002B9BDD83895BBADB07E2
:1043700097D4FFF793FA2860002892D0EB68596829
:104380002B890B449B1B002B05DD711A89B26868D1
:104390002981FCF753FCD8F800103B88626A0B4473
:1043A0009B1A228D9B1A002B7FF77BAF2B68D86856
:1043B00083895EBAB2B2F60741BF23F47C5302F0A0
:1043C0003E0243EA02238381238D2A685B1A616AD5
:1043D0000B4413812B6819895868FCF72FFC2A6855
:1043E000D36812899B895BBA13F0030318BF0123BA
:1043F00013443B8055E7991A002906DB01339B1AC9
:10440000228D9B1A002B7FF745AF638B3AE700BFE5
:104410002DE9F04F914B1B68834287B0044600F0B2
:104420004A81C56E45B9438B990740F1408107B079
:10443000BDE8F04FFFF770BCB0F84880B0F86010EE
:1044400000F1040A007A58B3FEF71AFC0746002868
:1044500000F0398123680BB903682360EB68884555
:10446000586828BF8846FCF746F82B89626C9B1A6F
:104470001844404518D9B4F8603043450AD1236F39
:1044800043B994F899302BB94FF48072A4F898206E
:1044900084F89A30638B9A0740F109812046C6E779
:1044A0005046FFF779FAD1E7266F002384F8993058
:1044B00026B133463668002EFBD11E46DFF8A4B184
:1044C0004FF00009EB685868FCF715F8626C801A29
:1044D0002A891044404504D9E36E002B40F0E78060
:1044E000E2E0226FAAB1618B11F0440F11D1E26EAC
:1044F0002AB1106868B91089628E904209D2B4F866
:10450000642032B1B4F86620072A02D811F0A00F57
:10451000E2D0227D022A1EBF9A8942F480529A81FB
:104520006B689B7B012B6CD1606AEB68FBF7E3FF48
:104530009860638DEA685BBAD381628D636A1344C5
:10454000E362AB7ADB0711D5BB8B40F2B4523BB1CF
:10455000282B86BF283B98B20020824228BF024603
:1045600042F00170FBF7C7FFEB685861B4F93030D7
:10457000002B636BB8BFA4F830903BB9384B1B6875
:104580006363EB685868FBF7B6FFA0636A68EB6883
:1045900051685B1A51899BB2C91A518169680A89AD
:1045A000D31A0B816A68EB68536083F8109083F824
:1045B0001190EB686868059363680289009306218F
:1045C000236803F080F8059B1882BBF89030013314
:1045D000ABF89030A37A2168686802970622CDE98B
:1045E0000032002914BF21463946E37A5246FFF7CC
:1045F000EFF930B1638B43F08003638307B0BDE80C
:10460000F08F2B68E366237D022B1EBF638B23F0A4
:1046100003036383EA685068FBF76DFF93892A8977
:104620005BBA13F0030318BF012313441844236D2E
:104630001B1A002BB8BF2065EA68298993895BBAE9
:1046400013F0030318BF0123CB4238D0C5F8009004
:10465000216F49B925672E4622E000BF182E0020A1
:10466000242E0020FC0900205068FBF744FFF3686B
:1046700002465868FBF73FFF101A00281DDA04F1C4
:104680007003C9684868FBF736FF801A002819686C
:1046900003DA0B4609680029F3D11A682A601D6005
:1046A000E56E002D7FF40EAF0023A4F86830638B15
:1046B00023F0800363830020A0E73560CBE7284622
:1046C000FEF7EEF9ECE76FF0030097E710B5037D16
:1046D000042B044603D0072B0BD0032B07D1FEF786
:1046E000C5FE58B9052323752046FFF791FE00202B
:1046F00010BDFEF7BBFE08B90923F4E7431CF7D150
:10470000638B43F008036383F1E710B50446D8B127
:10471000028D114489B240F2B453994212D88A42B0
:1047200088BF194621852046FBF792FFB0F5B67F7A
:104730000AD9638B43F0020363832046BDE810402F
:10474000FFF766BE1946EDE710BD10B503688B4252
:104750000C4619D1CB6803600023E3602046FEF7C6
:10476000B5F9237D0A2B0AD0012B08D0638BDA0719
:1047700005D543F0020363832046FFF749FE00237B
:104780002375E38210BD1346002BE5D0DA68A24200
:10479000F9D1E268DA60DFE730B5044685B0002879
:1047A00077D0037D012B55D0428B042B42F01002B1
:1047B000428301D0072B6FD1A26F22B9218D40F225
:1047C000B452914268D0238B0293E38A0193231D54
:1047D0000093626A216D23462046FFF777FA204650
:1047E000FEF774F9314A13689C4212D1E3681360F2
:1047F0002F4B01221A702F4B1B6800209C42E06057
:104800001BD12D4A137843F01003137005B030BD4F
:104810001346002BECD0DA689442F9D1E268DA60F2
:10482000E6E7002B2FD1E38A3BB1244A13689C4270
:1048300008D1E36813600023E3602046FEF7CEF959
:1048400019E01346002BF6D0DA689442F9D1E268F9
:10485000DA60F0E71A4A002152F82300056865B9CA
:104860000133042BF8D117482146FFF76EFF21468C
:104870000220FEF705F90020C8E7E86F844208BF70
:10488000E967ED68EBE7204605B0BDE83040FFF78B
:104890001DBF6FF00F00B9E7022BC2D103482146BC
:1048A000FFF753FF024B01221A70C6E70C2E0020BF
:1048B000102E0020182E0020002E0020142E002084
:1048C000BC8A00001C2E002010B50846144669B1B1
:1048D0003AB11189FFF719FF204602F0C5FE00200A
:1048E00010BD33B9BDE81040FFF756BF6FF00F00A1
:1048F000F6E71046F4E7F8B5044680B3866FD0F8C3
:104900008450777B00238367E5B101463246006916
:10491000A8470546E8B9BB0612D5238DD4F88460B4
:1049200040F2B45293421CBF0133238546B10023A9
:1049300020691A462146B0470D3001D16FF00C05B1
:104940002846F8BD01462B4632462846FFF7BCFFF5
:10495000DFE70D35F2D0A6676FF00405F0E76FF0E2
:104960000F05EDE72DE9F04F874A884E1378884D03
:10497000013389B013703468002724BB854A13784B
:104980000133DBB2137013F00103059318D0DFF885
:104990000C827D4AD8F800300133C8F80030137813
:1049A00001331370794BDFF8F4A11C6800230493E2
:1049B000002C34D1784E794F3568002D40F0678255
:1049C00009B0BDE8F08F704BA27F1B789A4223D0CC
:1049D000A377638BD80709D543F00203638320468E
:1049E000FFF716FD638B23F003036383638B1907C3
:1049F00005D523F0080363832046FFF767FEA36F06
:104A0000D4F80C8033B120462F70FFF774FF2B7859
:104A1000002BB0D14446B0E7D4F80C80FAE75A4BEB
:104A2000A27F1B789A4203D1E66804943446BFE71C
:104A3000227DA377022A94F8423040F0A380052B10
:104A400000F2D78194F89950002D00F07C8194F801
:104A50009A200B2A00F2CD81514B1D4494F89830D6
:104A600015F8011C994200F29D80B4F86060E56E73
:104A7000002E00F01381002D00F043812B89069356
:104A80009E427AD2AB7A07934FEA8309069B09F0DC
:104A90000409991B1FFA81FB19FA81F14FF4207266
:104AA00089B23620FEF7FCF80746002800F03F8167
:104AB00068682A89038979689B1A33449BB25A46ED
:104AC0004944FCF743FA834540F03181EB689A8909
:104AD000586852BA5FFA82F912F0080216BF09F05C
:104AE000370909F03F09082219F0010F1CBF09F02E
:104AF000FE0942F00102FBF7FEFC079B00933946DA
:104B000033182046FEF718FC8346002800F00F817A
:104B10006868FBF795FDB4F86630181AA4F86600CB
:104B20006868069B0189F61A11FA86F189B2FCF7CA
:104B300085F82B89EA68B7B21F442F81938943EA2D
:104B40000929A2F80C906868FBF77AFDB4F86610A2
:104B5000084481B2A4F86610DBF80400FBF770FD8E
:104B60000844A4F866002B68CBF80030C5F800B004
:104B7000DBF800300BB9A4F868302046FFF748FC9A
:104B8000B8B1BEE00B2B5BE7292E00200C2E0020D5
:104B9000102E0020282E00202C2E0020242E002055
:104BA000CC8A00000133DBB2994284F898307FF65A
:104BB0005CAF0025237D062B0AD1628BD20607D578
:104BC000DAF80020216A521A282A84BF0135EDB292
:104BD000667A16F0080618D0042B02D0072B40F096
:104BE0002981236AD8F80010C91AD4F8943003F543
:104BF000242202F6B8424FF4FA70B2FBF0F291426E
:104C000040F2F9800135059EEDB2606F70B1D8F8C1
:104C10000030226A9A1AB4F9403003EB4303B2EB36
:104C2000430F03D3FDF74AFF00236367237D032B64
:104C300040F00281DAF80030226A9B1A282B02D851
:104C4000002D00F005812046D4F89050FDF73EFF7E
:104C5000049AE368002A00F0F880D3605EB1238BE9
:104C60000293E38A0193231D0093626A216D234618
:104C70002046FFF72BF8D4E9036720468F4CFDF759
:104C8000ADFF002323703DB16FF00C013846A847FB
:104C90002378002B7FF486AE049CC6E68DB30132E8
:104CA00084F89A20EB689F895A687FBA17F0010749
:104CB0001EBF2F89B7FA87F77F0987F001012046C9
:104CC000FEF706FB064600283FF473AF416827B3A2
:104CD0008B8923F47C5343F488538B81EB685868A9
:104CE000FBF709FC236D01301B1A002BB8BF2065B0
:104CF000231D224631462046FEF7A4FF00287FF4FC
:104D000058AF94F899300025062B84F898503FF658
:104D100050AF013384F899304CE768682A890389D9
:104D20009B1A9BB201221431FCF710F9D6E7644AB2
:104D3000B2F89C300133A2F89C30002FE1D0384605
:104D400002F092FCDDE7238E47F6FE7293429CBF91
:104D500001332386B4F93020B4F940309A42FFF68B
:104D600028AF2046FBF7E8FC38B1236F002B7FF417
:104D700020AFE36E002B3FF41CAF237D94F842205C
:104D8000022B13D0B4F93C10B4F93E304D480C2A34
:104D900003EBE103114628BF0C21415C8B4047F631
:104DA000FF718B42A8BF0B46A4F84030B4F86010E6
:104DB000B4F84830678EA4F84870994228BF194665
:104DC0007B009BB2B3EB510F4FEA510098BF0346F3
:104DD000FF2A4FF00006A4F84A3018BF531C26865D
:104DE000A4F86A6018BF84F842302046FFF710FB31
:104DF000E0E6059DDEE694F89B20334E06FB023389
:104E0000B3FBF0F3994215D9206D0138FBF773FB22
:104E1000002102462046FEF75BFA014650B1231DF1
:104E200022462046FEF70EFF20B994F89B3001334E
:104E300084F89B300026E8E6092B7FF401AFDAF80E
:104E40000030226A9B1AF02BF9E6204A136005E72E
:104E5000237F627FE6680133DBB29A4223773FF615
:104E6000E4AD164B25771D70D4F88C301BB9204665
:104E7000FFF7CEFAD9E52069214698470F4B1B78FA
:104E8000002B7FF48FAD00287FF4CFADEFE73B68B8
:104E90002A6A9B1AF02B06D92846FDF717FEEB6805
:104EA00024B9336003E02C46ED6886E5E360D5F86D
:104EB0000C802846FDF792FE45467EE5102E002028
:104EC000FC090020AC8A0000F82401000C2E002010
:104ED00008B5FFF747FD094B1B6813B9084B1B6862
:104EE00043B1084B084918680022BDE80840FA3071
:104EF000FBF780BC054A136008BD00BF0C2E0020E4
:104F00002C2E0020082E0020D14E0000402E002024
:104F100038B50D46044640B10023C0E92333036190
:104F2000C0F884304377C0F8803065B16B690BB14D
:104F300000236B61286A18B102F096FB00232B62F4
:104F40002846FDF70DFD2046FFF726FC28B124B1C9
:104F5000024BC4F88C300423637738BD4D590000F0
:104F60002DE9F04F04468DB0894649B14B6A002BBC
:104F700040F0A281496939B949462046FFF7C8FF88
:104F800000200DB0BDE8F08FD1E90121521A002AAE
:104F9000F2DD0393D9F81830039A1344C9F8183096
:104FA000D9F824309B1AC9F8243001202CE0237D45
:104FB000072B02D0023B022B25D8039B002B3AD0B3
:104FC000B4F86430039A93422AD2638B43F080038F
:104FD0006383B4F86430B3B1B4F86630072B12D8E9
:104FE000039B5B08012B03930DD9B4F86230628EEA
:104FF0005B08934228BF1346002B08BF1346069355
:10500000079B002BD3D10020D9F82430002BB8D136
:10501000D9F81420D2E901329B1A002BB1DCABE79E
:10502000B4F86630072B06D9AF4AB2F89C3001338A
:10503000A2F89C30C9E7E56EB4F866300593002D00
:1050400000F0DE80A8462D68002DFBD1069BB8F845
:105050000820B4F868709E1A98F80A309B0003F094
:105060000403F61AB6B2002F49D0039BBB4228BFF7
:105070003B46B34228BF3346FF1AB9B2F61A08912D
:10508000B6B21F46C246039B9F4280F0C380002EEB
:1050900000F0BE80002A00F0BA80D8F804502A46FA
:1050A0002D68002DFBD1039BA3EB070A137B56450C
:1050B000A8BF564613F0C00F1FFA86FA05D15189D2
:1050C0005368079A0B449A421CD001215046FBF7C3
:1050D000DDFC0546002800F0ED80079B3B44436063
:1050E000FBF7AEFA059B03449BB205930026BA4436
:1050F0001FFA8AFBC246002304930A935CE00895DA
:10510000AA46C0E75646F2E7039B069AA3EB0B03B9
:105110009BB2934228BF13469BB2012118460993C4
:10512000FBF7B4FC78B1079A0B905A444260002117
:105130004FF420723620FDF7B3FD0B9B8246C0B9B9
:10514000184602F091FA638B674A43F08003638349
:10515000B2F89C300133A2F89C3015B1284602F019
:1051600083FA049B002B3FF434AF1846FDF7A6FCEE
:105170002FE71946FEF7ACFB5046FBF761FA059B9B
:10518000184483B2082B059301D95046D9E7E36D43
:105190000022514600925B442046FEF7CDF882463D
:1051A0000028D0D0049B4BB30A9B1860099BCDF814
:1051B00028A05B441FFA83FB039B9B45A4D32B468B
:1051C000049D4FB1D8F804B0BBF1000F25D1B8F859
:1051D00008201744A8F80870089AA4F86820BBB300
:1051E0001946D8F80400FEF773FBB8F808300A89AE
:1051F0001344A8F80830C8F8005041E00490D5E7FF
:10520000AA46A84608952E462F46AB4673E7164693
:10521000BB4670E700263346D3E7BBF808203A4484
:10522000ABF80820DBF800207AB9BBF80AC0DBF83D
:105230000400079904933A46604402F02DFBBBF842
:105240000A20049B3A44ABF80A20DBF800B0BBE725
:1052500096B1D8F804301A891968324492B21A818A
:1052600041B95A8932445A81B8F808301E44A8F826
:105270000860C0E70B46EEE7B8F1000FBBD1E5666A
:10528000E36D039A1344E365B4F864309B1AA4F801
:105290006430059BA4F86630BAF1000F3FF47AAE93
:1052A000DAF80C30002B3FF475AE9A8942F40062B4
:1052B0009A816FE6049046E74FF6FE714FF6FF7253
:1052C0008B4288BF1346D9F818200792428EB0F857
:1052D0006410520092B28A4228BF0A469BB29A4298
:1052E00028BF1A46039280E6FC09002008B5034651
:1052F0000846194623B1002381F82830FFF730FE15
:10530000002008BD2DE9F04F044687B089461546B8
:105310001E464BB952B188B948462989FFF7F5F9BD
:10532000284602F0A1F901E0002AF5D121464846BD
:10533000FFF7EEFD002007B0BDE8F08F1189484669
:10534000FFF7E3F96369002B40F02681A369206A27
:10535000002B40F01A8100287FD125622846FEF7F5
:10536000ACF9206A0368002B7BD0B0F808808C4928
:10537000DFF82CB240F2FF33984528BF98464246EA
:105380000023FBF7E3FDB8F1060F40F2EF808549FB
:1053900042465846FCF7C2FA002800F0E7808249EE
:1053A0000422584602F0ADFA009000285ED10BF1BD
:1053B000040AA8F1040292B27C4901925046FCF71B
:1053C000ADFA019A074648B976495046FCF7A6FA65
:1053D0000746002800F0CA80012300930BF1030266
:1053E000974240F2C380724942465846FCF796FA0B
:1053F000002800F0BB80A7EB0A07BFB200228BF8A1
:10540000032050460AF80720CDF814A0FAF738FF19
:10541000804688BB05983F2102F066FA002840F0DC
:10542000A280059901942046FBF734FD019A0028DB
:1054300069D005A92046FBF74DFD0246002862D140
:1054400005A92046FBF746FD024600285BD1C4E9CA
:105450000500606284F8280070E02946FEF738FAFB
:105460007CE7D5F804B0B5F80A808CE700228BF809
:1054700004206FF00F0661E0471E1AF807302F2B4B
:10548000C8D1DFF830B1DA4501D10128C2D13F2FB0
:1054900028BF3F27B8F1010F07D03A46454851468B
:1054A00002F0FAF900220BF80720DFF808B1DFF864
:1054B0000CA10BEB07030193B8F1010F18D0D7F142
:1054C0003F0213D0DAF80010029208460391FAF76F
:1054D000D7FE029A0399824228BF0246019802929F
:1054E00002F0DAF9DDE9013200219954594601E070
:1054F000DAF800102046CDE90214FBF7CBFCDDE919
:10550000021250BB059162611768A7610023D2F8AF
:10551000048084F82830009BC4F8248073B1137C85
:10552000DB070BD5224942463846FCF7F7F928B18C
:105530000430A061C01BA8EB00006062206A18B1B3
:1055400002F092F800232362284602F08DF8FEB99B
:1055500021464846FFF704FDECE6174B0AF1080A1E
:105560009A45A9D156E7002303705AE7216A0846F5
:10557000FBF766F80B89B3F5806FBFF47AAF0528A7
:105580003FF677AF6FF00406DEE76FF00706D5E76A
:1055900010367FF4CFAEC9E6284602F065F8C9E6BA
:1055A000CA050020817900007A7900007D79000029
:1055B0007F7900008A0500205C89000034890000A2
:1055C0002DE9FF470E460446002855D0037D0A2BDF
:1055D00009D101462A48FFF7B8F8204604B0BDE8D3
:1055E000F047FDF7FBBAD0F85090D0F824A0D0F8DF
:1055F0009070D0F81080C58A9BB93DB1214A1368DC
:10560000834206D1C36813600025E5602E460FE093
:105610001346002BF8D0DA68A242F9D1E268DA60CA
:10562000F2E701461848FFF790F8184B01221A706C
:10563000206F08B1FDF742FAE06E08B1FDF73EFABF
:10564000606F08B1FDF73AFA56B1238BCDE90153EB
:10565000231D00935246234649462046FEF736FB5B
:105660002046FDF7BBFA3FB16FF00C0140463B46C8
:1056700004B0BDE8F047184704B0BDE8F08700BFAC
:105680002C2E0020142E00200C2E0020102E002086
:1056900008B508460121FFF793FF6FF00C0008BD25
:1056A00030B40C4B19680C4B00221D6804461046A0
:1056B00019B968B130BCFFF783BF0B7DA34205D198
:1056C0000B6AEB1A934224BF1A460846C968EFE7F3
:1056D00030BC70470C2E0020242E0020F8B5044664
:1056E0000120FAF793FF0346002852D14D4E30684F
:1056F000002873D14C4B4D4D1B682F680146002B81
:1057000077D110B10121FFF75BFF0120FAF77EFF8F
:105710000346002837D10920FFF7C2FF0120FAF71E
:1057200075FF034648BB0820FFF7BAFF0120FAF7D0
:105730006DFF0346D8B9220663D464B121463268AE
:105740002E680139C9B20020002A5CD11BB10121A9
:105750001846FFF735FF0120FAF758FF03460028E7
:105760003AD0334AD2F8B8100A88013A0A80304A4F
:10577000D2F8B8100A88013A0A802D4AD2F8B81037
:105780000A88013A0A802A4AD2F8B8100A88013AEF
:105790000A809C221846002102F066F840F6683222
:1057A000A0F86420234A8262FF22C2720622A0F877
:1057B0004020C287204A02631C4A44751268026274
:1057C0001E4A127882771E4A82641E4AC0F88420DC
:1057D0001D4AC0F8942003461846F8BD438BC5689F
:1057E000190704D523F008034383FEF76FFF28460B
:1057F0007EE71A6ABA1A8A4224BF18461146DB6845
:105800007DE77F219BE7577D8F4204D307D1156A3F
:10581000751B854203D3106A3946301A1346D26885
:1058200092E700BF0C2E00202C2E0020242E0020FA
:10583000FC090020B405B405FFFF1802292E002042
:105840000100680BC948000000DD6D0038B5044652
:10585000084600B938BD02682368C5689A4202D17B
:105860000121FFF7ADFE2846F3E70000F8B5214F10
:1058700005683B689D4206460C4639D00B6093B9DB
:1058800097F8253032683A6003F0050105292FD1D9
:10589000002A2DD01B072BD51649174ABDE8F84022
:1058A0000846FDF77DBE154B20461968FFF7CEFF71
:1058B000134B20461968FFF7C9FF1DB1114B1B6838
:1058C00022687BB92368002BDAD0002DD8D00E4B8C
:1058D0001B68002BD4D019682268914208BF1D6054
:1058E000DB68F6E719688A4208BF1D60DB68E7E7F6
:1058F000F8BD00BF0C200020EC8800000C2E00201A
:10590000142E00201C2E00208C34002010B50D4BCE
:105910001B7813F01003044612D0438BDB0606D429
:10592000D0F890301BB100696FF00E01984706481F
:105930002146FEF70AFF2046FDF750F9012010BD71
:105940001846FCE7002E00200C2E002010B50C4657
:10595000014620B92046FFF7DBFA002010BD90F881
:1059600028300133DBB2042B80F82830F2D04369B1
:10597000002BF2D02046FFF7F3FA0028EDD02046A6
:10598000FEF746FDE9E700002DE9F041064686B046
:105990008846174624214FF420722220FDF780F913
:1059A0000546002837D04468716884F800800023D9
:1059B000677023716371A371E37142687368083281
:1059C00003F11C0053F8046B42F8046B8342F9D1D5
:1059D000CB68059305A8FDF7DFFF0646C0B1002799
:1059E000A770E77069892046FCF784FF0B4AC04323
:1059F0006080B2F860300133A2F860300123CDE955
:105A000000730296FF2305AA31462846FDF7E0FF02
:105A1000284601F029FE06B0BDE8F081FC0900200F
:105A20002DE9F041466873689A8804460F462ABB00
:105A30001B684360726800F1080300F11C0153F811
:105A4000040B42F8040B8B42F9D1012230460B21A2
:105A5000FFF79AFF3046FAF7F3FD0546304601F0AE
:105A600003FE666866B920463946FDF7EDF80B4A35
:105A700013885B1B13802846BDE8F0810025F0E702
:105A800073683046D3F80080FAF7DAFD284485B20F
:105A9000304601F0E9FD4646E4E700BFF609002084
:105AA00038B5084B1868002400B938BDC37F0568B5
:105AB00023B1013BC37704462846F5E72146FFF7AB
:105AC000AFFFF9E7AC2700202DE9F041DFF86C804B
:105AD00005460F4600260024D8F800302146A4468B
