:10000000240E002029030000950300009B0300003C
:10001000A1030000A1030000A103000000000000F4
:10002000000000000000000000000000A10300002C
:10003000A103000000000000A1030000A9030000CC
:10004000A1030000A1030000A1030000A103000020
:10005000A1030000F90B0000A1030000A1030000B0
:10006000A1030000A1030000A1030000A103000000
:10007000A1030000A1030000A1030000A1030000F0
:10008000A1030000A1030000A1030000A1030000E0
:10009000A1030000A1030000A1030000A1030000D0
:1000A000A1030000A1030000A1030000A1030000C0
:1000B000A1030000A1030000A1030000A1030000B0
:1000C000A1030000A1030000A1030000A1030000A0
:1000D000A1030000A1030000A1030000A103000090
:1000E000A1030000A1030000A1030000A103000080
:1000F000D9370000A1030000A1030000A103000004
:10010000A1030000A1030000A1030000A10300005F
:10011000A1030000A1030000A1030000A10300004F
:10012000A1030000A1030000A1030000A10300003F
:10013000A1030000A1030000A1030000A10300002F
:1001400000000000000000000000000000000000AF
:10015000A1030000A1030000A1030000A10300000F
:10016000000000000000000000000000000000008F
:10017000000000000000000000000000000000007F
:10018000000000000000000000000000000000006F
:10019000000000000000000000000000000000005F
:1001A000000000000000000000000000000000004F
:1001B000A1030000A1030000A1030000A1030000AF
:1001C000A1030000A1030000A1030000A10300009F
:1001D000A1030000A1030000A1030000A10300008F
:1001E000A1030000A1030000A1030000A10300007F
:1001F000A1030000A1030000A1030000A10300006F
:10020000A1030000A1030000A10300000000000002
:10021000A1030000A1030000A1030000A10300004E
:10022000A1030000A1030000A1030000A10300003E
:10023000A1030000A1030000A1030000A10300002E
:10024000A1030000A1030000A1030000A10300001E
:10025000A1030000A1030000A1030000A10300000E
:10026000A1030000A1030000A1030000F8B500BF36
:10027000F8BC08BC9E467047F8B500BFF8BC08BC87
:100280009E467047F0B4860743D0541E002A3ED0E5
:10029000CAB2034602E014F1FF3438D303F8012B4D
:1002A0009D07F8D1032C2BD9CDB245EA05250F2C9B
:1002B00045EA054516D9A4F110073F0903F12006C8
:1002C00006EB071603F1100242E9045542E9025514
:1002D0001032B242F8D104F00F040137032C03EBC3
:1002E00007130DD91E462246043A032A46F8045B3A
:1002F000FAD8221F22F003020432134404F003044C
:100300002CB1C9B21C4403F8011B9C42FBD1F0BCC8
:10031000704714460346C5E7704700BF704700BFEB
:10032000704700BF704700BF80B582B000AF134B6D
:100330007B60134B3B6007E07A68131D7B603B6872
:10034000191D396012681A603B680E4A9342F3D354
:100350000E480F494FF000028842B8BF40F8042B06
:10036000FADB094B1B68084A43F47003136000F082
:100370001FF900BF0837BD4680BD00BFA46B000059
:1003800000000020210A002088ED00E0240A00205F
:10039000EC16002080B400AFFEE780B400AFFEE7AB
:1003A00080B400AFFEE7000080B400AF044B1B68D0
:1003B0000133034A136000BFBD465DF8047B7047FC
:1003C000240E002080B58EB000AFF860B9607A606E
:1003D00007F1140319463E4804F043FF3C4804F07B
:1003E00079FFB8627A68BB6A934228BF13467B6381
:1003F0007B6B7B62374B1A687B681344354A13600A
:1004000000BFBB68344A9B1A3B63BB69FB6251E087
:10041000314A3B6B13441B78602B11D92E4A3B6B3E
:1004200013441B787A2B0BD82B4A3B6B13441B7855
:10043000203BD9B2294AFB6A13440A461A7020E0CD
:10044000254A3B6B13441B78402B11D9224A3B6B46
:1004500013441B785A2B0BD81F4A3B6B13441B7851
:100460002033D9B21D4AFB6A13440A461A7008E0C9
:10047000194A3B6B13441978184AFB6A13440A461D
:100480001A70FB6A0133FB62FB6AB3F5807F01D00F
:10049000FB6A00E00023FB623B6B01333B633B6B79
:1004A000B3F5807F01D03B6B00E000233B637B6BA7
:1004B000013B7B637B6B002BAAD1796A044804F073
:1004C000E3FE00BF7B6A18463837BD4680BD00BFDB
:1004D000C46800002C0E00204C1500201C140020C5
:1004E00080B485B000AFF860B9607A603B60BB68EB
:1004F000052B05D1064B1A687B681344044A136028
:1005000000BF002318461437BD465DF8047B7047D2
:10051000280E002080B586B000AFF860B9607A6020
:100520003B60BB68082B32D801A252F823F000BF11
:10053000550500006F0500007D0500008F050000D7
:100540008F0500008F0500008F0500008F0500005B
:100550008F050000114B01221A70114800F026FC93
:10056000104804F0A8FE104804F0A5FE10E00B4B64
:1005700000221A700D4800F019FC09E0FB687B614D
:100580007A6839687869FFF71DFF034601E000BF0C
:10059000002318461837BD4680BD00BF300E00202E
:1005A00098660000C4680000A0680000AC66000007
:1005B00090B585B000AF624B1B6810331B6898473D
:1005C000604B1B685C331B685F4898475D4B1B683A
:1005D00018331B685D489847012005F085FD40F2FF
:1005E000014005F081FD5A4B1B6854331B68032101
:1005F0004FF040209847534B1B6818331B685548F1
:100600009847534B1B683C331B680C215248984752
:10061000002000F01DFA514800F0C8FB504800F0DF
:10062000C5FB504800F0C2FB4F4B00221A70454BEF
:100630001B6818331B684D489847454B1B6870333F
:100640001B6830214A4898474A4B1B6814331B6883
:100650001C463C4B1B6860331B6898470246464B60
:10066000A3FB02235B091846A047424B1B680C33CF
:100670001B6898473F4B1B6804331B6898473F48EB
:1006800000F094FB3E4804F0D5FD3E4804F0D2FD56
:1006900000220521002004F07DFE3B49002003F0EC
:1006A0005DFA3A4800F082FB0023BB600023FB6048
:1006B000374B1B68FA689A4204D1364B1B68BA68FC
:1006C0009A42F5D0324B1B68FA689A4216D008223B
:1006D0000821214805F0F1FC00237B6002E07B68E3
:1006E00001337B607B682C4A9342F8D900220821B1
:1006F000194805F0E2FC264B1B68FB60254B1B6884
:10070000BA689A4216D004220421134805F0D5FC99
:1007100000237B6002E07B6801337B607B681E4ABC
:100720009342F8D9002204210B4805F0C6FC194B6E
:100730001B68BB60BA68F968184800F037FBB7E778
:1007400078000001440000014005C00101000020C4
:10075000200000012000002000500240C46600007C
:10076000EC66000010670000300E0020080000203A
:1007700000700040380000011F85EB512067000029
:10078000C4680000A06800007C68000034670000B6
:10079000280E00202C0E0020EF4902004C670000BC
:1007A00090B587B000AFF860B9607A607B687B6114
:1007B0000AE00A4B1B681B681C46BB685A1CBA60DF
:1007C0001B7819460648A0477B695A1E7A61002BA0
:1007D000EFD17B6818461C37BD4690BD1400000160
:1007E00000C0004080B483B000AF7860002318469A
:1007F0000C37BD465DF8047B704780B483B000AF12
:1008000078603960002318460C37BD465DF8047BDC
:10081000704780B485B000AFF860B9607A6000239B
:1008200018461437BD465DF8047B704780B487B026
:1008300000AFF860B9607A60BB681B687B61FB68D9
:100840001B683B617B6901337A68B3FBF2F279681C
:1008500001FB02F29B1A3A699A420CBF0123002362
:10086000DBB218461C37BD465DF8047B704780B488
:1008700085B000AF786039603B681B68FB607B68BF
:100880001B68BB60FA68BB689A420CBF0123002357
:10089000DBB218461437BD465DF8047B7047000094
:1008A00090B583B000AF786022492348FFF7DFFF9F
:1008B0000346002B3AD1214B1B680C331B681946A9
:1008C0001F4B1B681F4A52F823301846884712E016
:1008D0001D4B1B683C331B681C46174B1B681B4A8F
:1008E000D35C19467868A047134B1B680133C3F3E8
:1008F0000903114A1360144B1B6830331B68786876
:1009000098470346002B06D00A490B48FFF7AFFF74
:100910000346002BDCD0094B1B681B681946084BAB
:100920001B68084A52F823301846884700BF0C3726
:10093000BD4690BD3412002038120020480000014E
:10094000C81200209067000014000001340E00203F
:1009500090B585B000AFF860B9607A60344B1B6821
:1009600010331B681946334AFB6852F82330184687
:1009700088470346002B57D02F4AFB6852F8233094
:100980002E4A13602A4B1B6818331B681946294AE4
:10099000FB6852F8233018468847294B1B681433EC
:1009A0001B681C46254B18686023BA687968A04705
:1009B000234B1B680C331B681C46204B1B68002212
:1009C00000211846A04700F0C5F8012000F0E4F827
:1009D0001C4AFB6813601A4B1B6848331B681A4695
:1009E000164B1B684FF0FF3118469047144B1B689D
:1009F00044331B681A46114B1B6850211846904718
:100A0000114B1B681B681946104AFB6852F82330CB
:100A1000184688470A4B1B681C331B681A46074B4D
:100A20001B681846904700E000BF1437BD4690BDD4
:100A3000440000019C67000084670000C41200208D
:100A400014000001C8120020480000019067000057
:100A500080B582B000AF7860074B1B6860331B68BD
:100A6000984703461A464FF4E1317868FFF770FF64
:100A700000BF0837BD4680BD4400000180B584B08A
:100A800000AF786039600023FB6035E07A68FB686E
:100A900013441B780A2B14D14FF48062284929484B
:100AA000FFF7C4FE0346002B2BD1254B1B68264ABB
:100AB0000D21D154224B1B680133C3F30903204A93
:100AC00013604FF480621E491E48FFF7AFFE0346D5
:100AD000002B18D17A68FB681A44194B1B681178EF
:100AE000194AD154164B1B680133C3F30903144A46
:100AF0001360FB680133FB60FA683B689A42C5D318
:100B000002E000BF00E000BF0D490E48FFF7AFFE56
:100B10000346002B0ED10D4B1B681846FFF7C0FE95
:100B20000B4B1B6844331B681A46084B1B6820217B
:100B300018469047FB6818461037BD4680BD00BF79
:100B40003412002038120020340E0020C41200207D
:100B50001400000180B582B000AF0C4B1B68083355
:100B60001B68984703467B60094B00221A60094BBB
:100B700000221A607B68002B04D1044B1B680433ED
:100B80001B68984700BF0837BD4680BD480000017C
:100B9000C0120020BC12002080B584B000AF034614
:100BA000FB71FB79002B15D0104B1B6808331B68B9
:100BB00098470346FB600E4B00221A600D4B002243
:100BC0001A60FB68002B0DD1084B1B6804331B68AF
:100BD000984707E000BF07490548FFF748FE03466E
:100BE000002BF8D000BF1037BD4680BD4800000183
:100BF000381200203412002080B584B000AF604B62
:100C00001B684C331B681A465E4B1B680121184653
:100C10009047F8605A4B1B6850331B681A46594B73
:100C20001B68F96818469047FB6803F02003002B07
:100C300015D0544B1B681846FFF732FE52495348F3
:100C4000FFF715FE0346002B09D04D4B1B684833B8
:100C50001B681A464B4B1B68202118469047FB68BF
:100C600003F05003002B00F087806AE0444B1B68C0
:100C700034331B681A46434B1B6818469047B860CC
:100C8000BB68DBB2FB71424B1B78002B3BD1FB797D
:100C9000082B18D13F494048FFF7E9FD0346002BD8
:100CA0004FD103213D48FFF7E9FE3A4B1B68002B6B
:100CB00003D1384B7F221A6043E0364B1B68013B5F
:100CC000344A13603DE0FB790A2B07D1344B1B7883
:100CD000002B03D0324B00221A7032E0FB790D2B2F
:100CE00005D0FB790A2B02D0FB791B2B0BD1FB79AA
:100CF0000D2B02D12A4B01221A700D23FB71012109
:100D00002848FFF7BBFE802222492348FFF78EFDCB
:100D10000346002B15D11F4B1B68BA68D1B2224A7B
:100D2000D1541C4B1B68013303F07F03194A136035
:100D3000174B1B78002B04D1FB1D01211846FFF730
:100D40009DFE0F4B1B682C331B681A460D4B1B680E
:100D5000184690470346002B88D10A4B1B6818465B
:100D6000FFF79EFD064B1B6844331B681A46054B74
:100D70001B6820211846904700BF1037BD4680BD34
:100D800014000001C4120020341200203812002088
:100D9000310E0020BC120020C01200207C67000031
:100DA000CC120020806700003C1200200FB400B578
:100DB000074983B004AB086853F8042B816801939A
:100DC00000F044F803B05DF804EB04B0704700BFD6
:100DD000000000202DE9F84F4B6E9C0492462DD563
:100DE0009368126843B30E46074602F1080959E9B1
:100DF000025B5FEA9B0815D0043D002401E0A0459A
:100E00000ED0324655F8041F384601F067F8431CEF
:100E100004F10104F3D10023CAE90133BDE8F88FDE
:100E2000DAF808302BF0030BA3EB0B03CAF80830F9
:100E300009F10809002BDAD10020ECE701F0C4F930
:100E40000023CAE90133BDE8F88F00BF2DE9F04F58
:100E5000ADB01C4602919146CDE9070318B1836BF2
:100E6000002B00F0A383029BB3F90C105B6ED80734
:100E70008AB202D4930540F12185970408D40298E0
:100E8000436E41F4005223F400538281436692B2D0
:100E9000160740F10081029B1B69002B00F0FB80CC
:100EA00002F01A030A2B00F068830023CDE9103307
:100EB0000DF1700A0A930493CDF83CA0D34699F83B
:100EC0000030002B00F01E84252B4C4602D11EE082
:100ED000252B03D014F8013F002BF9D1A4EB090511
:100EE0008DB1DDE9103201332A44072BCBF8009095
:100EF000CBF80450CDE9103200F3E4800BF1080B7D
:100F0000049B2B4404932378002B00F0FB830021E7
:100F10004FF0000362788DF83730084606910F468F
:100F200004F101094FF0FF3809F10109A2F1200392
:100F3000582B00F24083DFE813F0DA023E033E0351
:100F4000D5023E033E033E033E033E033E03C90279
:100F5000E7023E03E202EC023E03DA00CB00CB00E4
:100F6000CB00CB00CB00CB00CB00CB00CB003E03B3
:100F70003E033E033E033E033E033E033E033E0369
:100F80003E03B4023E033E033E033E033E033E03E4
:100F90003E033E033E033E039D003E033E033E03ED
:100FA0003E033E0359003E033E039F023E033E03C1
:100FB0003E033E033E033E033E033E033E033E0329
:100FC00098017B013E033E033E0376017B013E0315
:100FD0003E0369013E0355019F00250120013E03A8
:100FE00000013E035B003E033E03DF0047F01007B5
:100FF000BB0640F1A882089C073424F0070303F1E4
:1010000008020892B8F1FF3F4FF00002D3E9004513
:101010008DF837204FF0010340F0CA80002203977B
:101020000992012B00F0F983022B00F085835146D1
:1010300000E03146E20842EA4572E80804F007039E
:1010400005461446303354EA050201F8013C01F12B
:10105000FF36EED1039AD70740F17E83302B00F0A4
:101060007B830239302306F8013CAAEB0103059388
:101070000E4674E347F0100717F0200300F06D826E
:10108000089C073424F0070303F10802D3E9004564
:101090000892002384E0029D0798294600F02AFD6B
:1010A000002800F06482029A536EDD0703D493890E
:1010B0009C0540F13E844FF0FF33049304982DB01B
:1010C000BDE8F08F002A40F0B8831092D34617E7AE
:1010D000A2F13003002419F8012B04EB840403EB84
:1010E0004404A2F13003092BF5D906941EE747F01A
:1010F000800799F8002017E7002940F0AE84C54B1F
:101100000A93BC0640F1C081089C073424F0070311
:10111000D3E9004503F108010891FB0740F149823A
:1011200054EA050300F0458230238DF838308DF8FD
:10113000392047F00207022332E0089B1E684FF077
:1011400000028DF837201C1D002E00F0F983B8F145
:10115000FF3F00F03D8442460021304601F020FD73
:10116000002800F04D84831B05939DF837300894C8
:10117000039709934FF00008F1E247F0200799F830
:101180000020D1E6089AA34B14680A93043247F66C
:101190003003ADF8383047F00207089200250223EB
:1011A0004FF00002B8F1FF3F8DF837203FF436AF23
:1011B0000022099227F08002039254EA05027FF48C
:1011C00030AFB8F1000F40F0D783002B40F03183EF
:1011D00017F00103059300F07A832CAE302306F854
:1011E000413DBCE2002940F03C84089AB80652F820
:1011F000043B089200F17A83F90600F1B9837A067C
:1012000040F1B683BDF810201A8058E699F8002006
:101210006C2A03BF99F8012047F0200709F1010962
:1012200047F0100780E647F0400799F800207BE67A
:10123000002940F00E84BB0640F13B81089C073436
:1012400024F00703D3E9004503F108020892002CBB
:1012500075F10003C0F204839DF837300993B8F1AB
:10126000FF3F00F0D9820123A4E7089B4FF0000163
:101270001A688DF837100433012101918DF8482048
:101280000893059112AE03974FF00008039B13F0EB
:10129000020302D0019A02320192DDE91012039C8E
:1012A000481C14F084048446099438D1069C019D9E
:1012B000641B002C33DD102C574D40F39583DC4626
:1012C00010279B46634607E001F1020E08330146F2
:1012D000103C102C11DD481C103207281192C3E974
:1012E00000571090F0DD002A40F04582103C102C91
:1012F00011464FF0010E5346EDDC19465B468B4616
:101300002244BEF1070F1192CBE90054CDF840E022
:1013100000F356820BF1080B0EF1010C71469DF89B
:1013200037400BF10800002C00F0748101320DF100
:1013300037040121BCF1070FCDE910C2CBE9004110
:1013400040F34E82002A40F05581002B40F04E823F
:101350008C461EA81146D346099B802B00F0748151
:10136000059BA8EB0305002D32DD102D2B4C40F31F
:101370002D831027DDF81C8007E001F1020C0BF132
:10138000080B1946103D102D11DD4B1C1032072B98
:101390001192CBE900471093EFDD002A40F01C8149
:1013A000103D102D4FF0010C1146D346EDDC0BF132
:1013B00008012A44BCF1070F1192CBE90045CDF892
:1013C00040C000F31F820CF1010C01F108008B46B4
:1013D000059BCDF840C01A44BCF1070F1192CBE930
:1013E000006340F36F81002A40F06481039B1092F8
:1013F0005D0738D5069B01995C1A002C33DD5046F9
:10140000102C109F044D40F3F9821026DDF81C804B
:101410000CE000BFFC6800001869000028690000AB
:10142000BB1C08300F46103C102C11DD791C10320B
:1014300007291192C0E900561091F1DD002A40F011
:10144000A781103C102C4FF0010317465046EDDCED
:101450002244072B1192C0E90054109340F33B81C2
:10146000002A40F05C82049B069A01998A42ACBF34
:101470009B185B1804933DE1002940F0E182AC4BDE
:101480000A93BC063FF540AE089BF80653F8044BA0
:10149000089300F1DD81790640F1DA81A4B20025DC
:1014A0003BE6002940F0D28247F01007BB063FF52B
:1014B000C5AE089BFE0653F8044B089300F1CA81A1
:1014C0007D0640F1C78124B2E517C0E6089B99F874
:1014D00000201C680694002C03F10403C0F215825E
:1014E000089321E547F0010799F800201CE599F8D9
:1014F000002000287FF418AD0121202014E599F880
:10150000002047F004070FE599F8002001212B2067
:101510000AE599F800202A2A09F1010400F08582E1
:10152000A2F13003092BA1464FF000083FF6FEACB4
:1015300019F8012B08EB880803EB4808A2F13003E7
:10154000092BF5D9F2E4089BFE0653F8044B0893E7
:1015500040F1C6810025012322E6089A52F8044B87
:10156000089217F0100200F0B481002518E6AA894D
:1015700002F01A030A2B7FF498AC0299B1F90E30ED
:10158000002BFFF692AC4B6ED80704D4920502D420
:10159000886DFEF7C7FE23464A460299079800F079
:1015A00067FA049004982DB0BDE8F08F00F00EFCAF
:1015B00059E40223F4E5002940F04582002A00F0B6
:1015C000A18001238DF848204FF0000201938DF88F
:1015D0003720059312AE56E60FAA02994046FFF750
:1015E000F9FB002840F09480DDE91012D34601F1A8
:1015F000010CC7E60FAA029907980B93FFF7EAFBC5
:10160000002840F08580DDE910120B9B01F1010CF0
:101610001EA8D346002B3FF49FAE02320EAC02212F
:10162000BCF1070FCDE910C2CBE9004140F3E480E3
:10163000002A40F01D81099B802B1EA84FF0010C51
:101640001146D3467FF48CAE069B019C1D1B002DDA
:101650007FF786AE102D374C40F3DB81102706E074
:10166000881C0BF1080B1946103D102D11DD4B1C89
:101670001032072B1192CBE900471093F0DD002ABE
:1016800040F09280103D102D4FF001001146D346DE
:10169000EDDC0BF108072A4407281192CBE900453D
:1016A000109000F3F48000F1010C0146BB4607F1F5
:1016B000080055E60FAA02990798FFF78BFB38BB85
:1016C000119A5046039B5C0705D5069B01995C1A4D
:1016D000002C3FF795AE049B069901988142ACBF60
:1016E0005B181B1804932AB10FAA02990798FFF7F9
:1016F00071FB68B90023109399F80030D346002B92
:101700007FF4E2AB119B002B40F086810023109305
:10171000029B5A6E9B89D10702D49A0540F1F98049
:101720005B063FF5C8AC04982DB0BDE8F08F00BF54
:10173000E8680000286900000A985646230904F06A
:101740000F0143EA05732A091C461546435C06F857
:10175000013D54EA0503F1D1AAEB06030593059B6D
:10176000099A4345B8BF43460193002A3FF48EAD22
:10177000013301938AE50FAA02990798FFF72AFB24
:101780000028C5D1DDE91012534601F1010E9FE595
:101790000FAA02994046FFF71DFB0028B8D1DDE9EA
:1017A000107250467B1C3EE60FAA02990798FFF77D
:1017B00011FB0028ACD1DDE91012D346481C53E7D9
:1017C000002A40F0F3809DF83710002900F0958042
:1017D00001210DF137001C900A461D918C461EA870
:1017E000614683460CF1010C083013E70EA8022273
:1017F000CDE91C028C461EA8614683460CF1010C03
:101800000830A9E5002A4AD1059A1D9201211192BA
:101810001C9610911EA855E70397002D08BF0A2CAF
:1018200080F0AE802CAE3034012306F8414D059394
:1018300095E7CDF81480564691E70FAA02990798CC
:10184000FFF7C8FA00287FF463AFD346FFF758BB11
:10185000002562E4E517002C75F10003BFF6FCAC2F
:101860002D23644265EB45058DF837300993F6E486
:101870000FAA02990798FFF7ADFA00287FF448AF46
:10188000DDE910121EA801F1010CD34664E5002A1F
:101890005FD11EA84FF0010C1146D34660E50FAA98
:1018A00002990798FFF796FA00287FF431AFDDE937
:1018B00010121EA801F1010CD34689E5029DA86D06
:1018C000FEF72EFDB5F90C108AB2FFF7D6BA5646D0
:1018D00045E717F040031CBF1346A4B200255FE4A0
:1018E0007D0648BFA4B20025012359E4049A10469E
:1018F000D117C3E90001FFF7E2BA002B76D11146F8
:101900001EA84FF0010CD3462AE5644206940893C2
:10191000F7E5029CA06DFEF705FDA38900E70FAA7D
:1019200002990798FFF756FA00287FF4F1AE119A52
:10193000D1E6906DFEF7F6FC4FF0FF330493F2E62C
:101940004346062B28BF0623059308940193474E70
:1019500099E40FAA02990798FFF73CFA00287FF450
:10196000D7AEDDE910121EA801F1010CD346F7E451
:10197000049A1A60FFF7A3BA012B7FF455AB51E725
:101980005646204629460A22002304F0FFFC303246
:1019900006F8012D2046294600230A2204F0F6FC11
:1019A00004460D4654EA0503EBD1D5E60FAA029989
:1019B00007980B93FFF70EFA00287FF4A9AEDDE934
:1019C0001012D34601F1010C0B9BA8E40146F0E490
:1019D00030460894039701F053FC9DF8373005908A
:1019E00009934FF00008BAE6864689E40EA9022260
:1019F000CDE91C121EA84FF0010CFDE67B1C27E56B
:101A00009DF83730CDF814800993089403978046E9
:101A1000A5E6074660463EE6079802990FAAFFF73B
:101A2000D9F900283FF472AE72E6089D99F80120BA
:101A30002B6843EAE3782B1DA1460893FFF774BA9D
:101A40008DF837001BE58DF83700B7E58DF83700C6
:101A50002AE58DF83700FFF7EEBB8DF83700FFF76A
:101A60004EBB8DF83700FFF7C0BB00BF1069000008
:101A70002DE9F0410C46ADF58D6D8989666EE589DD
:101A8000199621F002010646E069ADF80C101746E0
:101A90004FF48061626AADF80E5098461AAD00238B
:101AA000079016A809920693009504950291059156
:101AB000FEF732FC43463A4669463046FFF7C6F920
:101AC000051E07DB3046694600F024F9002818BFE0
:101AD0004FF0FF35BDF80C305B0603D5A38943F00A
:101AE0004003A3811698FEF719FC28460DF58D6D6D
:101AF000BDE8F08138B5314B1B6805460C4613B183
:101B00009A6B002A3AD0B4F90C2093B218070CD57E
:101B10002069A8B113F0010220D0636900225B4262
:101B2000A361A26000B3002038BDD9063ED5580796
:101B300028D4206942F00803A3819BB20028E9D190
:101B400003F42072B2F5007FE4D02846214600F06D
:101B50001FFDA389206913F00102DED1990758BF48
:101B60006269A2600028DED1B4F90C301A06DBD518
:101B700043F04003A3814FF0FF3038BD184600F01A
:101B800025F9C0E7216B51B104F14003994204D01B
:101B9000284600F025FAB4F90C2000232363002323
:101BA0002069636022F024022060C3E742F0400213
:101BB00009232B604FF0FF30A28138BD00000020C8
:101BC000B1F90C309AB22DE9F0410C46110780466C
:101BD00044D4626843F40063002AA38159DDA56AF6
:101BE000002D53D000229BB2D8F80060E169C8F8FC
:101BF000002013F4805240F0838001234046A84720
:101C0000421C4AD0A389A56AE1695B0705D56268D1
:101C1000236B801A0BB1E36BC01A024600234046C7
:101C2000A847471C45D0B4F90C302269226023F440
:101C300000630022A381DB04626000D52065216B74
:101C4000C8F8006011B304F14003994202D0404645
:101C500000F0C6F900202063BDE8F0812669AEB12E
:101C60002568266092070CBF63690023AD1BA36043
:101C70000AE02B463246676AE1694046B8470028C9
:101C8000A5EB000506442BDD002DF2DC0020BDE8AD
:101C9000F081E26B002AA2DCF8E7D8F80030002BD4
:101CA000B0D01D2B01D0162B2CD1C8F8006000201D
:101CB000EDE7D8F800101D291AD8154BB4F90C20FF
:101CC000CB40DB4313F0010314D1256922F40062F9
:101CD000C4E90053D504A281B1D50029AFD1ADE745
:101CE000A38943F04003A3814FF0FF30BDE8F081AA
:101CF000B4F90C2042F04002A2814FF0FF30C6E759
:101D0000206D82E7A38943F04003A381BFE700BFB2
:101D10000100402038B50D46044608B1836BA3B1DD
:101D2000B5F90C00B8B16B6EDB0701D481051AD58B
:101D300020462946FFF744FF6B6EDA07044602D4BB
:101D4000AB899B050AD5204638BD00F03FF8B5F9B0
:101D50000C000028E7D10446204638BDA86DFEF7E8
:101D6000E1FA204638BDA86DFEF7DAFAE0E700BFD9
:101D700010B5002304468181C281C0E9003383602D
:101D80004366C0E904338361194608225C30FEF7DC
:101D900079FA07480749084A084BE362C4E9074053
:101DA000C4E9091204F15800BDE81040FEF7B4BAC6
:101DB000D5310000F9310000353200005532000005
:101DC000014900F07FBB00BFC934000010B50446D4
:101DD0001248FEF7A5FAA26BD2B904F53B7310487E
:101DE000C4F8E8320321C4F8E022E063C4F8E41246
:101DF00060680421FFF7BCFF01220921A068FFF7FA
:101E0000B7FF02221221E068FFF7B2FF0123A363AC
:101E10000248BDE81040FEF785BA00BF0414002058
:101E2000C11D00000148FEF77BBA00BF1814002056
:101E30000148FEF777BA00BF181400202DE9F047DB
:101E400082B081468846144600F066FB012803D123
:101E500008F1FF33FE2B33D9424604F15C0301A99C
:101E6000484601F0D3FA421C06462FD020B39DF815
:101E700004C000250DF1040A09E023685A1C226001
:101E800083F800C00135B54216D215F80AC0A36820
:101E9000013B002BA360F0DAA769BB4261462246F2
:101EA000484602DBBCF10A0FE7D101F057FA431CA8
:101EB000E8D102B0BDE8F087404602B0BDE8F08747
:101EC0005FFA88FC06468DF804C0D2E7A38943F088
:101ED0004003A38102B0BDE8F08700BF30B50546DE
:101EE000506EB2F90C30C007144683B09AB201D4D8
:101EF00090051CD5900406D4626E43F4005342F45E
:101F00000052A381626628462246FFF797FF636E60
:101F1000DA07054602D4A3899B0502D5284603B0FB
:101F200030BDA06DFEF7FEF9284603B030BDA06DB0
:101F30000191FEF7F5F9B4F90C3001999AB2D9E79D
:101F4000F8B5244F0C46064600F078FFBB685D6884
:101F5000C4F57E610F3125F00305294421F47F612A
:101F600021F00F01A1F58054B4F5805F07DB00215B
:101F7000304601F01DF9BB682B44984204D030462E
:101F800000F062FF0020F8BD6142304601F010F918
:101F900001300DD0104BBA6819682D1B45F00105B2
:101FA0003046091B5560196000F04EFF0120F8BD56
:101FB0000021304601F0FCF8BA68831A0F2BDEDDF1
:101FC000064C0549246843F00103001B5360086078
:101FD000D5E700BF9C050020D0120020A4090020F6
:101FE000002953D0F8B50C46064600F027FF54F8F8
:101FF00004CC714F2CF00101A4F108056B18B868EE
:102000005A68984222F0030253D01CF0010F5A6024
:1020100003EB02003BD154F808CC4068A5EB0C055B
:1020200007F1080EAC687445614400F0010075D0FA
:10203000D5F80CC0C4F80CC0CCF8084060B341F02F
:1020400001036B606950B1F5007F50D34B0A042B3C
:1020500070D88B0903F13904E40003F13802381910
:102060003B590838984278D05A6822F003028A42D5
:1020700071D99B689842F7D1C368C5E902039D6096
:10208000C5603046BDE8F84000F0DEBE70474068ED
:1020900000F001000028D2D19868484C1144A042B9
:1020A00041F0010262D0DB68C36098606A606950E9
:1020B000C9E71CF0010F0A4407D154F8083CED1A97
:1020C0001A44D5E90213CB6099603D4B1B6842F07E
:1020D000010193426960BD6004D83A4B30461968EB
:1020E000FFF72EFF3046BDE8F84000F0ADBEC9084E
:1020F00078684A1C012389108B40034307EBC20117
:1021000057F832007B600839C5E9020147F83250C0
:10211000C5603046BDE8F84000F096BE002845D1C5
:102120000A44D3E9021342F00100CB609960686071
:10213000AA50D7E7142B08D9542B1ED80B0B03F148
:102140006F04E40003F16E0289E703F15C04E4002C
:1021500003F15B0283E718468EE79310796801224A
:1021600002FA03F30B437B60034686E7C7E9045595
:10217000C5E902006A606950B4E7B3F5AA7F06D8E2
:10218000CB0B03F17804E40003F1770267E740F238
:102190005452934206D88B0C03F17D04E40003F102
:1021A0007C025CE74FF47E747E2258E741F0010226
:1021B0006A60196096E700BF9C050020A405002016
:1021C000A8090020001300209368002B00F0E48091
:1021D0002DE9F04FB1F90C309BB20C46190783B0D2
:1021E0008246904635D522699AB313F00202D8F898
:1021F00000603DD00027D4F824B0D4F81CC0DFF82C
:10220000C0923D464D452B463A4628BF4B46614657
:102210005046D5B1D847002840F3C680D8F80830DA
:102220001B1A07442D1AC8F80830002B00F0B080A4
:10223000D4F81CC0D4F824B04D452B463A4628BFEC
:102240004B4661465046002DE4D1D6E9007508366C
:10225000D8E721465046FFF74DFC002840F02A8180
:10226000B4F90C30D8F800609BB213F00202C1D16F
:1022700013F001095DD1A76820684D46002D54D0A8
:102280009A0540F19B80AF42BB4600F2D88013F420
:10229000906F2FD0D4E9041707EB4707A0EB010B91
:1022A00007EBD777681C7F105844B8423A4684BF82
:1022B00007463A465B0540F1D3801146504600F090
:1022C000B1F9002800F0F0805A462169019000F031
:1022D000B7FCA289019B22F4906242F08002A281A5
:1022E000A7EB0B0203EB0B00676123612060A26088
:1022F0002F46AB465A46494600F03CFDA26823688B
:10230000D21B5B442F46A26023600025D8F808301A
:10231000DB1BB944C8F80830002B39D0B4F90C30B5
:10232000A76820689BB2002DAAD1D6E9009508368F
:10233000A4E733469146104617464E469B46002F6B
:102340006BD0002871D0D4E904122068B9454B46FF
:1023500028BF3B46884203D9A5681544AB4271DCCF
:102360009A4200F393801346656AE169324650460B
:10237000A847051E18DDB9EB05090FD00120D8F8D4
:1023800008305B1B2E447F1BC8F80830002BD6D1C9
:10239000002003B0BDE8F08F002070472146504672
:1023A000FFF7B8FC0028EAD0B4F90C3043F0400342
:1023B0004FF0FF30A38103B0BDE8F08F2369834263
:1023C00015D36169A94212D83C4B676A9D4294BFFC
:1023D0002B466FF000434A4693FBF1F3504601FB56
:1023E00003F3E169B847071EDEDDED1B8EE7AF4260
:1023F00028BF2F463A46494600F0BCFCA368226835
:10240000DB1B3A44A3602260002BEED121465046EC
:10241000FFF780FC0028E8D0C6E70BF1080353E97A
:1024200002679B460833002FF9D03A460A2130460E
:1024300000F0B6FB38B30130A0EB060983E72F4666
:10244000AB4657E731462A4600F094FC23682B44FC
:10245000236021465046FFF75DFC00288BD0A3E7A0
:10246000504600F0F7FC034600287FF439AF21699D
:102470005046FFF7B5FDB4F90C300C2223F0800371
:10248000CAF8002092E707F101095CE71A463146D5
:10249000019300F06FFC019BA1682268C91A1A44DD
:1024A000A16022601D4666E70C23CAF80030B4F92B
:1024B0000C307BE74FF0FF306BE700BFFEFFFF7F84
:1024C00000FCFF7F2DE9F84310F538771FD08846D0
:1024D00006464FF00009D7E90154013D11D4A38904
:1024E000012B05F1FF352146304606D9B4F90E30EF
:1024F000013302D0C04749EA00096B1C04F16804AB
:10250000EDD13F68002FE6D14846BDE8F883B946D3
:102510004846BDE8F88300BF044B054A1B685B6B67
:10252000002B08BF134693F82801704700000020D5
:102530003004002070B50C46B1F90E10002996B099
:1025400015461E460FDAA289002312F08000336080
:1025500004D14FF480632B6016B070BD4022184642
:102560002A6016B070BD6A4601F016F80028EADB52
:10257000019B03F47043A3F50053B3FA83F35B09A3
:102580004FF480624FF4006033602A6016B070BD73
:102590008A8992070B4606D501F1430201211A6090
:1025A000C3E90421704770B582B001AB6A460C469E
:1025B0000546FFF7BFFF00990646284600F032F8AF
:1025C000B4F90C30D8B11649E963019A009920603A
:1025D00043F08003A381C4E904011AB93343A38102
:1025E00002B070BD2846B4F90E1000F0E9FFA0B1AA
:1025F000A38923F0030343F001031BB2EEE79A051E
:10260000EED423F0030304F1430243F0020301215B
:10261000A3812260C4E90421E2E7B4F90C30DDE7CC
:10262000C11D00002DE9F04F01F10B05162D83B0FF
:10263000064623D8102900F2B98000F0FFFB1025D0
:1026400018230220C54F3B44A3F108025C68944262
:1026500000F06681636823F003032344D4E9025148
:102660005A68E96042F001028D6030465A6000F01D
:10267000EBFB0834204603B0BDE8F08F35F00705CA
:1026800000F19480A94200F2918000F0D7FBB5F5EB
:10269000FC7FC0F083816B0A00F08F80042B00F276
:1026A0004681AB0903F1390003F1380CC300AB4F8D
:1026B0003B44A3F108015C68A14206D10CE0002A6A
:1026C00080F21D81E468A14206D0636823F0030311
:1026D0005A1B0F2AF3DD60463C69DFF894C264455B
:1026E00071D0636823F003035A1B0F2A00F344815F
:1026F000002AC7E904CC80F22681B3F5007F80F080
:102700006981DB08591C7A6857F83180C4F8088061
:102710004FF0010E9B100EFA03F307EBC10E1343AB
:10272000AEF10802E2607B6047F83140C8F80C4027
:102730008210012494409C424BD81C4206D120F0C8
:10274000030064001C4200F10400FAD007EBC0094A
:10275000CE468046DEF80C309E4507D122E1002AA5
:1027600080F22981DB689E4500F01C81596821F0C8
:1027700003014A1B0F2AF2DDD3E9028E5C1945F0F2
:1027800001055D6042F00105C8F80CE03046CEF866
:102790000880C7E90444C4E902CC65605A5001933B
:1027A00000F052FB019B03F1080463E700240C23B3
:1027B0002046336003B0BDE8F08F4FF40073402033
:1027C0004FF03F0C73E77B688210012494409C42D9
:1027D000B3D9BC68636823F00309A94503D3A9EB07
:1027E00005030F2B7BDC5E4BDFF888A11A68DAF853
:1027F0000030013305EB020800F0488108F58058ED
:1028000008F10F0828F47F6828F00F084146304689
:1028100000F0CEFCB0F1FF3F834600F0048104EBF2
:102820000900584500F2FD804E4A13684344136086
:1028300000F04D81DAF8001001311BBFABEB000056
:102840001B18CAF800B013601BF0070300F03481B6
:10285000C3F10801C3F580538B440833D844C8F34F
:102860000B08A3EB080841463046019200F0A0FC9B
:10287000431C019A00F04681A0EB0B01414441F05A
:1028800001011368C7F808B04344BC42CBF80410F8
:10289000136015D0B9F10F0F40F230816068A9F1D3
:1028A0000C0121F0070100F0010004EB010C0843CA
:1028B0004FF0050E0F296060CCE901EE00F23A817D
:1028C000294A2A481168BC688B42016888BF136096
:1028D00062688B4222F0030288BF0360A7E062199E
:1028E00043F0010345F0010565603046BA6053606E
:1028F00000F0AAFA0834204603B0BDE8F08F234464
:10290000E1685A68A56842F00102E96030468D60CE
:102910005A6000F099FA0834204603B0BDE8F08F01
:10292000DC68A34208BF02303FF4D6AE92E6142B17
:1029300071D9542B00F2AD802B0B03F16F0003F122
:102940006E0CC300B3E6234430465A6842F00102DD
:102950005A60083400F078FA8CE600BF9C0500202D
:1029600000130020D0120020F8120020FC120020DA
:10297000A4050020A4090020611945F0010E42F0D1
:102980000105C4F804E03046C7E90411C1E902CCEE
:102990004D60E25000F058FA08346BE6E80805F1A3
:1029A00008034FE608F1010818F0030F0EF1080EB6
:1029B0007FF4D0AE52E019441C464A68DB6854F8F4
:1029C000085F42F001024A603046EB609D6000F013
:1029D0003BFA4FE65A0A042A35D9142A6FD802F175
:1029E0005C01C9005B3207EB010E7958AEF1080EAD
:1029F0008E4558D04A6822F003029A4202D989686B
:102A00008E45F7D1D1F80CE07B68C4E9021ECEF800
:102A10000840CC608CE603F15C0003F15B0CC30062
:102A200045E6BC4272D0BC68626822F0030295425F
:102A3000A2EB050302D80F2B3FF751AF304600F051
:102A400003FA002416E69A0902F13901C900383266
:102A5000C9E7D9F80090994540F0838010F0030F42
:102A6000A9F1080300F1FF30F3D17B6823EA0403E6
:102A70007B6064009C423FF6ACAE1CB9A9E66400E2
:102A800008F104081C42FAD040465FE608F110083D
:102A9000BCE6B3F5AA7F26D8EB0B03F1780003F16F
:102AA000770CC30003E67B6892104FF0010808FA28
:102AB00002F213437B60A8E74FF48053CEE6542A1A
:102AC00029D81A0B02F16F01C9006E328BE7C0F3EF
:102AD0000B0100297FF4AEAE09EB0802B96842F0A1
:102AE00001024A60ECE640F2545293421CD8AB0C0F
:102AF00003F17D0003F17C0CC300D8E50123CBF882
:102B000004309BE701214FF00008BAE6164A13682B
:102B1000434413608EE6B2F5AA7F14D8DA0B02F1B3
:102B20007801C90077325EE74FF47E737F204FF063
:102B30007E0CBCE504F1080130460192FFF750FA23
:102B4000019A1368BCE640F254518A4205D89A0CA7
:102B500002F17D01C9007C3245E74FF47E717E228F
:102B600041E77B6885E700BFD012002082B049B101
:102B70005AB16BB113780B601278101C18BF01208A
:102B800002B0704701A9002AF3D1104602B0704785
:102B90006FF00100F4E700BF00000000000000003B
:102BA00001F0FF01102A2BDB10F0070F08D010F8FE
:102BB000013B013A8B422DD010F0070F42B3F6D102
:102BC000F0B441EA012141EA014122F007047FF01B
:102BD00000070023F0E80256083C85EA010586EA72
:102BE000010685FA47F5A3FA87F586FA47F6A5FAAE
:102BF00087F68EB9EED1F0BC01F0FF0102F00702BA
:102C000032B110F8013B013A83EA010313B1F8D164
:102C10000020704701387047002D06BF3546033845
:102C2000073815F0010F07D1013015F4807F02BF7E
:102C3000013015F4C03F0130F0BC0138704700BFCF
:102C4000844641EA000313F003036DD1403A41D3B7
:102C500051F8043B40F8043B51F8043B40F8043B76
:102C600051F8043B40F8043B51F8043B40F8043B66
:102C700051F8043B40F8043B51F8043B40F8043B56
:102C800051F8043B40F8043B51F8043B40F8043B46
:102C900051F8043B40F8043B51F8043B40F8043B36
:102CA00051F8043B40F8043B51F8043B40F8043B26
:102CB00051F8043B40F8043B51F8043B40F8043B16
:102CC00051F8043B40F8043B51F8043B40F8043B06
:102CD000403ABDD2303211D351F8043B40F8043BA6
:102CE00051F8043B40F8043B51F8043B40F8043BE6
:102CF00051F8043B40F8043B103AEDD20C3205D3B6
:102D000051F8043B40F8043B043AF9D2043208D0AD
:102D1000D2071CBF11F8013B00F8013B01D30B881F
:102D200003806046704700BF082A13D38B078DD0FD
:102D300010F003038AD0C3F10403D21ADB071CBFCF
:102D400011F8013B00F8013B80D331F8023B20F839
:102D5000023B7BE7043AD9D3013A11F8013B00F872
:102D6000013BF9D20B7803704B7843708B788370FA
:102D7000604670478842F0B40DD98B1883420AD957
:102D8000841832B1224613F8014D02F8014D9942E0
:102D9000F9D1F0BC70470F2A49D940EA01039B07DB
:102DA00047D1A2F110031B0901F1200707EB03171C
:102DB00001F1100400F1100554F8106C45F8106C86
:102DC00054F80C6C45F80C6C54F8086C45F8086C19
:102DD00054F8046C45F8046C1034BC4205F110053D
:102DE000EAD1013302F00F051B01032D19440344FE
:102DF00021D91F1F0E462C46043C56F804CB47F839
:102E000004CF032CF8D82C1F24F0030404342344EB
:102E1000214402F00302002ABBD0013B0A4411F80E
:102E2000014B03F8014F9142F9D1F0BC70470346C2
:102E3000F1E70346F1E72A46EDE700BF0148FDF759
:102E40006FBA00BF081400200148FDF76BBA00BF3D
:102E5000081400202DE9F04F924683B0002900F0BD
:102E6000A1800D4680460AF10B04FFF7E7FF55F8F5
:102E7000042C162C22F00306A5F108073ED81024D6
:102E80002146A2453FD88E4207EB060974DAC74BAC
:102E90009868484500F0AA80D9F8040020F00103A2
:102EA0004B445B68DB0740F18380D20734D5514641
:102EB0004046FFF7B7FB8246E0B155F8043C23F0EB
:102EC00001033B44A0F10802934200F0F980321F55
:102ED000242A00F20781132A296800F2E6800346BB
:102EE0002A4619605168596092689A60294640469E
:102EF000FFF776F84046FFF7A7FF4FE024F00704FE
:102F0000002C2146BDDA4FF0000A0C235046C8F8C9
:102F1000003003B0BDE8F08F55F8083CA7EB030B79
:102F2000DBF8042022F00302B3188B42BFDBDA4641
:102F3000DBF80C105AF8080F321F242AC1600BEB83
:102F40000309886000F2C680132A296840F2C08015
:102F5000CBF808106968CBF80C101B2AA96800F29E
:102F6000D8800BF110020835116069685160A968BA
:102F700091601E465F4655467B68321B0F2A03F060
:102F8000010322D833437B60D9F8043043F00103B6
:102F9000C9F804304046FFF757FFAA46504603B031
:102FA000BDE8F08F114603B0BDE8F04FFFF73ABB24
:102FB00020F0030033188B4261DBD9E902121E4670
:102FC000CA6007EB03099160D6E73919234342F041
:102FD00001027B604A60D9F8043043F001030831F4
:102FE000C9F804304046FEF7FBFFD3E7406820F005
:102FF0000309B14404F11000814577DAD2073FF5A7
:1030000056AF55F8082CA7EB020BDBF8042022F092
:1030100003029144484587DCDA46DBF80C105AF885
:10302000080F321F242AC160886000F2A180132A91
:10303000296840F29B80CBF808106968CBF80C1027
:103040001B2AA96800F29B800BF110020835116061
:1030500069685160A96891600BEB0401A9EB040257
:1030600042F0010299604A60DBF8043003F001038A
:103070001C434046CBF80440FFF7E6FE8EE7D3073B
:103080003FF515AF55F8083CA7EB030BDBF8042020
:1030900022F00302104483198B42FFF645AFD9E9B1
:1030A0000212DA46CA60916042E701606B684360D1
:1030B0001B2A3AD805F1080200F10803A96810E7B5
:1030C00050F8043C23F003031E4407EB060953E7C2
:1030D000524649E7294650461E465F46FFF74AFEDC
:1030E000554649E72946FFF745FEFFE62744A9EB89
:1030F000040949F001029F607A6055F8043C03F02E
:1031000001031C43404645F8044CFFF79DFEAA46C8
:1031100044E7CBF81010E968CBF81410242A10D03B
:1031200029690BF1180210351EE7AB688360EB6864
:10313000C360242A10D005F1100200F110032969A0
:10314000CFE62A69CBF818206A69CBF81C20A96958
:103150000BF12002183507E72B6903616B694361A6
:10316000A96905F1180200F11803BAE652466EE7A4
:10317000294650460193FFF7FDFD019B6CE7CBF814
:103180001010E968CBF81410242A04D029690BF137
:10319000180210355BE72A69CBF818206A69CBF86A
:1031A0001C20A9690BF12002183550E79C0500206E
:1031B00038B5074C0023054608462360FDF712FB8F
:1031C000431C00D038BD2368002BFBD02B6038BDDA
:1031D0006416002010B50C46B1F90E1000F018FA74
:1031E000002803DB236D0344236510BDA38923F46A
:1031F0008053A38110BD00BF2DE9F0411646B1F9FF
:103200000C201F46D3050C460546B1F90E1007D514
:103210000022022300F0E6F9B4F90C20B4F90E10F4
:1032200022F48052A2813B4632462846BDE8F04156
:1032300000F022B910B50C46B1F90E1000F0D2F929
:10324000A389421C0EBF23F4805343F480532065AE
:10325000A38110BDB1F90E1000F024B900000000E8
:10326000000000000000000000000000000000005E
:10327000000000000000000000000000000000004E
:1032800090F800F06DE9024520F007016FF0000CA6
:1032900010F0070491F820F040F049804FF000044E
:1032A0006FF00700D1E9002391F840F000F1080029
:1032B00082FA4CF2A4FA8CF283FA4CF3A2FA8CF361
:1032C0004BBBD1E9022382FA4CF200F10800A4FAC8
:1032D0008CF283FA4CF3A2FA8CF3E3B9D1E904231C
:1032E00082FA4CF200F10800A4FA8CF283FA4CF353
:1032F000A2FA8CF37BB9D1E9062301F1200182FA0D
:103300004CF200F10800A4FA8CF283FA4CF3A2FA12
:103310008CF3002BC6D0002A04BF04301A4612BA20
:10332000B2FA82F2FDE8024500EBD2007047D1E923
:10333000002304F00305C4F100004FEAC50514F0B2
:10334000040F91F840F00CFA05F562EA05021CBF83
:1033500063EA050362464FF00004A9E7F8B50D469D
:103360001446064610B1836B002B43D0B4F90C20F1
:10337000A369A36091B208071BD52369CBB1EDB255
:1033800089042F4622D522686169D31A994229DD22
:103390000133A168501C0139A16020601570626979
:1033A0009A422AD0A389DB0701D50A2D25D03846B9
:1033B000F8BD21463046FEF79DFB20BBB4F90C203A
:1033C000236991B2EDB289042F46DCD4616E42F4D8
:1033D000005221F40051A281226861666169D31A0A
:1033E0009942D5DC21463046FEF794FC58B9226854
:1033F0000123CEE7FEF7EAFCB8E721463046FEF7A8
:1034000089FC0028D3D04FF0FF37D0E7F0B5114C3E
:10341000246885B00646646B1F4651B10E4D002CE2
:1034200008BF2C46D4F8E040A047431C0CD005B0A0
:10343000F0BD094A002C08BF14460A46D4F8E04003
:1034400001A9A047431CF2D100228A233A603360CD
:1034500005B0F0BD000000203004002021B1FF2A9B
:1034600004D80A7001207047084670478A23036019
:103470004FF0FF30704700BF70B50D46084C114645
:1034800006461A46284600232360FDF789F9431CA7
:1034900000D070BD2368002BFBD0336070BD00BF2F
:1034A0006416002038B5074C002305460846236003
:1034B00000F03EF9431C00D038BD2368002BFBD040
:1034C0002B6038BD6416002070B5002948D0054631
:1034D0000C4610B1836B002B48D0626EB4F90C30EF
:1034E000D00740D4990530D521462846FEF768FB21
:1034F000E36A064633B1E169284698470028B8BF19
:103500004FF0FF36A3891A063CD4216B41B104F178
:103510004003994202D02846FEF762FD0023236350
:10352000616C21B12846FEF75BFD00236364FEF762
:1035300079FC636E0022DB07A2811FD5A06DFCF72A
:10354000EDFEFEF775FC304670BDA06DFCF7E8FEA1
:10355000B4F90C30002BC7D1666E16F0010616D0F8
:103560000026304670BD002BFAD0BDE7FEF72EFCDA
:10357000626EB4F90C30D007F5D4B3E7A06DFCF758
:10358000D1FEDBE721692846FEF72AFDBDE7A06DE5
:10359000FCF7C8FE304670BD38B50B46074C0546F3
:1035A0001146184600232360FDF727F9431C00D07D
:1035B00038BD2368002BFBD02B6038BD641600207B
:1035C00038B5074C002305460846236000F0E6F8AE
:1035D000431C00D038BD2368002BFBD02B6038BDC6
:1035E0006416002070B50D46084C114606461A4672
:1035F00028460023236000F099F8431C00D070BDDA
:103600002368002BFBD0336070BD00BF6416002020
:1036100070B50D46084C114606461A46284600234A
:103620002360FDF7F6F8431C00D070BD2368002B23
:10363000FBD0336070BD00BF641600200B4B1B68CD
:1036400010B504460BB19A6B4AB1132C0BD808483D
:1036500050F83430013306D000EBC40010BD1846DA
:10366000FEF7B4FBF1E7002010BD00BF0000002012
:103670000413002070B503F009F813240546002652
:1036800020463146ABBE04464FF0FF302C6070BD83
:10369000F0B583B00D461446FFF7D0FF00283DD0AB
:1036A000022C34D8012C06461FD0022C03680FD000
:1036B0006F46CDE900350A2420463946ABBE0446A4
:1036C000631C18D0002C1FDB7560284603B0F0BDCA
:1036D00002AF0C2447F8083D20463946ABBE0446ED
:1036E000611C0CD025443368E3E740682D180ED4E4
:1036F00033686F46DDE7FFF7BDFF0446E2E7FFF7FB
:10370000B9FF421C0446EDD14FF0FF35DDE702F072
:10371000BDFF162303604FF0FF35D6E702F0B6FF7A
:10372000092303604FF0FF35CFE700BFFFF7B0BFBD
:1037300070B582B00446FFF781FF28B3013C012C2D
:10374000064611D902AD336845F8043D02242046EF
:103750002946ABBE0446631C204610D010B94FF07A
:10376000FF33336002B070BD0B4B9A681B699A42FD
:10377000E8D14FF0FF330360002002B070BDFFF7C7
:1037800079FF0028EBD0EDE702F080FF092303600A
:103790004FF0FF30E6E700BF0413002070B5FFF7DD
:1037A0004DFF044690B1092528462146ABBE04468C
:1037B000012C09D002F06AFF132506460024284692
:1037C0002146ABBE05463560204670BD02F05EFF67
:1037D00009220260204670BD80B582B000AF074B61
:1037E0001B68C8331B6806489847786079680020D2
:1037F00001F032FB00BF0837BD4680BD500000011C
:103800000000054080B483B000AF78600B467B8039
:1038100013467B707B78002B14BF01230023D9B2A1
:103820007B6803F070427B685B0123F07E4323F0EA
:103830001F0313437A889200134343F000738AB244
:103840001A8000BF0C37BD465DF8047B704700004E
:1038500090B587B000AF786039607B681B6A7B6188
:10386000254B1B6838331B681A467B691B7D19463C
:10387000224890473861204B1B6824331B681C4644
:103880007B691B7D3A6919461C48A0473B6903F4D4
:103890008033002B1CD07B690E3301220521184692
:1038A000FFF7B0FF144B1B68B0331B681A467B69E7
:1038B00018687B691B7D19469047F8607B689C6897
:1038C0007B68D8680023FA680221A04701230FE033
:1038D0003B6903F46023002B09D07B689C687B68FC
:1038E000D8683B6903F4602200230621A047002327
:1038F00018461C37BD4690BD500000010000054031
:1039000090B587B000AF786039607B681B6A7B61D7
:10391000164B1B6838331B681A467B6918687B692D
:10392000DB7C194690473861104B1B6824331B68B9
:103930001C467B6918687B69DB7C3A691946A0479D
:103940007B6901225A737B691B8AFB607B690022B9
:103950001A827B681C697B6858690023FA68052114
:10396000A047012318461C37BD4690BD50000001FA
:1039700080B584B000AF786039607B68FB60FB681D
:103980001B6ABB60BB681B7D1B09DBB21A464FF488
:10399000803393401A463B681340002B03D03968AC
:1039A0007868FFF755FFBB68DB7C1B09DBB21A4662
:1039B000012393401A463B681340002B03D039681B
:1039C0007868FFF79DFF00BF1037BD4680BD90B5FA
:1039D00085B000AF786039607B68FB60FB681B6A6C
:1039E000BB60BB6801221A73BB6801225A73FB6873
:1039F0009B68002B07D0FB689C68FB68D868002395
:103A000000220021A047BB6801229A7400BF14372E
:103A1000BD4690BD80B487B000AFF860B9607A60F1
:103A2000FB681B6A7B617B683B61BB680E2B02D025
:103A30000F2B05D01FE03B695A787B695A751AE055
:103A40003B691B785BB2002B0ADA3B6901331B78B8
:103A50001B01DBB223F00F03DAB27B69DA7409E0F1
:103A60003B6901331B781B01DBB223F00F03DAB291
:103A70007B691A7500BF00BF1C37BD465DF8047B2B
:103A8000704790B585B000AF78607B68FB60FB68DD
:103A90001B6ABB60BB689B7CDBB2002B07D0FB685A
:103AA0009C68FB68D868002300220121A047BB68FE
:103AB00000229A7400BF1437BD4690BD90B585B002
:103AC00000AF78607B68FB60FB689C68FB68D86827
:103AD000002300220721A04700BF1437BD4690BD38
:103AE00090B585B000AF78607B68FB60FB689C6830
:103AF000FB68D868002300220821A04700BF1437C4
:103B0000BD4690BD90B587B000AF786039607B68E6
:103B10007B617B691B6A3B613B69DB899BB203F07C
:103B20002003002B14D00C4B1B68B0331B681A46C3
:103B30003B6918683B691B7D19469047F8607B69B3
:103B40009C687B69D8680023FA680221A04700BFFF
:103B500000BF1C37BD4690BD5000000180B584B049
:103B600000AF786039603968786800F011F8F86063
:103B7000FB68002B06D03B681B6A5B6819467868B7
:103B800000F062F9FB6818461037BD4680BD0000A2
:103B900080B584B000AF786039603B681B6AFB6019
:103BA000FB68274A9A60FB68264A5A60FB68264AE7
:103BB0001A60FB6800221A73FB6800225A73FB68C4
:103BC0000022DA81FB6800229A74FB681022DA7402
:103BD000FB6810221A75FB6800225A75FB685B6847
:103BE0001B6BBB603B681A88BB681A813B685A88AC
:103BF000BB685A81FB689B683A689279DA713B68C6
:103C00009B885B089AB2FB689B68D2B21A72FB6809
:103C10005B683A6892699A63FB685B683A68D26944
:103C2000DA63FB685B683A685A6401F01FFD396823
:103C3000064801F045FD3B6818461037BD4680BD7B
:103C4000C0090020D409002000000540053B000009
:103C500090B587B000AFF860B9607A60FB70FB6820
:103C60001B6A3B617B68402B04D83B695B7BDBB202
:103C7000012B01D0002334E01C4B1B682C331B6844
:103C80001C463B6918683B69DB7C19467B68BA684F
:103C9000A04778617B69B3F1FF3F1BD03B691A8A6B
:103CA0007B689BB213449AB23B691A82FB78002B63
:103CB00010D03B6902225A730C4B1B6830331B68CF
:103CC0001C463B6918683B69DB7C4FF481721946DE
:103CD000A04778617B69B3F1FF3F01D07B6800E0CA
:103CE000002318461C37BD4690BD00BF50000001A0
:103CF00090B58BB000AFF860B9607A60FB70FB687C
:103D00001B6A7B622D4B1B6838331B681A467B6A23
:103D100018687B6A1B7D1946904738623B6A03F43A
:103D20008033002B45D0254B1B68B0331B681A46E7
:103D30007B6A18687B6A1B7D19469047F8617B682F
:103D40007B611E4B1B6828331B681C467B6A186806
:103D50007B6A1B7D194607F11403BA68A047B86156
:103D60007B69FA699A421ED1144B1B6824331B6885
:103D70001C467B6A18687B6A1B7D3A6A1946A04715
:103D80000E4B1B6818331B681C467B6A18687B6ADD
:103D90001B7D01221946A0477B6A0E3300220521B4
:103DA0001846FFF72FFDBB69B3F1FF3F01D07B69D8
:103DB00000E0002318462C37BD4690BD500000019E
:103DC00080B485B000AF78607B681B6AFB60FB68DD
:103DD0005B7BDBB2012B01D0002300E040231846BF
:103DE0001437BD465DF8047B7047000080B586B08F
:103DF00000AF78607B681B6A7B61124B1B683833AD
:103E00001B681A467B6918687B691B7D19469047B9
:103E100038613B6903F48033002B0DD0094B1B68DC
:103E2000B0331B681A467B6918687B691B7D19468D
:103E30009047F860FB6800E0002318461837BD463D
:103E400080BD00BF5000000190B585B000AF786024
:103E50003960604B01221A615E4B01225A615D4A52
:103E60003B6813603B685B6C5A4A5360594B0022B5
:103E70001A72594B1B78032B02D1574B00221A7030
:103E8000554B1B78022B28D0544B1B6814331B68EE
:103E900053489847514B1B6818331B685048984744
:103EA0004E4B1B687C331B6898474B4B1B78002B91
:103EB00003D0494B1B78022B06D14A4B1B68EC33CD
:103EC0001B684948984705E0464B1B68DC331B6874
:103ED00045489847404B00221A7001F0C7FB3B68E9
:103EE0005A6B3C4B5B6903F18043013B9B001344DD
:103EF0001B68FB60FB685B681B685B68BB60354BDD
:103F0000002283F82C20334B002283F84F20314BC2
:103F1000002283F84E20BB68DB7903F0C003C02B7E
:103F200009D12C4B93F82C3043F00103DAB2294B22
:103F300083F82C2008E0274B93F82C3023F0010362
:103F4000DAB2244B83F82C20234B1B78022B3CD075
:103F5000244B1B68C8331B6823489847214B1B68B8
:103F6000D4331B68204898471E4B1B68C4331B681A
:103F70002F211D4898471B4B1B68D0331B684FF0FF
:103F8000FF3119489847174B1B6810331B681648B8
:103F90009847124B1B6888331B681C460F4B1B68E5
:103FA00060331B6898470246104BA3FB02231B0992
:103FB0001846A0470B4B1B680C331B680A489847F0
:103FC0000B4B1B681B683C20984700BF1437BD464D
:103FD00090BD00BF68160020200A002044000001A8
:103FE00001001020500000010000054089888888E9
:103FF0004800000180B582B000AF7860074B1B68B5
:104000001C331B680022002105489847054B0522F8
:104010001A7200BF0837BD4680BD00BF50000001C6
:10402000000005406816002080B582B000AF7860BF
:10403000184B93F84F30002B28D0164B93F8503084
:104040000133DAB2134B83F85020124B93F85030FF
:104050000A2B06D1104B1B6890331B6800210F48B8
:1040600098470C4B93F85030142B0FD1094B00227A
:1040700083F84F20074B1B681B6A002B06D0054BAB
:104080001B681B6A034A52681046984700BF0837EE
:10409000BD4680BD681600205000000100000540AC
:1040A00090B585B000AF7860234BFB604023BB60C8
:1040B000224B1B6828331B681C4607F108031E4A65
:1040C00000211F48A047BB68002B31D0FB681B783C
:1040D00003F06003002B11D01A4B1B685B68002BA8
:1040E00008D0184B1B685B68164A5268F96810467E
:1040F00098471EE00020FFF77DFF1AE0FB685B7821
:104100000C2B11D8FB685B781A460F4B53F8223002
:10411000002B09D0FB685B781A460B4B53F8223012
:10412000F9680848984704E00020FFF763FF00E0C3
:1041300000BF1437BD4690BDA413002050000001FD
:104140000000054068160020F86A000090B585B0B0
:1041500000AF78605C4B1B6838331B6800215B48FC
:104160009847F8607B681B7ADBB2052B00F2A880C9
:1041700001A252F823F000BFD1410000E34100004A
:10418000EB410000F3410000914100009542000026
:104190007B6800221A727B68DB68002B0FDA7B6871
:1041A000DB6823F000427B68DA60474B1B6808330A
:1041B0001B681A467B68DB68194644489047FB68D1
:1041C00003F00103002B76D00020FFF769FF72E0B7
:1041D000FB6803F00103002B6FD00020FFF760FFA6
:1041E0006BE0002000F0CCFC6AE0002000F028FD2D
:1041F00066E07B685B6A402B02D94023BB6002E02B
:104200007B685B6ABB60304B1B6828331B681C46AD
:104210007B681A6A07F1080300212C48A0477B68D5
:104220005B6A3F2B20D8284B1B6818331B68012280
:104230000021264898477B6804221A727B681B6815
:104240001B69002B18D07B689B6A002B14D07B68FD
:104250001B681B697A6850687A68926A11469847A9
:104260007B6800229A6207E0174B1B6818331B68B3
:1042700000220021154898477B681A6ABB681A44D7
:104280007B681A627B685A6ABB68D21A7B685A627A
:1042900000BF15E0FB6803F00403002B0FD00A4BAE
:1042A0001B6824331B6804220021084898477B6858
:1042B00000221A7203E000BF02E000BF00E000BF6E
:1042C00000BF1437BD4690BD5000000100000540FE
:1042D00080B584B000AF78607B6893F82C3023F011
:1042E0000203DAB27B6883F82C207B68002283F813
:1042F0004F207B681B689B69002B06D07B681B687E
:104300009B697A685268104698477B685A697B684F
:104310001A610023FB6008E07A68FB6813441833D5
:1043200000221A70FB680133FB60FB68072BF3D98E
:1043300000BF1037BD4680BD80B586B000AF786045
:1043400039607B687B612A4B1B6818331B6800222D
:104350000021284898473B681B7803F01F03012B76
:1043600009D0022B0AD0002B31D17B6993F82C3075
:104370009BB27B812FE000237B812CE03B689B88F4
:104380009BB203F07F037B827B8A002B02D07B8A67
:104390000F2B03D90020FFF72DFE26E03B689B88FA
:1043A0009BB203F08003002B0CBF01230023DBB280
:1043B000FB607B8A591E7869FA6813461B019B1AB9
:1043C00003440B442D331B789BB27B8103E0002018
:1043D000FFF710FE09E07B6902225A627B6907F150
:1043E0000A021A62002000F0CBFB1837BD4680BDE0
:1043F000500000010000054090B587B000AF786024
:1044000039607B687B613D4B1B6818331B68012258
:1044100000213B4898473B681B7803F01F03002BA3
:1044200002D0022B16D061E03B685B889BB203F0A0
:1044300001039BB2002B09D07B6993F82C3023F049
:104440000203DAB27B6983F82C2053E00020FFF7E7
:10445000D1FD4FE03B689B889BB203F07F037B82DA
:104460007B8A002B02D07B8A102B03D90020FFF718
:10447000C1FD3FE03B685B889BB2002B32D13B68BB
:104480009B889BB203F08003002B0CBF0123002309
:10449000DBB2FB607B8A591E7869FA6813461B0100
:1044A0009B1A03440B442D3300221A70FB68002B27
:1044B0000CD1124B1B6820331B681C467B8A1B01E6
:1044C0004FF4005219460E48A04713E00B4B1B68EF
:1044D00020331B681C467B8A1B01002219460848B2
:1044E000A04707E00020FFF785FD03E00020FFF76D
:1044F00081FD00BF1C37BD4690BD00BF50000001CC
:104500000000054080B586B000AF786039607B68F8
:104510007B612F4B1B6818331B68012200212D483B
:1045200098473B681B7803F01F03002B02D0022B37
:1045300016D046E03B685B889BB203F001039BB258
:10454000002B09D07B6993F82C3043F00203DAB2D8
:104550007B6983F82C2038E00020FFF74BFD34E026
:104560003B689B889BB203F07F037B827B8A002B96
:1045700002D07B8A0F2B03D90020FFF73BFD24E0FC
:104580003B685B889BB2002B17D13B689B889BB232
:1045900003F08003002B0CBF01230023DBB2FB6080
:1045A0007B8A591E7869FA6813461B019B1A0344DB
:1045B0000B442D3301221A7007E00020FFF71AFD8B
:1045C00003E00020FFF716FD00BF1837BD4680BD91
:1045D000500000010000054080B584B000AF786055
:1045E00039607B68FB600B4B1B6818331B6801222A
:1045F0000021094898473B685B889BB243F0004222
:10460000FB68DA60FB6804221A7200BF1037BD46EF
:1046100080BD00BF500000010000054080B58AB099
:1046200000AF786039607B683B623B6A1B68FB6166
:10463000584B1B6818331B680022002156489847C6
:10464000002387F827303B685B889BB21B0A9BB22C
:10465000022B0ED0032B45D0012B6BD1FB691A6BBB
:104660003B6A1A62FB691B6B1B781A463B6A5A62EB
:1046700070E03B685B889BB2FB75FB691B6B3B6121
:104680003B695B7CFA7D9A4209D30020FFF7B2FCBC
:104690003B6A00221A623B6A00225A625AE0FB69B6
:1046A0005A6BFB7D9B0013441B68FB603B6A002236
:1046B00083F84B203B6A002283F84C20FB685B6840
:1046C0001B685A683B6A1A62F86801F0CCF8024627
:1046D0003B6A5A623B6AFA7D83F84D20012387F8D2
:1046E000273037E03B689B889AB23B685B889BB277
:1046F000DBB29BB21946104600F050F8B861BB69B6
:10470000B3F1FF3F03D10020FFF774FC22E0FB6907
:104710009A6BBB699B0013441A683B6A1A62FB6977
:104720009A6BBB699B0013441B681B781A463B6A53
:104730005A620FE0FB691B68002B07D0FB691B68FE
:104740003A6A52683968104698471FE00020FFF720
:1047500051FC1BE03B6A1B6A002B17D03B6A5B6A6B
:104760003A68D28892B2934205D93B68DB889BB203
:104770001A463B6A5A6297F82730002B03D1002073
:1047800000F0FEF902E0002000F05AFA2837BD469A
:1047900080BD00BF500000010000054080B487B01C
:1047A00000AF03460A46FB801346BB802B4B1B68B9
:1047B000002B04D0294B1B689B6B002B02D14FF0C0
:1047C000FF3344E0BB88002B01D100233FE0234BA3
:1047D0001B689B6B1B681B78023BDA0F13445B1052
:1047E0003B611E4B1B68DB6B5A1E3B69B2FBF3F34C
:1047F000FB60FB683A6902FB03F35A1C174B1B680A
:10480000DB6B9A4202D04FF0FF3320E0134B1B6862
:104810009B6B1B68BB6000237B6112E0BA687B69FD
:104820005B0013445B889BB2FA889A4206D1FB680E
:104830007A6902FB03F2BB88134408E07B69013309
:104840007B617A693B699A42E8D34FF0FF3318469F
:104850001C37BD465DF8047B704700BF681600201A
:1048600080B582B000AF78603960074B1B681833A1
:104870001B6800220021054898470020FFF7BAFB7B
:1048800000BF0837BD4680BD500000010000054054
:1048900080B584B000AF786039607B68FB60104BF6
:1048A0001B6818331B68002200210E489847FB68DC
:1048B000DB68002B02DA0023FB7203E0FB681B6954
:1048C000DBB2FB72FB6801225A62FB6807F10B0244
:1048D0001A62002000F054F900BF1037BD4680BDB9
:1048E000500000010000054080B586B000AF786040
:1048F00039607B687B617B691B683B61374B1B6858
:1049000018331B6801220021354898473B685B88B3
:104910009AB27B691B681B6B11331B789BB29A425E
:1049200003D90020FFF766FB53E03B685B889BB22E
:104930001A467B691A617B691B69002B3DD03B6974
:104940005A6B3B685B889BB203F18043013B9B0041
:1049500013441B68FB60FB685B681B685B68BB609B
:104960007B6993F84E30002B18D1BB68DB7903F0DC
:10497000C003C02B09D17B6993F82C3043F00103AD
:10498000DAB27B6983F82C2008E07B6993F82C303D
:1049900023F00103DAB27B6983F82C203B695A6B60
:1049A0003B685B889BB203F18043013B9B0013444F
:1049B0001B681946786901F0E1F83B69DB68002B58
:1049C00007D03B69DB687A6950687A6912691146D9
:1049D000984700BF1837BD4680BD00BF500000019A
:1049E0000000054080B584B000AF786039607B6816
:1049F000FB60174B1B6818331B6800220021154809
:104A00009847FB68DB68002B02DA0023FB7211E099
:104A10003B689B889BB2072B08D83B689B889BB25E
:104A20001A46FB6813441B7EFB7203E00020FFF76D
:104A3000E1FA09E0FB6801225A62FB6807F10B0208
:104A40001A62002000F09CF81037BD4680BD00BF00
:104A5000500000010000054080B58AB000AF7860CA
:104A600039607B683B623B6A1B68FB61364B1B68A5
:104A700018331B680122002134489847FB695A6BA0
:104A80003B6A1B6903F18043013B9B0013441B6895
:104A9000BB610421B86900F00AFF786100237B62E2
:104AA00046E007F108034FF0FF32796AB86900F079
:104AB0007DFF38613B69002B37D03B699B789AB208
:104AC0003B689B889BB29A422FD13B69DB789AB2B4
:104AD0003B685B889BB29A4227D13B699B78FB730A
:104AE000FB7B3A69D1783A6A13440A461A763B69E5
:104AF000DB78FA7BB969386A01F0EEF90346BB73DB
:104B0000BB7B002B1CD0FB699B68002B18D0FB697A
:104B10009B683A6A50683A68928892B2D1B23A6811
:104B2000528892B2D2B298470BE07B6A01337B6223
:104B30007A6A7B699A42B4D30020FFF75BFA00E0FF
:104B400000BF2837BD4680BD500000010000054071
:104B500080B582B000AF78603960074B1B681833AE
:104B60001B6801220021054898470020FFF742FA00
:104B700000BF0837BD4680BD500000010000054061
:104B800090B585B000AF78602A4B01221A72294B8C
:104B90005B6AFB60FB68402B01D94023FB60254B1F
:104BA0001B6ABB60234B5A6AFB68D31A214A5362C3
:104BB000204B1A6AFB6813441E4A13621E4B1B6883
:104BC0002C331B681C46FB68BA6800211B48A047B1
:104BD000FB68402B09D1184B1B6830331B684FF41E
:104BE000817200211548984720E0124B04221A7266
:104BF000114B1B6830331B684FF4857200210F483E
:104C000098470C4B1B685B69002B0FD0094B9B6AC4
:104C1000002B0BD0074B1B685B69064A5068054A9E
:104C2000926A11469847034B00229A6200BF1437DC
:104C3000BD4690BD681600205000000100000540F0
:104C400090B58DB000AF7860804B02221A727F4B16
:104C50001B685A6B7D4B93F84D309B0013441B68C7
:104C60003B627A4B5B6AFB62FB6A402B01D94023B3
:104C7000FB62764B93F84C30002B3ED1734B93F88C
:104C80004B30002B39D1714B1A6A07F10C031068B5
:104C9000516803C3127A1A70386A00F0E4FD0346C3
:104CA0009BB2FB81FB6A092B28BF09237B62684BFF
:104CB0001B682C331B681C4607F10C027B6A002121
:104CC0006448A0473B6A5B681B681B881A467B6A7E
:104CD000934208D15D4B002283F84C205B4B0122AC
:104CE00083F84B2004E07B6ADAB2584B83F84C20FF
:104CF000FA6A7B6AD31A7B6201E0FB6A7B6249E055
:104D00003B6A5A68514B93F84B309B0013441B6825
:104D1000BB61BB691B881A464C4B93F84C30D31AC5
:104D2000BB62BB695B68494A92F84C201344FB6143
:104D3000BA6A7B6A9A4201D97B6ABB62444B1B68A0
:104D40002C331B681C46BB6AFA6900214148A04706
:104D50007A6ABB6AD31A7B623C4B93F84C20BB6ADD
:104D6000DBB21344DAB2394B83F84C20374B93F85B
:104D70004C309AB2BB691B889A420BD1334B93F8E3
:104D80004B300133DAB2314B83F84B202F4B0022EA
:104D900083F84C207B6A002BB2D12C4B5A6AFB6AF9
:104DA000D31A2A4A53623B6A1A78284B93F84B303D
:104DB0009A4202D8254B00225A62244B5B6A002B90
:104DC00012D03B6A5A68214B93F84B309B00134436
:104DD0001B685B68FB611D4B93F84C307B62FA6982
:104DE0007B6A1344194A1362FB6A402B09D1184BA2
:104DF0001B6830331B684FF48172002115489847B7
:104E000020E0134B1B6830331B684FF48572002180
:104E1000104898470D4B1B685B69002B0FD00B4B5C
:104E20009B6A002B0BD0094B1B685B69074A5068D3
:104E3000064A926A11469847044B00229A62034B35
:104E400004221A7200BF3437BD4690BD6816002098
:104E5000500000010000054080B584B000AF7860CC
:104E600039603B4B1B68002B06D13A4B1B68103353
:104E70001B683948984768E0354B1B68FB60344B2A
:104E80005B68BB603B6803F00403002B02D0304832
:104E9000FFF71EFA3B6803F00103002B07D0FB6805
:104EA000DB69002B03D0FB68DB69B86898473B6877
:104EB00003F00203002B07D0FB681B6A002B03D012
:104EC000FB681B6AB86898473B6803F02003002B17
:104ED00007D0FB685B6A002B03D0FB685B6AB8688D
:104EE00098473B6803F00803002B16D01B4B1B6848
:104EF00001331A4A13601A4B1B680133184A1360B6
:104F00001348FFF791F8164B1B68052B05D1144B7E
:104F100000221A60052000F003FC0E4B1B68D433FE
:104F20001B680D48984738603B6803F00103002B6D
:104F300002D00748FFF70AF9FB689B6A002B04D0F0
:104F4000FB689B6A3968B86898471037BD4680BDD2
:104F5000681600205000000100000540F4130020F6
:104F6000E413002090B589B000AF78607B681B6ABD
:104F7000FB617B681B697A68526910469847B86183
:104F8000BB69002B69D0FB69184600F091FA786183
:104F9000FB69184600F05EFA38613A69BB699342D2
:104FA00028BF1346FB607B69002B3FD0FB69FA6882
:104FB0001A617A69BB69934228BF13467B617B689B
:104FC000DC687B685869FB69DA68FB699B68D11803
:104FD0007A69BB699A4203D27A693B699A4201D3E2
:104FE000012300E00023DBB27A69A0477A69BB693C
:104FF0009A4232D27A693B699A422ED2BA697B6967
:10500000D31ABB613A697B69D31A7B617A69BB6940
:10501000934228BF13467B617B68DC687B685869D4
:10502000FB69D96801237A69A04716E0FB691B690F
:10503000BA699A4211D1FB695B6903F00103002B45
:105040000BD0FB6900221A617B68DC687B685869B9
:10505000FB69D96801230022A04700BF2437BD4661
:1050600090BD90B58BB000AFF860B9607A60FB6816
:105070001B6A3B627B68002B28D0FB689B697A68BF
:105080009A420FD3FB689A69FB68DB6913447A681C
:105090009A4207D23B6AB968184600F065FA0023C5
:1050A0007B6257E03B6A184600F0F2F9B861BA68D3
:1050B000BB69934228BF13467B613B6A7A69796872
:1050C000184600F0A0FA7B697B6243E0FB681B692D
:1050D000FA68526910469847F8613B6A184600F032
:1050E00003FAB861FB68DC68FB6858693B6ADA68F8
:1050F0003B6A5B68D1180123BA69A04778617B6974
:10510000002B04D03B6A7969184600F02DFA7A69C1
:10511000FB699A421CD23B6A184600F0E5F9B86177
:10512000BB69002B14D0FB68DC68FB6858693B6ADC
:10513000DA683B6A5B68D1180123BA69A047F86155
:10514000FB69002B04D03B6AF969184600F00CFAA1
:1051500000237B623B6A184600F07CF9B861FB686B
:105160005C68FB6898683B6ADA683B6A9B68134432
:10517000BA690221A04778613B6A7969184600F054
:10518000D7F97B6A18462C37BD4690BD90B587B0DD
:1051900000AF78607B681B6A7B617B685C687B68BA
:1051A0009868002300220321A04738617B691846D4
:1051B00000F050F9F860FA683B69134418461C3750
:1051C000BD4690BD80B584B000AF786039607B6823
:1051D0001B6AFB60FB683968184600F0A9F978681B
:1051E000FFF7C0FE002318461037BD4680BD80B5CE
:1051F00086B000AFF860B9607A60FB681B6A7B61BB
:105200007B69184600F070F938613A69BB689A42C8
:1052100008D37B69DA687B695B681A447B681A602B
:10522000BB6803E07B6800221A6000231846183729
:10523000BD4680BD80B584B000AF78607B681B6AD6
:10524000FB60FB6800225A61F8687B6899697B689B
:10525000DB691A4600F0F3F97B6818461037BD4643
:1052600080BD90B484B000AF786039607B681B6A01
:10527000FB603A68FB6814460FCB84E80F0000BF60
:105280001037BD4690BC704780B584B000AF7860E1
:1052900039607B681B6AFB603B68002B04D0FB68AD
:1052A0003968184600F060F97868FFF75BFE00BFC8
:1052B0001037BD4680BD80B584B000AF78607B6894
:1052C0001B6AFB60FB68184600F0AFF800BF1037A0
:1052D000BD4680BD80B584B000AF78607B681B6A36
:1052E000FB60FB68184600F0D3F8034618461037F9
:1052F000BD4680BD90B587B000AFF860B9607A60F8
:105300003B60FB687B61BB68023B032B2ED801A28C
:1053100052F823F0255300003B5300005753000080
:10532000455300007B691B78002B21D13A687968CE
:105330007869FFF796FE034628E07869FFF726FFB5
:10534000034623E07B691B78002B13D079687869CA
:10535000FFF738FF0EE07B691B78002B0CD13A6811
:1053600079687869FFF743FF03460FE000BF04E068
:1053700000BF02E000BF00E000BF7B695C687B69A2
:1053800098683B687A68B968A047034618461C3796
:10539000BD4690BD80B584B000AFF8600B467A6022
:1053A000FB720D4AFB7A13700C4A7B681360FB7A20
:1053B000002B02D0FB7A012B09D1084B1B68002B74
:1053C00005D0064B1B68FA7A11460020984700BFAB
:1053D0001037BD4680BD00BF200A0020E813002022
:1053E00080B586B000AFF860B9607A6000F0C6FEA4
:1053F0000346FB75FB681A68BB681A44FB681A60B1
:1054000005E0FB681A687B68D21AFB681A60FB68C3
:105410001B687A689A42F4D9FB7D002B01D100F019
:10542000A5FE00BF1837BD4680BD80B584B000AF73
:10543000786000F0A3FE0346FB737B685A687B68C4
:105440009A60FB7B002B01D100F090FE00BF10376B
:10545000BD4680BD80B485B000AF78607B685B6876
:10546000FB607B689B68BB60FA68BB689A4203D3A9
:10547000FA68BB68D31A05E07B681A68F968BB68EC
:10548000CB1A134418461437BD465DF8047B7047A9
:1054900090B583B000AF78607B681C687868FFF7D0
:1054A000D9FF0346E31A013B18460C37BD4690BDB1
:1054B00080B485B000AF78607B685B68FB607B6818
:1054C0009B68BB60FA68BB689A4203D3FA68BB6802
:1054D000D31A03E07B681A68BB68D31A18461437DE
:1054E000BD465DF8047B704780B485B000AF78603E
:1054F0007B685B68FB607B689B68BB60BA68FB6825
:105500009A4204D9BA68FB68D31A013B0AE07B6867
:105510001A68FB68D21ABB68002B01D1012300E096
:105520000023D31A18461437BD465DF8047B704734
:1055300080B584B000AF786039607868FFF78AFF83
:10554000F860FA683B68934228BF1346FB607B68AB
:1055500003F108007B681B681A46F968FFF740FFF3
:1055600000BF1037BD4680BD80B584B000AF786005
:1055700039607868FFF78CFFF8607B685A683B6891
:105580001A447B685A607B685A687B681B689A4239
:1055900006D37B685A687B681B68D21A7B685A609E
:1055A000FA683B689A4211D27B685B685A1C7B6838
:1055B0009A607B689A687B681B689A4206D37B680E
:1055C0009A687B681B68D21A7B689A6000BF1037A4
:1055D000BD4680BD80B582B000AF78600B46FB70E1
:1055E0007B68DA687B685B681344FA781A707B68BA
:1055F000181D7B681B681A460121FFF7F1FE00BFEA
:105600000837BD4680BD80B586B000AFF860B96090
:105610007A6000237B610AE0BA687B6913441B78D7
:105620001946F868FFF7D6FF7B6901337B617A6919
:105630007B689A42F0D300BF1837BD4680BD80B466
:1056400085B000AFF860B9607A60FB687A681A606C
:10565000FB68BA68DA600023FA689360FA685360FE
:1056600000BF1437BD465DF8047B704780B483B03B
:1056700000AF104B1B78002B15D100237B600CE092
:105680000D4A7B68002142F823100C4A7B680021F8
:1056900042F823107B6801337B607B68052BEFD9D0
:1056A000044B01221A7000BF0C37BD465DF8047B25
:1056B000704700BFEC130020BC160020D416002059
:1056C00080B485B000AF786039600023FB6012E0E1
:1056D000114AFB6852F82330002B09D10E49FB68B0
:1056E0007A6841F823200D49FB683A6841F8232085
:1056F000FB680133FB60FB68052BE9DDFB68062BCB
:1057000002D14FF0FF3300E0002318461437BD46A6
:105710005DF8047B704700BFBC160020D416002043
:1057200080B584B000AF7860114B1A687B68134471
:105730000F4A13600023FB6013E00E4AFB6852F827
:105740002330002B0AD00B4AFB6852F823300A4959
:10575000FA6851F82220796810469847FB680133AF
:10576000FB60FB68052BE8DD00BF1037BD4680BD40
:10577000F0130020BC160020D416002080B485B0A1
:1057800000AFF860B9607A607B681B781A467B6866
:1057900013447B60FB685A68BB681B689B0013441A
:1057A0001B685B68FA685168BA68126892000A441C
:1057B0001268128813447A689A4216D3BB681B6831
:1057C0005A1CBB681A60BB681B68FA68127893425F
:1057D00009D2FB685A68BB681B689B0013441B68AE
:1057E0005B687B6001E000237B607B6818461437B0
:1057F000BD465DF8047B704780B588B000AFF860A7
:105800007A603B600B46FB72FB685B681B685B68F9
:10581000FB610023BB6100237B611CE0FB695B78BB
:10582000042B10D1FB699B78FA7A9A420BD1BA69A2
:105830007B689A4204D17A693B681A60FB690EE082
:10584000BB690133BB6107F11403FA691946F868B3
:10585000FFF794FFF861FB69002BDFD100231846A6
:105860002037BD4680BD80B485B000AF786000238E
:10587000BB600023FB600DE07B685A68FB689B00FF
:1058800013441B681B881A46BB681344BB60FB6843
:105890000133FB607B681B781A46FB689342EBD3AD
:1058A000BB6818461437BD465DF8047B704780B569
:1058B00084B000AF786039600023BB600023FB60D8
:1058C00018E07B685A68FB689B0013441B685868A3
:1058D0007B685A68FB689B0013441B681B883A6806
:1058E000194600F081FB0246BB681344BB60FB68AD
:1058F0000133FB607B681B781A46FB689342E0D358
:10590000BB6818461037BD4680BD80B588B000AF73
:10591000F860B9607A603B600023BB610023FB61E3
:1059200039E0FB685A68FB699B0013441B685868A0
:10593000FB685A68FB699B0013441B681B88BA68A4
:10594000194600F051FB7861BA697B6913447A68A3
:105950009A4219D23B68FA691A60FB685A68FB6977
:105960009B0013441B685868FB685A68FB699B00DE
:1059700013441B681B8819467A68BB69D31ABA6836
:1059800000F063FB03460DE0BA697B691344BB6119
:10599000FB690133FB61FB681B781A46FB69934284
:1059A000BFD3002318462037BD4680BD80B584B0E4
:1059B00000AFF860B9607A603B607B68B3F1FF3F8D
:1059C00007D13B68BA680421F868FFF79EFF0346D9
:1059D00007E0BB68D9B23B687A68F868FFF70CFF4C
:1059E000034618461037BD4680BD80B588B000AF6D
:1059F000F860B9607A603B6007F110037A68B968B3
:105A0000F868FFF7D3FF78617B69002B24D07B69AE
:105A10001B791A463B68934201D300231DE0002303
:105A2000BB617B69FB6114E0FB695B78052B08D1E6
:105A3000BA693B689A4201D1FB690EE0BB69013348
:105A4000BB6107F11003FA691946F868FFF796FE83
:105A5000F861FB69002BE7D1002318462037BD46CB
:105A600080BD80B489B000AFF860B9607A60FB682F
:105A7000BB610023FB6127E0FB6923F010030822D0
:105A80009A40FB6903F01003002B01D0022300E0D1
:105A9000012302FB03F37B617A69BB699A4210D34D
:105AA000BB681B78002B07D07B695A007B681A60A3
:105AB000FB6943F010030EE07B687A691A60FB69AA
:105AC00009E0FB690133FB61FB69092BD4D97B68D1
:105AD00000221A60002318462437BD465DF8047B77
