:10000000AC0A002085020000F1020000F7020000A7
:10001000FD020000FD020000FD02000000000000E3
:10002000000000000000000000000000FD020000D1
:10003000FD02000000000000FD020000FD020000C3
:10004000FD020000FD020000FD020000FD020000B4
:10005000FD02000005030000FD020000FD0200009B
:10006000FD020000FD020000FD020000FD02000094
:10007000FD020000FD020000FD020000FD02000084
:10008000FD020000FD020000FD020000FD02000074
:10009000FD020000FD020000FD020000FD02000064
:1000A000FD020000FD020000FD020000FD02000054
:1000B000FD020000FD020000FD020000FD02000044
:1000C000FD020000FD020000FD020000FD02000034
:1000D000FD020000FD020000FD020000FD02000024
:1000E000FD020000FD020000FD020000FD02000014
:1000F000FD020000FD020000FD020000FD02000004
:10010000FD020000FD020000FD020000FD020000F3
:10011000FD020000FD020000FD020000FD020000E3
:10012000FD020000FD020000FD020000FD020000D3
:10013000FD020000FD020000FD020000FD020000C3
:1001400000000000000000000000000000000000AF
:10015000FD020000FD020000FD020000FD020000A3
:10016000000000000000000000000000000000008F
:10017000000000000000000000000000000000007F
:10018000000000000000000000000000000000006F
:10019000000000000000000000000000000000005F
:1001A000000000000000000000000000000000004F
:1001B000FD020000FD020000FD020000FD02000043
:1001C000FD020000FD020000FD020000FD02000033
:1001D000FD020000FD020000FD020000FD02000023
:1001E000FD020000FD020000FD020000FD02000013
:1001F000FD020000FD020000FD020000FD02000003
:10020000FD020000FD020000FD02000000000000F1
:10021000FD020000FD020000FD020000FD020000E2
:10022000FD020000FD020000FD020000FD020000D2
:10023000FD020000FD020000FD020000FD020000C2
:10024000FD020000FD020000FD020000FD020000B2
:10025000FD020000FD020000FD020000FD020000A2
:10026000FD020000FD020000FD020000F8B500BF25
:10027000F8BC08BC9E467047F8B500BFF8BC08BC87
:100280009E46704780B582B000AF134B7B60134B26
:100290003B6007E07A68131D7B603B68191D39607D
:1002A00012681A603B680E4A9342F3D30E480F4916
:1002B0004FF000028842B8BF40F8042BFADB094B2C
:1002C0001B68084A43F47003136000F0E1F800BFB4
:1002D0000837BD4680BD00BFB839000000000020CF
:1002E000AC09002088ED00E0AC090020E40A002001
:1002F00080B400AFFEE780B400AFFEE780B400AF8B
:10030000FEE7000090B583B000AF214B1B684C3373
:100310001B6801211F48984778601D4B1B685033AC
:100320001B6879681B48984723E0194B1B683C33CE
:100330001B681C46164B1B6834331B6815489847CE
:100340000346DBB219461348A04704220421124891
:1003500002F0F2FF03F04EF80346104AA2FB03231B
:100360009B09184603F040F8002204210A4802F0D5
:10037000E3FF074B1B682C331B680648984703466E
:10038000002BD2D100BF00BF0C37BD4690BD00BFCF
:100390001400000100C0004000500240F119760531
:1003A00090B583B000AF786039600AE00A4B1B68F3
:1003B0001B681C467B685A1C7A601B7819460748E4
:1003C000A0473B685A1E3A60002BEFD100BF00BF28
:1003D0000C37BD4690BD00BF1400000100C00040B6
:1003E00080B584B000AFF860B9607A607B68194668
:1003F000B868FFF7D5FF7B6818461037BD4680BD4B
:1004000080B483B000AF7860002318460C37BD4637
:100410005DF8047B704780B483B000AF78604FF024
:10042000FF3318460C37BD465DF8047B704780B437
:1004300083B000AF78603960002318460C37BD46A2
:100440005DF8047B704780B483B000AF786001230F
:1004500018460C37BD465DF8047B704780B485B004
:1004600000AFF860B9607A60002318461437BD46C3
:100470005DF8047B704780B485B000AFF860B96068
:100480007A60002318461437BD465DF8047B704738
:1004900090B583B000AF384B1B681B689847364B4C
:1004A0001B6810331B689847344B1B685C331B6810
:1004B00033489847314B1B6818331B6831489847BD
:1004C000314B1B683C331B680421304898472B4B49
:1004D0001B6818331B682E489847284B1B68183335
:1004E0001B682C4898472C4B1B6804331B689847A3
:1004F000012002F037FF40F2014002F033FF224BAF
:100500001B6854331B6803214FF040209847234B4E
:100510001B6814331B681C46184B1B6860331B6830
:100520009847014660234FF4E1321D48A0471A4B1B
:100530001B681B6815209847184B1B6844331B68C1
:1005400050211748984712211648FFF729FF1648EF
:1005500000F030F8094B1B6860331B6898477860DF
:10056000114800F027F87968104800F023F8104887
:1005700002F03AFFF4E700BF7800000144000001F8
:10058000403D800720000020200000010050024074
:1005900001000010010000204800000114000001CB
:1005A00000C0004004370000183700002837000062
:1005B00080841E000FB400B5074983B004AB0868FF
:1005C00053F8042B8168019300F096F803B05DF8AE
:1005D00004EB04B0704700BF00000020830730B573
:1005E00048D0541E002A3FD0CAB2034601E0013C65
:1005F0003AD303F8012B9D07F9D1032C2DD9CDB2A5
:1006000045EA05250F2C45EA054536D9A4F1100227
:1006100022F00F0C03F1200EE6444FEA121C03F106
:10062000100242E9045542E9025510327245F8D1F0
:100630000CF1010214F00C0F03EB021204F00F0C8A
:1006400013D0ACF1040323F003030433134442F842
:10065000045B9342FBD10CF003042CB1C9B21C44DF
:1006600003F8011B9C42FBD130BD64461346002CAD
:10067000F4D1F9E703461446BFE71A46A446E0E77B
:100680002DE9F84F4B6E9C0490462DD59368126867
:1006900043B38B46064602F1080959E9025A5FEA5C
:1006A0009A0715D0043D002401E0A7420ED055F86A
:1006B000041F5A46304601F0E7F9431C04F10104D7
:1006C000F3D10023C8E90133BDE8F88FD8F808302A
:1006D0002AF0030AA3EB0A03C8F8083009F1080955
:1006E000002BDAD10020ECE701F038FB0023C8E949
:1006F0000133BDE8F88F00BF2DE9F04F2DED028BDF
:10070000C5B00DF1500A834608EE101A16460021B6
:10071000082250461C460793FFF760FFBBF1000F0D
:1007200004D0DBF83830002B00F0A28218EE101A4B
:10073000B1F90C3098049AB207D443F400538B817A
:100740009AB24B6E23F400534B66170740F10581B4
:1007500018EE103A1B69002B00F0FF8002F01A021D
:100760000A2A00F00A810023CDE91933CDE90D33BF
:100770001BAA0C93189291460B930593B0464446DE
:10078000A34BD3F8E45001F087FC2246034612A99C
:10079000CDF800A05846A847002800F03B81C0F2E1
:1007A0002E81129A252A034601D01C44E8E7B4EBB7
:1007B0000806054640F03281002361788DF8433009
:1007C00004F1010806934FF0FF371E462B2408F171
:1007D0000108A1F120035A2B00F25081DFE813F049
:1007E000EF024E014E01EA024E014E014E016A0037
:1007F0004E014E018502C2024E019002FF024E01DF
:10080000FA025B005B005B005B005B005B005B006F
:100810005B005B004E014E014E014E014E014E0148
:100820004E014E014E01270284004E014E014E0141
:100830004E014E014E014E014E014E014E01DD00B2
:100840004E014E014E01FE014E01AF024E014E011E
:100850005D054E014E014E014E014E014E014E010D
:100860004E014E014E01270286004E014E014E01FF
:10087000A20286007F004E0195024E01D702DF00E2
:10088000C7027F004E01FE017C003B054E014E0178
:100890003D054E017C00A1F13003002218F8011B38
:1008A00002EB820203EB4202A1F13003092BF5D9DE
:1008B00006928EE7584601F0F5FB43680D93184603
:1008C00002F0DEFA0E900546584601F0EBFB836815
:1008D0000B93002D40F0A88498F8001077E798F863
:1008E000001046F0200672E746F01006B40640F10C
:1008F0005D81079B073323F007031A46596852F8B6
:10090000083B07920A460029C0F2C981791C00F011
:10091000738526F08001039153EA020100F02D84D3
:100920000A2B72F1000180F0128530338DF80F31FF
:10093000039E012304930DF20F14049BBB42B8BF26
:100940003B460393002308939DF84330002B00F0AF
:10095000A380039B013303939EE018EE101A5846C0
:1009600000F0AAFE002840F0158618EE103A9A8989
:1009700002F01A020A2A7FF4F6AE18EE103AB3F922
:100980000E30002BFFF6EFAE18EE101A234632465B
:10099000584600F029FE059067E046F0100616F074
:1009A000200200F00E81079B073323F0070319464E
:1009B0005A6851F8083B079126F4806103910021A1
:1009C00000208DF84300781C00F07681039820F019
:1009D000800653EA020040F01583002F40F00F8597
:1009E000002940F0CE83039B13F00103049300F031
:1009F000018430238DF80F310DF20F149DE708228A
:100A000000215046FFF7EAFD01231C44B8E600BF71
:100A100030040020B4EB080605461BD0199B1A9A37
:100A200001333244072BC9E900861A92199322DD5B
:100A3000002A00F09E8318EE101A18AA5846FFF7F5
:100A40001FFE58B90DF16C09059B33440593002D29
:100A50007FF4B2AE1A9B002B40F0718518EE103A6D
:100A6000B3F90C30580600F19585059845B0BDECFA
:100A7000028BBDE8F08F09F10809E5E70029E9D00C
:100A800000238DF843300123CDE903338DF8AC10FA
:100A90002BAC002308931F4616F00203099302D0E3
:100AA000039B0233039316F084030A9305D1069B3C
:100AB000039A9D1A002D00F3A782DDE91923501C2B
:100AC0009DF8431081B101220133C9F804200728A1
:100AD0000DF14302CDE91903C9F8002000F3758236
:100AE000024609F1080901300999E9B111AA023356
:100AF000C9F8002007284FF00202CDE91903C9F810
:100B0000042040F37A82002B00F0518318EE101A73
:100B100018AA5846FFF7B4FD002840F04782DDE9E7
:100B200019230DF16C09501C0A99802900F09C8151
:100B300004997D1A002D00F3EE81049AC9F8004053
:100B400013440728CDE91903C9F8042040F386812E
:100B5000002B00F0A38218EE101A18AA5846FFF7CF
:100B60008FFD002840F022821A9B0DF16C0974075A
:100B700005D5069A0399541A002C00F39982DDE9F1
:100B8000052103988142ACBF521812180592002B20
:100B900040F00382089900231993002900F0618135
:100BA000584600F0D5FF0DF16C09E8E5F006079A0C
:100BB0006DD4710668D532F9043B0792DA171146F5
:100BC000A1E616F0100307995AD116F0400053D051
:100BD0001A4651F8043B07919BB2EDE6079B1A4673
:100BE00000238DF84330134653F8044B0393002C35
:100BF00000F01384532900F06C8316F0100540F0C8
:100C000068837B1C00F0B6843A462946204601F0F2
:100C100087FD0890002800F0A284031B039A049328
:100C200023EAE3732F460792039308958CE6432942
:100C300002D0F50640F13483079D0822002116A852
:100C40002BACFFF7CBFC16AB55F8042B21465846CE
:100C500000F000FD03460133049000F0A284049BE1
:100C6000079523EAE373039300238DF8433010E7DD
:100C7000584600F0ABFE59E516F4007240F0388497
:100C800051F8043B079197E6B30500F1388452F818
:100C9000043B0792DA1711460029BFF637AE5B42D4
:100CA0004FF02D0062EB42028DF84300781C039652
:100CB0004FF001017FF48AAE01293FF431AE0229E1
:100CC00044AC40F0A5800C9803F00F011B09415C77
:100CD00004F8011D43EA0273120953EA0201F3D139
:100CE000039E44AB1B1B049327E6079B53F8042B7E
:100CF0000692002A80F27982069A5242CDE90623B2
:100D000098F8001046F0040661E598F800106C2988
:100D100003BF98F8011046F0200608F1010846F0DC
:100D2000100654E598F80010682903BF98F80110E0
:100D300046F4007608F1010846F0400647E546F023
:100D400010030393039B13F0200200F01F82079B04
:100D5000073323F0070319465A6851F8083B0791F7
:100D600001212DE698F800108DF843402FE5079AF1
:100D700046F00203039352F8043B079247F6300211
:100D8000ADF84420A54A0C920221002218E6B706CD
:100D900000F14082F50600F13883740600F1C78344
:100DA000B00540F13283079B059953F8042B079354
:100DB0001170E4E498F8001046F0010607E59DF88C
:100DC0004330002B7FF488AD202398F800108DF875
:100DD0004330FCE498F8001046F08006F7E4424601
:100DE00012F8011B2A2900F0E883A1F13003092B36
:100DF00090464FF000073FF6ECAC18F8011B07EBEC
:100E0000870703EB4707A1F13003092BF5D9E0E48D
:100E100003F00701DB0843EA4273D208303153EA9A
:100E20000205204604F8011DF2D1039EF3077FF569
:100E300058AF30293FF454AF3023023804F8013C56
:100E400044AB1B1A039E0493044676E5049B1B9453
:100E500001221C931A9319920DF16C0909F10809EA
:100E600085E60DF16C098AE40699039D4D1B002D62
:100E70007FF75EAE102D40F39283099418EE104A6E
:100E800007E002F1020C09F108090246103D102D9D
:100E90001EDD6349C9F80010501C103310210728CB
:100EA000CDE91903C9F80410EBDD18AA002B00F0F6
:100EB0008680214658460DF16C09FFF7E1FB0028BA
:100EC00074D1DDE91923103D102D02F1010CE0DC95
:100ED000099C534AC9F804502B44BCF1070FCDE9D3
:100EE00019C3C9F8002040F38881002B00F0FA8272
:100EF00018EE101A18AA5846FFF7C2FB002855D161
:100F00000499DDE919237D1A002D02F101000DF18C
:100F10006C097FF712AE102D2BDDCDF82480102741
:100F2000B046264618EE104A06E0901C09F1080962
:100F30000A46103D102D18DD511C39481033072981
:100F4000C9E90007CDE91913EFDD18AA2146FBB165
:100F500058460DF16C09FFF793FB38BBDDE9192307
:100F6000103D102D02F10100E6DC34464646DDF866
:100F700024802B4AC9F804502B440728CDE91903D3
:100F8000C9F8002000F3E38009F108090130D4E535
:100F900001201A460DF16C09CBE718EE101A18AAB9
:100FA0005846FFF76DFB00283FF4F4AD089B002B7B
:100FB0003FF454AD0899584600F0CAFD4EE54FF095
:100FC000010C1A460DF16C0960E7002B00F0F4806B
:100FD00018EE101A18AA5846FFF752FB0028E5D160
:100FE000DDE919230DF16C09501C7DE5022311AADE
:100FF0001C931B9201200DF16C09024609F10809AE
:10100000501C91E5039657E6102D40F3AF820F94E4
:10101000DDE9190318EE104A0CE000BF4C37000060
:101020007837000000F1020C09F108091046103D64
:10103000102D1CDDAD49C9F80010421C10331021E1
:10104000072ACDE91923C9F80410EBDD18AAFBB172
:10105000214658460DF16C09FFF712FB0028A5D177
:10106000DDE91903103D102D00F1010CE2DC0F9CAD
:1010700062469E49C9F804502B44072ACDE919233A
:10108000C9F8001000F3A08009F10809501C17E509
:1010900018464FF0010C0DF16C09C8E7750719935C
:1010A0004CD5069A0399541A002C47DD0DF16C09B2
:1010B000102C40F36C82199918EE106A102506E086
:1010C000881C09F108091146103C102C1ADD4A1C35
:1010D00086481033072AC9E90005CDE91923EFDD59
:1010E00018AA33B331465846FFF7CAFA00287FF4EE
:1010F0005DAFDDE91913103C102C01F101000DF179
:101100006C09E4DC794AC9F8044023440728CDE996
:101110001903C9F800207FF732AD7BB118EE101A21
:1011200018AA5846FFF7ACFA00287FF43FAF1A9B85
:1011300025E5012019460DF16C09C5E7DDE9053209
:1011400003998A42ACBF9B185B18059322E5002BDC
:101150003FF47CAE18EE101A18AA5846FFF790FA22
:1011600000287FF423AF19981A9B01300DF16C0908
:10117000E3E419920DF16C0966E4002F7FF4D5AB1E
:10118000039E0027049744ACFFF7D7BB039B13F0E3
:10119000100338D1039A12F0400000F049810799FA
:1011A0001A4651F8043B07919BB2012108E4012043
:1011B0001A460DF16C09B7E4099A002A43D11A4680
:1011C00001200DF16C09AFE4002B74D018EE101A59
:1011D00018AA5846FFF754FA00287FF4E7AEDDE975
:1011E00019230DF16C09501C6AE498F8001007935C
:1011F000FFF7EDBA44ACFFF7A0BB09F108090CF109
:101200000100624694E4079951F8043B07910121DB
:10121000FFF7D6BB079B059853F8041B0793C2172B
:10122000C1E90002FFF7ABBA0B9B002B3FF454ABB4
:101230000B9B1B78002B3FF44FAB98F8001046F443
:101240008066FFF7C4BA11AA02231B921C930122E5
:101250000DF16C09D2E6039674E5254B0C9316F05C
:1012600020025FD0079B073323F0070318465A6814
:1012700050F8083B0790F40709D553EA020006D05E
:101280008DF84510302146F002068DF8441026F402
:10129000806103910221FFF793BB164B0C93DEE7AD
:1012A000079B012153F8042B03918DF8AC20079381
:1012B00004912BACD8E49DF84320002A40F02C8107
:1012C000099A002A7FF492AE1A4601200DF16C09AA
:1012D0002EE40021082216A81394FFF77FF9791C49
:1012E00000F0B680002507942C4612E06837000015
:1012F0004C370000383700002BA9584600F0AAF9F7
:10130000421C204400F04D81B84208DC00F05281BC
:101310000446139A525916AB0435002AECD10494B2
:10132000079CA3E016F0100307980CD116F04004B8
:1013300005D01A4650F8043B07909BB29BE716F481
:10134000007240F0E38050F8043B079093E7039964
:10135000049744AC9E4608EE90BA01F480664FF0C4
:10136000000C234606E0BEF10A0F72F1000239D3E9
:10137000A6462A469A491EEB020040F100000F469D
:10138000A1FB001424F0030101EB9401401ABEEB11
:1013900000014FF0CC3562F1000405FB01F507FBBD
:1013A0000455A1FB07410D44052704F00101A1FBF1
:1013B000071B09186408303103F8011C44EAC5749E
:1013C0000CF1010C013B6D08002ECCD00B99097873
:1013D0006145C8D1BCF1FF0FC5D0BEF10A0F72F153
:1013E000000267D21C4644AB1B1B049F039E049360
:1013F00018EE90BAFFF7A1BA0396FFF791BA012948
:1014000003967FF45CACFFF790BA079B059953F8FD
:10141000042B11600793FFF7B2B9062F3B46039ADE
:10142000704C079228BF062304930393FFF731BB48
:10143000039B079913F4007214BF51F8043B51F851
:10144000043B07911CBF0246DBB20121FFF7B8BA8B
:1014500016AB00930023194613AA584600F020F952
:1014600003460133049000F09C801394049B002BEE
:1014700030D0632B6BDC002308932BAC08220021B7
:1014800016A8FFF7ABF8049D16AB009313AA2B46E2
:101490002146584600F004F9854240F09980039BAC
:1014A000049A07930023A3541F4622EAE27303938E
:1014B000FFF74ABA0E9A0D999B1A1846089301F045
:1014C0004DFD0B99089B4A780AB101310B914FF001
:1014D000000C4DE7039B0793049B03931F4608935F
:1014E000FFF732BA01201A460DF16C09FFF720BB55
:1014F00051F8043B07910246DBB2FFF75DBA12F9DF
:10150000043B0792DA171146FFF7FDB950F8043B88
:1015100007902246DBB2AEE601231C9301200DF1B9
:1015200043031B930DF16C090346FFF7D9BA079BE0
:10153000059953F8042B07931180FFF720B918EE93
:10154000101A18AA5846FFF79BF8FFF787BA591CDC
:10155000584600F01BFE044618B308908EE7039B24
:101560000793CDE90377089FFFF7EEB9199A1A9B05
:1015700001327EE5039B0793204601F081FC20EABF
:10158000E0732F46049003930895FFF7DDB919988F
:101590000130B7E54FF0FF330593FFF766BA844695
:1015A00097E418EE102AB2F90C3043F0400393810F
:1015B000FFF758BA079C049758E7079B98F8011063
:1015C00053F8047B0793904647EAE777FFF7FFB8A5
:1015D00018EE102A938943F040039381E6E400BF9C
:1015E000CDCCCCCC6037000070B50C468989ADF508
:1015F0008D6D21F00201ADF80C10616E1991E18939
:10160000ADF80E10E1690791616A09911AA900917C
:1016100004914FF480610291059100210691694681
:101620000646FFF769F8051E07DB6946304600F0FD
:1016300045F9002818BF4FF0FF35BDF80C305B06A8
:1016400003D5A38943F04003A38128460DF58D6D92
:1016500070BD00BF70B5054684B05BB11C4669B172
:101660000E4B2846D3F8E0602346B047431C0FD00A
:1016700004B070BD00F58A740029F1D1074A2346F1
:10168000D2F8E06028460A4601A9B047431CEFD1D2
:1016900000228A2322602B6004B070BD3004002039
:1016A00010B582B0049CCDE900344FF0FF3301F057
:1016B00063FD02B010BD00BF38B5334B1B68054653
:1016C0000C460BB19A6B12B3B4F90C3018079AB2EE
:1016D00025D5216900292DD012F0010007D0002066
:1016E000A06060694042A06139B1002038BD950713
:1016F00058BF6069A0600029F7D1120658BF08469C
:10170000F4D543F04003A3814FF0FF3038BD1846B5
:1017100000F05CF9B4F90C3018079AB2D9D4D106AC
:101720002AD5520714D4216943F00803A3819AB241
:101730000029D1D102F42070B0F5007FCCD0214631
:10174000284600F0B3FCB4F90C3021699AB2C3E723
:10175000216B51B104F14002914204D0284600F0BF
:10176000F7F9B4F90C300022226321690022C4E9A0
:10177000001223F02403D7E7092243F040032A6034
:101780004FF0FF30A38138BD00000020B1F90C20DC
:101790002DE9F0410C461107804647D4636842F4B6
:1017A0000062002BA2815EDDA56A002D58D00023C7
:1017B000D8F80060C8F8003093B212F4805256D1C5
:1017C0000123E1694046A847431C67D0A389A56A65
:1017D0005F0705D56368C01A236B0BB1E36BC01AB2
:1017E000E169024600234046A847411C41D1D8F890
:1017F0000030002B3DD01D2B01D0162B56D1A389D4
:101800002269226023F4006300216160A381216BBF
:10181000C8F8006021B304F14003994202D0404669
:1018200000F096F900202063BDE8F0812669BEB182
:1018300093B2256826609A070CBF63690023AD1B2D
:10184000A3600BE02B463246E169676A4046B84721
:10185000B0F1000CA5EB0C05664417DD002DF1DCA2
:101860000020BDE8F081E36B002B9DDCF8E7206DE4
:10187000AEE7B4F90C302269226023F40063A3813F
:101880000022DB046260C2D52065C0E7A38943F073
:1018900040034FF0FF30A381BDE8F081D8F800305D
:1018A000002B93D01D2B06D0162B04D0A38943F018
:1018B0004003A381D5E7C8F80060D1E738B50D46ED
:1018C000044608B1836B1BB1B5F90C0030B938BDC3
:1018D00000F07CF8B5F90C000028F8D02946204625
:1018E000BDE83840FFF752BF014900F0B1BB00BF6F
:1018F000093200002DE9F84F2D4A4668C2630024E2
:101900000323C0E9B843074600F53B720423C0F83F
:10191000E8222146C6E902430822C6E90044C6E996
:1019200004447466B46106F15C00FEF757FEDFF80C
:101930008CB0BD68DFF888A0DFF88890DFF8888079
:101940001C4BC6F824A0C6E9076BC6F82890C6F859
:101950002C800822EB60C5E90044C5E904446C66AC
:10196000AC60AC61214605F15C00FEF737FEC5E9CD
:10197000075BC5E909A9C5F82C80FD680E4BEB6033
:10198000C5E90044C5E904446C66AC60AC6121461D
:10199000082205F15C00FEF721FE0123C5E9075B83
:1019A000C5E90A98C5F824A0BB63BDE8F88F00BF5D
:1019B000E91800000900010012000200F12D0000EA
:1019C000152E0000552E0000752E0000836B03B10C
:1019D0007047FFF78FBF00BF704700BF704700BF61
:1019E0002DE9F04782B082468846144600F054FB49
:1019F000012803D108F1FF33FE2B36D9424604F10A
:101A00005C0301A95046FFF725FE421C064632D072
:101A100030B39DF804C00DF10509002509E02368E5
:101A20005A1C226083F800C00135B54218D219F85B
:101A300001CBA368013B002BA360F0DAA769BB428E
:101A400061462246504602DBBCF10A0FE7D101F0A5
:101A5000B7FA431CE8D10646304602B0BDE8F0872D
:101A60004646304602B0BDE8F0875FFA88FC8DF844
:101A700004C00646CFE7A389304643F04003A38164
:101A800002B0BDE8F08700BFB2F90C3013F4005F7C
:101A90000BD110B4546E43F4005344F40054546614
:101AA00093815DF8044BFFF79BBFFFF799BF00BF21
:101AB000F8B5244F0C46064600F098FFBB685D68F9
:101AC000C4F57E610F3125F003054B1923F47F63C4
:101AD00023F00F03A3F58054B4F5805F07DB0021EA
:101AE000304601F073F9BB682B44984204D030466D
:101AF00000F07EFF0020F8BD6142304601F066F93B
:101B000001300DD0104ABB682D1B45F001055D600A
:101B1000136830461B1B136000F06AFF0120F8BDFC
:101B20000021304601F052F9BA68831A0F2BDEDD2E
:101B300043F001035360054B03491B68C01A08605A
:101B4000D5E700BF9C050020AC0A0020A4090020B6
:101B5000002961D0F8B50C46064600F047FF54F85E
:101B6000042C7B4FA4F1080522F0010105EB010CC8
:101B7000B868DCF80430604523F0030300F08B8084
:101B8000D207CCF8043032D454F8082CAD1A1144E2
:101B9000AA6807F1080082426AD00CEB0304D4F86B
:101BA00004E0EC68D4601EF0010FA26000F09780A2
:101BB00041F001036B60CCF80010B1F5007F35D225
:101BC0007868CB080122490901338A40024357F85B
:101BD00033107A6007EBC302083AC5E9021247F8EE
:101BE0003350CD603046BDE8F84000F001BF0CEB4B
:101BF00003025268D00710D4194407F10800DCF83A
:101C00000830834273D0DCF80C20DA60936041F036
:101C100001036B606950D0E7704741F00103B1F5F3
:101C2000007F44F8043CCCF80010C9D3B1F5206F14
:101C30004FEA512348D28B0903F1390003F13802EE
:101C4000C300F818FB580838984259D05A6822F057
:101C500003028A4202D99B689842F7D1D868C5E945
:101C600002308560DD603046BDE8F84000F0C0BE5F
:101C70000CEB03025268D20763D40B44DCE9021276
:101C8000CA60916043F001026A603046EB50BDE8E3
:101C9000F84000F0ADBE0B44D10707D454F8082C2F
:101CA000AD1A1344D5E90212CA60916043F00102F3
:101CB0006A60284ABD6012689A4293D8264B304623
:101CC0001968FFF7F5FE8DE7142B0AD9542B1FD89E
:101CD0000B0B03F16F0003F16E02C300B1E719446F
:101CE0008DE703F15C0003F15B02C300A9E741F05B
:101CF0000103C7E90455C5E902006B60695071E74B
:101D000079689210012404FA02F20A437A60A6E785
:101D1000B3F5AA7F06D8CB0B03F1780003F1770265
:101D2000C3008EE740F25452934206D88B0C03F165
:101D30007D0003F17C02C30083E74FF47E737E22B3
:101D40007FE741F001036B60CCF800104AE700BF69
:101D50009C050020A8090020DC0A00209368002BC5
:101D600000F085802DE9F04FB1F90C300C461907D1
:101D7000804683B0174698B225D523691BB310F06F
:101D800002033D682DD04FF0000ADFF8C0B256467E
:101D9000B9465E453346524628BF5B464046002E54
:101DA00052D0E169676AB847002856DDD9F8083093
:101DB0001B1A8244361AC9F80830002BE9D10020DA
:101DC00003B0BDE8F08F21464046FFF775FC0028C0
:101DD00040F03881B4F90C303D6898B210F002033D
:101DE000D1D110F0010944D14E46009746B3820587
:101DF000D4F808B040F18580B3455A4600F2B4806B
:101E000010F4906F40F0C18020680192494600F0C4
:101E100071FDA368019AA3EB0B012368A160134431
:101E2000B24623600026009A9368A3EB0A03D144CC
:101E30009360002BC3D0B4F90C0080B2002ED6D131
:101E4000D5E900960835D1E7D5E900A60835A0E721
:101E500021464046FFF732FD88B3B4F90C3043F019
:101E600040034FF0FF30A38103B0BDE8F08F0020A6
:101E700070471E46BA469946184600951F4666B3F7
:101E8000002832D04A46D4E904132068A568B2423B
:101E900028BF3246884204D905EB030B5A4500F3AC
:101EA000A780934264DCE169656A3A464046A847E8
:101EB000B0F1000BD1DDB9EB0B09C9D00120DAF884
:101EC0000830A3EB0B035F44A6EB0B06CAF80830FF
:101ED000002B3FF474AF002ED2D1009A56681346FF
:101EE00008320092002EF8D01F6832460A21384688
:101EF00000F016FC002800F09C800130A0EB0709E0
:101F0000C0E720682369984216D86269B24213D8A4
:101F10006FF00043B34228BF3346E16993FBF2F30D
:101F2000676A02FB03F340464A46B847B0F1000A2D
:101F300093DDA6EB0A0676E7B345DA4628BFB2463C
:101F40005246494600F0D6FCA3682268A3EB0A0378
:101F50005244A3602260002BEBD121464046FFF79C
:101F6000ADFC0028E5D078E72068B34632464CE760
:101F70003946019200F0BEFC019AA3689B1AA36047
:101F8000236813442360934695E723682169A3EBF4
:101F9000010B636903EB430A0AEBDA7A0BF10103E5
:101FA0004FEA6A0A33445345524684BF9A46524622
:101FB00043052CD51146404600F0E8F800283BD0F8
:101FC0005A462169019000F0FBFBA289019B22F493
:101FD000906242F08002A28103EB0B002361AAEB26
:101FE0000B03C4F814A0A3602060B34632460CE78C
:101FF00039465A4600F07EFC23685B442360214644
:102000004046FFF75BFC00283FF455AF25E740460C
:1020100000F0F0FC03460028DED121694046FFF7BE
:1020200097FDB4F90C300C2223F08003C8F800208F
:1020300015E7721C914626E70C22B4F90C30C8F85B
:1020400000200CE74FF0FF30BAE600BF00FCFF7F36
:102050002DE9F8430746884600F538764FF0000929
:10206000D6E90154013D11D4A389012B05F1FF35B7
:1020700008D9B4F90E300133214603D03846C047A1
:1020800049EA00096B1C04F16804EDD13668002EA2
:10209000E6D14846BDE8F883014B93F82801704724
:1020A0003004002000487047200500202DE9F04151
:1020B0008B890C46990796B008D504F14303012299
:1020C000C4E90432236016B0BDE8F081B4F90E1003
:1020D0000029064627DB6A4601F0DAF8002821DBF2
:1020E000019D05F47045A5F50055B5FA85F54FF449
:1020F00080686D094FF400674146304600F046F8AD
:10210000B4F90C30F0B1204AF26343F08003C4F814
:102110001480A3812060206135BB3B43A38116B0AE
:10212000BDE8F081A38913F0800519D04FF0400875
:102130004146304600F02AF80025B4F90C302F460D
:102140000028E0D19A05BED423F0030304F1430232
:1021500043F002030121C4E90421A3812260B2E714
:102160004FF480682F46C7E7B4F90E10304601F0EF
:10217000A5F810B9B4F90C30CFE7A38923F0030315
:1021800043F001031BB2C8E7E91800002DE9F04F46
:1021900001F10B06162E83B0044624D8102900F254
:1021A000BA8000F023FC102618220220B54F3A44D2
:1021B000A2F1080153688B4200F0BA805A68D968CE
:1021C00022F003021A449D68E9608D60516841F075
:1021D00001012046516003F1080500F009FC284682
:1021E00003B0BDE8F08F36F0070600F19480B142ED
:1021F00000F2918000F0FAFBB6F5FC7FC0F09A8106
:10220000730A00F08F80042B00F26F81B30903F191
:10221000390003F1380CC3009A4F3B44A3F1080581
:102220005B689D4206D10CE0002980F22781DB68C3
:102230009D4206D05A6822F00302911B0F29F3DD5C
:1022400060463D69DFF850C265457CD06A6822F07F
:102250000302931B0F2B00F37B81002BC7E904CCF7
:1022600080F26C81B2F5007F80F01A81D308796822
:1022700001334FEA521E012202FA0EF20A4357F8C6
:1022800033E0C5F808E007EBC3010839E9607A607C
:1022900047F83350CEF80C508310012199409142F9
:1022A00057D8114206D120F003004900114200F135
:1022B0000400FAD007EBC0094D468646D5F80C80DD
:1022C000454508D11DE1002B80F22481D8F80C800F
:1022D000454500F01681D8F8042022F00302931B34
:1022E0000F2BF0DD2046D8E9025408EB060146F03A
:1022F0000106C8F80460EC60A56043F00104C7E97A
:102300000411C1E902CC4C6048F8023000F070FBC7
:1023100008F1080502E00C2323600025284603B0DD
:10232000BDE8F08F4FF4007340204FF03F0C73E78F
:10233000D3689A4208BF02307FF440AF3D69DFF8AE
:1023400058C1654582D17A68831001219940914234
:10235000A7D9BD686B6823F003094E4503D8A9EBE4
:1023600006030F2B7ADCDFF834B1474BDBF8002093
:102370001B680132334405EB090A00F0338103F591
:1023800080530F3323F47F6828F00F08414620461E
:1023900000F01CFD411C024600F0F380824500F273
:1023A000EE803A4B196841441960084600F04E81AE
:1023B000DBF80010019301311BBFA2EB0A010918E1
:1023C000CBF80020196012F0070B00F01781CBF159
:1023D00008010A44CBF5805190440831A1EB080173
:1023E000C1F30B0A51462046009200F0EFFC421C5C
:1023F000DDE9002300F04F81801A00EB0A0819681C
:10240000BA6048F001005144BD425060196000F0CC
:102410002981B9F10F0F40F227816868A9F10C0CEE
:102420002CF0070C00F0010040EA0C0068604FF04F
:10243000050E05EB0C00BCF10F0FC0E901EE00F238
:10244000328150681546124B1A688A4238BF1960AB
:10245000104B1A688A4238BF196094E0AA1943F0F9
:10246000010346F001066E602046BA60536000F03A
:10247000BFFA0835284603B0BDE8F08FD9681A4482
:10248000A1E600BF9C050020DC0A0020AC0A002069
:10249000D40A0020D80A0020A4050020A4090020A6
:1024A000B2F5206F4FEA522363D3142B00F2B780AA
:1024B00003F15C01C9005B3307EB010E7958AEF103
:1024C000080E8E4500F091804B6823F00303934281
:1024D00002D989688E45F7D1D1F80CE07A68C5E950
:1024E000021ECEF80850CD60D6E6142B59D9542BD5
:1024F00000F29D80330B03F16F0003F16E0CC300FB
:102500008AE60EF1010E1EF0030F05F108057FF4B7
:10251000D5AE51E0424445465368D8F80C1043F01C
:102520000103536055F8083F2046D9608B6000F0E6
:102530005FFAF3E6F00806F1080237E62A4420467F
:10254000536843F001035360083500F051FAE5E6A3
:10255000A919204646F0010643F001046E60C7E960
:102560000411C1E902CC4C60AB5000F041FA0835CF
:10257000D4E6930903F13901C90038339CE7BD4221
:102580005FD0BD68686820F003084645A8EB0603E5
:1025900002D80F2B3FF762AF204600F029FA002542
:1025A000BCE603F15C0003F15B0CC30034E659F8B0
:1025B00008394B4540F0968010F0030F00F1FF30D2
:1025C000F5D17B6823EA01037B60490099423FF61D
:1025D000C0AE19B9BDE649000EF1040E1942FAD099
:1025E000704667E603F11008D0E69A104FF0010834
:1025F0007B6808FA02F21A437A6070E702EB08017E
:102600004942C1F30B0A51462046009200F0DEFB1E
:10261000431CDDE900237FF4EFAEDA46EFE6542BEE
:1026200025D8130B03F16F01C9006E3344E7B3F5EE
:10263000AA7F25D8F30B03F1780003F1770CC300D0
:10264000EAE5294B186840441860B1E6CAF30B0C60
:10265000BCF1000F7FF4ACAEBD68C84448F0010087
:102660006860F0E61546EEE60123536094E7B3F5A3
:10267000AA7F23D8D30B03F17801C90077331BE776
:1026800040F25452934223D8B30C03F17D0003F17E
:102690007C0CC300C0E5ABF1080BD844A8EB0208E2
:1026A0004FF0000AABE605F1080120460093FFF762
:1026B0004FFABD68009B68681968C4E640F254513F
:1026C0008B420BD8930C03F17D01C9007C33F3E6F8
:1026D0004FF47E737F204FF07E0C9DE54FF47E71AA
:1026E0007E23E9E67B6870E7AC0A002082B049B13E
:1026F0005AB16BB113780B601278101E18BF01200D
:1027000002B0704701A9002AF3D1104602B0704709
:102710006FF00100F4E700BF0000000000000000BF
:1027200001F0FF01102A2BDB10F0070F08D010F882
:10273000013B013A8B422DD010F0070F42B3F6D186
:10274000F0B441EA012141EA014122F007047FF09F
:1027500000070023F0E80256083C85EA010586EAF6
:10276000010685FA47F5A3FA87F586FA47F6A5FA32
:1027700087F68EB9EED1F0BC01F0FF0102F007023E
:1027800032B110F8013B013A83EA010313B1F8D1E9
:102790000020704701387047002D06BF35460338CA
:1027A000073815F0010F07D1013015F4807F02BF03
:1027B000013015F4C03F0130F0BC0138704700BF54
:1027C000844641EA000313F003036DD1403A41D33C
:1027D00051F8043B40F8043B51F8043B40F8043BFB
:1027E00051F8043B40F8043B51F8043B40F8043BEB
:1027F00051F8043B40F8043B51F8043B40F8043BDB
:1028000051F8043B40F8043B51F8043B40F8043BCA
:1028100051F8043B40F8043B51F8043B40F8043BBA
:1028200051F8043B40F8043B51F8043B40F8043BAA
:1028300051F8043B40F8043B51F8043B40F8043B9A
:1028400051F8043B40F8043B51F8043B40F8043B8A
:10285000403ABDD2303211D351F8043B40F8043B2A
:1028600051F8043B40F8043B51F8043B40F8043B6A
:1028700051F8043B40F8043B103AEDD20C3205D33A
:1028800051F8043B40F8043B043AF9D2043208D032
:10289000D2071CBF11F8013B00F8013B01D30B88A4
:1028A00003806046704700BF082A13D38B078DD082
:1028B00010F003038AD0C3F10403D21ADB071CBF54
:1028C00011F8013B00F8013B80D331F8023B20F8BE
:1028D000023B7BE7043AD9D3013A11F8013B00F8F7
:1028E000013BF9D20B7803704B7843708B7883707F
:1028F0006046704788420DD98B1883420AD900EB95
:10290000020CBAB1624613F801CD02F801CD99422A
:10291000F9D170470F2A0ED8034602F1FF3C4AB1A5
:102920000CF1010C013B8C4411F8012B03F8012F31
:102930006145F9D1704740EA01039B0750D1A2F1EC
:10294000100370B501F1200C23F00F0501F1100EFA
:1029500000F11004AC441B095EF8105C44F8105CF4
:102960005EF80C5C44F80C5C5EF8085C44F8085CAB
:102970005EF8045C44F8045C0EF1100EE64504F1C8
:102980001004E9D1013312F00C0F01EB031102F036
:102990000F0400EB031327D0043C24F003064FEA96
:1029A000940C1E441C1F8E465EF8045B44F8045FC2
:1029B000B442F9D10CF1010402F0030203EB8403E9
:1029C00001EB840102F1FF3C4AB10CF1010C013B27
:1029D0008C4411F8012B03F8012F6145F9D170BD2A
:1029E00002F1FF3C03469BE72246EBE7704700BF3E
:1029F000704700BF2DE9F84F1746002900F0988076
:102A00000C4607F10B058046FFF7F0FF162D54F832
:102A1000041C5BD810252A46AF425CD821F003067F
:102A20009642A4F1080962DABC4BD3F808C009EB5E
:102A30000600844500F09780D0F804C02CF0010314
:102A400003445B68DB0768D42CF0030C06EB0C0333
:102A5000934247DACB0710D454F8083CA9EB030A99
:102A6000DAF8043023F003018C44B444944580F236
:102A700011817318934280F2E88039464046FFF78F
:102A800085FB0746E0B154F8043C23F001034B44B6
:102A9000A0F10802934200F0D280321F242A00F2F3
:102AA000F580132A00F2AC800346224611681960B3
:102AB0005168596092689A6021464046FFF748F88D
:102AC0004046FFF795FF3846BDE8F88F25F007052B
:102AD000002D2A46A0DA0C23C8F80030002738461B
:102AE000BDE8F88F1E46D0E90223D3609A60731BBD
:102AF0000F2B22D8D9F8043003F0010333434E449E
:102B0000C9F80430736843F00103736040462746F8
:102B1000FFF76EFF3846BDE8F88FC907ADD454F80B
:102B2000083CA9EB030ADAF8041021F00301A0E73E
:102B3000BDE8F84F1146FFF729BBD9F8042009EB8F
:102B4000050102F001024E4443F001032A43C9F893
:102B500004204B60736843F0010308317360404602
:102B6000FEF7F6FFD2E7DCF8040020F0030B06EBDB
:102B70000B0C05F1100084454DDAC9073FF57DAF18
:102B800054F8081CA9EB010ADAF8041021F003013B
:102B90008B44B34458453FF76CAF5746DAF80C10F6
:102BA00057F8080F321F242AC160886000F2DB80CA
:102BB000132A40F2D6802168CAF808106168CAF862
:102BC0000C101B2A00F2DF8008340AF11002216881
:102BD000116061685160A16891600AEB0501ABEB7F
:102BE000050242F0010299604A60DAF8043003F00D
:102BF00001032B434046CAF80430FFF7F9FE6EE7A5
:102C000023680360636843601B2A68D804F10802E4
:102C100000F108034AE709EB05029A60ACEB0503F3
:102C200043F00103536054F8043C03F001032B43C9
:102C3000404644F8043CFFF7DBFE27464FE750F8D8
:102C4000043C23F003031E4451E75746DAF80C1006
:102C500057F8080F321F242AC16088604CD8132A05
:102C600048D92168CAF808106168CAF80C101B2AF4
:102C700056D808340AF110021E46236813606368B0
:102C80005360A3689360D1463C4630E72146FFF786
:102C900031FE11E7D0E902135746CB60996057F82F
:102CA000081FDAF80C30CB60321F242A99602DD827
:102CB000132A29D92368CAF808306368CAF80C3087
:102CC0001B2A42D808340AF1100322681A6062688D
:102CD0005A60A2689A606646D1463C4607E7A368F8
:102CE0008360E368C360242A26D004F1100200F157
:102CF0001003DBE63A46BFE7214638461E46D1467A
:102D0000FFF7F8FD3C46F2E63B46DEE72146384653
:102D10006646D146FFF7EEFD3C46E8E69C050020FE
:102D2000A168CAF81010E168CAF81410242A20D04B
:102D300010340AF118029FE7236903616169416158
:102D400004F1180200F11803B0E6A368CAF81030C5
:102D5000E368CAF81430242A21D010340AF1180389
:102D6000B3E73A4633E721463846FFF7C3FD164B33
:102D700033E72269CAF818206269CAF81C2018349F
:102D80000AF1200278E7A168CAF81010E168CAF8D1
:102D90001410242A0DD010340AF1180217E7236901
:102DA000CAF818306369CAF81C3018340AF12003D5
:102DB0008BE72269CAF818206269CAF81C20183407
:102DC0000AF1200203E700BF9C05002038B5074D3B
:102DD0000022044608462A60FDF712FB431C00D07F
:102DE00038BD2B68002BFBD0236038BDE00A0020E3
:102DF00010B50C46B1F90E1000F088FA002803DB7C
:102E0000236D0344236510BDA38923F48053A3815C
:102E100010BD00BF2DE9F0410C46B1F90C101F4662
:102E2000CB05054616460BD421F48051A1813B46C3
:102E3000B4F90E1032462846BDE8F04100F0BCB9A6
:102E4000B4F90E100223002200F04AFAB4F90C1073
:102E5000EAE700BF10B50C46B1F90E1000F040FAD9
:102E6000A389421C0EBF23F4805343F48053206592
:102E7000A38110BDB1F90E1000F0B4B9000000003C
:102E800090F800F06DE9024520F007016FF0000CAA
:102E900010F0070491F820F040F049804FF0000452
:102EA0006FF00700D1E9002391F840F000F108002D
:102EB00082FA4CF2A4FA8CF283FA4CF3A2FA8CF365
:102EC0004BBBD1E9022382FA4CF200F10800A4FACC
:102ED0008CF283FA4CF3A2FA8CF3E3B9D1E9042320
:102EE00082FA4CF200F10800A4FA8CF283FA4CF357
:102EF000A2FA8CF37BB9D1E9062301F1200182FA11
:102F00004CF200F10800A4FA8CF283FA4CF3A2FA16
:102F10008CF3002BC6D0002A04BF04301A4612BA24
:102F2000B2FA82F2FDE8024500EBD2007047D1E927
:102F3000002304F00305C4F100004FEAC50514F0B6
:102F4000040F91F840F00CFA05F562EA05021CBF87
:102F500063EA050362464FF00004A9E740EA010373
:102F60009B0730B501D1032A0FD8844601F1FF3EFB
:102F700007E01EF8011F03F8011B541EC1B19C4657
:102F800022466346002AF4D130BD0B4684461946DA
:102F900053F8045BA5F1013424EA050414F0803FE2
:102FA000E4D1043A032A4CF8045B1946EFD8DDE774
:102FB0009444002CE8D003F8011B6345FBD130BDDD
:102FC000F8B50D461446064610B1836B002B43D06E
:102FD000B4F90C20A369A360170790B21BD523692D
:102FE000CBB1EDB281042F4622D522686169D31A94
:102FF000994229DD0133A1680139A160511C21608A
:10300000157062699A422AD0A389DB0701D50A2D7F
:1030100025D03846F8BD21463046FEF74DFB20BB93
:10302000B4F90C20236990B2EDB281042F46DCD4B0
:1030300042F40052A281626E616922F4005262661B
:103040002268D31A9942D5DC21463046FEF736FC79
:1030500058B922680123CEE7FEF7B8FCB8E721464D
:103060003046FEF72BFC0028D3D04FF0FF37D0E7D7
:103070002DE9F04F8BB0DDE9158A149F039181464D
:1030800005921E46B8F1000F5CD0039B002B5ED06A
:10309000059B1D68002F6AD0741E4EB3039B0493DA
:1030A000043D002601950BE0039B2BBB019B1A6896
:1030B000002A3AD0BC455CD2013C631C664617D05E
:1030C000D8F800300293019BDAF8E05053F8042F4F
:1030D000019307A943464846D8F804B0A847421CC4
:1030E0003AD000EB060CBC45DED9029BC8E9003B98
:1030F00030460BB0BDE8F08F00280EDD049B019D2B
:1031000018445A1E07A900F1FF3E11F8013B02F8CE
:10311000013F7245F9D101950490059B1A6804326C
:103120001A60019B1A68002AC4D1039B0BB1059B4E
:103130001A600CF1FF3600223046C8F800200BB0B0
:10314000BDE8F08F039B00F58E78002BA0D1059B86
:103150004FF0FF371D689FE706468A210022304660
:10316000C9F80010C8F800200BB0BDE8F08F3E464B
:10317000BEE76646BCE700BF10B584B0054C0698B4
:10318000009007980190044800680294FFF770FFD0
:1031900004B010BD300400200000002049B1FF2A17
:1031A00002D80A70012070478A2303604FF0FF3075
:1031B00070470846704700BF38B50C46084D844636
:1031C000114620461A4600232B606446FDF708F995
:1031D000431C00D038BD2B68002BFBD0236038BDCA
:1031E000E00A002038B5074D0022044608462A6050
:1031F000FDF711F9431C00D038BD2B68002BFBD024
:10320000236038BDE00A002070B539B106460C468F
:1032100008B1836B83B3B4F90C3013B90025284689
:1032200070BD21463046FEF7B1FAE36A054633B178
:10323000E169304698470028B8BF4FF0FF35A389B1
:103240001B0620D4216B41B104F14003994202D006
:103250003046FEF77DFC00232363616C21B13046CC
:10326000FEF776FC00236364FEF7B6FB0023A38120
:10327000FEF7B4FB284670BDFEF7A8FBB4F90C308E
:10328000002BCBD0CDE721693046FEF761FCD9E7B2
:1032900070B50C46084D03460026204611461C46D4
:1032A0002E60FDF7C4F8431C00D070BD2B68002BC6
:1032B000FBD0236070BD00BFE00A002038B5074D89
:1032C0000022044608462A60FDF7BDF8431C00D0E2
:1032D00038BD2B68002BFBD0236038BDE00A0020EE
:1032E00038B50C46084D8446114620461A46002340
:1032F0002B606446FDF7B2F8431C00D038BD2B6844
:10330000002BFBD0236038BDE00A002038B50C4606
:10331000084D8446114620461A4600232B60644619
:10332000FDF7A9F8431C00D038BD2B68002BFBD05B
:10333000236038BDE00A002080B483B000AF78601D
:103340000B46FB701346BB70FB789B001A467B68EC
:1033500013441A46BB78136000BF0C37BD465DF8B6
:10336000047B704780B485B000AF78607B681B0C2D
:10337000DBB2FB601A4B1B680121FA6801FA02F20A
:103380001340002B07D0FB685B000133154A52F84D
:103390002330FB6005E0FB685B00124A52F82330E3
:1033A000FB607B681B0ADBB2BB60FB6803F22C533B
:1033B0001B680F21BA6801FA02F2D2431A407B68F7
:1033C00003F00F01BB6801FA03F3F96801F22C5115
:1033D00013430B6000BF1437BD465DF8047B704794
:1033E0006CE00F40D438000001387FF4FDAF704727
:1033F00000BF000080B487B000AF7E4B1B687B61CC
:103400007D4B1B68FB60FB68002B03DAFB6803F055
:10341000700302E07B6903F03003702B00F08380BF
:10342000702B00F28480602B79D0602B7FD8302BFA
:1034300071D0302B7BD8202B3ED0202B77D8002B7F
:1034400002D0102B09D072E07B699B0903F01F03A7
:103450006A4A52F823303B616BE0694B1B6803F00A
:10346000E043002B06D0664B1A68664B1340B3F15D
:10347000805F02D1644B3B611DE0614B1A68614B78
:103480001340624A934204D15D4B1B689BB2022BEE
:103490000BD05B4B1A685B4B13405D4A934207D1DC
:1034A000574B1B689BB2002B02D15A4B3B6102E089
:1034B000594B3B613DE03CE0514B1B6803F0E0435E
:1034C000002B06D04E4B1A684E4B1340B3F1805F71
:1034D00002D1524B3B611DE0494B1A68494B1340E6
:1034E0004A4A934204D1464B1B689BB2022B0BD035
:1034F000434B1A68434B1340454A934207D1404B14
:103500001B689BB2002B02D1454B3B6102E0454B4F
:103510003B610EE00DE047F230533B6109E04FF4B0
:1035200080033B6105E04FF400433B6101E0002371
:10353000E1E0FB68002B04DAFB6803F40063002B76
:1035400009D0FB68002BC0F29A807B6903F400630A
:10355000002B40F094802A4B1A682A4B1340324AC1
:10356000934226D1314B1B68BB60314B1B687B609B
:103570007B681B0A03F01F0301337A6802F01F0205
:10358000013202FB03F35B003A69B2FBF3F33B61E8
:10359000BB68C3F309033A6903FB02F2BB689B0AE9
:1035A000C3F30903396901FB03F39B0A13443B612D
:1035B00061E0204B1B68BB60114B1B6803F0E043CC
:1035C000002B06D00E4B1A680E4B1340B3F1805FF0
:1035D00032D1BB685B09C3F3080302333A6903FBCA
:1035E00002F2BB6803F01F030233B2FBF3F33B614B
:1035F00031E000BF60E00F4070E00F404C39000048
:1036000000E00F400000FF70C0E1E4000000011086
:1036100000000310001BB7000024F40070383900CC
:10362000C0C62D0000093D000000051060E10F40FC
:1036300064E10F4064E00F40BB685B09C3F308031B
:103640003A6903FB02F2BB6803F01F0301335B001E
:10365000B2FBF3F33B61BB6803F48043002B02D061
:103660003B695B083B61BB6803F40043002B02D05D
:103670003B699B083B617B6943F480037B617B6909
:1036800003F48003002B35D0FB68002B29DAFB689C
:1036900003F08043002B1AD0FB68002B04DAFB6890
:1036A00003F40063002B07D0FB68002B0FDB7B6962
:1036B00003F40063002B0AD13B695A00FB689B0DA1
:1036C00003F07F030133B2FBF3F33B6112E0FB68CD
:1036D000DB0D03F03F0301333A69B2FBF3F33B61C7
:1036E00008E07B69DB0D03F00F0301333A69B2FB9D
:1036F000F3F33B613B6918461C37BD465DF8047B1C
:10370000704700BF1B5B324A456E7465722074655A
:1037100078743A200D0A000068656C6C6F776F72E0
:103720006C642E0D0A000000667265713A256C64A7
:10373000487A0D0A00000000303132333435363714
:1037400038394142434445460000000030313233AD
:1037500034353637383961626364656600000000CD
:10376000286E756C6C29000020202020202020204D
:1037700020202020202020203030303030303030C9
:1037800030303030303030302E0000004C435F435A
:103790004F4C4C41544500004C435F4354595045F5
:1037A000000000004C435F4D4F4E455441525900BC
:1037B0004C435F4E554D4552494300004C435F54C6
:1037C000494D45004C435F4D4553534147455300D8
:1037D00000202020202020202020282828282820E1
:1037E00020202020202020202020202020202020D9
:1037F0002088101010101010101010101010101041
:103800001004040404040404040404101010101030
:1038100010104141414141410101010101010101FA
:10382000010101010101010101010101101010104C
:1038300010104242424242420202020202020202CC
:103840000202020202020202020202021010101020
:103850002000000000000000000000000000000048
:103860000000000000000000000000000000000058
:103870000000000000000000000000000000000048
:103880000000000000000000000000000000000038
:103890000000000000000000000000000000000028
:1038A0000000000000000000000000000000000018
:1038B0000000000000000000000000000000000008
:1038C00000000000000000000000000000000000F8
:1038D0000000000000400040008005400050004013
:1038E000009005400060004000A0054000700040CE
:1038F00000B005400040024000C0054000500240BA
:1039000000D005400060024000E005400070024029
:1039100000F0054000D003400000064000100640C3
:1039200000100640002006400020064000300640FF
:10393000003006400040064000400640005006406F
:1039400000500640006006400060064040420F0004
:1039500000201C0080841E0000802500999E3600F7
:103960000040380000093D0000803E0000004B0090
:10397000404B4C0000204E00808D5B0000C05D007D
:103980000080700000127A0000007D008096980090
:10399000001BB7000080BB00C0E8CE00647ADA00EC
:1039A0000024F4000000FA0080A81201002D31016B
:0839B00000366E0140787D0134
:1039B800080000200000000000000000F4020020C1
:1039C8005C030020C4030020000000000000000089
:1039D80000000000000000000000000000000000DF
:1039E80000000000000000000000000000000000CF
:1039F80000000000000000000000000000000000BF
:103A080000000000000000000000000000000000AE
:103A1800000000000000000000000000000000009E
:103A2800000000000000000000000000000000008E
:103A3800000000000000000000000000000000007E
:103A4800000000000000000000000000000000006E
:103A5800000000000000000000000000000000005E
:103A680001000000000000000E33CDAB34126DE6FB
:103A7800ECDE05000B000000000000000000000064
:103A8800000000000000000000000000000000002E
:103A9800000000000000000000000000000000001E
:103AA800000000000000000000000000000000000E
:103AB80000000000000000000000000000000000FE
:103DE8004300000000000000000000000000000088
:103DF80000000000000000000000000000000000BB
:103E08004300000000000000000000000000000067
:103E1800000000000000000000000000000000009A
:103E28004300000000000000000000000000000047
:103E3800000000000000000000000000000000007A
:103E48004300000000000000000000000000000027
:103E5800000000000000000000000000000000005A
:103E68004300000000000000000000000000000007
:103E7800000000000000000000000000000000003A
:103E880043000000000000000000000000000000E7
:103E9800000000000000000000000000000000001A
:103EA80043000000000000000000000000000000C7
:103EB80000000000000000000000000000000000FA
:103EC8009D310000ED26000000000000D037000002
:103ED80088370000A0370000A0370000A037000096
:103EE800A0370000A0370000A0370000A03700006E
:103EF800A0370000A0370000FFFFFFFFFFFFFFFF14
:103F0800FFFFFFFFFFFF0000010041534349490045
:103F18000000000000000000000000000000000099
:103F28000000000000000000000041534349490020
:103F38000000000000000000000000000000000079
:103F48000000000000000000000000000000000069
:103F5800000000009C0500209C050020A40500200E
:103F6800A4050020AC050020AC050020B405002005
:103F7800B4050020BC050020BC050020C4050020B5
:103F8800C4050020CC050020CC050020D405002065
:103F9800D4050020DC050020DC050020E405002015
:103FA800E4050020EC050020EC050020F4050020C5
:103FB800F4050020FC050020FC0500200406002074
:103FC800040600200C0600200C0600201406002021
:103FD800140600201C0600201C06002024060020D1
:103FE800240600202C0600202C0600203406002081
:103FF800340600203C0600203C0600204406002031
:10400800440600204C0600204C06002054060020E0
:10401800540600205C0600205C0600206406002090
:10402800640600206C0600206C0600207406002040
:10403800740600207C0600207C06002084060020F0
:10404800840600208C0600208C06002094060020A0
:10405800940600209C0600209C060020A406002050
:10406800A4060020AC060020AC060020B406002000
:10407800B4060020BC060020BC060020C4060020B0
:10408800C4060020CC060020CC060020D406002060
:10409800D4060020DC060020DC060020E406002010
:1040A800E4060020EC060020EC060020F4060020C0
:1040B800F4060020FC060020FC060020040700206F
:1040C800040700200C0700200C070020140700201C
:1040D800140700201C0700201C07002024070020CC
:1040E800240700202C0700202C070020340700207C
:1040F800340700203C0700203C070020440700202C
:10410800440700204C0700204C07002054070020DB
:10411800540700205C0700205C070020640700208B
:10412800640700206C0700206C070020740700203B
:10413800740700207C0700207C07002084070020EB
:10414800840700208C0700208C070020940700209B
:10415800940700209C0700209C070020A40700204B
:10416800A4070020AC070020AC070020B4070020FB
:10417800B4070020BC070020BC070020C4070020AB
:10418800C4070020CC070020CC070020D40700205B
:10419800D4070020DC070020DC070020E40700200B
:1041A800E4070020EC070020EC070020F4070020BB
:1041B800F4070020FC070020FC070020040800206A
:1041C800040800200C0800200C0800201408002017
:1041D800140800201C0800201C08002024080020C7
:1041E800240800202C0800202C0800203408002077
:1041F800340800203C0800203C0800204408002027
:10420800440800204C0800204C08002054080020D6
:10421800540800205C0800205C0800206408002086
:10422800640800206C0800206C0800207408002036
:10423800740800207C0800207C08002084080020E6
:10424800840800208C0800208C0800209408002096
:10425800940800209C0800209C080020A408002046
:10426800A4080020AC080020AC080020B4080020F6
:10427800B4080020BC080020BC080020C4080020A6
:10428800C4080020CC080020CC080020D408002056
:10429800D4080020DC080020DC080020E408002006
:1042A800E4080020EC080020EC080020F4080020B6
:1042B800F4080020FC080020FC0800200409002065
:1042C800040900200C0900200C0900201409002012
:1042D800140900201C0900201C09002024090020C2
:1042E800240900202C0900202C0900203409002072
:1042F800340900203C0900203C0900204409002022
:10430800440900204C0900204C09002054090020D1
:10431800540900205C0900205C0900206409002081
:10432800640900206C0900206C0900207409002031
:10433800740900207C0900207C09002084090020E1
:10434800840900208C0900208C0900209409002091
:0C43580094090020FFFFFFFF000002009E
:040000030000028572
:00000001FF
